{
	"event.sol": {
		"EventContract": {
			"abi": [
				{
					"inputs": [
						{
							"internalType": "uint256",
							"name": "id",
							"type": "uint256"
						},
						{
							"internalType": "uint256",
							"name": "qty",
							"type": "uint256"
						}
					],
					"name": "buyTicket",
					"outputs": [],
					"stateMutability": "payable",
					"type": "function"
				},
				{
					"inputs": [
						{
							"internalType": "string",
							"name": "name",
							"type": "string"
						},
						{
							"internalType": "uint256",
							"name": "date",
							"type": "uint256"
						},
						{
							"internalType": "uint256",
							"name": "price",
							"type": "uint256"
						},
						{
							"internalType": "uint256",
							"name": "ticketcount",
							"type": "uint256"
						}
					],
					"name": "createEvent",
					"outputs": [],
					"stateMutability": "nonpayable",
					"type": "function"
				},
				{
					"inputs": [
						{
							"internalType": "uint256",
							"name": "",
							"type": "uint256"
						}
					],
					"name": "events",
					"outputs": [
						{
							"internalType": "address",
							"name": "organizer",
							"type": "address"
						},
						{
							"internalType": "string",
							"name": "name",
							"type": "string"
						},
						{
							"internalType": "uint256",
							"name": "date",
							"type": "uint256"
						},
						{
							"internalType": "uint256",
							"name": "price",
							"type": "uint256"
						},
						{
							"internalType": "uint256",
							"name": "ticketcount",
							"type": "uint256"
						},
						{
							"internalType": "uint256",
							"name": "ticketRemain",
							"type": "uint256"
						}
					],
					"stateMutability": "view",
					"type": "function"
				},
				{
					"inputs": [],
					"name": "nextId",
					"outputs": [
						{
							"internalType": "uint256",
							"name": "",
							"type": "uint256"
						}
					],
					"stateMutability": "view",
					"type": "function"
				},
				{
					"inputs": [
						{
							"internalType": "address",
							"name": "",
							"type": "address"
						},
						{
							"internalType": "uint256",
							"name": "",
							"type": "uint256"
						}
					],
					"name": "tickets",
					"outputs": [
						{
							"internalType": "uint256",
							"name": "",
							"type": "uint256"
						}
					],
					"stateMutability": "view",
					"type": "function"
				},
				{
					"inputs": [
						{
							"internalType": "uint256",
							"name": "id",
							"type": "uint256"
						},
						{
							"internalType": "uint256",
							"name": "qty",
							"type": "uint256"
						},
						{
							"internalType": "address",
							"name": "to",
							"type": "address"
						}
					],
					"name": "transferticket",
					"outputs": [],
					"stateMutability": "nonpayable",
					"type": "function"
				}
			],
			"devdoc": {
				"kind": "dev",
				"methods": {},
				"version": 1
			},
			"evm": {
				"assembly": "    /* \"event.sol\":58:1515  contract EventContract {... */\n  mstore(0x40, 0x80)\n  callvalue\n  dup1\n  iszero\n  tag_1\n  jumpi\n  0x00\n  dup1\n  revert\ntag_1:\n  pop\n  dataSize(sub_0)\n  dup1\n  dataOffset(sub_0)\n  0x00\n  codecopy\n  0x00\n  return\nstop\n\nsub_0: assembly {\n        /* \"event.sol\":58:1515  contract EventContract {... */\n      mstore(0x40, 0x80)\n      jumpi(tag_1, lt(calldatasize, 0x04))\n      shr(0xe0, calldataload(0x00))\n      dup1\n      0x0374ab0b\n      eq\n      tag_2\n      jumpi\n      dup1\n      0x0b791430\n      eq\n      tag_3\n      jumpi\n      dup1\n      0x298ec208\n      eq\n      tag_4\n      jumpi\n      dup1\n      0x61b8ce8c\n      eq\n      tag_5\n      jumpi\n      dup1\n      0x7a5a2462\n      eq\n      tag_6\n      jumpi\n      dup1\n      0xdae7a13c\n      eq\n      tag_7\n      jumpi\n    tag_1:\n      0x00\n      dup1\n      revert\n        /* \"event.sol\":378:722  function createEvent(string memory name,uint date,uint price,uint ticketcount) external{... */\n    tag_2:\n      callvalue\n      dup1\n      iszero\n      tag_8\n      jumpi\n      0x00\n      dup1\n      revert\n    tag_8:\n      pop\n      tag_9\n      0x04\n      dup1\n      calldatasize\n      sub\n      dup2\n      add\n      swap1\n      tag_10\n      swap2\n      swap1\n      tag_11\n      jump\t// in\n    tag_10:\n      tag_12\n      jump\t// in\n    tag_9:\n      stop\n        /* \"event.sol\":258:292  mapping(uint=>Event) public events */\n    tag_3:\n      callvalue\n      dup1\n      iszero\n      tag_13\n      jumpi\n      0x00\n      dup1\n      revert\n    tag_13:\n      pop\n      tag_14\n      0x04\n      dup1\n      calldatasize\n      sub\n      dup2\n      add\n      swap1\n      tag_15\n      swap2\n      swap1\n      tag_16\n      jump\t// in\n    tag_15:\n      tag_17\n      jump\t// in\n    tag_14:\n      mload(0x40)\n      tag_18\n      swap7\n      swap6\n      swap5\n      swap4\n      swap3\n      swap2\n      swap1\n      tag_19\n      jump\t// in\n    tag_18:\n      mload(0x40)\n      dup1\n      swap2\n      sub\n      swap1\n      return\n        /* \"event.sol\":726:1160  function buyTicket(uint id,uint qty) external payable{... */\n    tag_4:\n      tag_20\n      0x04\n      dup1\n      calldatasize\n      sub\n      dup2\n      add\n      swap1\n      tag_21\n      swap2\n      swap1\n      tag_22\n      jump\t// in\n    tag_21:\n      tag_23\n      jump\t// in\n    tag_20:\n      stop\n        /* \"event.sol\":354:372  uint public nextId */\n    tag_5:\n      callvalue\n      dup1\n      iszero\n      tag_24\n      jumpi\n      0x00\n      dup1\n      revert\n    tag_24:\n      pop\n      tag_25\n      tag_26\n      jump\t// in\n    tag_25:\n      mload(0x40)\n      tag_27\n      swap2\n      swap1\n      tag_28\n      jump\t// in\n    tag_27:\n      mload(0x40)\n      dup1\n      swap2\n      sub\n      swap1\n      return\n        /* \"event.sol\":1165:1512  function transferticket(uint id, uint qty, address to) external{... */\n    tag_6:\n      callvalue\n      dup1\n      iszero\n      tag_29\n      jumpi\n      0x00\n      dup1\n      revert\n    tag_29:\n      pop\n      tag_30\n      0x04\n      dup1\n      calldatasize\n      sub\n      dup2\n      add\n      swap1\n      tag_31\n      swap2\n      swap1\n      tag_32\n      jump\t// in\n    tag_31:\n      tag_33\n      jump\t// in\n    tag_30:\n      stop\n        /* \"event.sol\":297:349  mapping(address=>mapping(uint=>uint)) public tickets */\n    tag_7:\n      callvalue\n      dup1\n      iszero\n      tag_34\n      jumpi\n      0x00\n      dup1\n      revert\n    tag_34:\n      pop\n      tag_35\n      0x04\n      dup1\n      calldatasize\n      sub\n      dup2\n      add\n      swap1\n      tag_36\n      swap2\n      swap1\n      tag_37\n      jump\t// in\n    tag_36:\n      tag_38\n      jump\t// in\n    tag_35:\n      mload(0x40)\n      tag_39\n      swap2\n      swap1\n      tag_28\n      jump\t// in\n    tag_39:\n      mload(0x40)\n      dup1\n      swap2\n      sub\n      swap1\n      return\n        /* \"event.sol\":378:722  function createEvent(string memory name,uint date,uint price,uint ticketcount) external{... */\n    tag_12:\n        /* \"event.sol\":485:500  block.timestamp */\n      timestamp\n        /* \"event.sol\":480:484  date */\n      dup4\n        /* \"event.sol\":480:500  date>block.timestamp */\n      gt\n        /* \"event.sol\":472:551  require(date>block.timestamp,\"u can organise event on any other day in future\") */\n      tag_41\n      jumpi\n      mload(0x40)\n      0x08c379a000000000000000000000000000000000000000000000000000000000\n      dup2\n      mstore\n      0x04\n      add\n      tag_42\n      swap1\n      tag_43\n      jump\t// in\n    tag_42:\n      mload(0x40)\n      dup1\n      swap2\n      sub\n      swap1\n      revert\n    tag_41:\n        /* \"event.sol\":578:579  0 */\n      0x00\n        /* \"event.sol\":566:577  ticketcount */\n      dup2\n        /* \"event.sol\":566:579  ticketcount>0 */\n      gt\n        /* \"event.sol\":558:619  require(ticketcount>0,\"u don't have sufficient no of ticket\") */\n      tag_44\n      jumpi\n      mload(0x40)\n      0x08c379a000000000000000000000000000000000000000000000000000000000\n      dup2\n      mstore\n      0x04\n      add\n      tag_45\n      swap1\n      tag_46\n      jump\t// in\n    tag_45:\n      mload(0x40)\n      dup1\n      swap2\n      sub\n      swap1\n      revert\n    tag_44:\n        /* \"event.sol\":644:701  Event(msg.sender,name,date,price,ticketcount,ticketcount) */\n      mload(0x40)\n      dup1\n      0xc0\n      add\n      0x40\n      mstore\n      dup1\n        /* \"event.sol\":650:660  msg.sender */\n      caller\n        /* \"event.sol\":644:701  Event(msg.sender,name,date,price,ticketcount,ticketcount) */\n      0xffffffffffffffffffffffffffffffffffffffff\n      and\n      dup2\n      mstore\n      0x20\n      add\n        /* \"event.sol\":661:665  name */\n      dup6\n        /* \"event.sol\":644:701  Event(msg.sender,name,date,price,ticketcount,ticketcount) */\n      dup2\n      mstore\n      0x20\n      add\n        /* \"event.sol\":666:670  date */\n      dup5\n        /* \"event.sol\":644:701  Event(msg.sender,name,date,price,ticketcount,ticketcount) */\n      dup2\n      mstore\n      0x20\n      add\n        /* \"event.sol\":671:676  price */\n      dup4\n        /* \"event.sol\":644:701  Event(msg.sender,name,date,price,ticketcount,ticketcount) */\n      dup2\n      mstore\n      0x20\n      add\n        /* \"event.sol\":677:688  ticketcount */\n      dup3\n        /* \"event.sol\":644:701  Event(msg.sender,name,date,price,ticketcount,ticketcount) */\n      dup2\n      mstore\n      0x20\n      add\n        /* \"event.sol\":689:700  ticketcount */\n      dup3\n        /* \"event.sol\":644:701  Event(msg.sender,name,date,price,ticketcount,ticketcount) */\n      dup2\n      mstore\n      pop\n        /* \"event.sol\":627:633  events */\n      0x00\n        /* \"event.sol\":627:641  events[nextId] */\n      dup1\n        /* \"event.sol\":634:640  nextId */\n      sload(0x02)\n        /* \"event.sol\":627:641  events[nextId] */\n      dup2\n      mstore\n      0x20\n      add\n      swap1\n      dup2\n      mstore\n      0x20\n      add\n      0x00\n      keccak256\n        /* \"event.sol\":627:701  events[nextId] = Event(msg.sender,name,date,price,ticketcount,ticketcount) */\n      0x00\n      dup3\n      add\n      mload\n      dup2\n      0x00\n      add\n      exp(0x0100, 0x00)\n      dup2\n      sload\n      dup2\n      0xffffffffffffffffffffffffffffffffffffffff\n      mul\n      not\n      and\n      swap1\n      dup4\n      0xffffffffffffffffffffffffffffffffffffffff\n      and\n      mul\n      or\n      swap1\n      sstore\n      pop\n      0x20\n      dup3\n      add\n      mload\n      dup2\n      0x01\n      add\n      swap1\n      dup2\n      tag_47\n      swap2\n      swap1\n      tag_48\n      jump\t// in\n    tag_47:\n      pop\n      0x40\n      dup3\n      add\n      mload\n      dup2\n      0x02\n      add\n      sstore\n      0x60\n      dup3\n      add\n      mload\n      dup2\n      0x03\n      add\n      sstore\n      0x80\n      dup3\n      add\n      mload\n      dup2\n      0x04\n      add\n      sstore\n      0xa0\n      dup3\n      add\n      mload\n      dup2\n      0x05\n      add\n      sstore\n      swap1\n      pop\n      pop\n        /* \"event.sol\":708:714  nextId */\n      0x02\n      0x00\n        /* \"event.sol\":708:716  nextId++ */\n      dup2\n      sload\n      dup1\n      swap3\n      swap2\n      swap1\n      tag_49\n      swap1\n      tag_50\n      jump\t// in\n    tag_49:\n      swap2\n      swap1\n      pop\n      sstore\n      pop\n        /* \"event.sol\":378:722  function createEvent(string memory name,uint date,uint price,uint ticketcount) external{... */\n      pop\n      pop\n      pop\n      pop\n      jump\t// out\n        /* \"event.sol\":258:292  mapping(uint=>Event) public events */\n    tag_17:\n      mstore(0x20, 0x00)\n      dup1\n      0x00\n      mstore\n      keccak256(0x00, 0x40)\n      0x00\n      swap2\n      pop\n      swap1\n      pop\n      dup1\n      0x00\n      add\n      0x00\n      swap1\n      sload\n      swap1\n      0x0100\n      exp\n      swap1\n      div\n      0xffffffffffffffffffffffffffffffffffffffff\n      and\n      swap1\n      dup1\n      0x01\n      add\n      dup1\n      sload\n      tag_51\n      swap1\n      tag_52\n      jump\t// in\n    tag_51:\n      dup1\n      0x1f\n      add\n      0x20\n      dup1\n      swap2\n      div\n      mul\n      0x20\n      add\n      mload(0x40)\n      swap1\n      dup2\n      add\n      0x40\n      mstore\n      dup1\n      swap3\n      swap2\n      swap1\n      dup2\n      dup2\n      mstore\n      0x20\n      add\n      dup3\n      dup1\n      sload\n      tag_53\n      swap1\n      tag_52\n      jump\t// in\n    tag_53:\n      dup1\n      iszero\n      tag_54\n      jumpi\n      dup1\n      0x1f\n      lt\n      tag_55\n      jumpi\n      0x0100\n      dup1\n      dup4\n      sload\n      div\n      mul\n      dup4\n      mstore\n      swap2\n      0x20\n      add\n      swap2\n      jump(tag_54)\n    tag_55:\n      dup3\n      add\n      swap2\n      swap1\n      0x00\n      mstore\n      keccak256(0x00, 0x20)\n      swap1\n    tag_56:\n      dup2\n      sload\n      dup2\n      mstore\n      swap1\n      0x01\n      add\n      swap1\n      0x20\n      add\n      dup1\n      dup4\n      gt\n      tag_56\n      jumpi\n      dup3\n      swap1\n      sub\n      0x1f\n      and\n      dup3\n      add\n      swap2\n    tag_54:\n      pop\n      pop\n      pop\n      pop\n      pop\n      swap1\n      dup1\n      0x02\n      add\n      sload\n      swap1\n      dup1\n      0x03\n      add\n      sload\n      swap1\n      dup1\n      0x04\n      add\n      sload\n      swap1\n      dup1\n      0x05\n      add\n      sload\n      swap1\n      pop\n      dup7\n      jump\t// out\n        /* \"event.sol\":726:1160  function buyTicket(uint id,uint qty) external payable{... */\n    tag_23:\n        /* \"event.sol\":813:814  0 */\n      0x00\n        /* \"event.sol\":796:802  events */\n      dup1\n        /* \"event.sol\":796:806  events[id] */\n      0x00\n        /* \"event.sol\":803:805  id */\n      dup5\n        /* \"event.sol\":796:806  events[id] */\n      dup2\n      mstore\n      0x20\n      add\n      swap1\n      dup2\n      mstore\n      0x20\n      add\n      0x00\n      keccak256\n        /* \"event.sol\":796:811  events[id].date */\n      0x02\n      add\n      sload\n        /* \"event.sol\":796:814  events[id].date!=0 */\n      sub\n        /* \"event.sol\":788:836  require(events[id].date!=0,\"show doesnot exist\") */\n      tag_58\n      jumpi\n      mload(0x40)\n      0x08c379a000000000000000000000000000000000000000000000000000000000\n      dup2\n      mstore\n      0x04\n      add\n      tag_59\n      swap1\n      tag_60\n      jump\t// in\n    tag_59:\n      mload(0x40)\n      dup1\n      swap2\n      sub\n      swap1\n      revert\n    tag_58:\n        /* \"event.sol\":869:884  block.timestamp */\n      timestamp\n        /* \"event.sol\":853:859  events */\n      0x00\n        /* \"event.sol\":853:863  events[id] */\n      dup1\n        /* \"event.sol\":860:862  id */\n      dup5\n        /* \"event.sol\":853:863  events[id] */\n      dup2\n      mstore\n      0x20\n      add\n      swap1\n      dup2\n      mstore\n      0x20\n      add\n      0x00\n      keccak256\n        /* \"event.sol\":853:868  events[id].date */\n      0x02\n      add\n      sload\n        /* \"event.sol\":853:884  events[id].date>block.timestamp */\n      gt\n        /* \"event.sol\":845:913  require(events[id].date>block.timestamp,\"event has already occured\") */\n      tag_61\n      jumpi\n      mload(0x40)\n      0x08c379a000000000000000000000000000000000000000000000000000000000\n      dup2\n      mstore\n      0x04\n      add\n      tag_62\n      swap1\n      tag_63\n      jump\t// in\n    tag_62:\n      mload(0x40)\n      dup1\n      swap2\n      sub\n      swap1\n      revert\n    tag_61:\n        /* \"event.sol\":922:942  Event storage _event */\n      0x00\n        /* \"event.sol\":945:951  events */\n      dup1\n        /* \"event.sol\":945:955  events[id] */\n      0x00\n        /* \"event.sol\":952:954  id */\n      dup5\n        /* \"event.sol\":945:955  events[id] */\n      dup2\n      mstore\n      0x20\n      add\n      swap1\n      dup2\n      mstore\n      0x20\n      add\n      0x00\n      keccak256\n        /* \"event.sol\":922:955  Event storage _event = events[id] */\n      swap1\n      pop\n        /* \"event.sol\":997:1000  qty */\n      dup2\n        /* \"event.sol\":984:990  _event */\n      dup2\n        /* \"event.sol\":984:996  _event.price */\n      0x03\n      add\n      sload\n        /* \"event.sol\":984:1000  _event.price*qty */\n      tag_64\n      swap2\n      swap1\n      tag_65\n      jump\t// in\n    tag_64:\n        /* \"event.sol\":972:981  msg.value */\n      callvalue\n        /* \"event.sol\":972:1001  msg.value==(_event.price*qty) */\n      eq\n        /* \"event.sol\":964:1024  require(msg.value==(_event.price*qty),\"ether is not enough\") */\n      tag_66\n      jumpi\n      mload(0x40)\n      0x08c379a000000000000000000000000000000000000000000000000000000000\n      dup2\n      mstore\n      0x04\n      add\n      tag_67\n      swap1\n      tag_68\n      jump\t// in\n    tag_67:\n      mload(0x40)\n      dup1\n      swap2\n      sub\n      swap1\n      revert\n    tag_66:\n        /* \"event.sol\":1062:1065  qty */\n      dup2\n        /* \"event.sol\":1041:1047  _event */\n      dup2\n        /* \"event.sol\":1041:1060  _event.ticketRemain */\n      0x05\n      add\n      sload\n        /* \"event.sol\":1041:1065  _event.ticketRemain>=qty */\n      lt\n      iszero\n        /* \"event.sol\":1033:1087  require(_event.ticketRemain>=qty,\"not enough tickets\") */\n      tag_69\n      jumpi\n      mload(0x40)\n      0x08c379a000000000000000000000000000000000000000000000000000000000\n      dup2\n      mstore\n      0x04\n      add\n      tag_70\n      swap1\n      tag_71\n      jump\t// in\n    tag_70:\n      mload(0x40)\n      dup1\n      swap2\n      sub\n      swap1\n      revert\n    tag_69:\n        /* \"event.sol\":1117:1120  qty */\n      dup2\n        /* \"event.sol\":1096:1102  _event */\n      dup2\n        /* \"event.sol\":1096:1115  _event.ticketRemain */\n      0x05\n      add\n      0x00\n        /* \"event.sol\":1096:1120  _event.ticketRemain-=qty */\n      dup3\n      dup3\n      sload\n      tag_72\n      swap2\n      swap1\n      tag_73\n      jump\t// in\n    tag_72:\n      swap3\n      pop\n      pop\n      dup2\n      swap1\n      sstore\n      pop\n        /* \"event.sol\":1154:1157  qty */\n      dup2\n        /* \"event.sol\":1129:1136  tickets */\n      0x01\n        /* \"event.sol\":1129:1148  tickets[msg.sender] */\n      0x00\n        /* \"event.sol\":1137:1147  msg.sender */\n      caller\n        /* \"event.sol\":1129:1148  tickets[msg.sender] */\n      0xffffffffffffffffffffffffffffffffffffffff\n      and\n      0xffffffffffffffffffffffffffffffffffffffff\n      and\n      dup2\n      mstore\n      0x20\n      add\n      swap1\n      dup2\n      mstore\n      0x20\n      add\n      0x00\n      keccak256\n        /* \"event.sol\":1129:1152  tickets[msg.sender][id] */\n      0x00\n        /* \"event.sol\":1149:1151  id */\n      dup6\n        /* \"event.sol\":1129:1152  tickets[msg.sender][id] */\n      dup2\n      mstore\n      0x20\n      add\n      swap1\n      dup2\n      mstore\n      0x20\n      add\n      0x00\n      keccak256\n      0x00\n        /* \"event.sol\":1129:1157  tickets[msg.sender][id]+=qty */\n      dup3\n      dup3\n      sload\n      tag_74\n      swap2\n      swap1\n      tag_75\n      jump\t// in\n    tag_74:\n      swap3\n      pop\n      pop\n      dup2\n      swap1\n      sstore\n      pop\n        /* \"event.sol\":779:1160  {... */\n      pop\n        /* \"event.sol\":726:1160  function buyTicket(uint id,uint qty) external payable{... */\n      pop\n      pop\n      jump\t// out\n        /* \"event.sol\":354:372  uint public nextId */\n    tag_26:\n      sload(0x02)\n      dup2\n      jump\t// out\n        /* \"event.sol\":1165:1512  function transferticket(uint id, uint qty, address to) external{... */\n    tag_33:\n        /* \"event.sol\":1263:1264  0 */\n      0x00\n        /* \"event.sol\":1246:1252  events */\n      dup1\n        /* \"event.sol\":1246:1256  events[id] */\n      0x00\n        /* \"event.sol\":1253:1255  id */\n      dup6\n        /* \"event.sol\":1246:1256  events[id] */\n      dup2\n      mstore\n      0x20\n      add\n      swap1\n      dup2\n      mstore\n      0x20\n      add\n      0x00\n      keccak256\n        /* \"event.sol\":1246:1261  events[id].date */\n      0x02\n      add\n      sload\n        /* \"event.sol\":1246:1264  events[id].date!=0 */\n      sub\n        /* \"event.sol\":1238:1286  require(events[id].date!=0,\"show doesnot exist\") */\n      tag_77\n      jumpi\n      mload(0x40)\n      0x08c379a000000000000000000000000000000000000000000000000000000000\n      dup2\n      mstore\n      0x04\n      add\n      tag_78\n      swap1\n      tag_60\n      jump\t// in\n    tag_78:\n      mload(0x40)\n      dup1\n      swap2\n      sub\n      swap1\n      revert\n    tag_77:\n        /* \"event.sol\":1319:1334  block.timestamp */\n      timestamp\n        /* \"event.sol\":1303:1309  events */\n      0x00\n        /* \"event.sol\":1303:1313  events[id] */\n      dup1\n        /* \"event.sol\":1310:1312  id */\n      dup6\n        /* \"event.sol\":1303:1313  events[id] */\n      dup2\n      mstore\n      0x20\n      add\n      swap1\n      dup2\n      mstore\n      0x20\n      add\n      0x00\n      keccak256\n        /* \"event.sol\":1303:1318  events[id].date */\n      0x02\n      add\n      sload\n        /* \"event.sol\":1303:1334  events[id].date>block.timestamp */\n      gt\n        /* \"event.sol\":1295:1363  require(events[id].date>block.timestamp,\"event has already occured\") */\n      tag_79\n      jumpi\n      mload(0x40)\n      0x08c379a000000000000000000000000000000000000000000000000000000000\n      dup2\n      mstore\n      0x04\n      add\n      tag_80\n      swap1\n      tag_63\n      jump\t// in\n    tag_80:\n      mload(0x40)\n      dup1\n      swap2\n      sub\n      swap1\n      revert\n    tag_79:\n        /* \"event.sol\":1405:1408  qty */\n      dup2\n        /* \"event.sol\":1380:1387  tickets */\n      0x01\n        /* \"event.sol\":1380:1399  tickets[msg.sender] */\n      0x00\n        /* \"event.sol\":1388:1398  msg.sender */\n      caller\n        /* \"event.sol\":1380:1399  tickets[msg.sender] */\n      0xffffffffffffffffffffffffffffffffffffffff\n      and\n      0xffffffffffffffffffffffffffffffffffffffff\n      and\n      dup2\n      mstore\n      0x20\n      add\n      swap1\n      dup2\n      mstore\n      0x20\n      add\n      0x00\n      keccak256\n        /* \"event.sol\":1380:1403  tickets[msg.sender][id] */\n      0x00\n        /* \"event.sol\":1400:1402  id */\n      dup6\n        /* \"event.sol\":1380:1403  tickets[msg.sender][id] */\n      dup2\n      mstore\n      0x20\n      add\n      swap1\n      dup2\n      mstore\n      0x20\n      add\n      0x00\n      keccak256\n      sload\n        /* \"event.sol\":1380:1408  tickets[msg.sender][id]>=qty */\n      lt\n      iszero\n        /* \"event.sol\":1372:1439  require(tickets[msg.sender][id]>=qty,\"u don't have enough tickets\") */\n      tag_81\n      jumpi\n      mload(0x40)\n      0x08c379a000000000000000000000000000000000000000000000000000000000\n      dup2\n      mstore\n      0x04\n      add\n      tag_82\n      swap1\n      tag_83\n      jump\t// in\n    tag_82:\n      mload(0x40)\n      dup1\n      swap2\n      sub\n      swap1\n      revert\n    tag_81:\n        /* \"event.sol\":1473:1476  qty */\n      dup2\n        /* \"event.sol\":1448:1455  tickets */\n      0x01\n        /* \"event.sol\":1448:1467  tickets[msg.sender] */\n      0x00\n        /* \"event.sol\":1456:1466  msg.sender */\n      caller\n        /* \"event.sol\":1448:1467  tickets[msg.sender] */\n      0xffffffffffffffffffffffffffffffffffffffff\n      and\n      0xffffffffffffffffffffffffffffffffffffffff\n      and\n      dup2\n      mstore\n      0x20\n      add\n      swap1\n      dup2\n      mstore\n      0x20\n      add\n      0x00\n      keccak256\n        /* \"event.sol\":1448:1471  tickets[msg.sender][id] */\n      0x00\n        /* \"event.sol\":1468:1470  id */\n      dup6\n        /* \"event.sol\":1448:1471  tickets[msg.sender][id] */\n      dup2\n      mstore\n      0x20\n      add\n      swap1\n      dup2\n      mstore\n      0x20\n      add\n      0x00\n      keccak256\n      0x00\n        /* \"event.sol\":1448:1476  tickets[msg.sender][id]-=qty */\n      dup3\n      dup3\n      sload\n      tag_84\n      swap2\n      swap1\n      tag_73\n      jump\t// in\n    tag_84:\n      swap3\n      pop\n      pop\n      dup2\n      swap1\n      sstore\n      pop\n        /* \"event.sol\":1502:1505  qty */\n      dup2\n        /* \"event.sol\":1485:1492  tickets */\n      0x01\n        /* \"event.sol\":1485:1496  tickets[to] */\n      0x00\n        /* \"event.sol\":1493:1495  to */\n      dup4\n        /* \"event.sol\":1485:1496  tickets[to] */\n      0xffffffffffffffffffffffffffffffffffffffff\n      and\n      0xffffffffffffffffffffffffffffffffffffffff\n      and\n      dup2\n      mstore\n      0x20\n      add\n      swap1\n      dup2\n      mstore\n      0x20\n      add\n      0x00\n      keccak256\n        /* \"event.sol\":1485:1500  tickets[to][id] */\n      0x00\n        /* \"event.sol\":1497:1499  id */\n      dup6\n        /* \"event.sol\":1485:1500  tickets[to][id] */\n      dup2\n      mstore\n      0x20\n      add\n      swap1\n      dup2\n      mstore\n      0x20\n      add\n      0x00\n      keccak256\n      0x00\n        /* \"event.sol\":1485:1505  tickets[to][id]+=qty */\n      dup3\n      dup3\n      sload\n      tag_85\n      swap2\n      swap1\n      tag_75\n      jump\t// in\n    tag_85:\n      swap3\n      pop\n      pop\n      dup2\n      swap1\n      sstore\n      pop\n        /* \"event.sol\":1165:1512  function transferticket(uint id, uint qty, address to) external{... */\n      pop\n      pop\n      pop\n      jump\t// out\n        /* \"event.sol\":297:349  mapping(address=>mapping(uint=>uint)) public tickets */\n    tag_38:\n      mstore(0x20, 0x01)\n      dup2\n      0x00\n      mstore\n      mstore(0x20, keccak256(0x00, 0x40))\n      dup1\n      0x00\n      mstore\n      keccak256(0x00, 0x40)\n      0x00\n      swap2\n      pop\n      swap2\n      pop\n      pop\n      sload\n      dup2\n      jump\t// out\n        /* \"#utility.yul\":7:82   */\n    tag_86:\n        /* \"#utility.yul\":40:46   */\n      0x00\n        /* \"#utility.yul\":73:75   */\n      0x40\n        /* \"#utility.yul\":67:76   */\n      mload\n        /* \"#utility.yul\":57:76   */\n      swap1\n      pop\n        /* \"#utility.yul\":7:82   */\n      swap1\n      jump\t// out\n        /* \"#utility.yul\":88:205   */\n    tag_87:\n        /* \"#utility.yul\":197:198   */\n      0x00\n        /* \"#utility.yul\":194:195   */\n      dup1\n        /* \"#utility.yul\":187:199   */\n      revert\n        /* \"#utility.yul\":211:328   */\n    tag_88:\n        /* \"#utility.yul\":320:321   */\n      0x00\n        /* \"#utility.yul\":317:318   */\n      dup1\n        /* \"#utility.yul\":310:322   */\n      revert\n        /* \"#utility.yul\":334:451   */\n    tag_89:\n        /* \"#utility.yul\":443:444   */\n      0x00\n        /* \"#utility.yul\":440:441   */\n      dup1\n        /* \"#utility.yul\":433:445   */\n      revert\n        /* \"#utility.yul\":457:574   */\n    tag_90:\n        /* \"#utility.yul\":566:567   */\n      0x00\n        /* \"#utility.yul\":563:564   */\n      dup1\n        /* \"#utility.yul\":556:568   */\n      revert\n        /* \"#utility.yul\":580:682   */\n    tag_91:\n        /* \"#utility.yul\":621:627   */\n      0x00\n        /* \"#utility.yul\":672:674   */\n      0x1f\n        /* \"#utility.yul\":668:675   */\n      not\n        /* \"#utility.yul\":663:665   */\n      0x1f\n        /* \"#utility.yul\":656:661   */\n      dup4\n        /* \"#utility.yul\":652:666   */\n      add\n        /* \"#utility.yul\":648:676   */\n      and\n        /* \"#utility.yul\":638:676   */\n      swap1\n      pop\n        /* \"#utility.yul\":580:682   */\n      swap2\n      swap1\n      pop\n      jump\t// out\n        /* \"#utility.yul\":688:868   */\n    tag_92:\n        /* \"#utility.yul\":736:813   */\n      0x4e487b7100000000000000000000000000000000000000000000000000000000\n        /* \"#utility.yul\":733:734   */\n      0x00\n        /* \"#utility.yul\":726:814   */\n      mstore\n        /* \"#utility.yul\":833:837   */\n      0x41\n        /* \"#utility.yul\":830:831   */\n      0x04\n        /* \"#utility.yul\":823:838   */\n      mstore\n        /* \"#utility.yul\":857:861   */\n      0x24\n        /* \"#utility.yul\":854:855   */\n      0x00\n        /* \"#utility.yul\":847:862   */\n      revert\n        /* \"#utility.yul\":874:1155   */\n    tag_93:\n        /* \"#utility.yul\":957:984   */\n      tag_152\n        /* \"#utility.yul\":979:983   */\n      dup3\n        /* \"#utility.yul\":957:984   */\n      tag_91\n      jump\t// in\n    tag_152:\n        /* \"#utility.yul\":949:955   */\n      dup2\n        /* \"#utility.yul\":945:985   */\n      add\n        /* \"#utility.yul\":1087:1093   */\n      dup2\n        /* \"#utility.yul\":1075:1085   */\n      dup2\n        /* \"#utility.yul\":1072:1094   */\n      lt\n        /* \"#utility.yul\":1051:1069   */\n      0xffffffffffffffff\n        /* \"#utility.yul\":1039:1049   */\n      dup3\n        /* \"#utility.yul\":1036:1070   */\n      gt\n        /* \"#utility.yul\":1033:1095   */\n      or\n        /* \"#utility.yul\":1030:1118   */\n      iszero\n      tag_153\n      jumpi\n        /* \"#utility.yul\":1098:1116   */\n      tag_154\n      tag_92\n      jump\t// in\n    tag_154:\n        /* \"#utility.yul\":1030:1118   */\n    tag_153:\n        /* \"#utility.yul\":1138:1148   */\n      dup1\n        /* \"#utility.yul\":1134:1136   */\n      0x40\n        /* \"#utility.yul\":1127:1149   */\n      mstore\n        /* \"#utility.yul\":917:1155   */\n      pop\n        /* \"#utility.yul\":874:1155   */\n      pop\n      pop\n      jump\t// out\n        /* \"#utility.yul\":1161:1290   */\n    tag_94:\n        /* \"#utility.yul\":1195:1201   */\n      0x00\n        /* \"#utility.yul\":1222:1242   */\n      tag_156\n      tag_86\n      jump\t// in\n    tag_156:\n        /* \"#utility.yul\":1212:1242   */\n      swap1\n      pop\n        /* \"#utility.yul\":1251:1284   */\n      tag_157\n        /* \"#utility.yul\":1279:1283   */\n      dup3\n        /* \"#utility.yul\":1271:1277   */\n      dup3\n        /* \"#utility.yul\":1251:1284   */\n      tag_93\n      jump\t// in\n    tag_157:\n        /* \"#utility.yul\":1161:1290   */\n      swap2\n      swap1\n      pop\n      jump\t// out\n        /* \"#utility.yul\":1296:1604   */\n    tag_95:\n        /* \"#utility.yul\":1358:1362   */\n      0x00\n        /* \"#utility.yul\":1448:1466   */\n      0xffffffffffffffff\n        /* \"#utility.yul\":1440:1446   */\n      dup3\n        /* \"#utility.yul\":1437:1467   */\n      gt\n        /* \"#utility.yul\":1434:1490   */\n      iszero\n      tag_159\n      jumpi\n        /* \"#utility.yul\":1470:1488   */\n      tag_160\n      tag_92\n      jump\t// in\n    tag_160:\n        /* \"#utility.yul\":1434:1490   */\n    tag_159:\n        /* \"#utility.yul\":1508:1537   */\n      tag_161\n        /* \"#utility.yul\":1530:1536   */\n      dup3\n        /* \"#utility.yul\":1508:1537   */\n      tag_91\n      jump\t// in\n    tag_161:\n        /* \"#utility.yul\":1500:1537   */\n      swap1\n      pop\n        /* \"#utility.yul\":1592:1596   */\n      0x20\n        /* \"#utility.yul\":1586:1590   */\n      dup2\n        /* \"#utility.yul\":1582:1597   */\n      add\n        /* \"#utility.yul\":1574:1597   */\n      swap1\n      pop\n        /* \"#utility.yul\":1296:1604   */\n      swap2\n      swap1\n      pop\n      jump\t// out\n        /* \"#utility.yul\":1610:1756   */\n    tag_96:\n        /* \"#utility.yul\":1707:1713   */\n      dup3\n        /* \"#utility.yul\":1702:1705   */\n      dup2\n        /* \"#utility.yul\":1697:1700   */\n      dup4\n        /* \"#utility.yul\":1684:1714   */\n      calldatacopy\n        /* \"#utility.yul\":1748:1749   */\n      0x00\n        /* \"#utility.yul\":1739:1745   */\n      dup4\n        /* \"#utility.yul\":1734:1737   */\n      dup4\n        /* \"#utility.yul\":1730:1746   */\n      add\n        /* \"#utility.yul\":1723:1750   */\n      mstore\n        /* \"#utility.yul\":1610:1756   */\n      pop\n      pop\n      pop\n      jump\t// out\n        /* \"#utility.yul\":1762:2187   */\n    tag_97:\n        /* \"#utility.yul\":1840:1845   */\n      0x00\n        /* \"#utility.yul\":1865:1931   */\n      tag_164\n        /* \"#utility.yul\":1881:1930   */\n      tag_165\n        /* \"#utility.yul\":1923:1929   */\n      dup5\n        /* \"#utility.yul\":1881:1930   */\n      tag_95\n      jump\t// in\n    tag_165:\n        /* \"#utility.yul\":1865:1931   */\n      tag_94\n      jump\t// in\n    tag_164:\n        /* \"#utility.yul\":1856:1931   */\n      swap1\n      pop\n        /* \"#utility.yul\":1954:1960   */\n      dup3\n        /* \"#utility.yul\":1947:1952   */\n      dup2\n        /* \"#utility.yul\":1940:1961   */\n      mstore\n        /* \"#utility.yul\":1992:1996   */\n      0x20\n        /* \"#utility.yul\":1985:1990   */\n      dup2\n        /* \"#utility.yul\":1981:1997   */\n      add\n        /* \"#utility.yul\":2030:2033   */\n      dup5\n        /* \"#utility.yul\":2021:2027   */\n      dup5\n        /* \"#utility.yul\":2016:2019   */\n      dup5\n        /* \"#utility.yul\":2012:2028   */\n      add\n        /* \"#utility.yul\":2009:2034   */\n      gt\n        /* \"#utility.yul\":2006:2118   */\n      iszero\n      tag_166\n      jumpi\n        /* \"#utility.yul\":2037:2116   */\n      tag_167\n      tag_90\n      jump\t// in\n    tag_167:\n        /* \"#utility.yul\":2006:2118   */\n    tag_166:\n        /* \"#utility.yul\":2127:2181   */\n      tag_168\n        /* \"#utility.yul\":2174:2180   */\n      dup5\n        /* \"#utility.yul\":2169:2172   */\n      dup3\n        /* \"#utility.yul\":2164:2167   */\n      dup6\n        /* \"#utility.yul\":2127:2181   */\n      tag_96\n      jump\t// in\n    tag_168:\n        /* \"#utility.yul\":1846:2187   */\n      pop\n        /* \"#utility.yul\":1762:2187   */\n      swap4\n      swap3\n      pop\n      pop\n      pop\n      jump\t// out\n        /* \"#utility.yul\":2207:2547   */\n    tag_98:\n        /* \"#utility.yul\":2263:2268   */\n      0x00\n        /* \"#utility.yul\":2312:2315   */\n      dup3\n        /* \"#utility.yul\":2305:2309   */\n      0x1f\n        /* \"#utility.yul\":2297:2303   */\n      dup4\n        /* \"#utility.yul\":2293:2310   */\n      add\n        /* \"#utility.yul\":2289:2316   */\n      slt\n        /* \"#utility.yul\":2279:2401   */\n      tag_170\n      jumpi\n        /* \"#utility.yul\":2320:2399   */\n      tag_171\n      tag_89\n      jump\t// in\n    tag_171:\n        /* \"#utility.yul\":2279:2401   */\n    tag_170:\n        /* \"#utility.yul\":2437:2443   */\n      dup2\n        /* \"#utility.yul\":2424:2444   */\n      calldataload\n        /* \"#utility.yul\":2462:2541   */\n      tag_172\n        /* \"#utility.yul\":2537:2540   */\n      dup5\n        /* \"#utility.yul\":2529:2535   */\n      dup3\n        /* \"#utility.yul\":2522:2526   */\n      0x20\n        /* \"#utility.yul\":2514:2520   */\n      dup7\n        /* \"#utility.yul\":2510:2527   */\n      add\n        /* \"#utility.yul\":2462:2541   */\n      tag_97\n      jump\t// in\n    tag_172:\n        /* \"#utility.yul\":2453:2541   */\n      swap2\n      pop\n        /* \"#utility.yul\":2269:2547   */\n      pop\n        /* \"#utility.yul\":2207:2547   */\n      swap3\n      swap2\n      pop\n      pop\n      jump\t// out\n        /* \"#utility.yul\":2553:2630   */\n    tag_99:\n        /* \"#utility.yul\":2590:2597   */\n      0x00\n        /* \"#utility.yul\":2619:2624   */\n      dup2\n        /* \"#utility.yul\":2608:2624   */\n      swap1\n      pop\n        /* \"#utility.yul\":2553:2630   */\n      swap2\n      swap1\n      pop\n      jump\t// out\n        /* \"#utility.yul\":2636:2758   */\n    tag_100:\n        /* \"#utility.yul\":2709:2733   */\n      tag_175\n        /* \"#utility.yul\":2727:2732   */\n      dup2\n        /* \"#utility.yul\":2709:2733   */\n      tag_99\n      jump\t// in\n    tag_175:\n        /* \"#utility.yul\":2702:2707   */\n      dup2\n        /* \"#utility.yul\":2699:2734   */\n      eq\n        /* \"#utility.yul\":2689:2752   */\n      tag_176\n      jumpi\n        /* \"#utility.yul\":2748:2749   */\n      0x00\n        /* \"#utility.yul\":2745:2746   */\n      dup1\n        /* \"#utility.yul\":2738:2750   */\n      revert\n        /* \"#utility.yul\":2689:2752   */\n    tag_176:\n        /* \"#utility.yul\":2636:2758   */\n      pop\n      jump\t// out\n        /* \"#utility.yul\":2764:2903   */\n    tag_101:\n        /* \"#utility.yul\":2810:2815   */\n      0x00\n        /* \"#utility.yul\":2848:2854   */\n      dup2\n        /* \"#utility.yul\":2835:2855   */\n      calldataload\n        /* \"#utility.yul\":2826:2855   */\n      swap1\n      pop\n        /* \"#utility.yul\":2864:2897   */\n      tag_178\n        /* \"#utility.yul\":2891:2896   */\n      dup2\n        /* \"#utility.yul\":2864:2897   */\n      tag_100\n      jump\t// in\n    tag_178:\n        /* \"#utility.yul\":2764:2903   */\n      swap3\n      swap2\n      pop\n      pop\n      jump\t// out\n        /* \"#utility.yul\":2909:3854   */\n    tag_11:\n        /* \"#utility.yul\":3005:3011   */\n      0x00\n        /* \"#utility.yul\":3013:3019   */\n      dup1\n        /* \"#utility.yul\":3021:3027   */\n      0x00\n        /* \"#utility.yul\":3029:3035   */\n      dup1\n        /* \"#utility.yul\":3078:3081   */\n      0x80\n        /* \"#utility.yul\":3066:3075   */\n      dup6\n        /* \"#utility.yul\":3057:3064   */\n      dup8\n        /* \"#utility.yul\":3053:3076   */\n      sub\n        /* \"#utility.yul\":3049:3082   */\n      slt\n        /* \"#utility.yul\":3046:3166   */\n      iszero\n      tag_180\n      jumpi\n        /* \"#utility.yul\":3085:3164   */\n      tag_181\n      tag_87\n      jump\t// in\n    tag_181:\n        /* \"#utility.yul\":3046:3166   */\n    tag_180:\n        /* \"#utility.yul\":3233:3234   */\n      0x00\n        /* \"#utility.yul\":3222:3231   */\n      dup6\n        /* \"#utility.yul\":3218:3235   */\n      add\n        /* \"#utility.yul\":3205:3236   */\n      calldataload\n        /* \"#utility.yul\":3263:3281   */\n      0xffffffffffffffff\n        /* \"#utility.yul\":3255:3261   */\n      dup2\n        /* \"#utility.yul\":3252:3282   */\n      gt\n        /* \"#utility.yul\":3249:3366   */\n      iszero\n      tag_182\n      jumpi\n        /* \"#utility.yul\":3285:3364   */\n      tag_183\n      tag_88\n      jump\t// in\n    tag_183:\n        /* \"#utility.yul\":3249:3366   */\n    tag_182:\n        /* \"#utility.yul\":3390:3453   */\n      tag_184\n        /* \"#utility.yul\":3445:3452   */\n      dup8\n        /* \"#utility.yul\":3436:3442   */\n      dup3\n        /* \"#utility.yul\":3425:3434   */\n      dup9\n        /* \"#utility.yul\":3421:3443   */\n      add\n        /* \"#utility.yul\":3390:3453   */\n      tag_98\n      jump\t// in\n    tag_184:\n        /* \"#utility.yul\":3380:3453   */\n      swap5\n      pop\n        /* \"#utility.yul\":3176:3463   */\n      pop\n        /* \"#utility.yul\":3502:3504   */\n      0x20\n        /* \"#utility.yul\":3528:3581   */\n      tag_185\n        /* \"#utility.yul\":3573:3580   */\n      dup8\n        /* \"#utility.yul\":3564:3570   */\n      dup3\n        /* \"#utility.yul\":3553:3562   */\n      dup9\n        /* \"#utility.yul\":3549:3571   */\n      add\n        /* \"#utility.yul\":3528:3581   */\n      tag_101\n      jump\t// in\n    tag_185:\n        /* \"#utility.yul\":3518:3581   */\n      swap4\n      pop\n        /* \"#utility.yul\":3473:3591   */\n      pop\n        /* \"#utility.yul\":3630:3632   */\n      0x40\n        /* \"#utility.yul\":3656:3709   */\n      tag_186\n        /* \"#utility.yul\":3701:3708   */\n      dup8\n        /* \"#utility.yul\":3692:3698   */\n      dup3\n        /* \"#utility.yul\":3681:3690   */\n      dup9\n        /* \"#utility.yul\":3677:3699   */\n      add\n        /* \"#utility.yul\":3656:3709   */\n      tag_101\n      jump\t// in\n    tag_186:\n        /* \"#utility.yul\":3646:3709   */\n      swap3\n      pop\n        /* \"#utility.yul\":3601:3719   */\n      pop\n        /* \"#utility.yul\":3758:3760   */\n      0x60\n        /* \"#utility.yul\":3784:3837   */\n      tag_187\n        /* \"#utility.yul\":3829:3836   */\n      dup8\n        /* \"#utility.yul\":3820:3826   */\n      dup3\n        /* \"#utility.yul\":3809:3818   */\n      dup9\n        /* \"#utility.yul\":3805:3827   */\n      add\n        /* \"#utility.yul\":3784:3837   */\n      tag_101\n      jump\t// in\n    tag_187:\n        /* \"#utility.yul\":3774:3837   */\n      swap2\n      pop\n        /* \"#utility.yul\":3729:3847   */\n      pop\n        /* \"#utility.yul\":2909:3854   */\n      swap3\n      swap6\n      swap2\n      swap5\n      pop\n      swap3\n      pop\n      jump\t// out\n        /* \"#utility.yul\":3860:4189   */\n    tag_16:\n        /* \"#utility.yul\":3919:3925   */\n      0x00\n        /* \"#utility.yul\":3968:3970   */\n      0x20\n        /* \"#utility.yul\":3956:3965   */\n      dup3\n        /* \"#utility.yul\":3947:3954   */\n      dup5\n        /* \"#utility.yul\":3943:3966   */\n      sub\n        /* \"#utility.yul\":3939:3971   */\n      slt\n        /* \"#utility.yul\":3936:4055   */\n      iszero\n      tag_189\n      jumpi\n        /* \"#utility.yul\":3974:4053   */\n      tag_190\n      tag_87\n      jump\t// in\n    tag_190:\n        /* \"#utility.yul\":3936:4055   */\n    tag_189:\n        /* \"#utility.yul\":4094:4095   */\n      0x00\n        /* \"#utility.yul\":4119:4172   */\n      tag_191\n        /* \"#utility.yul\":4164:4171   */\n      dup5\n        /* \"#utility.yul\":4155:4161   */\n      dup3\n        /* \"#utility.yul\":4144:4153   */\n      dup6\n        /* \"#utility.yul\":4140:4162   */\n      add\n        /* \"#utility.yul\":4119:4172   */\n      tag_101\n      jump\t// in\n    tag_191:\n        /* \"#utility.yul\":4109:4172   */\n      swap2\n      pop\n        /* \"#utility.yul\":4065:4182   */\n      pop\n        /* \"#utility.yul\":3860:4189   */\n      swap3\n      swap2\n      pop\n      pop\n      jump\t// out\n        /* \"#utility.yul\":4195:4321   */\n    tag_102:\n        /* \"#utility.yul\":4232:4239   */\n      0x00\n        /* \"#utility.yul\":4272:4314   */\n      0xffffffffffffffffffffffffffffffffffffffff\n        /* \"#utility.yul\":4265:4270   */\n      dup3\n        /* \"#utility.yul\":4261:4315   */\n      and\n        /* \"#utility.yul\":4250:4315   */\n      swap1\n      pop\n        /* \"#utility.yul\":4195:4321   */\n      swap2\n      swap1\n      pop\n      jump\t// out\n        /* \"#utility.yul\":4327:4423   */\n    tag_103:\n        /* \"#utility.yul\":4364:4371   */\n      0x00\n        /* \"#utility.yul\":4393:4417   */\n      tag_194\n        /* \"#utility.yul\":4411:4416   */\n      dup3\n        /* \"#utility.yul\":4393:4417   */\n      tag_102\n      jump\t// in\n    tag_194:\n        /* \"#utility.yul\":4382:4417   */\n      swap1\n      pop\n        /* \"#utility.yul\":4327:4423   */\n      swap2\n      swap1\n      pop\n      jump\t// out\n        /* \"#utility.yul\":4429:4547   */\n    tag_104:\n        /* \"#utility.yul\":4516:4540   */\n      tag_196\n        /* \"#utility.yul\":4534:4539   */\n      dup2\n        /* \"#utility.yul\":4516:4540   */\n      tag_103\n      jump\t// in\n    tag_196:\n        /* \"#utility.yul\":4511:4514   */\n      dup3\n        /* \"#utility.yul\":4504:4541   */\n      mstore\n        /* \"#utility.yul\":4429:4547   */\n      pop\n      pop\n      jump\t// out\n        /* \"#utility.yul\":4553:4652   */\n    tag_105:\n        /* \"#utility.yul\":4605:4611   */\n      0x00\n        /* \"#utility.yul\":4639:4644   */\n      dup2\n        /* \"#utility.yul\":4633:4645   */\n      mload\n        /* \"#utility.yul\":4623:4645   */\n      swap1\n      pop\n        /* \"#utility.yul\":4553:4652   */\n      swap2\n      swap1\n      pop\n      jump\t// out\n        /* \"#utility.yul\":4658:4827   */\n    tag_106:\n        /* \"#utility.yul\":4742:4753   */\n      0x00\n        /* \"#utility.yul\":4776:4782   */\n      dup3\n        /* \"#utility.yul\":4771:4774   */\n      dup3\n        /* \"#utility.yul\":4764:4783   */\n      mstore\n        /* \"#utility.yul\":4816:4820   */\n      0x20\n        /* \"#utility.yul\":4811:4814   */\n      dup3\n        /* \"#utility.yul\":4807:4821   */\n      add\n        /* \"#utility.yul\":4792:4821   */\n      swap1\n      pop\n        /* \"#utility.yul\":4658:4827   */\n      swap3\n      swap2\n      pop\n      pop\n      jump\t// out\n        /* \"#utility.yul\":4833:5079   */\n    tag_107:\n        /* \"#utility.yul\":4914:4915   */\n      0x00\n        /* \"#utility.yul\":4924:5037   */\n    tag_200:\n        /* \"#utility.yul\":4938:4944   */\n      dup4\n        /* \"#utility.yul\":4935:4936   */\n      dup2\n        /* \"#utility.yul\":4932:4945   */\n      lt\n        /* \"#utility.yul\":4924:5037   */\n      iszero\n      tag_202\n      jumpi\n        /* \"#utility.yul\":5023:5024   */\n      dup1\n        /* \"#utility.yul\":5018:5021   */\n      dup3\n        /* \"#utility.yul\":5014:5025   */\n      add\n        /* \"#utility.yul\":5008:5026   */\n      mload\n        /* \"#utility.yul\":5004:5005   */\n      dup2\n        /* \"#utility.yul\":4999:5002   */\n      dup5\n        /* \"#utility.yul\":4995:5006   */\n      add\n        /* \"#utility.yul\":4988:5027   */\n      mstore\n        /* \"#utility.yul\":4960:4962   */\n      0x20\n        /* \"#utility.yul\":4957:4958   */\n      dup2\n        /* \"#utility.yul\":4953:4963   */\n      add\n        /* \"#utility.yul\":4948:4963   */\n      swap1\n      pop\n        /* \"#utility.yul\":4924:5037   */\n      jump(tag_200)\n    tag_202:\n        /* \"#utility.yul\":5071:5072   */\n      0x00\n        /* \"#utility.yul\":5062:5068   */\n      dup5\n        /* \"#utility.yul\":5057:5060   */\n      dup5\n        /* \"#utility.yul\":5053:5069   */\n      add\n        /* \"#utility.yul\":5046:5073   */\n      mstore\n        /* \"#utility.yul\":4895:5079   */\n      pop\n        /* \"#utility.yul\":4833:5079   */\n      pop\n      pop\n      pop\n      jump\t// out\n        /* \"#utility.yul\":5085:5462   */\n    tag_108:\n        /* \"#utility.yul\":5173:5176   */\n      0x00\n        /* \"#utility.yul\":5201:5240   */\n      tag_204\n        /* \"#utility.yul\":5234:5239   */\n      dup3\n        /* \"#utility.yul\":5201:5240   */\n      tag_105\n      jump\t// in\n    tag_204:\n        /* \"#utility.yul\":5256:5327   */\n      tag_205\n        /* \"#utility.yul\":5320:5326   */\n      dup2\n        /* \"#utility.yul\":5315:5318   */\n      dup6\n        /* \"#utility.yul\":5256:5327   */\n      tag_106\n      jump\t// in\n    tag_205:\n        /* \"#utility.yul\":5249:5327   */\n      swap4\n      pop\n        /* \"#utility.yul\":5336:5401   */\n      tag_206\n        /* \"#utility.yul\":5394:5400   */\n      dup2\n        /* \"#utility.yul\":5389:5392   */\n      dup6\n        /* \"#utility.yul\":5382:5386   */\n      0x20\n        /* \"#utility.yul\":5375:5380   */\n      dup7\n        /* \"#utility.yul\":5371:5387   */\n      add\n        /* \"#utility.yul\":5336:5401   */\n      tag_107\n      jump\t// in\n    tag_206:\n        /* \"#utility.yul\":5426:5455   */\n      tag_207\n        /* \"#utility.yul\":5448:5454   */\n      dup2\n        /* \"#utility.yul\":5426:5455   */\n      tag_91\n      jump\t// in\n    tag_207:\n        /* \"#utility.yul\":5421:5424   */\n      dup5\n        /* \"#utility.yul\":5417:5456   */\n      add\n        /* \"#utility.yul\":5410:5456   */\n      swap2\n      pop\n        /* \"#utility.yul\":5177:5462   */\n      pop\n        /* \"#utility.yul\":5085:5462   */\n      swap3\n      swap2\n      pop\n      pop\n      jump\t// out\n        /* \"#utility.yul\":5468:5586   */\n    tag_109:\n        /* \"#utility.yul\":5555:5579   */\n      tag_209\n        /* \"#utility.yul\":5573:5578   */\n      dup2\n        /* \"#utility.yul\":5555:5579   */\n      tag_99\n      jump\t// in\n    tag_209:\n        /* \"#utility.yul\":5550:5553   */\n      dup3\n        /* \"#utility.yul\":5543:5580   */\n      mstore\n        /* \"#utility.yul\":5468:5586   */\n      pop\n      pop\n      jump\t// out\n        /* \"#utility.yul\":5592:6458   */\n    tag_19:\n        /* \"#utility.yul\":5845:5849   */\n      0x00\n        /* \"#utility.yul\":5883:5886   */\n      0xc0\n        /* \"#utility.yul\":5872:5881   */\n      dup3\n        /* \"#utility.yul\":5868:5887   */\n      add\n        /* \"#utility.yul\":5860:5887   */\n      swap1\n      pop\n        /* \"#utility.yul\":5897:5968   */\n      tag_211\n        /* \"#utility.yul\":5965:5966   */\n      0x00\n        /* \"#utility.yul\":5954:5963   */\n      dup4\n        /* \"#utility.yul\":5950:5967   */\n      add\n        /* \"#utility.yul\":5941:5947   */\n      dup10\n        /* \"#utility.yul\":5897:5968   */\n      tag_104\n      jump\t// in\n    tag_211:\n        /* \"#utility.yul\":6015:6024   */\n      dup2\n        /* \"#utility.yul\":6009:6013   */\n      dup2\n        /* \"#utility.yul\":6005:6025   */\n      sub\n        /* \"#utility.yul\":6000:6002   */\n      0x20\n        /* \"#utility.yul\":5989:5998   */\n      dup4\n        /* \"#utility.yul\":5985:6003   */\n      add\n        /* \"#utility.yul\":5978:6026   */\n      mstore\n        /* \"#utility.yul\":6043:6121   */\n      tag_212\n        /* \"#utility.yul\":6116:6120   */\n      dup2\n        /* \"#utility.yul\":6107:6113   */\n      dup9\n        /* \"#utility.yul\":6043:6121   */\n      tag_108\n      jump\t// in\n    tag_212:\n        /* \"#utility.yul\":6035:6121   */\n      swap1\n      pop\n        /* \"#utility.yul\":6131:6203   */\n      tag_213\n        /* \"#utility.yul\":6199:6201   */\n      0x40\n        /* \"#utility.yul\":6188:6197   */\n      dup4\n        /* \"#utility.yul\":6184:6202   */\n      add\n        /* \"#utility.yul\":6175:6181   */\n      dup8\n        /* \"#utility.yul\":6131:6203   */\n      tag_109\n      jump\t// in\n    tag_213:\n        /* \"#utility.yul\":6213:6285   */\n      tag_214\n        /* \"#utility.yul\":6281:6283   */\n      0x60\n        /* \"#utility.yul\":6270:6279   */\n      dup4\n        /* \"#utility.yul\":6266:6284   */\n      add\n        /* \"#utility.yul\":6257:6263   */\n      dup7\n        /* \"#utility.yul\":6213:6285   */\n      tag_109\n      jump\t// in\n    tag_214:\n        /* \"#utility.yul\":6295:6368   */\n      tag_215\n        /* \"#utility.yul\":6363:6366   */\n      0x80\n        /* \"#utility.yul\":6352:6361   */\n      dup4\n        /* \"#utility.yul\":6348:6367   */\n      add\n        /* \"#utility.yul\":6339:6345   */\n      dup6\n        /* \"#utility.yul\":6295:6368   */\n      tag_109\n      jump\t// in\n    tag_215:\n        /* \"#utility.yul\":6378:6451   */\n      tag_216\n        /* \"#utility.yul\":6446:6449   */\n      0xa0\n        /* \"#utility.yul\":6435:6444   */\n      dup4\n        /* \"#utility.yul\":6431:6450   */\n      add\n        /* \"#utility.yul\":6422:6428   */\n      dup5\n        /* \"#utility.yul\":6378:6451   */\n      tag_109\n      jump\t// in\n    tag_216:\n        /* \"#utility.yul\":5592:6458   */\n      swap8\n      swap7\n      pop\n      pop\n      pop\n      pop\n      pop\n      pop\n      pop\n      jump\t// out\n        /* \"#utility.yul\":6464:6938   */\n    tag_22:\n        /* \"#utility.yul\":6532:6538   */\n      0x00\n        /* \"#utility.yul\":6540:6546   */\n      dup1\n        /* \"#utility.yul\":6589:6591   */\n      0x40\n        /* \"#utility.yul\":6577:6586   */\n      dup4\n        /* \"#utility.yul\":6568:6575   */\n      dup6\n        /* \"#utility.yul\":6564:6587   */\n      sub\n        /* \"#utility.yul\":6560:6592   */\n      slt\n        /* \"#utility.yul\":6557:6676   */\n      iszero\n      tag_218\n      jumpi\n        /* \"#utility.yul\":6595:6674   */\n      tag_219\n      tag_87\n      jump\t// in\n    tag_219:\n        /* \"#utility.yul\":6557:6676   */\n    tag_218:\n        /* \"#utility.yul\":6715:6716   */\n      0x00\n        /* \"#utility.yul\":6740:6793   */\n      tag_220\n        /* \"#utility.yul\":6785:6792   */\n      dup6\n        /* \"#utility.yul\":6776:6782   */\n      dup3\n        /* \"#utility.yul\":6765:6774   */\n      dup7\n        /* \"#utility.yul\":6761:6783   */\n      add\n        /* \"#utility.yul\":6740:6793   */\n      tag_101\n      jump\t// in\n    tag_220:\n        /* \"#utility.yul\":6730:6793   */\n      swap3\n      pop\n        /* \"#utility.yul\":6686:6803   */\n      pop\n        /* \"#utility.yul\":6842:6844   */\n      0x20\n        /* \"#utility.yul\":6868:6921   */\n      tag_221\n        /* \"#utility.yul\":6913:6920   */\n      dup6\n        /* \"#utility.yul\":6904:6910   */\n      dup3\n        /* \"#utility.yul\":6893:6902   */\n      dup7\n        /* \"#utility.yul\":6889:6911   */\n      add\n        /* \"#utility.yul\":6868:6921   */\n      tag_101\n      jump\t// in\n    tag_221:\n        /* \"#utility.yul\":6858:6921   */\n      swap2\n      pop\n        /* \"#utility.yul\":6813:6931   */\n      pop\n        /* \"#utility.yul\":6464:6938   */\n      swap3\n      pop\n      swap3\n      swap1\n      pop\n      jump\t// out\n        /* \"#utility.yul\":6944:7166   */\n    tag_28:\n        /* \"#utility.yul\":7037:7041   */\n      0x00\n        /* \"#utility.yul\":7075:7077   */\n      0x20\n        /* \"#utility.yul\":7064:7073   */\n      dup3\n        /* \"#utility.yul\":7060:7078   */\n      add\n        /* \"#utility.yul\":7052:7078   */\n      swap1\n      pop\n        /* \"#utility.yul\":7088:7159   */\n      tag_223\n        /* \"#utility.yul\":7156:7157   */\n      0x00\n        /* \"#utility.yul\":7145:7154   */\n      dup4\n        /* \"#utility.yul\":7141:7158   */\n      add\n        /* \"#utility.yul\":7132:7138   */\n      dup5\n        /* \"#utility.yul\":7088:7159   */\n      tag_109\n      jump\t// in\n    tag_223:\n        /* \"#utility.yul\":6944:7166   */\n      swap3\n      swap2\n      pop\n      pop\n      jump\t// out\n        /* \"#utility.yul\":7172:7294   */\n    tag_110:\n        /* \"#utility.yul\":7245:7269   */\n      tag_225\n        /* \"#utility.yul\":7263:7268   */\n      dup2\n        /* \"#utility.yul\":7245:7269   */\n      tag_103\n      jump\t// in\n    tag_225:\n        /* \"#utility.yul\":7238:7243   */\n      dup2\n        /* \"#utility.yul\":7235:7270   */\n      eq\n        /* \"#utility.yul\":7225:7288   */\n      tag_226\n      jumpi\n        /* \"#utility.yul\":7284:7285   */\n      0x00\n        /* \"#utility.yul\":7281:7282   */\n      dup1\n        /* \"#utility.yul\":7274:7286   */\n      revert\n        /* \"#utility.yul\":7225:7288   */\n    tag_226:\n        /* \"#utility.yul\":7172:7294   */\n      pop\n      jump\t// out\n        /* \"#utility.yul\":7300:7439   */\n    tag_111:\n        /* \"#utility.yul\":7346:7351   */\n      0x00\n        /* \"#utility.yul\":7384:7390   */\n      dup2\n        /* \"#utility.yul\":7371:7391   */\n      calldataload\n        /* \"#utility.yul\":7362:7391   */\n      swap1\n      pop\n        /* \"#utility.yul\":7400:7433   */\n      tag_228\n        /* \"#utility.yul\":7427:7432   */\n      dup2\n        /* \"#utility.yul\":7400:7433   */\n      tag_110\n      jump\t// in\n    tag_228:\n        /* \"#utility.yul\":7300:7439   */\n      swap3\n      swap2\n      pop\n      pop\n      jump\t// out\n        /* \"#utility.yul\":7445:8064   */\n    tag_32:\n        /* \"#utility.yul\":7522:7528   */\n      0x00\n        /* \"#utility.yul\":7530:7536   */\n      dup1\n        /* \"#utility.yul\":7538:7544   */\n      0x00\n        /* \"#utility.yul\":7587:7589   */\n      0x60\n        /* \"#utility.yul\":7575:7584   */\n      dup5\n        /* \"#utility.yul\":7566:7573   */\n      dup7\n        /* \"#utility.yul\":7562:7585   */\n      sub\n        /* \"#utility.yul\":7558:7590   */\n      slt\n        /* \"#utility.yul\":7555:7674   */\n      iszero\n      tag_230\n      jumpi\n        /* \"#utility.yul\":7593:7672   */\n      tag_231\n      tag_87\n      jump\t// in\n    tag_231:\n        /* \"#utility.yul\":7555:7674   */\n    tag_230:\n        /* \"#utility.yul\":7713:7714   */\n      0x00\n        /* \"#utility.yul\":7738:7791   */\n      tag_232\n        /* \"#utility.yul\":7783:7790   */\n      dup7\n        /* \"#utility.yul\":7774:7780   */\n      dup3\n        /* \"#utility.yul\":7763:7772   */\n      dup8\n        /* \"#utility.yul\":7759:7781   */\n      add\n        /* \"#utility.yul\":7738:7791   */\n      tag_101\n      jump\t// in\n    tag_232:\n        /* \"#utility.yul\":7728:7791   */\n      swap4\n      pop\n        /* \"#utility.yul\":7684:7801   */\n      pop\n        /* \"#utility.yul\":7840:7842   */\n      0x20\n        /* \"#utility.yul\":7866:7919   */\n      tag_233\n        /* \"#utility.yul\":7911:7918   */\n      dup7\n        /* \"#utility.yul\":7902:7908   */\n      dup3\n        /* \"#utility.yul\":7891:7900   */\n      dup8\n        /* \"#utility.yul\":7887:7909   */\n      add\n        /* \"#utility.yul\":7866:7919   */\n      tag_101\n      jump\t// in\n    tag_233:\n        /* \"#utility.yul\":7856:7919   */\n      swap3\n      pop\n        /* \"#utility.yul\":7811:7929   */\n      pop\n        /* \"#utility.yul\":7968:7970   */\n      0x40\n        /* \"#utility.yul\":7994:8047   */\n      tag_234\n        /* \"#utility.yul\":8039:8046   */\n      dup7\n        /* \"#utility.yul\":8030:8036   */\n      dup3\n        /* \"#utility.yul\":8019:8028   */\n      dup8\n        /* \"#utility.yul\":8015:8037   */\n      add\n        /* \"#utility.yul\":7994:8047   */\n      tag_111\n      jump\t// in\n    tag_234:\n        /* \"#utility.yul\":7984:8047   */\n      swap2\n      pop\n        /* \"#utility.yul\":7939:8057   */\n      pop\n        /* \"#utility.yul\":7445:8064   */\n      swap3\n      pop\n      swap3\n      pop\n      swap3\n      jump\t// out\n        /* \"#utility.yul\":8070:8544   */\n    tag_37:\n        /* \"#utility.yul\":8138:8144   */\n      0x00\n        /* \"#utility.yul\":8146:8152   */\n      dup1\n        /* \"#utility.yul\":8195:8197   */\n      0x40\n        /* \"#utility.yul\":8183:8192   */\n      dup4\n        /* \"#utility.yul\":8174:8181   */\n      dup6\n        /* \"#utility.yul\":8170:8193   */\n      sub\n        /* \"#utility.yul\":8166:8198   */\n      slt\n        /* \"#utility.yul\":8163:8282   */\n      iszero\n      tag_236\n      jumpi\n        /* \"#utility.yul\":8201:8280   */\n      tag_237\n      tag_87\n      jump\t// in\n    tag_237:\n        /* \"#utility.yul\":8163:8282   */\n    tag_236:\n        /* \"#utility.yul\":8321:8322   */\n      0x00\n        /* \"#utility.yul\":8346:8399   */\n      tag_238\n        /* \"#utility.yul\":8391:8398   */\n      dup6\n        /* \"#utility.yul\":8382:8388   */\n      dup3\n        /* \"#utility.yul\":8371:8380   */\n      dup7\n        /* \"#utility.yul\":8367:8389   */\n      add\n        /* \"#utility.yul\":8346:8399   */\n      tag_111\n      jump\t// in\n    tag_238:\n        /* \"#utility.yul\":8336:8399   */\n      swap3\n      pop\n        /* \"#utility.yul\":8292:8409   */\n      pop\n        /* \"#utility.yul\":8448:8450   */\n      0x20\n        /* \"#utility.yul\":8474:8527   */\n      tag_239\n        /* \"#utility.yul\":8519:8526   */\n      dup6\n        /* \"#utility.yul\":8510:8516   */\n      dup3\n        /* \"#utility.yul\":8499:8508   */\n      dup7\n        /* \"#utility.yul\":8495:8517   */\n      add\n        /* \"#utility.yul\":8474:8527   */\n      tag_101\n      jump\t// in\n    tag_239:\n        /* \"#utility.yul\":8464:8527   */\n      swap2\n      pop\n        /* \"#utility.yul\":8419:8537   */\n      pop\n        /* \"#utility.yul\":8070:8544   */\n      swap3\n      pop\n      swap3\n      swap1\n      pop\n      jump\t// out\n        /* \"#utility.yul\":8550:8784   */\n    tag_112:\n        /* \"#utility.yul\":8690:8724   */\n      0x752063616e206f7267616e697365206576656e74206f6e20616e79206f746865\n        /* \"#utility.yul\":8686:8687   */\n      0x00\n        /* \"#utility.yul\":8678:8684   */\n      dup3\n        /* \"#utility.yul\":8674:8688   */\n      add\n        /* \"#utility.yul\":8667:8725   */\n      mstore\n        /* \"#utility.yul\":8759:8776   */\n      0x722064617920696e206675747572650000000000000000000000000000000000\n        /* \"#utility.yul\":8754:8756   */\n      0x20\n        /* \"#utility.yul\":8746:8752   */\n      dup3\n        /* \"#utility.yul\":8742:8757   */\n      add\n        /* \"#utility.yul\":8735:8777   */\n      mstore\n        /* \"#utility.yul\":8550:8784   */\n      pop\n      jump\t// out\n        /* \"#utility.yul\":8790:9156   */\n    tag_113:\n        /* \"#utility.yul\":8932:8935   */\n      0x00\n        /* \"#utility.yul\":8953:9020   */\n      tag_242\n        /* \"#utility.yul\":9017:9019   */\n      0x2f\n        /* \"#utility.yul\":9012:9015   */\n      dup4\n        /* \"#utility.yul\":8953:9020   */\n      tag_106\n      jump\t// in\n    tag_242:\n        /* \"#utility.yul\":8946:9020   */\n      swap2\n      pop\n        /* \"#utility.yul\":9029:9122   */\n      tag_243\n        /* \"#utility.yul\":9118:9121   */\n      dup3\n        /* \"#utility.yul\":9029:9122   */\n      tag_112\n      jump\t// in\n    tag_243:\n        /* \"#utility.yul\":9147:9149   */\n      0x40\n        /* \"#utility.yul\":9142:9145   */\n      dup3\n        /* \"#utility.yul\":9138:9150   */\n      add\n        /* \"#utility.yul\":9131:9150   */\n      swap1\n      pop\n        /* \"#utility.yul\":8790:9156   */\n      swap2\n      swap1\n      pop\n      jump\t// out\n        /* \"#utility.yul\":9162:9581   */\n    tag_43:\n        /* \"#utility.yul\":9328:9332   */\n      0x00\n        /* \"#utility.yul\":9366:9368   */\n      0x20\n        /* \"#utility.yul\":9355:9364   */\n      dup3\n        /* \"#utility.yul\":9351:9369   */\n      add\n        /* \"#utility.yul\":9343:9369   */\n      swap1\n      pop\n        /* \"#utility.yul\":9415:9424   */\n      dup2\n        /* \"#utility.yul\":9409:9413   */\n      dup2\n        /* \"#utility.yul\":9405:9425   */\n      sub\n        /* \"#utility.yul\":9401:9402   */\n      0x00\n        /* \"#utility.yul\":9390:9399   */\n      dup4\n        /* \"#utility.yul\":9386:9403   */\n      add\n        /* \"#utility.yul\":9379:9426   */\n      mstore\n        /* \"#utility.yul\":9443:9574   */\n      tag_245\n        /* \"#utility.yul\":9569:9573   */\n      dup2\n        /* \"#utility.yul\":9443:9574   */\n      tag_113\n      jump\t// in\n    tag_245:\n        /* \"#utility.yul\":9435:9574   */\n      swap1\n      pop\n        /* \"#utility.yul\":9162:9581   */\n      swap2\n      swap1\n      pop\n      jump\t// out\n        /* \"#utility.yul\":9587:9810   */\n    tag_114:\n        /* \"#utility.yul\":9727:9761   */\n      0x7520646f6e277420686176652073756666696369656e74206e6f206f66207469\n        /* \"#utility.yul\":9723:9724   */\n      0x00\n        /* \"#utility.yul\":9715:9721   */\n      dup3\n        /* \"#utility.yul\":9711:9725   */\n      add\n        /* \"#utility.yul\":9704:9762   */\n      mstore\n        /* \"#utility.yul\":9796:9802   */\n      0x636b657400000000000000000000000000000000000000000000000000000000\n        /* \"#utility.yul\":9791:9793   */\n      0x20\n        /* \"#utility.yul\":9783:9789   */\n      dup3\n        /* \"#utility.yul\":9779:9794   */\n      add\n        /* \"#utility.yul\":9772:9803   */\n      mstore\n        /* \"#utility.yul\":9587:9810   */\n      pop\n      jump\t// out\n        /* \"#utility.yul\":9816:10182   */\n    tag_115:\n        /* \"#utility.yul\":9958:9961   */\n      0x00\n        /* \"#utility.yul\":9979:10046   */\n      tag_248\n        /* \"#utility.yul\":10043:10045   */\n      0x24\n        /* \"#utility.yul\":10038:10041   */\n      dup4\n        /* \"#utility.yul\":9979:10046   */\n      tag_106\n      jump\t// in\n    tag_248:\n        /* \"#utility.yul\":9972:10046   */\n      swap2\n      pop\n        /* \"#utility.yul\":10055:10148   */\n      tag_249\n        /* \"#utility.yul\":10144:10147   */\n      dup3\n        /* \"#utility.yul\":10055:10148   */\n      tag_114\n      jump\t// in\n    tag_249:\n        /* \"#utility.yul\":10173:10175   */\n      0x40\n        /* \"#utility.yul\":10168:10171   */\n      dup3\n        /* \"#utility.yul\":10164:10176   */\n      add\n        /* \"#utility.yul\":10157:10176   */\n      swap1\n      pop\n        /* \"#utility.yul\":9816:10182   */\n      swap2\n      swap1\n      pop\n      jump\t// out\n        /* \"#utility.yul\":10188:10607   */\n    tag_46:\n        /* \"#utility.yul\":10354:10358   */\n      0x00\n        /* \"#utility.yul\":10392:10394   */\n      0x20\n        /* \"#utility.yul\":10381:10390   */\n      dup3\n        /* \"#utility.yul\":10377:10395   */\n      add\n        /* \"#utility.yul\":10369:10395   */\n      swap1\n      pop\n        /* \"#utility.yul\":10441:10450   */\n      dup2\n        /* \"#utility.yul\":10435:10439   */\n      dup2\n        /* \"#utility.yul\":10431:10451   */\n      sub\n        /* \"#utility.yul\":10427:10428   */\n      0x00\n        /* \"#utility.yul\":10416:10425   */\n      dup4\n        /* \"#utility.yul\":10412:10429   */\n      add\n        /* \"#utility.yul\":10405:10452   */\n      mstore\n        /* \"#utility.yul\":10469:10600   */\n      tag_251\n        /* \"#utility.yul\":10595:10599   */\n      dup2\n        /* \"#utility.yul\":10469:10600   */\n      tag_115\n      jump\t// in\n    tag_251:\n        /* \"#utility.yul\":10461:10600   */\n      swap1\n      pop\n        /* \"#utility.yul\":10188:10607   */\n      swap2\n      swap1\n      pop\n      jump\t// out\n        /* \"#utility.yul\":10613:10793   */\n    tag_116:\n        /* \"#utility.yul\":10661:10738   */\n      0x4e487b7100000000000000000000000000000000000000000000000000000000\n        /* \"#utility.yul\":10658:10659   */\n      0x00\n        /* \"#utility.yul\":10651:10739   */\n      mstore\n        /* \"#utility.yul\":10758:10762   */\n      0x22\n        /* \"#utility.yul\":10755:10756   */\n      0x04\n        /* \"#utility.yul\":10748:10763   */\n      mstore\n        /* \"#utility.yul\":10782:10786   */\n      0x24\n        /* \"#utility.yul\":10779:10780   */\n      0x00\n        /* \"#utility.yul\":10772:10787   */\n      revert\n        /* \"#utility.yul\":10799:11119   */\n    tag_52:\n        /* \"#utility.yul\":10843:10849   */\n      0x00\n        /* \"#utility.yul\":10880:10881   */\n      0x02\n        /* \"#utility.yul\":10874:10878   */\n      dup3\n        /* \"#utility.yul\":10870:10882   */\n      div\n        /* \"#utility.yul\":10860:10882   */\n      swap1\n      pop\n        /* \"#utility.yul\":10927:10928   */\n      0x01\n        /* \"#utility.yul\":10921:10925   */\n      dup3\n        /* \"#utility.yul\":10917:10929   */\n      and\n        /* \"#utility.yul\":10948:10966   */\n      dup1\n        /* \"#utility.yul\":10938:11019   */\n      tag_254\n      jumpi\n        /* \"#utility.yul\":11004:11008   */\n      0x7f\n        /* \"#utility.yul\":10996:11002   */\n      dup3\n        /* \"#utility.yul\":10992:11009   */\n      and\n        /* \"#utility.yul\":10982:11009   */\n      swap2\n      pop\n        /* \"#utility.yul\":10938:11019   */\n    tag_254:\n        /* \"#utility.yul\":11066:11068   */\n      0x20\n        /* \"#utility.yul\":11058:11064   */\n      dup3\n        /* \"#utility.yul\":11055:11069   */\n      lt\n        /* \"#utility.yul\":11035:11053   */\n      dup2\n        /* \"#utility.yul\":11032:11070   */\n      sub\n        /* \"#utility.yul\":11029:11113   */\n      tag_255\n      jumpi\n        /* \"#utility.yul\":11085:11103   */\n      tag_256\n      tag_116\n      jump\t// in\n    tag_256:\n        /* \"#utility.yul\":11029:11113   */\n    tag_255:\n        /* \"#utility.yul\":10850:11119   */\n      pop\n        /* \"#utility.yul\":10799:11119   */\n      swap2\n      swap1\n      pop\n      jump\t// out\n        /* \"#utility.yul\":11125:11266   */\n    tag_117:\n        /* \"#utility.yul\":11174:11178   */\n      0x00\n        /* \"#utility.yul\":11197:11200   */\n      dup2\n        /* \"#utility.yul\":11189:11200   */\n      swap1\n      pop\n        /* \"#utility.yul\":11220:11223   */\n      dup2\n        /* \"#utility.yul\":11217:11218   */\n      0x00\n        /* \"#utility.yul\":11210:11224   */\n      mstore\n        /* \"#utility.yul\":11254:11258   */\n      0x20\n        /* \"#utility.yul\":11251:11252   */\n      0x00\n        /* \"#utility.yul\":11241:11259   */\n      keccak256\n        /* \"#utility.yul\":11233:11259   */\n      swap1\n      pop\n        /* \"#utility.yul\":11125:11266   */\n      swap2\n      swap1\n      pop\n      jump\t// out\n        /* \"#utility.yul\":11272:11365   */\n    tag_118:\n        /* \"#utility.yul\":11309:11315   */\n      0x00\n        /* \"#utility.yul\":11356:11358   */\n      0x20\n        /* \"#utility.yul\":11351:11353   */\n      0x1f\n        /* \"#utility.yul\":11344:11349   */\n      dup4\n        /* \"#utility.yul\":11340:11354   */\n      add\n        /* \"#utility.yul\":11336:11359   */\n      div\n        /* \"#utility.yul\":11326:11359   */\n      swap1\n      pop\n        /* \"#utility.yul\":11272:11365   */\n      swap2\n      swap1\n      pop\n      jump\t// out\n        /* \"#utility.yul\":11371:11478   */\n    tag_119:\n        /* \"#utility.yul\":11415:11423   */\n      0x00\n        /* \"#utility.yul\":11465:11470   */\n      dup3\n        /* \"#utility.yul\":11459:11463   */\n      dup3\n        /* \"#utility.yul\":11455:11471   */\n      shl\n        /* \"#utility.yul\":11434:11471   */\n      swap1\n      pop\n        /* \"#utility.yul\":11371:11478   */\n      swap3\n      swap2\n      pop\n      pop\n      jump\t// out\n        /* \"#utility.yul\":11484:11877   */\n    tag_120:\n        /* \"#utility.yul\":11553:11559   */\n      0x00\n        /* \"#utility.yul\":11603:11604   */\n      0x08\n        /* \"#utility.yul\":11591:11601   */\n      dup4\n        /* \"#utility.yul\":11587:11605   */\n      mul\n        /* \"#utility.yul\":11626:11723   */\n      tag_261\n        /* \"#utility.yul\":11656:11722   */\n      0xffffffffffffffffffffffffffffffffffffffffffffffffffffffffffffffff\n        /* \"#utility.yul\":11645:11654   */\n      dup3\n        /* \"#utility.yul\":11626:11723   */\n      tag_119\n      jump\t// in\n    tag_261:\n        /* \"#utility.yul\":11744:11783   */\n      tag_262\n        /* \"#utility.yul\":11774:11782   */\n      dup7\n        /* \"#utility.yul\":11763:11772   */\n      dup4\n        /* \"#utility.yul\":11744:11783   */\n      tag_119\n      jump\t// in\n    tag_262:\n        /* \"#utility.yul\":11732:11783   */\n      swap6\n      pop\n        /* \"#utility.yul\":11816:11820   */\n      dup1\n        /* \"#utility.yul\":11812:11821   */\n      not\n        /* \"#utility.yul\":11805:11810   */\n      dup5\n        /* \"#utility.yul\":11801:11822   */\n      and\n        /* \"#utility.yul\":11792:11822   */\n      swap4\n      pop\n        /* \"#utility.yul\":11865:11869   */\n      dup1\n        /* \"#utility.yul\":11855:11863   */\n      dup7\n        /* \"#utility.yul\":11851:11870   */\n      and\n        /* \"#utility.yul\":11844:11849   */\n      dup5\n        /* \"#utility.yul\":11841:11871   */\n      or\n        /* \"#utility.yul\":11831:11871   */\n      swap3\n      pop\n        /* \"#utility.yul\":11560:11877   */\n      pop\n      pop\n        /* \"#utility.yul\":11484:11877   */\n      swap4\n      swap3\n      pop\n      pop\n      pop\n      jump\t// out\n        /* \"#utility.yul\":11883:11943   */\n    tag_121:\n        /* \"#utility.yul\":11911:11914   */\n      0x00\n        /* \"#utility.yul\":11932:11937   */\n      dup2\n        /* \"#utility.yul\":11925:11937   */\n      swap1\n      pop\n        /* \"#utility.yul\":11883:11943   */\n      swap2\n      swap1\n      pop\n      jump\t// out\n        /* \"#utility.yul\":11949:12091   */\n    tag_122:\n        /* \"#utility.yul\":11999:12008   */\n      0x00\n        /* \"#utility.yul\":12032:12085   */\n      tag_265\n        /* \"#utility.yul\":12050:12084   */\n      tag_266\n        /* \"#utility.yul\":12059:12083   */\n      tag_267\n        /* \"#utility.yul\":12077:12082   */\n      dup5\n        /* \"#utility.yul\":12059:12083   */\n      tag_99\n      jump\t// in\n    tag_267:\n        /* \"#utility.yul\":12050:12084   */\n      tag_121\n      jump\t// in\n    tag_266:\n        /* \"#utility.yul\":12032:12085   */\n      tag_99\n      jump\t// in\n    tag_265:\n        /* \"#utility.yul\":12019:12085   */\n      swap1\n      pop\n        /* \"#utility.yul\":11949:12091   */\n      swap2\n      swap1\n      pop\n      jump\t// out\n        /* \"#utility.yul\":12097:12172   */\n    tag_123:\n        /* \"#utility.yul\":12140:12143   */\n      0x00\n        /* \"#utility.yul\":12161:12166   */\n      dup2\n        /* \"#utility.yul\":12154:12166   */\n      swap1\n      pop\n        /* \"#utility.yul\":12097:12172   */\n      swap2\n      swap1\n      pop\n      jump\t// out\n        /* \"#utility.yul\":12178:12447   */\n    tag_124:\n        /* \"#utility.yul\":12288:12327   */\n      tag_270\n        /* \"#utility.yul\":12319:12326   */\n      dup4\n        /* \"#utility.yul\":12288:12327   */\n      tag_122\n      jump\t// in\n    tag_270:\n        /* \"#utility.yul\":12349:12440   */\n      tag_271\n        /* \"#utility.yul\":12398:12439   */\n      tag_272\n        /* \"#utility.yul\":12422:12438   */\n      dup3\n        /* \"#utility.yul\":12398:12439   */\n      tag_123\n      jump\t// in\n    tag_272:\n        /* \"#utility.yul\":12390:12396   */\n      dup5\n        /* \"#utility.yul\":12383:12387   */\n      dup5\n        /* \"#utility.yul\":12377:12388   */\n      sload\n        /* \"#utility.yul\":12349:12440   */\n      tag_120\n      jump\t// in\n    tag_271:\n        /* \"#utility.yul\":12343:12347   */\n      dup3\n        /* \"#utility.yul\":12336:12441   */\n      sstore\n        /* \"#utility.yul\":12254:12447   */\n      pop\n        /* \"#utility.yul\":12178:12447   */\n      pop\n      pop\n      pop\n      jump\t// out\n        /* \"#utility.yul\":12453:12526   */\n    tag_125:\n        /* \"#utility.yul\":12498:12501   */\n      0x00\n        /* \"#utility.yul\":12453:12526   */\n      swap1\n      jump\t// out\n        /* \"#utility.yul\":12532:12721   */\n    tag_126:\n        /* \"#utility.yul\":12609:12641   */\n      tag_275\n      tag_125\n      jump\t// in\n    tag_275:\n        /* \"#utility.yul\":12650:12715   */\n      tag_276\n        /* \"#utility.yul\":12708:12714   */\n      dup2\n        /* \"#utility.yul\":12700:12706   */\n      dup5\n        /* \"#utility.yul\":12694:12698   */\n      dup5\n        /* \"#utility.yul\":12650:12715   */\n      tag_124\n      jump\t// in\n    tag_276:\n        /* \"#utility.yul\":12585:12721   */\n      pop\n        /* \"#utility.yul\":12532:12721   */\n      pop\n      pop\n      jump\t// out\n        /* \"#utility.yul\":12727:12913   */\n    tag_127:\n        /* \"#utility.yul\":12787:12907   */\n    tag_278:\n        /* \"#utility.yul\":12804:12807   */\n      dup2\n        /* \"#utility.yul\":12797:12802   */\n      dup2\n        /* \"#utility.yul\":12794:12808   */\n      lt\n        /* \"#utility.yul\":12787:12907   */\n      iszero\n      tag_280\n      jumpi\n        /* \"#utility.yul\":12858:12897   */\n      tag_281\n        /* \"#utility.yul\":12895:12896   */\n      0x00\n        /* \"#utility.yul\":12888:12893   */\n      dup3\n        /* \"#utility.yul\":12858:12897   */\n      tag_126\n      jump\t// in\n    tag_281:\n        /* \"#utility.yul\":12831:12832   */\n      0x01\n        /* \"#utility.yul\":12824:12829   */\n      dup2\n        /* \"#utility.yul\":12820:12833   */\n      add\n        /* \"#utility.yul\":12811:12833   */\n      swap1\n      pop\n        /* \"#utility.yul\":12787:12907   */\n      jump(tag_278)\n    tag_280:\n        /* \"#utility.yul\":12727:12913   */\n      pop\n      pop\n      jump\t// out\n        /* \"#utility.yul\":12919:13462   */\n    tag_128:\n        /* \"#utility.yul\":13020:13022   */\n      0x1f\n        /* \"#utility.yul\":13015:13018   */\n      dup3\n        /* \"#utility.yul\":13012:13023   */\n      gt\n        /* \"#utility.yul\":13009:13455   */\n      iszero\n      tag_283\n      jumpi\n        /* \"#utility.yul\":13054:13092   */\n      tag_284\n        /* \"#utility.yul\":13086:13091   */\n      dup2\n        /* \"#utility.yul\":13054:13092   */\n      tag_117\n      jump\t// in\n    tag_284:\n        /* \"#utility.yul\":13138:13167   */\n      tag_285\n        /* \"#utility.yul\":13156:13166   */\n      dup5\n        /* \"#utility.yul\":13138:13167   */\n      tag_118\n      jump\t// in\n    tag_285:\n        /* \"#utility.yul\":13128:13136   */\n      dup2\n        /* \"#utility.yul\":13124:13168   */\n      add\n        /* \"#utility.yul\":13321:13323   */\n      0x20\n        /* \"#utility.yul\":13309:13319   */\n      dup6\n        /* \"#utility.yul\":13306:13324   */\n      lt\n        /* \"#utility.yul\":13303:13352   */\n      iszero\n      tag_286\n      jumpi\n        /* \"#utility.yul\":13342:13350   */\n      dup2\n        /* \"#utility.yul\":13327:13350   */\n      swap1\n      pop\n        /* \"#utility.yul\":13303:13352   */\n    tag_286:\n        /* \"#utility.yul\":13365:13445   */\n      tag_287\n        /* \"#utility.yul\":13421:13443   */\n      tag_288\n        /* \"#utility.yul\":13439:13442   */\n      dup6\n        /* \"#utility.yul\":13421:13443   */\n      tag_118\n      jump\t// in\n    tag_288:\n        /* \"#utility.yul\":13411:13419   */\n      dup4\n        /* \"#utility.yul\":13407:13444   */\n      add\n        /* \"#utility.yul\":13394:13405   */\n      dup3\n        /* \"#utility.yul\":13365:13445   */\n      tag_127\n      jump\t// in\n    tag_287:\n        /* \"#utility.yul\":13024:13455   */\n      pop\n      pop\n        /* \"#utility.yul\":13009:13455   */\n    tag_283:\n        /* \"#utility.yul\":12919:13462   */\n      pop\n      pop\n      pop\n      jump\t// out\n        /* \"#utility.yul\":13468:13585   */\n    tag_129:\n        /* \"#utility.yul\":13522:13530   */\n      0x00\n        /* \"#utility.yul\":13572:13577   */\n      dup3\n        /* \"#utility.yul\":13566:13570   */\n      dup3\n        /* \"#utility.yul\":13562:13578   */\n      shr\n        /* \"#utility.yul\":13541:13578   */\n      swap1\n      pop\n        /* \"#utility.yul\":13468:13585   */\n      swap3\n      swap2\n      pop\n      pop\n      jump\t// out\n        /* \"#utility.yul\":13591:13760   */\n    tag_130:\n        /* \"#utility.yul\":13635:13641   */\n      0x00\n        /* \"#utility.yul\":13668:13719   */\n      tag_291\n        /* \"#utility.yul\":13716:13717   */\n      0x00\n        /* \"#utility.yul\":13712:13718   */\n      not\n        /* \"#utility.yul\":13704:13709   */\n      dup5\n        /* \"#utility.yul\":13701:13702   */\n      0x08\n        /* \"#utility.yul\":13697:13710   */\n      mul\n        /* \"#utility.yul\":13668:13719   */\n      tag_129\n      jump\t// in\n    tag_291:\n        /* \"#utility.yul\":13664:13720   */\n      not\n        /* \"#utility.yul\":13749:13753   */\n      dup1\n        /* \"#utility.yul\":13743:13747   */\n      dup4\n        /* \"#utility.yul\":13739:13754   */\n      and\n        /* \"#utility.yul\":13729:13754   */\n      swap2\n      pop\n        /* \"#utility.yul\":13642:13760   */\n      pop\n        /* \"#utility.yul\":13591:13760   */\n      swap3\n      swap2\n      pop\n      pop\n      jump\t// out\n        /* \"#utility.yul\":13765:14060   */\n    tag_131:\n        /* \"#utility.yul\":13841:13845   */\n      0x00\n        /* \"#utility.yul\":13987:14016   */\n      tag_293\n        /* \"#utility.yul\":14012:14015   */\n      dup4\n        /* \"#utility.yul\":14006:14010   */\n      dup4\n        /* \"#utility.yul\":13987:14016   */\n      tag_130\n      jump\t// in\n    tag_293:\n        /* \"#utility.yul\":13979:14016   */\n      swap2\n      pop\n        /* \"#utility.yul\":14049:14052   */\n      dup3\n        /* \"#utility.yul\":14046:14047   */\n      0x02\n        /* \"#utility.yul\":14042:14053   */\n      mul\n        /* \"#utility.yul\":14036:14040   */\n      dup3\n        /* \"#utility.yul\":14033:14054   */\n      or\n        /* \"#utility.yul\":14025:14054   */\n      swap1\n      pop\n        /* \"#utility.yul\":13765:14060   */\n      swap3\n      swap2\n      pop\n      pop\n      jump\t// out\n        /* \"#utility.yul\":14065:15460   */\n    tag_48:\n        /* \"#utility.yul\":14182:14219   */\n      tag_295\n        /* \"#utility.yul\":14215:14218   */\n      dup3\n        /* \"#utility.yul\":14182:14219   */\n      tag_105\n      jump\t// in\n    tag_295:\n        /* \"#utility.yul\":14284:14302   */\n      0xffffffffffffffff\n        /* \"#utility.yul\":14276:14282   */\n      dup2\n        /* \"#utility.yul\":14273:14303   */\n      gt\n        /* \"#utility.yul\":14270:14326   */\n      iszero\n      tag_296\n      jumpi\n        /* \"#utility.yul\":14306:14324   */\n      tag_297\n      tag_92\n      jump\t// in\n    tag_297:\n        /* \"#utility.yul\":14270:14326   */\n    tag_296:\n        /* \"#utility.yul\":14350:14388   */\n      tag_298\n        /* \"#utility.yul\":14382:14386   */\n      dup3\n        /* \"#utility.yul\":14376:14387   */\n      sload\n        /* \"#utility.yul\":14350:14388   */\n      tag_52\n      jump\t// in\n    tag_298:\n        /* \"#utility.yul\":14435:14502   */\n      tag_299\n        /* \"#utility.yul\":14495:14501   */\n      dup3\n        /* \"#utility.yul\":14487:14493   */\n      dup3\n        /* \"#utility.yul\":14481:14485   */\n      dup6\n        /* \"#utility.yul\":14435:14502   */\n      tag_128\n      jump\t// in\n    tag_299:\n        /* \"#utility.yul\":14529:14530   */\n      0x00\n        /* \"#utility.yul\":14553:14557   */\n      0x20\n        /* \"#utility.yul\":14540:14557   */\n      swap1\n      pop\n        /* \"#utility.yul\":14585:14587   */\n      0x1f\n        /* \"#utility.yul\":14577:14583   */\n      dup4\n        /* \"#utility.yul\":14574:14588   */\n      gt\n        /* \"#utility.yul\":14602:14603   */\n      0x01\n        /* \"#utility.yul\":14597:15215   */\n      dup2\n      eq\n      tag_301\n      jumpi\n        /* \"#utility.yul\":15259:15260   */\n      0x00\n        /* \"#utility.yul\":15276:15282   */\n      dup5\n        /* \"#utility.yul\":15273:15350   */\n      iszero\n      tag_302\n      jumpi\n        /* \"#utility.yul\":15325:15334   */\n      dup3\n        /* \"#utility.yul\":15320:15323   */\n      dup8\n        /* \"#utility.yul\":15316:15335   */\n      add\n        /* \"#utility.yul\":15310:15336   */\n      mload\n        /* \"#utility.yul\":15301:15336   */\n      swap1\n      pop\n        /* \"#utility.yul\":15273:15350   */\n    tag_302:\n        /* \"#utility.yul\":15376:15443   */\n      tag_303\n        /* \"#utility.yul\":15436:15442   */\n      dup6\n        /* \"#utility.yul\":15429:15434   */\n      dup3\n        /* \"#utility.yul\":15376:15443   */\n      tag_131\n      jump\t// in\n    tag_303:\n        /* \"#utility.yul\":15370:15374   */\n      dup7\n        /* \"#utility.yul\":15363:15444   */\n      sstore\n        /* \"#utility.yul\":15232:15454   */\n      pop\n        /* \"#utility.yul\":14567:15454   */\n      jump(tag_300)\n        /* \"#utility.yul\":14597:15215   */\n    tag_301:\n        /* \"#utility.yul\":14649:14653   */\n      0x1f\n        /* \"#utility.yul\":14645:14654   */\n      not\n        /* \"#utility.yul\":14637:14643   */\n      dup5\n        /* \"#utility.yul\":14633:14655   */\n      and\n        /* \"#utility.yul\":14683:14720   */\n      tag_304\n        /* \"#utility.yul\":14715:14719   */\n      dup7\n        /* \"#utility.yul\":14683:14720   */\n      tag_117\n      jump\t// in\n    tag_304:\n        /* \"#utility.yul\":14742:14743   */\n      0x00\n        /* \"#utility.yul\":14756:14964   */\n    tag_305:\n        /* \"#utility.yul\":14770:14777   */\n      dup3\n        /* \"#utility.yul\":14767:14768   */\n      dup2\n        /* \"#utility.yul\":14764:14778   */\n      lt\n        /* \"#utility.yul\":14756:14964   */\n      iszero\n      tag_307\n      jumpi\n        /* \"#utility.yul\":14849:14858   */\n      dup5\n        /* \"#utility.yul\":14844:14847   */\n      dup10\n        /* \"#utility.yul\":14840:14859   */\n      add\n        /* \"#utility.yul\":14834:14860   */\n      mload\n        /* \"#utility.yul\":14826:14832   */\n      dup3\n        /* \"#utility.yul\":14819:14861   */\n      sstore\n        /* \"#utility.yul\":14900:14901   */\n      0x01\n        /* \"#utility.yul\":14892:14898   */\n      dup3\n        /* \"#utility.yul\":14888:14902   */\n      add\n        /* \"#utility.yul\":14878:14902   */\n      swap2\n      pop\n        /* \"#utility.yul\":14947:14949   */\n      0x20\n        /* \"#utility.yul\":14936:14945   */\n      dup6\n        /* \"#utility.yul\":14932:14950   */\n      add\n        /* \"#utility.yul\":14919:14950   */\n      swap5\n      pop\n        /* \"#utility.yul\":14793:14797   */\n      0x20\n        /* \"#utility.yul\":14790:14791   */\n      dup2\n        /* \"#utility.yul\":14786:14798   */\n      add\n        /* \"#utility.yul\":14781:14798   */\n      swap1\n      pop\n        /* \"#utility.yul\":14756:14964   */\n      jump(tag_305)\n    tag_307:\n        /* \"#utility.yul\":14992:14998   */\n      dup7\n        /* \"#utility.yul\":14983:14990   */\n      dup4\n        /* \"#utility.yul\":14980:14999   */\n      lt\n        /* \"#utility.yul\":14977:15156   */\n      iszero\n      tag_308\n      jumpi\n        /* \"#utility.yul\":15050:15059   */\n      dup5\n        /* \"#utility.yul\":15045:15048   */\n      dup10\n        /* \"#utility.yul\":15041:15060   */\n      add\n        /* \"#utility.yul\":15035:15061   */\n      mload\n        /* \"#utility.yul\":15093:15141   */\n      tag_309\n        /* \"#utility.yul\":15135:15139   */\n      0x1f\n        /* \"#utility.yul\":15127:15133   */\n      dup10\n        /* \"#utility.yul\":15123:15140   */\n      and\n        /* \"#utility.yul\":15112:15121   */\n      dup3\n        /* \"#utility.yul\":15093:15141   */\n      tag_130\n      jump\t// in\n    tag_309:\n        /* \"#utility.yul\":15085:15091   */\n      dup4\n        /* \"#utility.yul\":15078:15142   */\n      sstore\n        /* \"#utility.yul\":15000:15156   */\n      pop\n        /* \"#utility.yul\":14977:15156   */\n    tag_308:\n        /* \"#utility.yul\":15202:15203   */\n      0x01\n        /* \"#utility.yul\":15198:15199   */\n      0x02\n        /* \"#utility.yul\":15190:15196   */\n      dup9\n        /* \"#utility.yul\":15186:15200   */\n      mul\n        /* \"#utility.yul\":15182:15204   */\n      add\n        /* \"#utility.yul\":15176:15180   */\n      dup9\n        /* \"#utility.yul\":15169:15205   */\n      sstore\n        /* \"#utility.yul\":14604:15215   */\n      pop\n      pop\n      pop\n        /* \"#utility.yul\":14567:15454   */\n    tag_300:\n      pop\n        /* \"#utility.yul\":14157:15460   */\n      pop\n      pop\n      pop\n        /* \"#utility.yul\":14065:15460   */\n      pop\n      pop\n      jump\t// out\n        /* \"#utility.yul\":15466:15646   */\n    tag_132:\n        /* \"#utility.yul\":15514:15591   */\n      0x4e487b7100000000000000000000000000000000000000000000000000000000\n        /* \"#utility.yul\":15511:15512   */\n      0x00\n        /* \"#utility.yul\":15504:15592   */\n      mstore\n        /* \"#utility.yul\":15611:15615   */\n      0x11\n        /* \"#utility.yul\":15608:15609   */\n      0x04\n        /* \"#utility.yul\":15601:15616   */\n      mstore\n        /* \"#utility.yul\":15635:15639   */\n      0x24\n        /* \"#utility.yul\":15632:15633   */\n      0x00\n        /* \"#utility.yul\":15625:15640   */\n      revert\n        /* \"#utility.yul\":15652:15885   */\n    tag_50:\n        /* \"#utility.yul\":15691:15694   */\n      0x00\n        /* \"#utility.yul\":15714:15738   */\n      tag_312\n        /* \"#utility.yul\":15732:15737   */\n      dup3\n        /* \"#utility.yul\":15714:15738   */\n      tag_99\n      jump\t// in\n    tag_312:\n        /* \"#utility.yul\":15705:15738   */\n      swap2\n      pop\n        /* \"#utility.yul\":15760:15826   */\n      0xffffffffffffffffffffffffffffffffffffffffffffffffffffffffffffffff\n        /* \"#utility.yul\":15753:15758   */\n      dup3\n        /* \"#utility.yul\":15750:15827   */\n      sub\n        /* \"#utility.yul\":15747:15850   */\n      tag_313\n      jumpi\n        /* \"#utility.yul\":15830:15848   */\n      tag_314\n      tag_132\n      jump\t// in\n    tag_314:\n        /* \"#utility.yul\":15747:15850   */\n    tag_313:\n        /* \"#utility.yul\":15877:15878   */\n      0x01\n        /* \"#utility.yul\":15870:15875   */\n      dup3\n        /* \"#utility.yul\":15866:15879   */\n      add\n        /* \"#utility.yul\":15859:15879   */\n      swap1\n      pop\n        /* \"#utility.yul\":15652:15885   */\n      swap2\n      swap1\n      pop\n      jump\t// out\n        /* \"#utility.yul\":15891:16059   */\n    tag_133:\n        /* \"#utility.yul\":16031:16051   */\n      0x73686f7720646f65736e6f742065786973740000000000000000000000000000\n        /* \"#utility.yul\":16027:16028   */\n      0x00\n        /* \"#utility.yul\":16019:16025   */\n      dup3\n        /* \"#utility.yul\":16015:16029   */\n      add\n        /* \"#utility.yul\":16008:16052   */\n      mstore\n        /* \"#utility.yul\":15891:16059   */\n      pop\n      jump\t// out\n        /* \"#utility.yul\":16065:16431   */\n    tag_134:\n        /* \"#utility.yul\":16207:16210   */\n      0x00\n        /* \"#utility.yul\":16228:16295   */\n      tag_317\n        /* \"#utility.yul\":16292:16294   */\n      0x12\n        /* \"#utility.yul\":16287:16290   */\n      dup4\n        /* \"#utility.yul\":16228:16295   */\n      tag_106\n      jump\t// in\n    tag_317:\n        /* \"#utility.yul\":16221:16295   */\n      swap2\n      pop\n        /* \"#utility.yul\":16304:16397   */\n      tag_318\n        /* \"#utility.yul\":16393:16396   */\n      dup3\n        /* \"#utility.yul\":16304:16397   */\n      tag_133\n      jump\t// in\n    tag_318:\n        /* \"#utility.yul\":16422:16424   */\n      0x20\n        /* \"#utility.yul\":16417:16420   */\n      dup3\n        /* \"#utility.yul\":16413:16425   */\n      add\n        /* \"#utility.yul\":16406:16425   */\n      swap1\n      pop\n        /* \"#utility.yul\":16065:16431   */\n      swap2\n      swap1\n      pop\n      jump\t// out\n        /* \"#utility.yul\":16437:16856   */\n    tag_60:\n        /* \"#utility.yul\":16603:16607   */\n      0x00\n        /* \"#utility.yul\":16641:16643   */\n      0x20\n        /* \"#utility.yul\":16630:16639   */\n      dup3\n        /* \"#utility.yul\":16626:16644   */\n      add\n        /* \"#utility.yul\":16618:16644   */\n      swap1\n      pop\n        /* \"#utility.yul\":16690:16699   */\n      dup2\n        /* \"#utility.yul\":16684:16688   */\n      dup2\n        /* \"#utility.yul\":16680:16700   */\n      sub\n        /* \"#utility.yul\":16676:16677   */\n      0x00\n        /* \"#utility.yul\":16665:16674   */\n      dup4\n        /* \"#utility.yul\":16661:16678   */\n      add\n        /* \"#utility.yul\":16654:16701   */\n      mstore\n        /* \"#utility.yul\":16718:16849   */\n      tag_320\n        /* \"#utility.yul\":16844:16848   */\n      dup2\n        /* \"#utility.yul\":16718:16849   */\n      tag_134\n      jump\t// in\n    tag_320:\n        /* \"#utility.yul\":16710:16849   */\n      swap1\n      pop\n        /* \"#utility.yul\":16437:16856   */\n      swap2\n      swap1\n      pop\n      jump\t// out\n        /* \"#utility.yul\":16862:17037   */\n    tag_135:\n        /* \"#utility.yul\":17002:17029   */\n      0x6576656e742068617320616c7265616479206f63637572656400000000000000\n        /* \"#utility.yul\":16998:16999   */\n      0x00\n        /* \"#utility.yul\":16990:16996   */\n      dup3\n        /* \"#utility.yul\":16986:17000   */\n      add\n        /* \"#utility.yul\":16979:17030   */\n      mstore\n        /* \"#utility.yul\":16862:17037   */\n      pop\n      jump\t// out\n        /* \"#utility.yul\":17043:17409   */\n    tag_136:\n        /* \"#utility.yul\":17185:17188   */\n      0x00\n        /* \"#utility.yul\":17206:17273   */\n      tag_323\n        /* \"#utility.yul\":17270:17272   */\n      0x19\n        /* \"#utility.yul\":17265:17268   */\n      dup4\n        /* \"#utility.yul\":17206:17273   */\n      tag_106\n      jump\t// in\n    tag_323:\n        /* \"#utility.yul\":17199:17273   */\n      swap2\n      pop\n        /* \"#utility.yul\":17282:17375   */\n      tag_324\n        /* \"#utility.yul\":17371:17374   */\n      dup3\n        /* \"#utility.yul\":17282:17375   */\n      tag_135\n      jump\t// in\n    tag_324:\n        /* \"#utility.yul\":17400:17402   */\n      0x20\n        /* \"#utility.yul\":17395:17398   */\n      dup3\n        /* \"#utility.yul\":17391:17403   */\n      add\n        /* \"#utility.yul\":17384:17403   */\n      swap1\n      pop\n        /* \"#utility.yul\":17043:17409   */\n      swap2\n      swap1\n      pop\n      jump\t// out\n        /* \"#utility.yul\":17415:17834   */\n    tag_63:\n        /* \"#utility.yul\":17581:17585   */\n      0x00\n        /* \"#utility.yul\":17619:17621   */\n      0x20\n        /* \"#utility.yul\":17608:17617   */\n      dup3\n        /* \"#utility.yul\":17604:17622   */\n      add\n        /* \"#utility.yul\":17596:17622   */\n      swap1\n      pop\n        /* \"#utility.yul\":17668:17677   */\n      dup2\n        /* \"#utility.yul\":17662:17666   */\n      dup2\n        /* \"#utility.yul\":17658:17678   */\n      sub\n        /* \"#utility.yul\":17654:17655   */\n      0x00\n        /* \"#utility.yul\":17643:17652   */\n      dup4\n        /* \"#utility.yul\":17639:17656   */\n      add\n        /* \"#utility.yul\":17632:17679   */\n      mstore\n        /* \"#utility.yul\":17696:17827   */\n      tag_326\n        /* \"#utility.yul\":17822:17826   */\n      dup2\n        /* \"#utility.yul\":17696:17827   */\n      tag_136\n      jump\t// in\n    tag_326:\n        /* \"#utility.yul\":17688:17827   */\n      swap1\n      pop\n        /* \"#utility.yul\":17415:17834   */\n      swap2\n      swap1\n      pop\n      jump\t// out\n        /* \"#utility.yul\":17840:18250   */\n    tag_65:\n        /* \"#utility.yul\":17880:17887   */\n      0x00\n        /* \"#utility.yul\":17903:17923   */\n      tag_328\n        /* \"#utility.yul\":17921:17922   */\n      dup3\n        /* \"#utility.yul\":17903:17923   */\n      tag_99\n      jump\t// in\n    tag_328:\n        /* \"#utility.yul\":17898:17923   */\n      swap2\n      pop\n        /* \"#utility.yul\":17937:17957   */\n      tag_329\n        /* \"#utility.yul\":17955:17956   */\n      dup4\n        /* \"#utility.yul\":17937:17957   */\n      tag_99\n      jump\t// in\n    tag_329:\n        /* \"#utility.yul\":17932:17957   */\n      swap3\n      pop\n        /* \"#utility.yul\":17992:17993   */\n      dup3\n        /* \"#utility.yul\":17989:17990   */\n      dup3\n        /* \"#utility.yul\":17985:17994   */\n      mul\n        /* \"#utility.yul\":18014:18044   */\n      tag_330\n        /* \"#utility.yul\":18032:18043   */\n      dup2\n        /* \"#utility.yul\":18014:18044   */\n      tag_99\n      jump\t// in\n    tag_330:\n        /* \"#utility.yul\":18003:18044   */\n      swap2\n      pop\n        /* \"#utility.yul\":18193:18194   */\n      dup3\n        /* \"#utility.yul\":18184:18191   */\n      dup3\n        /* \"#utility.yul\":18180:18195   */\n      div\n        /* \"#utility.yul\":18177:18178   */\n      dup5\n        /* \"#utility.yul\":18174:18196   */\n      eq\n        /* \"#utility.yul\":18154:18155   */\n      dup4\n        /* \"#utility.yul\":18147:18156   */\n      iszero\n        /* \"#utility.yul\":18127:18210   */\n      or\n        /* \"#utility.yul\":18104:18243   */\n      tag_331\n      jumpi\n        /* \"#utility.yul\":18223:18241   */\n      tag_332\n      tag_132\n      jump\t// in\n    tag_332:\n        /* \"#utility.yul\":18104:18243   */\n    tag_331:\n        /* \"#utility.yul\":17888:18250   */\n      pop\n        /* \"#utility.yul\":17840:18250   */\n      swap3\n      swap2\n      pop\n      pop\n      jump\t// out\n        /* \"#utility.yul\":18256:18425   */\n    tag_137:\n        /* \"#utility.yul\":18396:18417   */\n      0x6574686572206973206e6f7420656e6f75676800000000000000000000000000\n        /* \"#utility.yul\":18392:18393   */\n      0x00\n        /* \"#utility.yul\":18384:18390   */\n      dup3\n        /* \"#utility.yul\":18380:18394   */\n      add\n        /* \"#utility.yul\":18373:18418   */\n      mstore\n        /* \"#utility.yul\":18256:18425   */\n      pop\n      jump\t// out\n        /* \"#utility.yul\":18431:18797   */\n    tag_138:\n        /* \"#utility.yul\":18573:18576   */\n      0x00\n        /* \"#utility.yul\":18594:18661   */\n      tag_335\n        /* \"#utility.yul\":18658:18660   */\n      0x13\n        /* \"#utility.yul\":18653:18656   */\n      dup4\n        /* \"#utility.yul\":18594:18661   */\n      tag_106\n      jump\t// in\n    tag_335:\n        /* \"#utility.yul\":18587:18661   */\n      swap2\n      pop\n        /* \"#utility.yul\":18670:18763   */\n      tag_336\n        /* \"#utility.yul\":18759:18762   */\n      dup3\n        /* \"#utility.yul\":18670:18763   */\n      tag_137\n      jump\t// in\n    tag_336:\n        /* \"#utility.yul\":18788:18790   */\n      0x20\n        /* \"#utility.yul\":18783:18786   */\n      dup3\n        /* \"#utility.yul\":18779:18791   */\n      add\n        /* \"#utility.yul\":18772:18791   */\n      swap1\n      pop\n        /* \"#utility.yul\":18431:18797   */\n      swap2\n      swap1\n      pop\n      jump\t// out\n        /* \"#utility.yul\":18803:19222   */\n    tag_68:\n        /* \"#utility.yul\":18969:18973   */\n      0x00\n        /* \"#utility.yul\":19007:19009   */\n      0x20\n        /* \"#utility.yul\":18996:19005   */\n      dup3\n        /* \"#utility.yul\":18992:19010   */\n      add\n        /* \"#utility.yul\":18984:19010   */\n      swap1\n      pop\n        /* \"#utility.yul\":19056:19065   */\n      dup2\n        /* \"#utility.yul\":19050:19054   */\n      dup2\n        /* \"#utility.yul\":19046:19066   */\n      sub\n        /* \"#utility.yul\":19042:19043   */\n      0x00\n        /* \"#utility.yul\":19031:19040   */\n      dup4\n        /* \"#utility.yul\":19027:19044   */\n      add\n        /* \"#utility.yul\":19020:19067   */\n      mstore\n        /* \"#utility.yul\":19084:19215   */\n      tag_338\n        /* \"#utility.yul\":19210:19214   */\n      dup2\n        /* \"#utility.yul\":19084:19215   */\n      tag_138\n      jump\t// in\n    tag_338:\n        /* \"#utility.yul\":19076:19215   */\n      swap1\n      pop\n        /* \"#utility.yul\":18803:19222   */\n      swap2\n      swap1\n      pop\n      jump\t// out\n        /* \"#utility.yul\":19228:19396   */\n    tag_139:\n        /* \"#utility.yul\":19368:19388   */\n      0x6e6f7420656e6f756768207469636b6574730000000000000000000000000000\n        /* \"#utility.yul\":19364:19365   */\n      0x00\n        /* \"#utility.yul\":19356:19362   */\n      dup3\n        /* \"#utility.yul\":19352:19366   */\n      add\n        /* \"#utility.yul\":19345:19389   */\n      mstore\n        /* \"#utility.yul\":19228:19396   */\n      pop\n      jump\t// out\n        /* \"#utility.yul\":19402:19768   */\n    tag_140:\n        /* \"#utility.yul\":19544:19547   */\n      0x00\n        /* \"#utility.yul\":19565:19632   */\n      tag_341\n        /* \"#utility.yul\":19629:19631   */\n      0x12\n        /* \"#utility.yul\":19624:19627   */\n      dup4\n        /* \"#utility.yul\":19565:19632   */\n      tag_106\n      jump\t// in\n    tag_341:\n        /* \"#utility.yul\":19558:19632   */\n      swap2\n      pop\n        /* \"#utility.yul\":19641:19734   */\n      tag_342\n        /* \"#utility.yul\":19730:19733   */\n      dup3\n        /* \"#utility.yul\":19641:19734   */\n      tag_139\n      jump\t// in\n    tag_342:\n        /* \"#utility.yul\":19759:19761   */\n      0x20\n        /* \"#utility.yul\":19754:19757   */\n      dup3\n        /* \"#utility.yul\":19750:19762   */\n      add\n        /* \"#utility.yul\":19743:19762   */\n      swap1\n      pop\n        /* \"#utility.yul\":19402:19768   */\n      swap2\n      swap1\n      pop\n      jump\t// out\n        /* \"#utility.yul\":19774:20193   */\n    tag_71:\n        /* \"#utility.yul\":19940:19944   */\n      0x00\n        /* \"#utility.yul\":19978:19980   */\n      0x20\n        /* \"#utility.yul\":19967:19976   */\n      dup3\n        /* \"#utility.yul\":19963:19981   */\n      add\n        /* \"#utility.yul\":19955:19981   */\n      swap1\n      pop\n        /* \"#utility.yul\":20027:20036   */\n      dup2\n        /* \"#utility.yul\":20021:20025   */\n      dup2\n        /* \"#utility.yul\":20017:20037   */\n      sub\n        /* \"#utility.yul\":20013:20014   */\n      0x00\n        /* \"#utility.yul\":20002:20011   */\n      dup4\n        /* \"#utility.yul\":19998:20015   */\n      add\n        /* \"#utility.yul\":19991:20038   */\n      mstore\n        /* \"#utility.yul\":20055:20186   */\n      tag_344\n        /* \"#utility.yul\":20181:20185   */\n      dup2\n        /* \"#utility.yul\":20055:20186   */\n      tag_140\n      jump\t// in\n    tag_344:\n        /* \"#utility.yul\":20047:20186   */\n      swap1\n      pop\n        /* \"#utility.yul\":19774:20193   */\n      swap2\n      swap1\n      pop\n      jump\t// out\n        /* \"#utility.yul\":20199:20393   */\n    tag_73:\n        /* \"#utility.yul\":20239:20243   */\n      0x00\n        /* \"#utility.yul\":20259:20279   */\n      tag_346\n        /* \"#utility.yul\":20277:20278   */\n      dup3\n        /* \"#utility.yul\":20259:20279   */\n      tag_99\n      jump\t// in\n    tag_346:\n        /* \"#utility.yul\":20254:20279   */\n      swap2\n      pop\n        /* \"#utility.yul\":20293:20313   */\n      tag_347\n        /* \"#utility.yul\":20311:20312   */\n      dup4\n        /* \"#utility.yul\":20293:20313   */\n      tag_99\n      jump\t// in\n    tag_347:\n        /* \"#utility.yul\":20288:20313   */\n      swap3\n      pop\n        /* \"#utility.yul\":20337:20338   */\n      dup3\n        /* \"#utility.yul\":20334:20335   */\n      dup3\n        /* \"#utility.yul\":20330:20339   */\n      sub\n        /* \"#utility.yul\":20322:20339   */\n      swap1\n      pop\n        /* \"#utility.yul\":20361:20362   */\n      dup2\n        /* \"#utility.yul\":20355:20359   */\n      dup2\n        /* \"#utility.yul\":20352:20363   */\n      gt\n        /* \"#utility.yul\":20349:20386   */\n      iszero\n      tag_348\n      jumpi\n        /* \"#utility.yul\":20366:20384   */\n      tag_349\n      tag_132\n      jump\t// in\n    tag_349:\n        /* \"#utility.yul\":20349:20386   */\n    tag_348:\n        /* \"#utility.yul\":20199:20393   */\n      swap3\n      swap2\n      pop\n      pop\n      jump\t// out\n        /* \"#utility.yul\":20399:20590   */\n    tag_75:\n        /* \"#utility.yul\":20439:20442   */\n      0x00\n        /* \"#utility.yul\":20458:20478   */\n      tag_351\n        /* \"#utility.yul\":20476:20477   */\n      dup3\n        /* \"#utility.yul\":20458:20478   */\n      tag_99\n      jump\t// in\n    tag_351:\n        /* \"#utility.yul\":20453:20478   */\n      swap2\n      pop\n        /* \"#utility.yul\":20492:20512   */\n      tag_352\n        /* \"#utility.yul\":20510:20511   */\n      dup4\n        /* \"#utility.yul\":20492:20512   */\n      tag_99\n      jump\t// in\n    tag_352:\n        /* \"#utility.yul\":20487:20512   */\n      swap3\n      pop\n        /* \"#utility.yul\":20535:20536   */\n      dup3\n        /* \"#utility.yul\":20532:20533   */\n      dup3\n        /* \"#utility.yul\":20528:20537   */\n      add\n        /* \"#utility.yul\":20521:20537   */\n      swap1\n      pop\n        /* \"#utility.yul\":20556:20559   */\n      dup1\n        /* \"#utility.yul\":20553:20554   */\n      dup3\n        /* \"#utility.yul\":20550:20560   */\n      gt\n        /* \"#utility.yul\":20547:20583   */\n      iszero\n      tag_353\n      jumpi\n        /* \"#utility.yul\":20563:20581   */\n      tag_354\n      tag_132\n      jump\t// in\n    tag_354:\n        /* \"#utility.yul\":20547:20583   */\n    tag_353:\n        /* \"#utility.yul\":20399:20590   */\n      swap3\n      swap2\n      pop\n      pop\n      jump\t// out\n        /* \"#utility.yul\":20596:20773   */\n    tag_141:\n        /* \"#utility.yul\":20736:20765   */\n      0x7520646f6e2774206861766520656e6f756768207469636b6574730000000000\n        /* \"#utility.yul\":20732:20733   */\n      0x00\n        /* \"#utility.yul\":20724:20730   */\n      dup3\n        /* \"#utility.yul\":20720:20734   */\n      add\n        /* \"#utility.yul\":20713:20766   */\n      mstore\n        /* \"#utility.yul\":20596:20773   */\n      pop\n      jump\t// out\n        /* \"#utility.yul\":20779:21145   */\n    tag_142:\n        /* \"#utility.yul\":20921:20924   */\n      0x00\n        /* \"#utility.yul\":20942:21009   */\n      tag_357\n        /* \"#utility.yul\":21006:21008   */\n      0x1b\n        /* \"#utility.yul\":21001:21004   */\n      dup4\n        /* \"#utility.yul\":20942:21009   */\n      tag_106\n      jump\t// in\n    tag_357:\n        /* \"#utility.yul\":20935:21009   */\n      swap2\n      pop\n        /* \"#utility.yul\":21018:21111   */\n      tag_358\n        /* \"#utility.yul\":21107:21110   */\n      dup3\n        /* \"#utility.yul\":21018:21111   */\n      tag_141\n      jump\t// in\n    tag_358:\n        /* \"#utility.yul\":21136:21138   */\n      0x20\n        /* \"#utility.yul\":21131:21134   */\n      dup3\n        /* \"#utility.yul\":21127:21139   */\n      add\n        /* \"#utility.yul\":21120:21139   */\n      swap1\n      pop\n        /* \"#utility.yul\":20779:21145   */\n      swap2\n      swap1\n      pop\n      jump\t// out\n        /* \"#utility.yul\":21151:21570   */\n    tag_83:\n        /* \"#utility.yul\":21317:21321   */\n      0x00\n        /* \"#utility.yul\":21355:21357   */\n      0x20\n        /* \"#utility.yul\":21344:21353   */\n      dup3\n        /* \"#utility.yul\":21340:21358   */\n      add\n        /* \"#utility.yul\":21332:21358   */\n      swap1\n      pop\n        /* \"#utility.yul\":21404:21413   */\n      dup2\n        /* \"#utility.yul\":21398:21402   */\n      dup2\n        /* \"#utility.yul\":21394:21414   */\n      sub\n        /* \"#utility.yul\":21390:21391   */\n      0x00\n        /* \"#utility.yul\":21379:21388   */\n      dup4\n        /* \"#utility.yul\":21375:21392   */\n      add\n        /* \"#utility.yul\":21368:21415   */\n      mstore\n        /* \"#utility.yul\":21432:21563   */\n      tag_360\n        /* \"#utility.yul\":21558:21562   */\n      dup2\n        /* \"#utility.yul\":21432:21563   */\n      tag_142\n      jump\t// in\n    tag_360:\n        /* \"#utility.yul\":21424:21563   */\n      swap1\n      pop\n        /* \"#utility.yul\":21151:21570   */\n      swap2\n      swap1\n      pop\n      jump\t// out\n\n    auxdata: 0xa2646970667358221220b62a8abab05e7e6493675132c25eed2900dc116675874af8d130d5e312701c1064736f6c63430008110033\n}\n",
				"bytecode": {
					"linkReferences": {},
					"object": "608060405234801561001057600080fd5b50611402806100206000396000f3fe6080604052600436106100555760003560e01c80630374ab0b1461005a5780630b79143014610083578063298ec208146100c557806361b8ce8c146100e15780637a5a24621461010c578063dae7a13c14610135575b600080fd5b34801561006657600080fd5b50610081600480360381019061007c919061098c565b610172565b005b34801561008f57600080fd5b506100aa60048036038101906100a59190610a0f565b6102f4565b6040516100bc96959493929190610b0b565b60405180910390f35b6100df60048036038101906100da9190610b73565b6103d8565b005b3480156100ed57600080fd5b506100f66105bc565b6040516101039190610bb3565b60405180910390f35b34801561011857600080fd5b50610133600480360381019061012e9190610bfa565b6105c2565b005b34801561014157600080fd5b5061015c60048036038101906101579190610c4d565b6107d7565b6040516101699190610bb3565b60405180910390f35b4283116101b4576040517f08c379a00000000000000000000000000000000000000000000000000000000081526004016101ab90610cff565b60405180910390fd5b600081116101f7576040517f08c379a00000000000000000000000000000000000000000000000000000000081526004016101ee90610d91565b60405180910390fd5b6040518060c001604052803373ffffffffffffffffffffffffffffffffffffffff16815260200185815260200184815260200183815260200182815260200182815250600080600254815260200190815260200160002060008201518160000160006101000a81548173ffffffffffffffffffffffffffffffffffffffff021916908373ffffffffffffffffffffffffffffffffffffffff16021790555060208201518160010190816102aa9190610fbd565b5060408201518160020155606082015181600301556080820151816004015560a08201518160050155905050600260008154809291906102e9906110be565b919050555050505050565b60006020528060005260406000206000915090508060000160009054906101000a900473ffffffffffffffffffffffffffffffffffffffff169080600101805461033d90610de0565b80601f016020809104026020016040519081016040528092919081815260200182805461036990610de0565b80156103b65780601f1061038b576101008083540402835291602001916103b6565b820191906000526020600020905b81548152906001019060200180831161039957829003601f168201915b5050505050908060020154908060030154908060040154908060050154905086565b60008060008481526020019081526020016000206002015403610430576040517f08c379a000000000000000000000000000000000000000000000000000000000815260040161042790611152565b60405180910390fd5b426000808481526020019081526020016000206002015411610487576040517f08c379a000000000000000000000000000000000000000000000000000000000815260040161047e906111be565b60405180910390fd5b600080600084815260200190815260200160002090508181600301546104ad91906111de565b34146104ee576040517f08c379a00000000000000000000000000000000000000000000000000000000081526004016104e59061126c565b60405180910390fd5b8181600501541015610535576040517f08c379a000000000000000000000000000000000000000000000000000000000815260040161052c906112d8565b60405180910390fd5b8181600501600082825461054991906112f8565b9250508190555081600160003373ffffffffffffffffffffffffffffffffffffffff1673ffffffffffffffffffffffffffffffffffffffff168152602001908152602001600020600085815260200190815260200160002060008282546105b0919061132c565b92505081905550505050565b60025481565b6000806000858152602001908152602001600020600201540361061a576040517f08c379a000000000000000000000000000000000000000000000000000000000815260040161061190611152565b60405180910390fd5b426000808581526020019081526020016000206002015411610671576040517f08c379a0000000000000000000000000000000000000000000000000000000008152600401610668906111be565b60405180910390fd5b81600160003373ffffffffffffffffffffffffffffffffffffffff1673ffffffffffffffffffffffffffffffffffffffff1681526020019081526020016000206000858152602001908152602001600020541015610704576040517f08c379a00000000000000000000000000000000000000000000000000000000081526004016106fb906113ac565b60405180910390fd5b81600160003373ffffffffffffffffffffffffffffffffffffffff1673ffffffffffffffffffffffffffffffffffffffff1681526020019081526020016000206000858152602001908152602001600020600082825461076491906112f8565b9250508190555081600160008373ffffffffffffffffffffffffffffffffffffffff1673ffffffffffffffffffffffffffffffffffffffff168152602001908152602001600020600085815260200190815260200160002060008282546107cb919061132c565b92505081905550505050565b6001602052816000526040600020602052806000526040600020600091509150505481565b6000604051905090565b600080fd5b600080fd5b600080fd5b600080fd5b6000601f19601f8301169050919050565b7f4e487b7100000000000000000000000000000000000000000000000000000000600052604160045260246000fd5b6108638261081a565b810181811067ffffffffffffffff821117156108825761088161082b565b5b80604052505050565b60006108956107fc565b90506108a1828261085a565b919050565b600067ffffffffffffffff8211156108c1576108c061082b565b5b6108ca8261081a565b9050602081019050919050565b82818337600083830152505050565b60006108f96108f4846108a6565b61088b565b90508281526020810184848401111561091557610914610815565b5b6109208482856108d7565b509392505050565b600082601f83011261093d5761093c610810565b5b813561094d8482602086016108e6565b91505092915050565b6000819050919050565b61096981610956565b811461097457600080fd5b50565b60008135905061098681610960565b92915050565b600080600080608085870312156109a6576109a5610806565b5b600085013567ffffffffffffffff8111156109c4576109c361080b565b5b6109d087828801610928565b94505060206109e187828801610977565b93505060406109f287828801610977565b9250506060610a0387828801610977565b91505092959194509250565b600060208284031215610a2557610a24610806565b5b6000610a3384828501610977565b91505092915050565b600073ffffffffffffffffffffffffffffffffffffffff82169050919050565b6000610a6782610a3c565b9050919050565b610a7781610a5c565b82525050565b600081519050919050565b600082825260208201905092915050565b60005b83811015610ab7578082015181840152602081019050610a9c565b60008484015250505050565b6000610ace82610a7d565b610ad88185610a88565b9350610ae8818560208601610a99565b610af18161081a565b840191505092915050565b610b0581610956565b82525050565b600060c082019050610b206000830189610a6e565b8181036020830152610b328188610ac3565b9050610b416040830187610afc565b610b4e6060830186610afc565b610b5b6080830185610afc565b610b6860a0830184610afc565b979650505050505050565b60008060408385031215610b8a57610b89610806565b5b6000610b9885828601610977565b9250506020610ba985828601610977565b9150509250929050565b6000602082019050610bc86000830184610afc565b92915050565b610bd781610a5c565b8114610be257600080fd5b50565b600081359050610bf481610bce565b92915050565b600080600060608486031215610c1357610c12610806565b5b6000610c2186828701610977565b9350506020610c3286828701610977565b9250506040610c4386828701610be5565b9150509250925092565b60008060408385031215610c6457610c63610806565b5b6000610c7285828601610be5565b9250506020610c8385828601610977565b9150509250929050565b7f752063616e206f7267616e697365206576656e74206f6e20616e79206f74686560008201527f722064617920696e206675747572650000000000000000000000000000000000602082015250565b6000610ce9602f83610a88565b9150610cf482610c8d565b604082019050919050565b60006020820190508181036000830152610d1881610cdc565b9050919050565b7f7520646f6e277420686176652073756666696369656e74206e6f206f6620746960008201527f636b657400000000000000000000000000000000000000000000000000000000602082015250565b6000610d7b602483610a88565b9150610d8682610d1f565b604082019050919050565b60006020820190508181036000830152610daa81610d6e565b9050919050565b7f4e487b7100000000000000000000000000000000000000000000000000000000600052602260045260246000fd5b60006002820490506001821680610df857607f821691505b602082108103610e0b57610e0a610db1565b5b50919050565b60008190508160005260206000209050919050565b60006020601f8301049050919050565b600082821b905092915050565b600060088302610e737fffffffffffffffffffffffffffffffffffffffffffffffffffffffffffffffff82610e36565b610e7d8683610e36565b95508019841693508086168417925050509392505050565b6000819050919050565b6000610eba610eb5610eb084610956565b610e95565b610956565b9050919050565b6000819050919050565b610ed483610e9f565b610ee8610ee082610ec1565b848454610e43565b825550505050565b600090565b610efd610ef0565b610f08818484610ecb565b505050565b5b81811015610f2c57610f21600082610ef5565b600181019050610f0e565b5050565b601f821115610f7157610f4281610e11565b610f4b84610e26565b81016020851015610f5a578190505b610f6e610f6685610e26565b830182610f0d565b50505b505050565b600082821c905092915050565b6000610f9460001984600802610f76565b1980831691505092915050565b6000610fad8383610f83565b9150826002028217905092915050565b610fc682610a7d565b67ffffffffffffffff811115610fdf57610fde61082b565b5b610fe98254610de0565b610ff4828285610f30565b600060209050601f8311600181146110275760008415611015578287015190505b61101f8582610fa1565b865550611087565b601f19841661103586610e11565b60005b8281101561105d57848901518255600182019150602085019450602081019050611038565b8683101561107a5784890151611076601f891682610f83565b8355505b6001600288020188555050505b505050505050565b7f4e487b7100000000000000000000000000000000000000000000000000000000600052601160045260246000fd5b60006110c982610956565b91507fffffffffffffffffffffffffffffffffffffffffffffffffffffffffffffffff82036110fb576110fa61108f565b5b600182019050919050565b7f73686f7720646f65736e6f742065786973740000000000000000000000000000600082015250565b600061113c601283610a88565b915061114782611106565b602082019050919050565b6000602082019050818103600083015261116b8161112f565b9050919050565b7f6576656e742068617320616c7265616479206f63637572656400000000000000600082015250565b60006111a8601983610a88565b91506111b382611172565b602082019050919050565b600060208201905081810360008301526111d78161119b565b9050919050565b60006111e982610956565b91506111f483610956565b925082820261120281610956565b915082820484148315176112195761121861108f565b5b5092915050565b7f6574686572206973206e6f7420656e6f75676800000000000000000000000000600082015250565b6000611256601383610a88565b915061126182611220565b602082019050919050565b6000602082019050818103600083015261128581611249565b9050919050565b7f6e6f7420656e6f756768207469636b6574730000000000000000000000000000600082015250565b60006112c2601283610a88565b91506112cd8261128c565b602082019050919050565b600060208201905081810360008301526112f1816112b5565b9050919050565b600061130382610956565b915061130e83610956565b92508282039050818111156113265761132561108f565b5b92915050565b600061133782610956565b915061134283610956565b925082820190508082111561135a5761135961108f565b5b92915050565b7f7520646f6e2774206861766520656e6f756768207469636b6574730000000000600082015250565b6000611396601b83610a88565b91506113a182611360565b602082019050919050565b600060208201905081810360008301526113c581611389565b905091905056fea2646970667358221220b62a8abab05e7e6493675132c25eed2900dc116675874af8d130d5e312701c1064736f6c63430008110033",
					"opcodes": "PUSH1 0x80 PUSH1 0x40 MSTORE CALLVALUE DUP1 ISZERO PUSH2 0x10 JUMPI PUSH1 0x0 DUP1 REVERT JUMPDEST POP PUSH2 0x1402 DUP1 PUSH2 0x20 PUSH1 0x0 CODECOPY PUSH1 0x0 RETURN INVALID PUSH1 0x80 PUSH1 0x40 MSTORE PUSH1 0x4 CALLDATASIZE LT PUSH2 0x55 JUMPI PUSH1 0x0 CALLDATALOAD PUSH1 0xE0 SHR DUP1 PUSH4 0x374AB0B EQ PUSH2 0x5A JUMPI DUP1 PUSH4 0xB791430 EQ PUSH2 0x83 JUMPI DUP1 PUSH4 0x298EC208 EQ PUSH2 0xC5 JUMPI DUP1 PUSH4 0x61B8CE8C EQ PUSH2 0xE1 JUMPI DUP1 PUSH4 0x7A5A2462 EQ PUSH2 0x10C JUMPI DUP1 PUSH4 0xDAE7A13C EQ PUSH2 0x135 JUMPI JUMPDEST PUSH1 0x0 DUP1 REVERT JUMPDEST CALLVALUE DUP1 ISZERO PUSH2 0x66 JUMPI PUSH1 0x0 DUP1 REVERT JUMPDEST POP PUSH2 0x81 PUSH1 0x4 DUP1 CALLDATASIZE SUB DUP2 ADD SWAP1 PUSH2 0x7C SWAP2 SWAP1 PUSH2 0x98C JUMP JUMPDEST PUSH2 0x172 JUMP JUMPDEST STOP JUMPDEST CALLVALUE DUP1 ISZERO PUSH2 0x8F JUMPI PUSH1 0x0 DUP1 REVERT JUMPDEST POP PUSH2 0xAA PUSH1 0x4 DUP1 CALLDATASIZE SUB DUP2 ADD SWAP1 PUSH2 0xA5 SWAP2 SWAP1 PUSH2 0xA0F JUMP JUMPDEST PUSH2 0x2F4 JUMP JUMPDEST PUSH1 0x40 MLOAD PUSH2 0xBC SWAP7 SWAP6 SWAP5 SWAP4 SWAP3 SWAP2 SWAP1 PUSH2 0xB0B JUMP JUMPDEST PUSH1 0x40 MLOAD DUP1 SWAP2 SUB SWAP1 RETURN JUMPDEST PUSH2 0xDF PUSH1 0x4 DUP1 CALLDATASIZE SUB DUP2 ADD SWAP1 PUSH2 0xDA SWAP2 SWAP1 PUSH2 0xB73 JUMP JUMPDEST PUSH2 0x3D8 JUMP JUMPDEST STOP JUMPDEST CALLVALUE DUP1 ISZERO PUSH2 0xED JUMPI PUSH1 0x0 DUP1 REVERT JUMPDEST POP PUSH2 0xF6 PUSH2 0x5BC JUMP JUMPDEST PUSH1 0x40 MLOAD PUSH2 0x103 SWAP2 SWAP1 PUSH2 0xBB3 JUMP JUMPDEST PUSH1 0x40 MLOAD DUP1 SWAP2 SUB SWAP1 RETURN JUMPDEST CALLVALUE DUP1 ISZERO PUSH2 0x118 JUMPI PUSH1 0x0 DUP1 REVERT JUMPDEST POP PUSH2 0x133 PUSH1 0x4 DUP1 CALLDATASIZE SUB DUP2 ADD SWAP1 PUSH2 0x12E SWAP2 SWAP1 PUSH2 0xBFA JUMP JUMPDEST PUSH2 0x5C2 JUMP JUMPDEST STOP JUMPDEST CALLVALUE DUP1 ISZERO PUSH2 0x141 JUMPI PUSH1 0x0 DUP1 REVERT JUMPDEST POP PUSH2 0x15C PUSH1 0x4 DUP1 CALLDATASIZE SUB DUP2 ADD SWAP1 PUSH2 0x157 SWAP2 SWAP1 PUSH2 0xC4D JUMP JUMPDEST PUSH2 0x7D7 JUMP JUMPDEST PUSH1 0x40 MLOAD PUSH2 0x169 SWAP2 SWAP1 PUSH2 0xBB3 JUMP JUMPDEST PUSH1 0x40 MLOAD DUP1 SWAP2 SUB SWAP1 RETURN JUMPDEST TIMESTAMP DUP4 GT PUSH2 0x1B4 JUMPI PUSH1 0x40 MLOAD PUSH32 0x8C379A000000000000000000000000000000000000000000000000000000000 DUP2 MSTORE PUSH1 0x4 ADD PUSH2 0x1AB SWAP1 PUSH2 0xCFF JUMP JUMPDEST PUSH1 0x40 MLOAD DUP1 SWAP2 SUB SWAP1 REVERT JUMPDEST PUSH1 0x0 DUP2 GT PUSH2 0x1F7 JUMPI PUSH1 0x40 MLOAD PUSH32 0x8C379A000000000000000000000000000000000000000000000000000000000 DUP2 MSTORE PUSH1 0x4 ADD PUSH2 0x1EE SWAP1 PUSH2 0xD91 JUMP JUMPDEST PUSH1 0x40 MLOAD DUP1 SWAP2 SUB SWAP1 REVERT JUMPDEST PUSH1 0x40 MLOAD DUP1 PUSH1 0xC0 ADD PUSH1 0x40 MSTORE DUP1 CALLER PUSH20 0xFFFFFFFFFFFFFFFFFFFFFFFFFFFFFFFFFFFFFFFF AND DUP2 MSTORE PUSH1 0x20 ADD DUP6 DUP2 MSTORE PUSH1 0x20 ADD DUP5 DUP2 MSTORE PUSH1 0x20 ADD DUP4 DUP2 MSTORE PUSH1 0x20 ADD DUP3 DUP2 MSTORE PUSH1 0x20 ADD DUP3 DUP2 MSTORE POP PUSH1 0x0 DUP1 PUSH1 0x2 SLOAD DUP2 MSTORE PUSH1 0x20 ADD SWAP1 DUP2 MSTORE PUSH1 0x20 ADD PUSH1 0x0 KECCAK256 PUSH1 0x0 DUP3 ADD MLOAD DUP2 PUSH1 0x0 ADD PUSH1 0x0 PUSH2 0x100 EXP DUP2 SLOAD DUP2 PUSH20 0xFFFFFFFFFFFFFFFFFFFFFFFFFFFFFFFFFFFFFFFF MUL NOT AND SWAP1 DUP4 PUSH20 0xFFFFFFFFFFFFFFFFFFFFFFFFFFFFFFFFFFFFFFFF AND MUL OR SWAP1 SSTORE POP PUSH1 0x20 DUP3 ADD MLOAD DUP2 PUSH1 0x1 ADD SWAP1 DUP2 PUSH2 0x2AA SWAP2 SWAP1 PUSH2 0xFBD JUMP JUMPDEST POP PUSH1 0x40 DUP3 ADD MLOAD DUP2 PUSH1 0x2 ADD SSTORE PUSH1 0x60 DUP3 ADD MLOAD DUP2 PUSH1 0x3 ADD SSTORE PUSH1 0x80 DUP3 ADD MLOAD DUP2 PUSH1 0x4 ADD SSTORE PUSH1 0xA0 DUP3 ADD MLOAD DUP2 PUSH1 0x5 ADD SSTORE SWAP1 POP POP PUSH1 0x2 PUSH1 0x0 DUP2 SLOAD DUP1 SWAP3 SWAP2 SWAP1 PUSH2 0x2E9 SWAP1 PUSH2 0x10BE JUMP JUMPDEST SWAP2 SWAP1 POP SSTORE POP POP POP POP POP JUMP JUMPDEST PUSH1 0x0 PUSH1 0x20 MSTORE DUP1 PUSH1 0x0 MSTORE PUSH1 0x40 PUSH1 0x0 KECCAK256 PUSH1 0x0 SWAP2 POP SWAP1 POP DUP1 PUSH1 0x0 ADD PUSH1 0x0 SWAP1 SLOAD SWAP1 PUSH2 0x100 EXP SWAP1 DIV PUSH20 0xFFFFFFFFFFFFFFFFFFFFFFFFFFFFFFFFFFFFFFFF AND SWAP1 DUP1 PUSH1 0x1 ADD DUP1 SLOAD PUSH2 0x33D SWAP1 PUSH2 0xDE0 JUMP JUMPDEST DUP1 PUSH1 0x1F ADD PUSH1 0x20 DUP1 SWAP2 DIV MUL PUSH1 0x20 ADD PUSH1 0x40 MLOAD SWAP1 DUP2 ADD PUSH1 0x40 MSTORE DUP1 SWAP3 SWAP2 SWAP1 DUP2 DUP2 MSTORE PUSH1 0x20 ADD DUP3 DUP1 SLOAD PUSH2 0x369 SWAP1 PUSH2 0xDE0 JUMP JUMPDEST DUP1 ISZERO PUSH2 0x3B6 JUMPI DUP1 PUSH1 0x1F LT PUSH2 0x38B JUMPI PUSH2 0x100 DUP1 DUP4 SLOAD DIV MUL DUP4 MSTORE SWAP2 PUSH1 0x20 ADD SWAP2 PUSH2 0x3B6 JUMP JUMPDEST DUP3 ADD SWAP2 SWAP1 PUSH1 0x0 MSTORE PUSH1 0x20 PUSH1 0x0 KECCAK256 SWAP1 JUMPDEST DUP2 SLOAD DUP2 MSTORE SWAP1 PUSH1 0x1 ADD SWAP1 PUSH1 0x20 ADD DUP1 DUP4 GT PUSH2 0x399 JUMPI DUP3 SWAP1 SUB PUSH1 0x1F AND DUP3 ADD SWAP2 JUMPDEST POP POP POP POP POP SWAP1 DUP1 PUSH1 0x2 ADD SLOAD SWAP1 DUP1 PUSH1 0x3 ADD SLOAD SWAP1 DUP1 PUSH1 0x4 ADD SLOAD SWAP1 DUP1 PUSH1 0x5 ADD SLOAD SWAP1 POP DUP7 JUMP JUMPDEST PUSH1 0x0 DUP1 PUSH1 0x0 DUP5 DUP2 MSTORE PUSH1 0x20 ADD SWAP1 DUP2 MSTORE PUSH1 0x20 ADD PUSH1 0x0 KECCAK256 PUSH1 0x2 ADD SLOAD SUB PUSH2 0x430 JUMPI PUSH1 0x40 MLOAD PUSH32 0x8C379A000000000000000000000000000000000000000000000000000000000 DUP2 MSTORE PUSH1 0x4 ADD PUSH2 0x427 SWAP1 PUSH2 0x1152 JUMP JUMPDEST PUSH1 0x40 MLOAD DUP1 SWAP2 SUB SWAP1 REVERT JUMPDEST TIMESTAMP PUSH1 0x0 DUP1 DUP5 DUP2 MSTORE PUSH1 0x20 ADD SWAP1 DUP2 MSTORE PUSH1 0x20 ADD PUSH1 0x0 KECCAK256 PUSH1 0x2 ADD SLOAD GT PUSH2 0x487 JUMPI PUSH1 0x40 MLOAD PUSH32 0x8C379A000000000000000000000000000000000000000000000000000000000 DUP2 MSTORE PUSH1 0x4 ADD PUSH2 0x47E SWAP1 PUSH2 0x11BE JUMP JUMPDEST PUSH1 0x40 MLOAD DUP1 SWAP2 SUB SWAP1 REVERT JUMPDEST PUSH1 0x0 DUP1 PUSH1 0x0 DUP5 DUP2 MSTORE PUSH1 0x20 ADD SWAP1 DUP2 MSTORE PUSH1 0x20 ADD PUSH1 0x0 KECCAK256 SWAP1 POP DUP2 DUP2 PUSH1 0x3 ADD SLOAD PUSH2 0x4AD SWAP2 SWAP1 PUSH2 0x11DE JUMP JUMPDEST CALLVALUE EQ PUSH2 0x4EE JUMPI PUSH1 0x40 MLOAD PUSH32 0x8C379A000000000000000000000000000000000000000000000000000000000 DUP2 MSTORE PUSH1 0x4 ADD PUSH2 0x4E5 SWAP1 PUSH2 0x126C JUMP JUMPDEST PUSH1 0x40 MLOAD DUP1 SWAP2 SUB SWAP1 REVERT JUMPDEST DUP2 DUP2 PUSH1 0x5 ADD SLOAD LT ISZERO PUSH2 0x535 JUMPI PUSH1 0x40 MLOAD PUSH32 0x8C379A000000000000000000000000000000000000000000000000000000000 DUP2 MSTORE PUSH1 0x4 ADD PUSH2 0x52C SWAP1 PUSH2 0x12D8 JUMP JUMPDEST PUSH1 0x40 MLOAD DUP1 SWAP2 SUB SWAP1 REVERT JUMPDEST DUP2 DUP2 PUSH1 0x5 ADD PUSH1 0x0 DUP3 DUP3 SLOAD PUSH2 0x549 SWAP2 SWAP1 PUSH2 0x12F8 JUMP JUMPDEST SWAP3 POP POP DUP2 SWAP1 SSTORE POP DUP2 PUSH1 0x1 PUSH1 0x0 CALLER PUSH20 0xFFFFFFFFFFFFFFFFFFFFFFFFFFFFFFFFFFFFFFFF AND PUSH20 0xFFFFFFFFFFFFFFFFFFFFFFFFFFFFFFFFFFFFFFFF AND DUP2 MSTORE PUSH1 0x20 ADD SWAP1 DUP2 MSTORE PUSH1 0x20 ADD PUSH1 0x0 KECCAK256 PUSH1 0x0 DUP6 DUP2 MSTORE PUSH1 0x20 ADD SWAP1 DUP2 MSTORE PUSH1 0x20 ADD PUSH1 0x0 KECCAK256 PUSH1 0x0 DUP3 DUP3 SLOAD PUSH2 0x5B0 SWAP2 SWAP1 PUSH2 0x132C JUMP JUMPDEST SWAP3 POP POP DUP2 SWAP1 SSTORE POP POP POP POP JUMP JUMPDEST PUSH1 0x2 SLOAD DUP2 JUMP JUMPDEST PUSH1 0x0 DUP1 PUSH1 0x0 DUP6 DUP2 MSTORE PUSH1 0x20 ADD SWAP1 DUP2 MSTORE PUSH1 0x20 ADD PUSH1 0x0 KECCAK256 PUSH1 0x2 ADD SLOAD SUB PUSH2 0x61A JUMPI PUSH1 0x40 MLOAD PUSH32 0x8C379A000000000000000000000000000000000000000000000000000000000 DUP2 MSTORE PUSH1 0x4 ADD PUSH2 0x611 SWAP1 PUSH2 0x1152 JUMP JUMPDEST PUSH1 0x40 MLOAD DUP1 SWAP2 SUB SWAP1 REVERT JUMPDEST TIMESTAMP PUSH1 0x0 DUP1 DUP6 DUP2 MSTORE PUSH1 0x20 ADD SWAP1 DUP2 MSTORE PUSH1 0x20 ADD PUSH1 0x0 KECCAK256 PUSH1 0x2 ADD SLOAD GT PUSH2 0x671 JUMPI PUSH1 0x40 MLOAD PUSH32 0x8C379A000000000000000000000000000000000000000000000000000000000 DUP2 MSTORE PUSH1 0x4 ADD PUSH2 0x668 SWAP1 PUSH2 0x11BE JUMP JUMPDEST PUSH1 0x40 MLOAD DUP1 SWAP2 SUB SWAP1 REVERT JUMPDEST DUP2 PUSH1 0x1 PUSH1 0x0 CALLER PUSH20 0xFFFFFFFFFFFFFFFFFFFFFFFFFFFFFFFFFFFFFFFF AND PUSH20 0xFFFFFFFFFFFFFFFFFFFFFFFFFFFFFFFFFFFFFFFF AND DUP2 MSTORE PUSH1 0x20 ADD SWAP1 DUP2 MSTORE PUSH1 0x20 ADD PUSH1 0x0 KECCAK256 PUSH1 0x0 DUP6 DUP2 MSTORE PUSH1 0x20 ADD SWAP1 DUP2 MSTORE PUSH1 0x20 ADD PUSH1 0x0 KECCAK256 SLOAD LT ISZERO PUSH2 0x704 JUMPI PUSH1 0x40 MLOAD PUSH32 0x8C379A000000000000000000000000000000000000000000000000000000000 DUP2 MSTORE PUSH1 0x4 ADD PUSH2 0x6FB SWAP1 PUSH2 0x13AC JUMP JUMPDEST PUSH1 0x40 MLOAD DUP1 SWAP2 SUB SWAP1 REVERT JUMPDEST DUP2 PUSH1 0x1 PUSH1 0x0 CALLER PUSH20 0xFFFFFFFFFFFFFFFFFFFFFFFFFFFFFFFFFFFFFFFF AND PUSH20 0xFFFFFFFFFFFFFFFFFFFFFFFFFFFFFFFFFFFFFFFF AND DUP2 MSTORE PUSH1 0x20 ADD SWAP1 DUP2 MSTORE PUSH1 0x20 ADD PUSH1 0x0 KECCAK256 PUSH1 0x0 DUP6 DUP2 MSTORE PUSH1 0x20 ADD SWAP1 DUP2 MSTORE PUSH1 0x20 ADD PUSH1 0x0 KECCAK256 PUSH1 0x0 DUP3 DUP3 SLOAD PUSH2 0x764 SWAP2 SWAP1 PUSH2 0x12F8 JUMP JUMPDEST SWAP3 POP POP DUP2 SWAP1 SSTORE POP DUP2 PUSH1 0x1 PUSH1 0x0 DUP4 PUSH20 0xFFFFFFFFFFFFFFFFFFFFFFFFFFFFFFFFFFFFFFFF AND PUSH20 0xFFFFFFFFFFFFFFFFFFFFFFFFFFFFFFFFFFFFFFFF AND DUP2 MSTORE PUSH1 0x20 ADD SWAP1 DUP2 MSTORE PUSH1 0x20 ADD PUSH1 0x0 KECCAK256 PUSH1 0x0 DUP6 DUP2 MSTORE PUSH1 0x20 ADD SWAP1 DUP2 MSTORE PUSH1 0x20 ADD PUSH1 0x0 KECCAK256 PUSH1 0x0 DUP3 DUP3 SLOAD PUSH2 0x7CB SWAP2 SWAP1 PUSH2 0x132C JUMP JUMPDEST SWAP3 POP POP DUP2 SWAP1 SSTORE POP POP POP POP JUMP JUMPDEST PUSH1 0x1 PUSH1 0x20 MSTORE DUP2 PUSH1 0x0 MSTORE PUSH1 0x40 PUSH1 0x0 KECCAK256 PUSH1 0x20 MSTORE DUP1 PUSH1 0x0 MSTORE PUSH1 0x40 PUSH1 0x0 KECCAK256 PUSH1 0x0 SWAP2 POP SWAP2 POP POP SLOAD DUP2 JUMP JUMPDEST PUSH1 0x0 PUSH1 0x40 MLOAD SWAP1 POP SWAP1 JUMP JUMPDEST PUSH1 0x0 DUP1 REVERT JUMPDEST PUSH1 0x0 DUP1 REVERT JUMPDEST PUSH1 0x0 DUP1 REVERT JUMPDEST PUSH1 0x0 DUP1 REVERT JUMPDEST PUSH1 0x0 PUSH1 0x1F NOT PUSH1 0x1F DUP4 ADD AND SWAP1 POP SWAP2 SWAP1 POP JUMP JUMPDEST PUSH32 0x4E487B7100000000000000000000000000000000000000000000000000000000 PUSH1 0x0 MSTORE PUSH1 0x41 PUSH1 0x4 MSTORE PUSH1 0x24 PUSH1 0x0 REVERT JUMPDEST PUSH2 0x863 DUP3 PUSH2 0x81A JUMP JUMPDEST DUP2 ADD DUP2 DUP2 LT PUSH8 0xFFFFFFFFFFFFFFFF DUP3 GT OR ISZERO PUSH2 0x882 JUMPI PUSH2 0x881 PUSH2 0x82B JUMP JUMPDEST JUMPDEST DUP1 PUSH1 0x40 MSTORE POP POP POP JUMP JUMPDEST PUSH1 0x0 PUSH2 0x895 PUSH2 0x7FC JUMP JUMPDEST SWAP1 POP PUSH2 0x8A1 DUP3 DUP3 PUSH2 0x85A JUMP JUMPDEST SWAP2 SWAP1 POP JUMP JUMPDEST PUSH1 0x0 PUSH8 0xFFFFFFFFFFFFFFFF DUP3 GT ISZERO PUSH2 0x8C1 JUMPI PUSH2 0x8C0 PUSH2 0x82B JUMP JUMPDEST JUMPDEST PUSH2 0x8CA DUP3 PUSH2 0x81A JUMP JUMPDEST SWAP1 POP PUSH1 0x20 DUP2 ADD SWAP1 POP SWAP2 SWAP1 POP JUMP JUMPDEST DUP3 DUP2 DUP4 CALLDATACOPY PUSH1 0x0 DUP4 DUP4 ADD MSTORE POP POP POP JUMP JUMPDEST PUSH1 0x0 PUSH2 0x8F9 PUSH2 0x8F4 DUP5 PUSH2 0x8A6 JUMP JUMPDEST PUSH2 0x88B JUMP JUMPDEST SWAP1 POP DUP3 DUP2 MSTORE PUSH1 0x20 DUP2 ADD DUP5 DUP5 DUP5 ADD GT ISZERO PUSH2 0x915 JUMPI PUSH2 0x914 PUSH2 0x815 JUMP JUMPDEST JUMPDEST PUSH2 0x920 DUP5 DUP3 DUP6 PUSH2 0x8D7 JUMP JUMPDEST POP SWAP4 SWAP3 POP POP POP JUMP JUMPDEST PUSH1 0x0 DUP3 PUSH1 0x1F DUP4 ADD SLT PUSH2 0x93D JUMPI PUSH2 0x93C PUSH2 0x810 JUMP JUMPDEST JUMPDEST DUP2 CALLDATALOAD PUSH2 0x94D DUP5 DUP3 PUSH1 0x20 DUP7 ADD PUSH2 0x8E6 JUMP JUMPDEST SWAP2 POP POP SWAP3 SWAP2 POP POP JUMP JUMPDEST PUSH1 0x0 DUP2 SWAP1 POP SWAP2 SWAP1 POP JUMP JUMPDEST PUSH2 0x969 DUP2 PUSH2 0x956 JUMP JUMPDEST DUP2 EQ PUSH2 0x974 JUMPI PUSH1 0x0 DUP1 REVERT JUMPDEST POP JUMP JUMPDEST PUSH1 0x0 DUP2 CALLDATALOAD SWAP1 POP PUSH2 0x986 DUP2 PUSH2 0x960 JUMP JUMPDEST SWAP3 SWAP2 POP POP JUMP JUMPDEST PUSH1 0x0 DUP1 PUSH1 0x0 DUP1 PUSH1 0x80 DUP6 DUP8 SUB SLT ISZERO PUSH2 0x9A6 JUMPI PUSH2 0x9A5 PUSH2 0x806 JUMP JUMPDEST JUMPDEST PUSH1 0x0 DUP6 ADD CALLDATALOAD PUSH8 0xFFFFFFFFFFFFFFFF DUP2 GT ISZERO PUSH2 0x9C4 JUMPI PUSH2 0x9C3 PUSH2 0x80B JUMP JUMPDEST JUMPDEST PUSH2 0x9D0 DUP8 DUP3 DUP9 ADD PUSH2 0x928 JUMP JUMPDEST SWAP5 POP POP PUSH1 0x20 PUSH2 0x9E1 DUP8 DUP3 DUP9 ADD PUSH2 0x977 JUMP JUMPDEST SWAP4 POP POP PUSH1 0x40 PUSH2 0x9F2 DUP8 DUP3 DUP9 ADD PUSH2 0x977 JUMP JUMPDEST SWAP3 POP POP PUSH1 0x60 PUSH2 0xA03 DUP8 DUP3 DUP9 ADD PUSH2 0x977 JUMP JUMPDEST SWAP2 POP POP SWAP3 SWAP6 SWAP2 SWAP5 POP SWAP3 POP JUMP JUMPDEST PUSH1 0x0 PUSH1 0x20 DUP3 DUP5 SUB SLT ISZERO PUSH2 0xA25 JUMPI PUSH2 0xA24 PUSH2 0x806 JUMP JUMPDEST JUMPDEST PUSH1 0x0 PUSH2 0xA33 DUP5 DUP3 DUP6 ADD PUSH2 0x977 JUMP JUMPDEST SWAP2 POP POP SWAP3 SWAP2 POP POP JUMP JUMPDEST PUSH1 0x0 PUSH20 0xFFFFFFFFFFFFFFFFFFFFFFFFFFFFFFFFFFFFFFFF DUP3 AND SWAP1 POP SWAP2 SWAP1 POP JUMP JUMPDEST PUSH1 0x0 PUSH2 0xA67 DUP3 PUSH2 0xA3C JUMP JUMPDEST SWAP1 POP SWAP2 SWAP1 POP JUMP JUMPDEST PUSH2 0xA77 DUP2 PUSH2 0xA5C JUMP JUMPDEST DUP3 MSTORE POP POP JUMP JUMPDEST PUSH1 0x0 DUP2 MLOAD SWAP1 POP SWAP2 SWAP1 POP JUMP JUMPDEST PUSH1 0x0 DUP3 DUP3 MSTORE PUSH1 0x20 DUP3 ADD SWAP1 POP SWAP3 SWAP2 POP POP JUMP JUMPDEST PUSH1 0x0 JUMPDEST DUP4 DUP2 LT ISZERO PUSH2 0xAB7 JUMPI DUP1 DUP3 ADD MLOAD DUP2 DUP5 ADD MSTORE PUSH1 0x20 DUP2 ADD SWAP1 POP PUSH2 0xA9C JUMP JUMPDEST PUSH1 0x0 DUP5 DUP5 ADD MSTORE POP POP POP POP JUMP JUMPDEST PUSH1 0x0 PUSH2 0xACE DUP3 PUSH2 0xA7D JUMP JUMPDEST PUSH2 0xAD8 DUP2 DUP6 PUSH2 0xA88 JUMP JUMPDEST SWAP4 POP PUSH2 0xAE8 DUP2 DUP6 PUSH1 0x20 DUP7 ADD PUSH2 0xA99 JUMP JUMPDEST PUSH2 0xAF1 DUP2 PUSH2 0x81A JUMP JUMPDEST DUP5 ADD SWAP2 POP POP SWAP3 SWAP2 POP POP JUMP JUMPDEST PUSH2 0xB05 DUP2 PUSH2 0x956 JUMP JUMPDEST DUP3 MSTORE POP POP JUMP JUMPDEST PUSH1 0x0 PUSH1 0xC0 DUP3 ADD SWAP1 POP PUSH2 0xB20 PUSH1 0x0 DUP4 ADD DUP10 PUSH2 0xA6E JUMP JUMPDEST DUP2 DUP2 SUB PUSH1 0x20 DUP4 ADD MSTORE PUSH2 0xB32 DUP2 DUP9 PUSH2 0xAC3 JUMP JUMPDEST SWAP1 POP PUSH2 0xB41 PUSH1 0x40 DUP4 ADD DUP8 PUSH2 0xAFC JUMP JUMPDEST PUSH2 0xB4E PUSH1 0x60 DUP4 ADD DUP7 PUSH2 0xAFC JUMP JUMPDEST PUSH2 0xB5B PUSH1 0x80 DUP4 ADD DUP6 PUSH2 0xAFC JUMP JUMPDEST PUSH2 0xB68 PUSH1 0xA0 DUP4 ADD DUP5 PUSH2 0xAFC JUMP JUMPDEST SWAP8 SWAP7 POP POP POP POP POP POP POP JUMP JUMPDEST PUSH1 0x0 DUP1 PUSH1 0x40 DUP4 DUP6 SUB SLT ISZERO PUSH2 0xB8A JUMPI PUSH2 0xB89 PUSH2 0x806 JUMP JUMPDEST JUMPDEST PUSH1 0x0 PUSH2 0xB98 DUP6 DUP3 DUP7 ADD PUSH2 0x977 JUMP JUMPDEST SWAP3 POP POP PUSH1 0x20 PUSH2 0xBA9 DUP6 DUP3 DUP7 ADD PUSH2 0x977 JUMP JUMPDEST SWAP2 POP POP SWAP3 POP SWAP3 SWAP1 POP JUMP JUMPDEST PUSH1 0x0 PUSH1 0x20 DUP3 ADD SWAP1 POP PUSH2 0xBC8 PUSH1 0x0 DUP4 ADD DUP5 PUSH2 0xAFC JUMP JUMPDEST SWAP3 SWAP2 POP POP JUMP JUMPDEST PUSH2 0xBD7 DUP2 PUSH2 0xA5C JUMP JUMPDEST DUP2 EQ PUSH2 0xBE2 JUMPI PUSH1 0x0 DUP1 REVERT JUMPDEST POP JUMP JUMPDEST PUSH1 0x0 DUP2 CALLDATALOAD SWAP1 POP PUSH2 0xBF4 DUP2 PUSH2 0xBCE JUMP JUMPDEST SWAP3 SWAP2 POP POP JUMP JUMPDEST PUSH1 0x0 DUP1 PUSH1 0x0 PUSH1 0x60 DUP5 DUP7 SUB SLT ISZERO PUSH2 0xC13 JUMPI PUSH2 0xC12 PUSH2 0x806 JUMP JUMPDEST JUMPDEST PUSH1 0x0 PUSH2 0xC21 DUP7 DUP3 DUP8 ADD PUSH2 0x977 JUMP JUMPDEST SWAP4 POP POP PUSH1 0x20 PUSH2 0xC32 DUP7 DUP3 DUP8 ADD PUSH2 0x977 JUMP JUMPDEST SWAP3 POP POP PUSH1 0x40 PUSH2 0xC43 DUP7 DUP3 DUP8 ADD PUSH2 0xBE5 JUMP JUMPDEST SWAP2 POP POP SWAP3 POP SWAP3 POP SWAP3 JUMP JUMPDEST PUSH1 0x0 DUP1 PUSH1 0x40 DUP4 DUP6 SUB SLT ISZERO PUSH2 0xC64 JUMPI PUSH2 0xC63 PUSH2 0x806 JUMP JUMPDEST JUMPDEST PUSH1 0x0 PUSH2 0xC72 DUP6 DUP3 DUP7 ADD PUSH2 0xBE5 JUMP JUMPDEST SWAP3 POP POP PUSH1 0x20 PUSH2 0xC83 DUP6 DUP3 DUP7 ADD PUSH2 0x977 JUMP JUMPDEST SWAP2 POP POP SWAP3 POP SWAP3 SWAP1 POP JUMP JUMPDEST PUSH32 0x752063616E206F7267616E697365206576656E74206F6E20616E79206F746865 PUSH1 0x0 DUP3 ADD MSTORE PUSH32 0x722064617920696E206675747572650000000000000000000000000000000000 PUSH1 0x20 DUP3 ADD MSTORE POP JUMP JUMPDEST PUSH1 0x0 PUSH2 0xCE9 PUSH1 0x2F DUP4 PUSH2 0xA88 JUMP JUMPDEST SWAP2 POP PUSH2 0xCF4 DUP3 PUSH2 0xC8D JUMP JUMPDEST PUSH1 0x40 DUP3 ADD SWAP1 POP SWAP2 SWAP1 POP JUMP JUMPDEST PUSH1 0x0 PUSH1 0x20 DUP3 ADD SWAP1 POP DUP2 DUP2 SUB PUSH1 0x0 DUP4 ADD MSTORE PUSH2 0xD18 DUP2 PUSH2 0xCDC JUMP JUMPDEST SWAP1 POP SWAP2 SWAP1 POP JUMP JUMPDEST PUSH32 0x7520646F6E277420686176652073756666696369656E74206E6F206F66207469 PUSH1 0x0 DUP3 ADD MSTORE PUSH32 0x636B657400000000000000000000000000000000000000000000000000000000 PUSH1 0x20 DUP3 ADD MSTORE POP JUMP JUMPDEST PUSH1 0x0 PUSH2 0xD7B PUSH1 0x24 DUP4 PUSH2 0xA88 JUMP JUMPDEST SWAP2 POP PUSH2 0xD86 DUP3 PUSH2 0xD1F JUMP JUMPDEST PUSH1 0x40 DUP3 ADD SWAP1 POP SWAP2 SWAP1 POP JUMP JUMPDEST PUSH1 0x0 PUSH1 0x20 DUP3 ADD SWAP1 POP DUP2 DUP2 SUB PUSH1 0x0 DUP4 ADD MSTORE PUSH2 0xDAA DUP2 PUSH2 0xD6E JUMP JUMPDEST SWAP1 POP SWAP2 SWAP1 POP JUMP JUMPDEST PUSH32 0x4E487B7100000000000000000000000000000000000000000000000000000000 PUSH1 0x0 MSTORE PUSH1 0x22 PUSH1 0x4 MSTORE PUSH1 0x24 PUSH1 0x0 REVERT JUMPDEST PUSH1 0x0 PUSH1 0x2 DUP3 DIV SWAP1 POP PUSH1 0x1 DUP3 AND DUP1 PUSH2 0xDF8 JUMPI PUSH1 0x7F DUP3 AND SWAP2 POP JUMPDEST PUSH1 0x20 DUP3 LT DUP2 SUB PUSH2 0xE0B JUMPI PUSH2 0xE0A PUSH2 0xDB1 JUMP JUMPDEST JUMPDEST POP SWAP2 SWAP1 POP JUMP JUMPDEST PUSH1 0x0 DUP2 SWAP1 POP DUP2 PUSH1 0x0 MSTORE PUSH1 0x20 PUSH1 0x0 KECCAK256 SWAP1 POP SWAP2 SWAP1 POP JUMP JUMPDEST PUSH1 0x0 PUSH1 0x20 PUSH1 0x1F DUP4 ADD DIV SWAP1 POP SWAP2 SWAP1 POP JUMP JUMPDEST PUSH1 0x0 DUP3 DUP3 SHL SWAP1 POP SWAP3 SWAP2 POP POP JUMP JUMPDEST PUSH1 0x0 PUSH1 0x8 DUP4 MUL PUSH2 0xE73 PUSH32 0xFFFFFFFFFFFFFFFFFFFFFFFFFFFFFFFFFFFFFFFFFFFFFFFFFFFFFFFFFFFFFFFF DUP3 PUSH2 0xE36 JUMP JUMPDEST PUSH2 0xE7D DUP7 DUP4 PUSH2 0xE36 JUMP JUMPDEST SWAP6 POP DUP1 NOT DUP5 AND SWAP4 POP DUP1 DUP7 AND DUP5 OR SWAP3 POP POP POP SWAP4 SWAP3 POP POP POP JUMP JUMPDEST PUSH1 0x0 DUP2 SWAP1 POP SWAP2 SWAP1 POP JUMP JUMPDEST PUSH1 0x0 PUSH2 0xEBA PUSH2 0xEB5 PUSH2 0xEB0 DUP5 PUSH2 0x956 JUMP JUMPDEST PUSH2 0xE95 JUMP JUMPDEST PUSH2 0x956 JUMP JUMPDEST SWAP1 POP SWAP2 SWAP1 POP JUMP JUMPDEST PUSH1 0x0 DUP2 SWAP1 POP SWAP2 SWAP1 POP JUMP JUMPDEST PUSH2 0xED4 DUP4 PUSH2 0xE9F JUMP JUMPDEST PUSH2 0xEE8 PUSH2 0xEE0 DUP3 PUSH2 0xEC1 JUMP JUMPDEST DUP5 DUP5 SLOAD PUSH2 0xE43 JUMP JUMPDEST DUP3 SSTORE POP POP POP POP JUMP JUMPDEST PUSH1 0x0 SWAP1 JUMP JUMPDEST PUSH2 0xEFD PUSH2 0xEF0 JUMP JUMPDEST PUSH2 0xF08 DUP2 DUP5 DUP5 PUSH2 0xECB JUMP JUMPDEST POP POP POP JUMP JUMPDEST JUMPDEST DUP2 DUP2 LT ISZERO PUSH2 0xF2C JUMPI PUSH2 0xF21 PUSH1 0x0 DUP3 PUSH2 0xEF5 JUMP JUMPDEST PUSH1 0x1 DUP2 ADD SWAP1 POP PUSH2 0xF0E JUMP JUMPDEST POP POP JUMP JUMPDEST PUSH1 0x1F DUP3 GT ISZERO PUSH2 0xF71 JUMPI PUSH2 0xF42 DUP2 PUSH2 0xE11 JUMP JUMPDEST PUSH2 0xF4B DUP5 PUSH2 0xE26 JUMP JUMPDEST DUP2 ADD PUSH1 0x20 DUP6 LT ISZERO PUSH2 0xF5A JUMPI DUP2 SWAP1 POP JUMPDEST PUSH2 0xF6E PUSH2 0xF66 DUP6 PUSH2 0xE26 JUMP JUMPDEST DUP4 ADD DUP3 PUSH2 0xF0D JUMP JUMPDEST POP POP JUMPDEST POP POP POP JUMP JUMPDEST PUSH1 0x0 DUP3 DUP3 SHR SWAP1 POP SWAP3 SWAP2 POP POP JUMP JUMPDEST PUSH1 0x0 PUSH2 0xF94 PUSH1 0x0 NOT DUP5 PUSH1 0x8 MUL PUSH2 0xF76 JUMP JUMPDEST NOT DUP1 DUP4 AND SWAP2 POP POP SWAP3 SWAP2 POP POP JUMP JUMPDEST PUSH1 0x0 PUSH2 0xFAD DUP4 DUP4 PUSH2 0xF83 JUMP JUMPDEST SWAP2 POP DUP3 PUSH1 0x2 MUL DUP3 OR SWAP1 POP SWAP3 SWAP2 POP POP JUMP JUMPDEST PUSH2 0xFC6 DUP3 PUSH2 0xA7D JUMP JUMPDEST PUSH8 0xFFFFFFFFFFFFFFFF DUP2 GT ISZERO PUSH2 0xFDF JUMPI PUSH2 0xFDE PUSH2 0x82B JUMP JUMPDEST JUMPDEST PUSH2 0xFE9 DUP3 SLOAD PUSH2 0xDE0 JUMP JUMPDEST PUSH2 0xFF4 DUP3 DUP3 DUP6 PUSH2 0xF30 JUMP JUMPDEST PUSH1 0x0 PUSH1 0x20 SWAP1 POP PUSH1 0x1F DUP4 GT PUSH1 0x1 DUP2 EQ PUSH2 0x1027 JUMPI PUSH1 0x0 DUP5 ISZERO PUSH2 0x1015 JUMPI DUP3 DUP8 ADD MLOAD SWAP1 POP JUMPDEST PUSH2 0x101F DUP6 DUP3 PUSH2 0xFA1 JUMP JUMPDEST DUP7 SSTORE POP PUSH2 0x1087 JUMP JUMPDEST PUSH1 0x1F NOT DUP5 AND PUSH2 0x1035 DUP7 PUSH2 0xE11 JUMP JUMPDEST PUSH1 0x0 JUMPDEST DUP3 DUP2 LT ISZERO PUSH2 0x105D JUMPI DUP5 DUP10 ADD MLOAD DUP3 SSTORE PUSH1 0x1 DUP3 ADD SWAP2 POP PUSH1 0x20 DUP6 ADD SWAP5 POP PUSH1 0x20 DUP2 ADD SWAP1 POP PUSH2 0x1038 JUMP JUMPDEST DUP7 DUP4 LT ISZERO PUSH2 0x107A JUMPI DUP5 DUP10 ADD MLOAD PUSH2 0x1076 PUSH1 0x1F DUP10 AND DUP3 PUSH2 0xF83 JUMP JUMPDEST DUP4 SSTORE POP JUMPDEST PUSH1 0x1 PUSH1 0x2 DUP9 MUL ADD DUP9 SSTORE POP POP POP JUMPDEST POP POP POP POP POP POP JUMP JUMPDEST PUSH32 0x4E487B7100000000000000000000000000000000000000000000000000000000 PUSH1 0x0 MSTORE PUSH1 0x11 PUSH1 0x4 MSTORE PUSH1 0x24 PUSH1 0x0 REVERT JUMPDEST PUSH1 0x0 PUSH2 0x10C9 DUP3 PUSH2 0x956 JUMP JUMPDEST SWAP2 POP PUSH32 0xFFFFFFFFFFFFFFFFFFFFFFFFFFFFFFFFFFFFFFFFFFFFFFFFFFFFFFFFFFFFFFFF DUP3 SUB PUSH2 0x10FB JUMPI PUSH2 0x10FA PUSH2 0x108F JUMP JUMPDEST JUMPDEST PUSH1 0x1 DUP3 ADD SWAP1 POP SWAP2 SWAP1 POP JUMP JUMPDEST PUSH32 0x73686F7720646F65736E6F742065786973740000000000000000000000000000 PUSH1 0x0 DUP3 ADD MSTORE POP JUMP JUMPDEST PUSH1 0x0 PUSH2 0x113C PUSH1 0x12 DUP4 PUSH2 0xA88 JUMP JUMPDEST SWAP2 POP PUSH2 0x1147 DUP3 PUSH2 0x1106 JUMP JUMPDEST PUSH1 0x20 DUP3 ADD SWAP1 POP SWAP2 SWAP1 POP JUMP JUMPDEST PUSH1 0x0 PUSH1 0x20 DUP3 ADD SWAP1 POP DUP2 DUP2 SUB PUSH1 0x0 DUP4 ADD MSTORE PUSH2 0x116B DUP2 PUSH2 0x112F JUMP JUMPDEST SWAP1 POP SWAP2 SWAP1 POP JUMP JUMPDEST PUSH32 0x6576656E742068617320616C7265616479206F63637572656400000000000000 PUSH1 0x0 DUP3 ADD MSTORE POP JUMP JUMPDEST PUSH1 0x0 PUSH2 0x11A8 PUSH1 0x19 DUP4 PUSH2 0xA88 JUMP JUMPDEST SWAP2 POP PUSH2 0x11B3 DUP3 PUSH2 0x1172 JUMP JUMPDEST PUSH1 0x20 DUP3 ADD SWAP1 POP SWAP2 SWAP1 POP JUMP JUMPDEST PUSH1 0x0 PUSH1 0x20 DUP3 ADD SWAP1 POP DUP2 DUP2 SUB PUSH1 0x0 DUP4 ADD MSTORE PUSH2 0x11D7 DUP2 PUSH2 0x119B JUMP JUMPDEST SWAP1 POP SWAP2 SWAP1 POP JUMP JUMPDEST PUSH1 0x0 PUSH2 0x11E9 DUP3 PUSH2 0x956 JUMP JUMPDEST SWAP2 POP PUSH2 0x11F4 DUP4 PUSH2 0x956 JUMP JUMPDEST SWAP3 POP DUP3 DUP3 MUL PUSH2 0x1202 DUP2 PUSH2 0x956 JUMP JUMPDEST SWAP2 POP DUP3 DUP3 DIV DUP5 EQ DUP4 ISZERO OR PUSH2 0x1219 JUMPI PUSH2 0x1218 PUSH2 0x108F JUMP JUMPDEST JUMPDEST POP SWAP3 SWAP2 POP POP JUMP JUMPDEST PUSH32 0x6574686572206973206E6F7420656E6F75676800000000000000000000000000 PUSH1 0x0 DUP3 ADD MSTORE POP JUMP JUMPDEST PUSH1 0x0 PUSH2 0x1256 PUSH1 0x13 DUP4 PUSH2 0xA88 JUMP JUMPDEST SWAP2 POP PUSH2 0x1261 DUP3 PUSH2 0x1220 JUMP JUMPDEST PUSH1 0x20 DUP3 ADD SWAP1 POP SWAP2 SWAP1 POP JUMP JUMPDEST PUSH1 0x0 PUSH1 0x20 DUP3 ADD SWAP1 POP DUP2 DUP2 SUB PUSH1 0x0 DUP4 ADD MSTORE PUSH2 0x1285 DUP2 PUSH2 0x1249 JUMP JUMPDEST SWAP1 POP SWAP2 SWAP1 POP JUMP JUMPDEST PUSH32 0x6E6F7420656E6F756768207469636B6574730000000000000000000000000000 PUSH1 0x0 DUP3 ADD MSTORE POP JUMP JUMPDEST PUSH1 0x0 PUSH2 0x12C2 PUSH1 0x12 DUP4 PUSH2 0xA88 JUMP JUMPDEST SWAP2 POP PUSH2 0x12CD DUP3 PUSH2 0x128C JUMP JUMPDEST PUSH1 0x20 DUP3 ADD SWAP1 POP SWAP2 SWAP1 POP JUMP JUMPDEST PUSH1 0x0 PUSH1 0x20 DUP3 ADD SWAP1 POP DUP2 DUP2 SUB PUSH1 0x0 DUP4 ADD MSTORE PUSH2 0x12F1 DUP2 PUSH2 0x12B5 JUMP JUMPDEST SWAP1 POP SWAP2 SWAP1 POP JUMP JUMPDEST PUSH1 0x0 PUSH2 0x1303 DUP3 PUSH2 0x956 JUMP JUMPDEST SWAP2 POP PUSH2 0x130E DUP4 PUSH2 0x956 JUMP JUMPDEST SWAP3 POP DUP3 DUP3 SUB SWAP1 POP DUP2 DUP2 GT ISZERO PUSH2 0x1326 JUMPI PUSH2 0x1325 PUSH2 0x108F JUMP JUMPDEST JUMPDEST SWAP3 SWAP2 POP POP JUMP JUMPDEST PUSH1 0x0 PUSH2 0x1337 DUP3 PUSH2 0x956 JUMP JUMPDEST SWAP2 POP PUSH2 0x1342 DUP4 PUSH2 0x956 JUMP JUMPDEST SWAP3 POP DUP3 DUP3 ADD SWAP1 POP DUP1 DUP3 GT ISZERO PUSH2 0x135A JUMPI PUSH2 0x1359 PUSH2 0x108F JUMP JUMPDEST JUMPDEST SWAP3 SWAP2 POP POP JUMP JUMPDEST PUSH32 0x7520646F6E2774206861766520656E6F756768207469636B6574730000000000 PUSH1 0x0 DUP3 ADD MSTORE POP JUMP JUMPDEST PUSH1 0x0 PUSH2 0x1396 PUSH1 0x1B DUP4 PUSH2 0xA88 JUMP JUMPDEST SWAP2 POP PUSH2 0x13A1 DUP3 PUSH2 0x1360 JUMP JUMPDEST PUSH1 0x20 DUP3 ADD SWAP1 POP SWAP2 SWAP1 POP JUMP JUMPDEST PUSH1 0x0 PUSH1 0x20 DUP3 ADD SWAP1 POP DUP2 DUP2 SUB PUSH1 0x0 DUP4 ADD MSTORE PUSH2 0x13C5 DUP2 PUSH2 0x1389 JUMP JUMPDEST SWAP1 POP SWAP2 SWAP1 POP JUMP INVALID LOG2 PUSH5 0x6970667358 0x22 SLT KECCAK256 0xB6 0x2A DUP11 0xBA 0xB0 0x5E PUSH31 0x6493675132C25EED2900DC116675874AF8D130D5E312701C1064736F6C6343 STOP ADDMOD GT STOP CALLER "
				},
				"gasEstimates": {
					"creation": {
						"codeDepositCost": "1024400",
						"executionCost": "1067",
						"totalCost": "1025467"
					},
					"external": {
						"buyTicket(uint256,uint256)": "infinite",
						"createEvent(string,uint256,uint256,uint256)": "infinite",
						"events(uint256)": "infinite",
						"nextId()": "2473",
						"tickets(address,uint256)": "infinite",
						"transferticket(uint256,uint256,address)": "infinite"
					}
				},
				"methodIdentifiers": {
					"buyTicket(uint256,uint256)": "298ec208",
					"createEvent(string,uint256,uint256,uint256)": "0374ab0b",
					"events(uint256)": "0b791430",
					"nextId()": "61b8ce8c",
					"tickets(address,uint256)": "dae7a13c",
					"transferticket(uint256,uint256,address)": "7a5a2462"
				}
			},
			"storageLayout": {
				"storage": [
					{
						"astId": 19,
						"contract": "event.sol:EventContract",
						"label": "events",
						"offset": 0,
						"slot": "0",
						"type": "t_mapping(t_uint256,t_struct(Event)14_storage)"
					},
					{
						"astId": 25,
						"contract": "event.sol:EventContract",
						"label": "tickets",
						"offset": 0,
						"slot": "1",
						"type": "t_mapping(t_address,t_mapping(t_uint256,t_uint256))"
					},
					{
						"astId": 27,
						"contract": "event.sol:EventContract",
						"label": "nextId",
						"offset": 0,
						"slot": "2",
						"type": "t_uint256"
					}
				],
				"types": {
					"t_address": {
						"encoding": "inplace",
						"label": "address",
						"numberOfBytes": "20"
					},
					"t_mapping(t_address,t_mapping(t_uint256,t_uint256))": {
						"encoding": "mapping",
						"key": "t_address",
						"label": "mapping(address => mapping(uint256 => uint256))",
						"numberOfBytes": "32",
						"value": "t_mapping(t_uint256,t_uint256)"
					},
					"t_mapping(t_uint256,t_struct(Event)14_storage)": {
						"encoding": "mapping",
						"key": "t_uint256",
						"label": "mapping(uint256 => struct EventContract.Event)",
						"numberOfBytes": "32",
						"value": "t_struct(Event)14_storage"
					},
					"t_mapping(t_uint256,t_uint256)": {
						"encoding": "mapping",
						"key": "t_uint256",
						"label": "mapping(uint256 => uint256)",
						"numberOfBytes": "32",
						"value": "t_uint256"
					},
					"t_string_storage": {
						"encoding": "bytes",
						"label": "string",
						"numberOfBytes": "32"
					},
					"t_struct(Event)14_storage": {
						"encoding": "inplace",
						"label": "struct EventContract.Event",
						"members": [
							{
								"astId": 3,
								"contract": "event.sol:EventContract",
								"label": "organizer",
								"offset": 0,
								"slot": "0",
								"type": "t_address"
							},
							{
								"astId": 5,
								"contract": "event.sol:EventContract",
								"label": "name",
								"offset": 0,
								"slot": "1",
								"type": "t_string_storage"
							},
							{
								"astId": 7,
								"contract": "event.sol:EventContract",
								"label": "date",
								"offset": 0,
								"slot": "2",
								"type": "t_uint256"
							},
							{
								"astId": 9,
								"contract": "event.sol:EventContract",
								"label": "price",
								"offset": 0,
								"slot": "3",
								"type": "t_uint256"
							},
							{
								"astId": 11,
								"contract": "event.sol:EventContract",
								"label": "ticketcount",
								"offset": 0,
								"slot": "4",
								"type": "t_uint256"
							},
							{
								"astId": 13,
								"contract": "event.sol:EventContract",
								"label": "ticketRemain",
								"offset": 0,
								"slot": "5",
								"type": "t_uint256"
							}
						],
						"numberOfBytes": "192"
					},
					"t_uint256": {
						"encoding": "inplace",
						"label": "uint256",
						"numberOfBytes": "32"
					}
				}
			},
			"userdoc": {
				"kind": "user",
				"methods": {},
				"version": 1
			}
		}
	}
}