{
	"gavi.sol": {
		"Election": {
			"abi": [
				{
					"inputs": [],
					"stateMutability": "nonpayable",
					"type": "constructor"
				},
				{
					"anonymous": false,
					"inputs": [
						{
							"indexed": true,
							"internalType": "address",
							"name": "previousOwner",
							"type": "address"
						},
						{
							"indexed": true,
							"internalType": "address",
							"name": "newOwner",
							"type": "address"
						}
					],
					"name": "OwnershipTransferred",
					"type": "event"
				},
				{
					"inputs": [
						{
							"internalType": "uint256",
							"name": "",
							"type": "uint256"
						}
					],
					"name": "candidates",
					"outputs": [
						{
							"internalType": "string",
							"name": "name",
							"type": "string"
						},
						{
							"internalType": "uint256",
							"name": "index",
							"type": "uint256"
						},
						{
							"internalType": "uint256",
							"name": "votecount",
							"type": "uint256"
						}
					],
					"stateMutability": "view",
					"type": "function"
				},
				{
					"inputs": [],
					"name": "getwinner",
					"outputs": [
						{
							"internalType": "uint256",
							"name": "",
							"type": "uint256"
						}
					],
					"stateMutability": "view",
					"type": "function"
				},
				{
					"inputs": [],
					"name": "owner",
					"outputs": [
						{
							"internalType": "address",
							"name": "",
							"type": "address"
						}
					],
					"stateMutability": "view",
					"type": "function"
				},
				{
					"inputs": [],
					"name": "renounceOwnership",
					"outputs": [],
					"stateMutability": "nonpayable",
					"type": "function"
				},
				{
					"inputs": [
						{
							"internalType": "address",
							"name": "newOwner",
							"type": "address"
						}
					],
					"name": "transferOwnership",
					"outputs": [],
					"stateMutability": "nonpayable",
					"type": "function"
				},
				{
					"inputs": [
						{
							"internalType": "string",
							"name": "_name",
							"type": "string"
						},
						{
							"internalType": "uint256",
							"name": "_index",
							"type": "uint256"
						}
					],
					"name": "vote",
					"outputs": [],
					"stateMutability": "nonpayable",
					"type": "function"
				},
				{
					"inputs": [
						{
							"internalType": "address",
							"name": "",
							"type": "address"
						}
					],
					"name": "voters",
					"outputs": [
						{
							"internalType": "string",
							"name": "name",
							"type": "string"
						},
						{
							"internalType": "uint256",
							"name": "index",
							"type": "uint256"
						},
						{
							"internalType": "bool",
							"name": "voted",
							"type": "bool"
						}
					],
					"stateMutability": "view",
					"type": "function"
				}
			],
			"devdoc": {
				"kind": "dev",
				"methods": {
					"owner()": {
						"details": "Returns the address of the current owner."
					},
					"renounceOwnership()": {
						"details": "Leaves the contract without owner. It will not be possible to call `onlyOwner` functions anymore. Can only be called by the current owner. NOTE: Renouncing ownership will leave the contract without an owner, thereby removing any functionality that is only available to the owner."
					},
					"transferOwnership(address)": {
						"details": "Transfers ownership of the contract to a new account (`newOwner`). Can only be called by the current owner."
					}
				},
				"version": 1
			},
			"evm": {
				"assembly": "    /* \"gavi.sol\":142:1137  contract Election is Ownable{... */\n  mstore(0x40, 0x80)\n    /* \"gavi.sol\":459:580  constructor() {... */\n  callvalue\n  dup1\n  iszero\n  tag_1\n  jumpi\n  0x00\n  dup1\n  revert\ntag_1:\n  pop\n    /* \"@openzeppelin/contracts/access/Ownable.sol\":936:968  _transferOwnership(_msgSender()) */\n  tag_5\n    /* \"@openzeppelin/contracts/access/Ownable.sol\":955:967  _msgSender() */\n  tag_6\n    /* \"@openzeppelin/contracts/access/Ownable.sol\":955:965  _msgSender */\n  shl(0x20, tag_7)\n    /* \"@openzeppelin/contracts/access/Ownable.sol\":955:967  _msgSender() */\n  0x20\n  shr\n  jump\t// in\ntag_6:\n    /* \"@openzeppelin/contracts/access/Ownable.sol\":936:954  _transferOwnership */\n  shl(0x20, tag_8)\n    /* \"@openzeppelin/contracts/access/Ownable.sol\":936:968  _transferOwnership(_msgSender()) */\n  0x20\n  shr\n  jump\t// in\ntag_5:\n    /* \"gavi.sol\":499:523  candidate('Rahul', 1, 0) */\n  mload(0x40)\n  dup1\n  0x60\n  add\n  0x40\n  mstore\n  dup1\n  mload(0x40)\n  dup1\n  0x40\n  add\n  0x40\n  mstore\n  dup1\n  0x05\n  dup2\n  mstore\n  0x20\n  add\n  0x526168756c000000000000000000000000000000000000000000000000000000\n  dup2\n  mstore\n  pop\n  dup2\n  mstore\n  0x20\n  add\n    /* \"gavi.sol\":518:519  1 */\n  0x01\n    /* \"gavi.sol\":499:523  candidate('Rahul', 1, 0) */\n  dup2\n  mstore\n  0x20\n  add\n    /* \"gavi.sol\":521:522  0 */\n  0x00\n    /* \"gavi.sol\":499:523  candidate('Rahul', 1, 0) */\n  dup2\n  mstore\n  pop\n    /* \"gavi.sol\":483:493  candidates */\n  0x01\n    /* \"gavi.sol\":483:496  candidates[1] */\n  0x00\n    /* \"gavi.sol\":494:495  1 */\n  0x01\n    /* \"gavi.sol\":483:496  candidates[1] */\n  dup2\n  mstore\n  0x20\n  add\n  swap1\n  dup2\n  mstore\n  0x20\n  add\n  0x00\n  keccak256\n    /* \"gavi.sol\":483:523  candidates[1] = candidate('Rahul', 1, 0) */\n  0x00\n  dup3\n  add\n  mload\n  dup2\n  0x00\n  add\n  swap1\n  dup2\n  tag_10\n  swap2\n  swap1\n  tag_11\n  jump\t// in\ntag_10:\n  pop\n  0x20\n  dup3\n  add\n  mload\n  dup2\n  0x01\n  add\n  sstore\n  0x40\n  dup3\n  add\n  mload\n  dup2\n  0x02\n  add\n  sstore\n  swap1\n  pop\n  pop\n    /* \"gavi.sol\":549:573  candidate('Priya', 2, 0) */\n  mload(0x40)\n  dup1\n  0x60\n  add\n  0x40\n  mstore\n  dup1\n  mload(0x40)\n  dup1\n  0x40\n  add\n  0x40\n  mstore\n  dup1\n  0x05\n  dup2\n  mstore\n  0x20\n  add\n  0x5072697961000000000000000000000000000000000000000000000000000000\n  dup2\n  mstore\n  pop\n  dup2\n  mstore\n  0x20\n  add\n    /* \"gavi.sol\":568:569  2 */\n  0x02\n    /* \"gavi.sol\":549:573  candidate('Priya', 2, 0) */\n  dup2\n  mstore\n  0x20\n  add\n    /* \"gavi.sol\":571:572  0 */\n  0x00\n    /* \"gavi.sol\":549:573  candidate('Priya', 2, 0) */\n  dup2\n  mstore\n  pop\n    /* \"gavi.sol\":533:543  candidates */\n  0x01\n    /* \"gavi.sol\":533:546  candidates[2] */\n  0x00\n    /* \"gavi.sol\":544:545  2 */\n  0x02\n    /* \"gavi.sol\":533:546  candidates[2] */\n  dup2\n  mstore\n  0x20\n  add\n  swap1\n  dup2\n  mstore\n  0x20\n  add\n  0x00\n  keccak256\n    /* \"gavi.sol\":533:573  candidates[2] = candidate('Priya', 2, 0) */\n  0x00\n  dup3\n  add\n  mload\n  dup2\n  0x00\n  add\n  swap1\n  dup2\n  tag_12\n  swap2\n  swap1\n  tag_11\n  jump\t// in\ntag_12:\n  pop\n  0x20\n  dup3\n  add\n  mload\n  dup2\n  0x01\n  add\n  sstore\n  0x40\n  dup3\n  add\n  mload\n  dup2\n  0x02\n  add\n  sstore\n  swap1\n  pop\n  pop\n    /* \"gavi.sol\":142:1137  contract Election is Ownable{... */\n  jump(tag_13)\n    /* \"@openzeppelin/contracts/utils/Context.sol\":640:736  function _msgSender() internal view virtual returns (address) {... */\ntag_7:\n    /* \"@openzeppelin/contracts/utils/Context.sol\":693:700  address */\n  0x00\n    /* \"@openzeppelin/contracts/utils/Context.sol\":719:729  msg.sender */\n  caller\n    /* \"@openzeppelin/contracts/utils/Context.sol\":712:729  return msg.sender */\n  swap1\n  pop\n    /* \"@openzeppelin/contracts/utils/Context.sol\":640:736  function _msgSender() internal view virtual returns (address) {... */\n  swap1\n  jump\t// out\n    /* \"@openzeppelin/contracts/access/Ownable.sol\":2433:2620  function _transferOwnership(address newOwner) internal virtual {... */\ntag_8:\n    /* \"@openzeppelin/contracts/access/Ownable.sol\":2506:2522  address oldOwner */\n  0x00\n    /* \"@openzeppelin/contracts/access/Ownable.sol\":2525:2531  _owner */\n  dup1\n  0x00\n  swap1\n  sload\n  swap1\n  0x0100\n  exp\n  swap1\n  div\n  0xffffffffffffffffffffffffffffffffffffffff\n  and\n    /* \"@openzeppelin/contracts/access/Ownable.sol\":2506:2531  address oldOwner = _owner */\n  swap1\n  pop\n    /* \"@openzeppelin/contracts/access/Ownable.sol\":2550:2558  newOwner */\n  dup2\n    /* \"@openzeppelin/contracts/access/Ownable.sol\":2541:2547  _owner */\n  0x00\n  dup1\n    /* \"@openzeppelin/contracts/access/Ownable.sol\":2541:2558  _owner = newOwner */\n  0x0100\n  exp\n  dup2\n  sload\n  dup2\n  0xffffffffffffffffffffffffffffffffffffffff\n  mul\n  not\n  and\n  swap1\n  dup4\n  0xffffffffffffffffffffffffffffffffffffffff\n  and\n  mul\n  or\n  swap1\n  sstore\n  pop\n    /* \"@openzeppelin/contracts/access/Ownable.sol\":2604:2612  newOwner */\n  dup2\n    /* \"@openzeppelin/contracts/access/Ownable.sol\":2573:2613  OwnershipTransferred(oldOwner, newOwner) */\n  0xffffffffffffffffffffffffffffffffffffffff\n  and\n    /* \"@openzeppelin/contracts/access/Ownable.sol\":2594:2602  oldOwner */\n  dup2\n    /* \"@openzeppelin/contracts/access/Ownable.sol\":2573:2613  OwnershipTransferred(oldOwner, newOwner) */\n  0xffffffffffffffffffffffffffffffffffffffff\n  and\n  0x8be0079c531659141344cd1fd0a4f28419497f9722a3daafe3b4186f6b6457e0\n  mload(0x40)\n  mload(0x40)\n  dup1\n  swap2\n  sub\n  swap1\n  log3\n    /* \"@openzeppelin/contracts/access/Ownable.sol\":2496:2620  {... */\n  pop\n    /* \"@openzeppelin/contracts/access/Ownable.sol\":2433:2620  function _transferOwnership(address newOwner) internal virtual {... */\n  pop\n  jump\t// out\n    /* \"#utility.yul\":7:106   */\ntag_16:\n    /* \"#utility.yul\":59:65   */\n  0x00\n    /* \"#utility.yul\":93:98   */\n  dup2\n    /* \"#utility.yul\":87:99   */\n  mload\n    /* \"#utility.yul\":77:99   */\n  swap1\n  pop\n    /* \"#utility.yul\":7:106   */\n  swap2\n  swap1\n  pop\n  jump\t// out\n    /* \"#utility.yul\":112:292   */\ntag_17:\n    /* \"#utility.yul\":160:237   */\n  0x4e487b7100000000000000000000000000000000000000000000000000000000\n    /* \"#utility.yul\":157:158   */\n  0x00\n    /* \"#utility.yul\":150:238   */\n  mstore\n    /* \"#utility.yul\":257:261   */\n  0x41\n    /* \"#utility.yul\":254:255   */\n  0x04\n    /* \"#utility.yul\":247:262   */\n  mstore\n    /* \"#utility.yul\":281:285   */\n  0x24\n    /* \"#utility.yul\":278:279   */\n  0x00\n    /* \"#utility.yul\":271:286   */\n  revert\n    /* \"#utility.yul\":298:478   */\ntag_18:\n    /* \"#utility.yul\":346:423   */\n  0x4e487b7100000000000000000000000000000000000000000000000000000000\n    /* \"#utility.yul\":343:344   */\n  0x00\n    /* \"#utility.yul\":336:424   */\n  mstore\n    /* \"#utility.yul\":443:447   */\n  0x22\n    /* \"#utility.yul\":440:441   */\n  0x04\n    /* \"#utility.yul\":433:448   */\n  mstore\n    /* \"#utility.yul\":467:471   */\n  0x24\n    /* \"#utility.yul\":464:465   */\n  0x00\n    /* \"#utility.yul\":457:472   */\n  revert\n    /* \"#utility.yul\":484:804   */\ntag_19:\n    /* \"#utility.yul\":528:534   */\n  0x00\n    /* \"#utility.yul\":565:566   */\n  0x02\n    /* \"#utility.yul\":559:563   */\n  dup3\n    /* \"#utility.yul\":555:567   */\n  div\n    /* \"#utility.yul\":545:567   */\n  swap1\n  pop\n    /* \"#utility.yul\":612:613   */\n  0x01\n    /* \"#utility.yul\":606:610   */\n  dup3\n    /* \"#utility.yul\":602:614   */\n  and\n    /* \"#utility.yul\":633:651   */\n  dup1\n    /* \"#utility.yul\":623:704   */\n  tag_41\n  jumpi\n    /* \"#utility.yul\":689:693   */\n  0x7f\n    /* \"#utility.yul\":681:687   */\n  dup3\n    /* \"#utility.yul\":677:694   */\n  and\n    /* \"#utility.yul\":667:694   */\n  swap2\n  pop\n    /* \"#utility.yul\":623:704   */\ntag_41:\n    /* \"#utility.yul\":751:753   */\n  0x20\n    /* \"#utility.yul\":743:749   */\n  dup3\n    /* \"#utility.yul\":740:754   */\n  lt\n    /* \"#utility.yul\":720:738   */\n  dup2\n    /* \"#utility.yul\":717:755   */\n  sub\n    /* \"#utility.yul\":714:798   */\n  tag_42\n  jumpi\n    /* \"#utility.yul\":770:788   */\n  tag_43\n  tag_18\n  jump\t// in\ntag_43:\n    /* \"#utility.yul\":714:798   */\ntag_42:\n    /* \"#utility.yul\":535:804   */\n  pop\n    /* \"#utility.yul\":484:804   */\n  swap2\n  swap1\n  pop\n  jump\t// out\n    /* \"#utility.yul\":810:951   */\ntag_20:\n    /* \"#utility.yul\":859:863   */\n  0x00\n    /* \"#utility.yul\":882:885   */\n  dup2\n    /* \"#utility.yul\":874:885   */\n  swap1\n  pop\n    /* \"#utility.yul\":905:908   */\n  dup2\n    /* \"#utility.yul\":902:903   */\n  0x00\n    /* \"#utility.yul\":895:909   */\n  mstore\n    /* \"#utility.yul\":939:943   */\n  0x20\n    /* \"#utility.yul\":936:937   */\n  0x00\n    /* \"#utility.yul\":926:944   */\n  keccak256\n    /* \"#utility.yul\":918:944   */\n  swap1\n  pop\n    /* \"#utility.yul\":810:951   */\n  swap2\n  swap1\n  pop\n  jump\t// out\n    /* \"#utility.yul\":957:1050   */\ntag_21:\n    /* \"#utility.yul\":994:1000   */\n  0x00\n    /* \"#utility.yul\":1041:1043   */\n  0x20\n    /* \"#utility.yul\":1036:1038   */\n  0x1f\n    /* \"#utility.yul\":1029:1034   */\n  dup4\n    /* \"#utility.yul\":1025:1039   */\n  add\n    /* \"#utility.yul\":1021:1044   */\n  div\n    /* \"#utility.yul\":1011:1044   */\n  swap1\n  pop\n    /* \"#utility.yul\":957:1050   */\n  swap2\n  swap1\n  pop\n  jump\t// out\n    /* \"#utility.yul\":1056:1163   */\ntag_22:\n    /* \"#utility.yul\":1100:1108   */\n  0x00\n    /* \"#utility.yul\":1150:1155   */\n  dup3\n    /* \"#utility.yul\":1144:1148   */\n  dup3\n    /* \"#utility.yul\":1140:1156   */\n  shl\n    /* \"#utility.yul\":1119:1156   */\n  swap1\n  pop\n    /* \"#utility.yul\":1056:1163   */\n  swap3\n  swap2\n  pop\n  pop\n  jump\t// out\n    /* \"#utility.yul\":1169:1562   */\ntag_23:\n    /* \"#utility.yul\":1238:1244   */\n  0x00\n    /* \"#utility.yul\":1288:1289   */\n  0x08\n    /* \"#utility.yul\":1276:1286   */\n  dup4\n    /* \"#utility.yul\":1272:1290   */\n  mul\n    /* \"#utility.yul\":1311:1408   */\n  tag_48\n    /* \"#utility.yul\":1341:1407   */\n  0xffffffffffffffffffffffffffffffffffffffffffffffffffffffffffffffff\n    /* \"#utility.yul\":1330:1339   */\n  dup3\n    /* \"#utility.yul\":1311:1408   */\n  tag_22\n  jump\t// in\ntag_48:\n    /* \"#utility.yul\":1429:1468   */\n  tag_49\n    /* \"#utility.yul\":1459:1467   */\n  dup7\n    /* \"#utility.yul\":1448:1457   */\n  dup4\n    /* \"#utility.yul\":1429:1468   */\n  tag_22\n  jump\t// in\ntag_49:\n    /* \"#utility.yul\":1417:1468   */\n  swap6\n  pop\n    /* \"#utility.yul\":1501:1505   */\n  dup1\n    /* \"#utility.yul\":1497:1506   */\n  not\n    /* \"#utility.yul\":1490:1495   */\n  dup5\n    /* \"#utility.yul\":1486:1507   */\n  and\n    /* \"#utility.yul\":1477:1507   */\n  swap4\n  pop\n    /* \"#utility.yul\":1550:1554   */\n  dup1\n    /* \"#utility.yul\":1540:1548   */\n  dup7\n    /* \"#utility.yul\":1536:1555   */\n  and\n    /* \"#utility.yul\":1529:1534   */\n  dup5\n    /* \"#utility.yul\":1526:1556   */\n  or\n    /* \"#utility.yul\":1516:1556   */\n  swap3\n  pop\n    /* \"#utility.yul\":1245:1562   */\n  pop\n  pop\n    /* \"#utility.yul\":1169:1562   */\n  swap4\n  swap3\n  pop\n  pop\n  pop\n  jump\t// out\n    /* \"#utility.yul\":1568:1645   */\ntag_24:\n    /* \"#utility.yul\":1605:1612   */\n  0x00\n    /* \"#utility.yul\":1634:1639   */\n  dup2\n    /* \"#utility.yul\":1623:1639   */\n  swap1\n  pop\n    /* \"#utility.yul\":1568:1645   */\n  swap2\n  swap1\n  pop\n  jump\t// out\n    /* \"#utility.yul\":1651:1711   */\ntag_25:\n    /* \"#utility.yul\":1679:1682   */\n  0x00\n    /* \"#utility.yul\":1700:1705   */\n  dup2\n    /* \"#utility.yul\":1693:1705   */\n  swap1\n  pop\n    /* \"#utility.yul\":1651:1711   */\n  swap2\n  swap1\n  pop\n  jump\t// out\n    /* \"#utility.yul\":1717:1859   */\ntag_26:\n    /* \"#utility.yul\":1767:1776   */\n  0x00\n    /* \"#utility.yul\":1800:1853   */\n  tag_53\n    /* \"#utility.yul\":1818:1852   */\n  tag_54\n    /* \"#utility.yul\":1827:1851   */\n  tag_55\n    /* \"#utility.yul\":1845:1850   */\n  dup5\n    /* \"#utility.yul\":1827:1851   */\n  tag_24\n  jump\t// in\ntag_55:\n    /* \"#utility.yul\":1818:1852   */\n  tag_25\n  jump\t// in\ntag_54:\n    /* \"#utility.yul\":1800:1853   */\n  tag_24\n  jump\t// in\ntag_53:\n    /* \"#utility.yul\":1787:1853   */\n  swap1\n  pop\n    /* \"#utility.yul\":1717:1859   */\n  swap2\n  swap1\n  pop\n  jump\t// out\n    /* \"#utility.yul\":1865:1940   */\ntag_27:\n    /* \"#utility.yul\":1908:1911   */\n  0x00\n    /* \"#utility.yul\":1929:1934   */\n  dup2\n    /* \"#utility.yul\":1922:1934   */\n  swap1\n  pop\n    /* \"#utility.yul\":1865:1940   */\n  swap2\n  swap1\n  pop\n  jump\t// out\n    /* \"#utility.yul\":1946:2215   */\ntag_28:\n    /* \"#utility.yul\":2056:2095   */\n  tag_58\n    /* \"#utility.yul\":2087:2094   */\n  dup4\n    /* \"#utility.yul\":2056:2095   */\n  tag_26\n  jump\t// in\ntag_58:\n    /* \"#utility.yul\":2117:2208   */\n  tag_59\n    /* \"#utility.yul\":2166:2207   */\n  tag_60\n    /* \"#utility.yul\":2190:2206   */\n  dup3\n    /* \"#utility.yul\":2166:2207   */\n  tag_27\n  jump\t// in\ntag_60:\n    /* \"#utility.yul\":2158:2164   */\n  dup5\n    /* \"#utility.yul\":2151:2155   */\n  dup5\n    /* \"#utility.yul\":2145:2156   */\n  sload\n    /* \"#utility.yul\":2117:2208   */\n  tag_23\n  jump\t// in\ntag_59:\n    /* \"#utility.yul\":2111:2115   */\n  dup3\n    /* \"#utility.yul\":2104:2209   */\n  sstore\n    /* \"#utility.yul\":2022:2215   */\n  pop\n    /* \"#utility.yul\":1946:2215   */\n  pop\n  pop\n  pop\n  jump\t// out\n    /* \"#utility.yul\":2221:2294   */\ntag_29:\n    /* \"#utility.yul\":2266:2269   */\n  0x00\n    /* \"#utility.yul\":2221:2294   */\n  swap1\n  jump\t// out\n    /* \"#utility.yul\":2300:2489   */\ntag_30:\n    /* \"#utility.yul\":2377:2409   */\n  tag_63\n  tag_29\n  jump\t// in\ntag_63:\n    /* \"#utility.yul\":2418:2483   */\n  tag_64\n    /* \"#utility.yul\":2476:2482   */\n  dup2\n    /* \"#utility.yul\":2468:2474   */\n  dup5\n    /* \"#utility.yul\":2462:2466   */\n  dup5\n    /* \"#utility.yul\":2418:2483   */\n  tag_28\n  jump\t// in\ntag_64:\n    /* \"#utility.yul\":2353:2489   */\n  pop\n    /* \"#utility.yul\":2300:2489   */\n  pop\n  pop\n  jump\t// out\n    /* \"#utility.yul\":2495:2681   */\ntag_31:\n    /* \"#utility.yul\":2555:2675   */\ntag_66:\n    /* \"#utility.yul\":2572:2575   */\n  dup2\n    /* \"#utility.yul\":2565:2570   */\n  dup2\n    /* \"#utility.yul\":2562:2576   */\n  lt\n    /* \"#utility.yul\":2555:2675   */\n  iszero\n  tag_68\n  jumpi\n    /* \"#utility.yul\":2626:2665   */\n  tag_69\n    /* \"#utility.yul\":2663:2664   */\n  0x00\n    /* \"#utility.yul\":2656:2661   */\n  dup3\n    /* \"#utility.yul\":2626:2665   */\n  tag_30\n  jump\t// in\ntag_69:\n    /* \"#utility.yul\":2599:2600   */\n  0x01\n    /* \"#utility.yul\":2592:2597   */\n  dup2\n    /* \"#utility.yul\":2588:2601   */\n  add\n    /* \"#utility.yul\":2579:2601   */\n  swap1\n  pop\n    /* \"#utility.yul\":2555:2675   */\n  jump(tag_66)\ntag_68:\n    /* \"#utility.yul\":2495:2681   */\n  pop\n  pop\n  jump\t// out\n    /* \"#utility.yul\":2687:3230   */\ntag_32:\n    /* \"#utility.yul\":2788:2790   */\n  0x1f\n    /* \"#utility.yul\":2783:2786   */\n  dup3\n    /* \"#utility.yul\":2780:2791   */\n  gt\n    /* \"#utility.yul\":2777:3223   */\n  iszero\n  tag_71\n  jumpi\n    /* \"#utility.yul\":2822:2860   */\n  tag_72\n    /* \"#utility.yul\":2854:2859   */\n  dup2\n    /* \"#utility.yul\":2822:2860   */\n  tag_20\n  jump\t// in\ntag_72:\n    /* \"#utility.yul\":2906:2935   */\n  tag_73\n    /* \"#utility.yul\":2924:2934   */\n  dup5\n    /* \"#utility.yul\":2906:2935   */\n  tag_21\n  jump\t// in\ntag_73:\n    /* \"#utility.yul\":2896:2904   */\n  dup2\n    /* \"#utility.yul\":2892:2936   */\n  add\n    /* \"#utility.yul\":3089:3091   */\n  0x20\n    /* \"#utility.yul\":3077:3087   */\n  dup6\n    /* \"#utility.yul\":3074:3092   */\n  lt\n    /* \"#utility.yul\":3071:3120   */\n  iszero\n  tag_74\n  jumpi\n    /* \"#utility.yul\":3110:3118   */\n  dup2\n    /* \"#utility.yul\":3095:3118   */\n  swap1\n  pop\n    /* \"#utility.yul\":3071:3120   */\ntag_74:\n    /* \"#utility.yul\":3133:3213   */\n  tag_75\n    /* \"#utility.yul\":3189:3211   */\n  tag_76\n    /* \"#utility.yul\":3207:3210   */\n  dup6\n    /* \"#utility.yul\":3189:3211   */\n  tag_21\n  jump\t// in\ntag_76:\n    /* \"#utility.yul\":3179:3187   */\n  dup4\n    /* \"#utility.yul\":3175:3212   */\n  add\n    /* \"#utility.yul\":3162:3173   */\n  dup3\n    /* \"#utility.yul\":3133:3213   */\n  tag_31\n  jump\t// in\ntag_75:\n    /* \"#utility.yul\":2792:3223   */\n  pop\n  pop\n    /* \"#utility.yul\":2777:3223   */\ntag_71:\n    /* \"#utility.yul\":2687:3230   */\n  pop\n  pop\n  pop\n  jump\t// out\n    /* \"#utility.yul\":3236:3353   */\ntag_33:\n    /* \"#utility.yul\":3290:3298   */\n  0x00\n    /* \"#utility.yul\":3340:3345   */\n  dup3\n    /* \"#utility.yul\":3334:3338   */\n  dup3\n    /* \"#utility.yul\":3330:3346   */\n  shr\n    /* \"#utility.yul\":3309:3346   */\n  swap1\n  pop\n    /* \"#utility.yul\":3236:3353   */\n  swap3\n  swap2\n  pop\n  pop\n  jump\t// out\n    /* \"#utility.yul\":3359:3528   */\ntag_34:\n    /* \"#utility.yul\":3403:3409   */\n  0x00\n    /* \"#utility.yul\":3436:3487   */\n  tag_79\n    /* \"#utility.yul\":3484:3485   */\n  0x00\n    /* \"#utility.yul\":3480:3486   */\n  not\n    /* \"#utility.yul\":3472:3477   */\n  dup5\n    /* \"#utility.yul\":3469:3470   */\n  0x08\n    /* \"#utility.yul\":3465:3478   */\n  mul\n    /* \"#utility.yul\":3436:3487   */\n  tag_33\n  jump\t// in\ntag_79:\n    /* \"#utility.yul\":3432:3488   */\n  not\n    /* \"#utility.yul\":3517:3521   */\n  dup1\n    /* \"#utility.yul\":3511:3515   */\n  dup4\n    /* \"#utility.yul\":3507:3522   */\n  and\n    /* \"#utility.yul\":3497:3522   */\n  swap2\n  pop\n    /* \"#utility.yul\":3410:3528   */\n  pop\n    /* \"#utility.yul\":3359:3528   */\n  swap3\n  swap2\n  pop\n  pop\n  jump\t// out\n    /* \"#utility.yul\":3533:3828   */\ntag_35:\n    /* \"#utility.yul\":3609:3613   */\n  0x00\n    /* \"#utility.yul\":3755:3784   */\n  tag_81\n    /* \"#utility.yul\":3780:3783   */\n  dup4\n    /* \"#utility.yul\":3774:3778   */\n  dup4\n    /* \"#utility.yul\":3755:3784   */\n  tag_34\n  jump\t// in\ntag_81:\n    /* \"#utility.yul\":3747:3784   */\n  swap2\n  pop\n    /* \"#utility.yul\":3817:3820   */\n  dup3\n    /* \"#utility.yul\":3814:3815   */\n  0x02\n    /* \"#utility.yul\":3810:3821   */\n  mul\n    /* \"#utility.yul\":3804:3808   */\n  dup3\n    /* \"#utility.yul\":3801:3822   */\n  or\n    /* \"#utility.yul\":3793:3822   */\n  swap1\n  pop\n    /* \"#utility.yul\":3533:3828   */\n  swap3\n  swap2\n  pop\n  pop\n  jump\t// out\n    /* \"#utility.yul\":3833:5228   */\ntag_11:\n    /* \"#utility.yul\":3950:3987   */\n  tag_83\n    /* \"#utility.yul\":3983:3986   */\n  dup3\n    /* \"#utility.yul\":3950:3987   */\n  tag_16\n  jump\t// in\ntag_83:\n    /* \"#utility.yul\":4052:4070   */\n  0xffffffffffffffff\n    /* \"#utility.yul\":4044:4050   */\n  dup2\n    /* \"#utility.yul\":4041:4071   */\n  gt\n    /* \"#utility.yul\":4038:4094   */\n  iszero\n  tag_84\n  jumpi\n    /* \"#utility.yul\":4074:4092   */\n  tag_85\n  tag_17\n  jump\t// in\ntag_85:\n    /* \"#utility.yul\":4038:4094   */\ntag_84:\n    /* \"#utility.yul\":4118:4156   */\n  tag_86\n    /* \"#utility.yul\":4150:4154   */\n  dup3\n    /* \"#utility.yul\":4144:4155   */\n  sload\n    /* \"#utility.yul\":4118:4156   */\n  tag_19\n  jump\t// in\ntag_86:\n    /* \"#utility.yul\":4203:4270   */\n  tag_87\n    /* \"#utility.yul\":4263:4269   */\n  dup3\n    /* \"#utility.yul\":4255:4261   */\n  dup3\n    /* \"#utility.yul\":4249:4253   */\n  dup6\n    /* \"#utility.yul\":4203:4270   */\n  tag_32\n  jump\t// in\ntag_87:\n    /* \"#utility.yul\":4297:4298   */\n  0x00\n    /* \"#utility.yul\":4321:4325   */\n  0x20\n    /* \"#utility.yul\":4308:4325   */\n  swap1\n  pop\n    /* \"#utility.yul\":4353:4355   */\n  0x1f\n    /* \"#utility.yul\":4345:4351   */\n  dup4\n    /* \"#utility.yul\":4342:4356   */\n  gt\n    /* \"#utility.yul\":4370:4371   */\n  0x01\n    /* \"#utility.yul\":4365:4983   */\n  dup2\n  eq\n  tag_89\n  jumpi\n    /* \"#utility.yul\":5027:5028   */\n  0x00\n    /* \"#utility.yul\":5044:5050   */\n  dup5\n    /* \"#utility.yul\":5041:5118   */\n  iszero\n  tag_90\n  jumpi\n    /* \"#utility.yul\":5093:5102   */\n  dup3\n    /* \"#utility.yul\":5088:5091   */\n  dup8\n    /* \"#utility.yul\":5084:5103   */\n  add\n    /* \"#utility.yul\":5078:5104   */\n  mload\n    /* \"#utility.yul\":5069:5104   */\n  swap1\n  pop\n    /* \"#utility.yul\":5041:5118   */\ntag_90:\n    /* \"#utility.yul\":5144:5211   */\n  tag_91\n    /* \"#utility.yul\":5204:5210   */\n  dup6\n    /* \"#utility.yul\":5197:5202   */\n  dup3\n    /* \"#utility.yul\":5144:5211   */\n  tag_35\n  jump\t// in\ntag_91:\n    /* \"#utility.yul\":5138:5142   */\n  dup7\n    /* \"#utility.yul\":5131:5212   */\n  sstore\n    /* \"#utility.yul\":5000:5222   */\n  pop\n    /* \"#utility.yul\":4335:5222   */\n  jump(tag_88)\n    /* \"#utility.yul\":4365:4983   */\ntag_89:\n    /* \"#utility.yul\":4417:4421   */\n  0x1f\n    /* \"#utility.yul\":4413:4422   */\n  not\n    /* \"#utility.yul\":4405:4411   */\n  dup5\n    /* \"#utility.yul\":4401:4423   */\n  and\n    /* \"#utility.yul\":4451:4488   */\n  tag_92\n    /* \"#utility.yul\":4483:4487   */\n  dup7\n    /* \"#utility.yul\":4451:4488   */\n  tag_20\n  jump\t// in\ntag_92:\n    /* \"#utility.yul\":4510:4511   */\n  0x00\n    /* \"#utility.yul\":4524:4732   */\ntag_93:\n    /* \"#utility.yul\":4538:4545   */\n  dup3\n    /* \"#utility.yul\":4535:4536   */\n  dup2\n    /* \"#utility.yul\":4532:4546   */\n  lt\n    /* \"#utility.yul\":4524:4732   */\n  iszero\n  tag_95\n  jumpi\n    /* \"#utility.yul\":4617:4626   */\n  dup5\n    /* \"#utility.yul\":4612:4615   */\n  dup10\n    /* \"#utility.yul\":4608:4627   */\n  add\n    /* \"#utility.yul\":4602:4628   */\n  mload\n    /* \"#utility.yul\":4594:4600   */\n  dup3\n    /* \"#utility.yul\":4587:4629   */\n  sstore\n    /* \"#utility.yul\":4668:4669   */\n  0x01\n    /* \"#utility.yul\":4660:4666   */\n  dup3\n    /* \"#utility.yul\":4656:4670   */\n  add\n    /* \"#utility.yul\":4646:4670   */\n  swap2\n  pop\n    /* \"#utility.yul\":4715:4717   */\n  0x20\n    /* \"#utility.yul\":4704:4713   */\n  dup6\n    /* \"#utility.yul\":4700:4718   */\n  add\n    /* \"#utility.yul\":4687:4718   */\n  swap5\n  pop\n    /* \"#utility.yul\":4561:4565   */\n  0x20\n    /* \"#utility.yul\":4558:4559   */\n  dup2\n    /* \"#utility.yul\":4554:4566   */\n  add\n    /* \"#utility.yul\":4549:4566   */\n  swap1\n  pop\n    /* \"#utility.yul\":4524:4732   */\n  jump(tag_93)\ntag_95:\n    /* \"#utility.yul\":4760:4766   */\n  dup7\n    /* \"#utility.yul\":4751:4758   */\n  dup4\n    /* \"#utility.yul\":4748:4767   */\n  lt\n    /* \"#utility.yul\":4745:4924   */\n  iszero\n  tag_96\n  jumpi\n    /* \"#utility.yul\":4818:4827   */\n  dup5\n    /* \"#utility.yul\":4813:4816   */\n  dup10\n    /* \"#utility.yul\":4809:4828   */\n  add\n    /* \"#utility.yul\":4803:4829   */\n  mload\n    /* \"#utility.yul\":4861:4909   */\n  tag_97\n    /* \"#utility.yul\":4903:4907   */\n  0x1f\n    /* \"#utility.yul\":4895:4901   */\n  dup10\n    /* \"#utility.yul\":4891:4908   */\n  and\n    /* \"#utility.yul\":4880:4889   */\n  dup3\n    /* \"#utility.yul\":4861:4909   */\n  tag_34\n  jump\t// in\ntag_97:\n    /* \"#utility.yul\":4853:4859   */\n  dup4\n    /* \"#utility.yul\":4846:4910   */\n  sstore\n    /* \"#utility.yul\":4768:4924   */\n  pop\n    /* \"#utility.yul\":4745:4924   */\ntag_96:\n    /* \"#utility.yul\":4970:4971   */\n  0x01\n    /* \"#utility.yul\":4966:4967   */\n  0x02\n    /* \"#utility.yul\":4958:4964   */\n  dup9\n    /* \"#utility.yul\":4954:4968   */\n  mul\n    /* \"#utility.yul\":4950:4972   */\n  add\n    /* \"#utility.yul\":4944:4948   */\n  dup9\n    /* \"#utility.yul\":4937:4973   */\n  sstore\n    /* \"#utility.yul\":4372:4983   */\n  pop\n  pop\n  pop\n    /* \"#utility.yul\":4335:5222   */\ntag_88:\n  pop\n    /* \"#utility.yul\":3925:5228   */\n  pop\n  pop\n  pop\n    /* \"#utility.yul\":3833:5228   */\n  pop\n  pop\n  jump\t// out\n    /* \"gavi.sol\":142:1137  contract Election is Ownable{... */\ntag_13:\n  dataSize(sub_0)\n  dup1\n  dataOffset(sub_0)\n  0x00\n  codecopy\n  0x00\n  return\nstop\n\nsub_0: assembly {\n        /* \"gavi.sol\":142:1137  contract Election is Ownable{... */\n      mstore(0x40, 0x80)\n      callvalue\n      dup1\n      iszero\n      tag_1\n      jumpi\n      0x00\n      dup1\n      revert\n    tag_1:\n      pop\n      jumpi(tag_2, lt(calldatasize, 0x04))\n      shr(0xe0, calldataload(0x00))\n      dup1\n      0xa3ec138d\n      gt\n      tag_10\n      jumpi\n      dup1\n      0xa3ec138d\n      eq\n      tag_6\n      jumpi\n      dup1\n      0xa6385803\n      eq\n      tag_7\n      jumpi\n      dup1\n      0xe7bb7cbe\n      eq\n      tag_8\n      jumpi\n      dup1\n      0xf2fde38b\n      eq\n      tag_9\n      jumpi\n      jump(tag_2)\n    tag_10:\n      dup1\n      0x3477ee2e\n      eq\n      tag_3\n      jumpi\n      dup1\n      0x715018a6\n      eq\n      tag_4\n      jumpi\n      dup1\n      0x8da5cb5b\n      eq\n      tag_5\n      jumpi\n    tag_2:\n      0x00\n      dup1\n      revert\n        /* \"gavi.sol\":359:403  mapping(uint => candidate) public candidates */\n    tag_3:\n      tag_11\n      0x04\n      dup1\n      calldatasize\n      sub\n      dup2\n      add\n      swap1\n      tag_12\n      swap2\n      swap1\n      tag_13\n      jump\t// in\n    tag_12:\n      tag_14\n      jump\t// in\n    tag_11:\n      mload(0x40)\n      tag_15\n      swap4\n      swap3\n      swap2\n      swap1\n      tag_16\n      jump\t// in\n    tag_15:\n      mload(0x40)\n      dup1\n      swap2\n      sub\n      swap1\n      return\n        /* \"@openzeppelin/contracts/access/Ownable.sol\":1831:1932  function renounceOwnership() public virtual onlyOwner {... */\n    tag_4:\n      tag_17\n      tag_18\n      jump\t// in\n    tag_17:\n      stop\n        /* \"@openzeppelin/contracts/access/Ownable.sol\":1201:1286  function owner() public view virtual returns (address) {... */\n    tag_5:\n      tag_19\n      tag_20\n      jump\t// in\n    tag_19:\n      mload(0x40)\n      tag_21\n      swap2\n      swap1\n      tag_22\n      jump\t// in\n    tag_21:\n      mload(0x40)\n      dup1\n      swap2\n      sub\n      swap1\n      return\n        /* \"gavi.sol\":409:448  mapping(address => voter) public voters */\n    tag_6:\n      tag_23\n      0x04\n      dup1\n      calldatasize\n      sub\n      dup2\n      add\n      swap1\n      tag_24\n      swap2\n      swap1\n      tag_25\n      jump\t// in\n    tag_24:\n      tag_26\n      jump\t// in\n    tag_23:\n      mload(0x40)\n      tag_27\n      swap4\n      swap3\n      swap2\n      swap1\n      tag_28\n      jump\t// in\n    tag_27:\n      mload(0x40)\n      dup1\n      swap2\n      sub\n      swap1\n      return\n        /* \"gavi.sol\":590:829  function vote(string memory _name, uint _index) public {... */\n    tag_7:\n      tag_29\n      0x04\n      dup1\n      calldatasize\n      sub\n      dup2\n      add\n      swap1\n      tag_30\n      swap2\n      swap1\n      tag_31\n      jump\t// in\n    tag_30:\n      tag_32\n      jump\t// in\n    tag_29:\n      stop\n        /* \"gavi.sol\":835:1135  function getwinner() public view onlyOwner returns(uint){... */\n    tag_8:\n      tag_33\n      tag_34\n      jump\t// in\n    tag_33:\n      mload(0x40)\n      tag_35\n      swap2\n      swap1\n      tag_36\n      jump\t// in\n    tag_35:\n      mload(0x40)\n      dup1\n      swap2\n      sub\n      swap1\n      return\n        /* \"@openzeppelin/contracts/access/Ownable.sol\":2081:2279  function transferOwnership(address newOwner) public virtual onlyOwner {... */\n    tag_9:\n      tag_37\n      0x04\n      dup1\n      calldatasize\n      sub\n      dup2\n      add\n      swap1\n      tag_38\n      swap2\n      swap1\n      tag_25\n      jump\t// in\n    tag_38:\n      tag_39\n      jump\t// in\n    tag_37:\n      stop\n        /* \"gavi.sol\":359:403  mapping(uint => candidate) public candidates */\n    tag_14:\n      mstore(0x20, 0x01)\n      dup1\n      0x00\n      mstore\n      keccak256(0x00, 0x40)\n      0x00\n      swap2\n      pop\n      swap1\n      pop\n      dup1\n      0x00\n      add\n      dup1\n      sload\n      tag_40\n      swap1\n      tag_41\n      jump\t// in\n    tag_40:\n      dup1\n      0x1f\n      add\n      0x20\n      dup1\n      swap2\n      div\n      mul\n      0x20\n      add\n      mload(0x40)\n      swap1\n      dup2\n      add\n      0x40\n      mstore\n      dup1\n      swap3\n      swap2\n      swap1\n      dup2\n      dup2\n      mstore\n      0x20\n      add\n      dup3\n      dup1\n      sload\n      tag_42\n      swap1\n      tag_41\n      jump\t// in\n    tag_42:\n      dup1\n      iszero\n      tag_43\n      jumpi\n      dup1\n      0x1f\n      lt\n      tag_44\n      jumpi\n      0x0100\n      dup1\n      dup4\n      sload\n      div\n      mul\n      dup4\n      mstore\n      swap2\n      0x20\n      add\n      swap2\n      jump(tag_43)\n    tag_44:\n      dup3\n      add\n      swap2\n      swap1\n      0x00\n      mstore\n      keccak256(0x00, 0x20)\n      swap1\n    tag_45:\n      dup2\n      sload\n      dup2\n      mstore\n      swap1\n      0x01\n      add\n      swap1\n      0x20\n      add\n      dup1\n      dup4\n      gt\n      tag_45\n      jumpi\n      dup3\n      swap1\n      sub\n      0x1f\n      and\n      dup3\n      add\n      swap2\n    tag_43:\n      pop\n      pop\n      pop\n      pop\n      pop\n      swap1\n      dup1\n      0x01\n      add\n      sload\n      swap1\n      dup1\n      0x02\n      add\n      sload\n      swap1\n      pop\n      dup4\n      jump\t// out\n        /* \"@openzeppelin/contracts/access/Ownable.sol\":1831:1932  function renounceOwnership() public virtual onlyOwner {... */\n    tag_18:\n        /* \"@openzeppelin/contracts/access/Ownable.sol\":1094:1107  _checkOwner() */\n      tag_47\n        /* \"@openzeppelin/contracts/access/Ownable.sol\":1094:1105  _checkOwner */\n      tag_48\n        /* \"@openzeppelin/contracts/access/Ownable.sol\":1094:1107  _checkOwner() */\n      jump\t// in\n    tag_47:\n        /* \"@openzeppelin/contracts/access/Ownable.sol\":1895:1925  _transferOwnership(address(0)) */\n      tag_50\n        /* \"@openzeppelin/contracts/access/Ownable.sol\":1922:1923  0 */\n      0x00\n        /* \"@openzeppelin/contracts/access/Ownable.sol\":1895:1913  _transferOwnership */\n      tag_51\n        /* \"@openzeppelin/contracts/access/Ownable.sol\":1895:1925  _transferOwnership(address(0)) */\n      jump\t// in\n    tag_50:\n        /* \"@openzeppelin/contracts/access/Ownable.sol\":1831:1932  function renounceOwnership() public virtual onlyOwner {... */\n      jump\t// out\n        /* \"@openzeppelin/contracts/access/Ownable.sol\":1201:1286  function owner() public view virtual returns (address) {... */\n    tag_20:\n        /* \"@openzeppelin/contracts/access/Ownable.sol\":1247:1254  address */\n      0x00\n        /* \"@openzeppelin/contracts/access/Ownable.sol\":1273:1279  _owner */\n      dup1\n      0x00\n      swap1\n      sload\n      swap1\n      0x0100\n      exp\n      swap1\n      div\n      0xffffffffffffffffffffffffffffffffffffffff\n      and\n        /* \"@openzeppelin/contracts/access/Ownable.sol\":1266:1279  return _owner */\n      swap1\n      pop\n        /* \"@openzeppelin/contracts/access/Ownable.sol\":1201:1286  function owner() public view virtual returns (address) {... */\n      swap1\n      jump\t// out\n        /* \"gavi.sol\":409:448  mapping(address => voter) public voters */\n    tag_26:\n      mstore(0x20, 0x02)\n      dup1\n      0x00\n      mstore\n      keccak256(0x00, 0x40)\n      0x00\n      swap2\n      pop\n      swap1\n      pop\n      dup1\n      0x00\n      add\n      dup1\n      sload\n      tag_53\n      swap1\n      tag_41\n      jump\t// in\n    tag_53:\n      dup1\n      0x1f\n      add\n      0x20\n      dup1\n      swap2\n      div\n      mul\n      0x20\n      add\n      mload(0x40)\n      swap1\n      dup2\n      add\n      0x40\n      mstore\n      dup1\n      swap3\n      swap2\n      swap1\n      dup2\n      dup2\n      mstore\n      0x20\n      add\n      dup3\n      dup1\n      sload\n      tag_54\n      swap1\n      tag_41\n      jump\t// in\n    tag_54:\n      dup1\n      iszero\n      tag_55\n      jumpi\n      dup1\n      0x1f\n      lt\n      tag_56\n      jumpi\n      0x0100\n      dup1\n      dup4\n      sload\n      div\n      mul\n      dup4\n      mstore\n      swap2\n      0x20\n      add\n      swap2\n      jump(tag_55)\n    tag_56:\n      dup3\n      add\n      swap2\n      swap1\n      0x00\n      mstore\n      keccak256(0x00, 0x20)\n      swap1\n    tag_57:\n      dup2\n      sload\n      dup2\n      mstore\n      swap1\n      0x01\n      add\n      swap1\n      0x20\n      add\n      dup1\n      dup4\n      gt\n      tag_57\n      jumpi\n      dup3\n      swap1\n      sub\n      0x1f\n      and\n      dup3\n      add\n      swap2\n    tag_55:\n      pop\n      pop\n      pop\n      pop\n      pop\n      swap1\n      dup1\n      0x01\n      add\n      sload\n      swap1\n      dup1\n      0x02\n      add\n      0x00\n      swap1\n      sload\n      swap1\n      0x0100\n      exp\n      swap1\n      div\n      0xff\n      and\n      swap1\n      pop\n      dup4\n      jump\t// out\n        /* \"gavi.sol\":590:829  function vote(string memory _name, uint _index) public {... */\n    tag_32:\n        /* \"gavi.sol\":691:696  false */\n      0x00\n        /* \"gavi.sol\":663:696  voters[msg.sender].voted == false */\n      iszero\n      iszero\n        /* \"gavi.sol\":663:669  voters */\n      0x02\n        /* \"gavi.sol\":663:681  voters[msg.sender] */\n      0x00\n        /* \"gavi.sol\":670:680  msg.sender */\n      caller\n        /* \"gavi.sol\":663:681  voters[msg.sender] */\n      0xffffffffffffffffffffffffffffffffffffffff\n      and\n      0xffffffffffffffffffffffffffffffffffffffff\n      and\n      dup2\n      mstore\n      0x20\n      add\n      swap1\n      dup2\n      mstore\n      0x20\n      add\n      0x00\n      keccak256\n        /* \"gavi.sol\":663:687  voters[msg.sender].voted */\n      0x02\n      add\n      0x00\n      swap1\n      sload\n      swap1\n      0x0100\n      exp\n      swap1\n      div\n      0xff\n      and\n        /* \"gavi.sol\":663:696  voters[msg.sender].voted == false */\n      iszero\n      iszero\n      eq\n        /* \"gavi.sol\":655:723  require(voters[msg.sender].voted == false, 'you have already voted') */\n      tag_59\n      jumpi\n      mload(0x40)\n      0x08c379a000000000000000000000000000000000000000000000000000000000\n      dup2\n      mstore\n      0x04\n      add\n      tag_60\n      swap1\n      tag_61\n      jump\t// in\n    tag_60:\n      mload(0x40)\n      dup1\n      swap2\n      sub\n      swap1\n      revert\n    tag_59:\n        /* \"gavi.sol\":754:780  voter(_name, _index, true) */\n      mload(0x40)\n      dup1\n      0x60\n      add\n      0x40\n      mstore\n      dup1\n        /* \"gavi.sol\":760:765  _name */\n      dup4\n        /* \"gavi.sol\":754:780  voter(_name, _index, true) */\n      dup2\n      mstore\n      0x20\n      add\n        /* \"gavi.sol\":767:773  _index */\n      dup3\n        /* \"gavi.sol\":754:780  voter(_name, _index, true) */\n      dup2\n      mstore\n      0x20\n      add\n        /* \"gavi.sol\":775:779  true */\n      0x01\n        /* \"gavi.sol\":754:780  voter(_name, _index, true) */\n      iszero\n      iszero\n      dup2\n      mstore\n      pop\n        /* \"gavi.sol\":733:739  voters */\n      0x02\n        /* \"gavi.sol\":733:751  voters[msg.sender] */\n      0x00\n        /* \"gavi.sol\":740:750  msg.sender */\n      caller\n        /* \"gavi.sol\":733:751  voters[msg.sender] */\n      0xffffffffffffffffffffffffffffffffffffffff\n      and\n      0xffffffffffffffffffffffffffffffffffffffff\n      and\n      dup2\n      mstore\n      0x20\n      add\n      swap1\n      dup2\n      mstore\n      0x20\n      add\n      0x00\n      keccak256\n        /* \"gavi.sol\":733:780  voters[msg.sender] = voter(_name, _index, true) */\n      0x00\n      dup3\n      add\n      mload\n      dup2\n      0x00\n      add\n      swap1\n      dup2\n      tag_62\n      swap2\n      swap1\n      tag_63\n      jump\t// in\n    tag_62:\n      pop\n      0x20\n      dup3\n      add\n      mload\n      dup2\n      0x01\n      add\n      sstore\n      0x40\n      dup3\n      add\n      mload\n      dup2\n      0x02\n      add\n      exp(0x0100, 0x00)\n      dup2\n      sload\n      dup2\n      0xff\n      mul\n      not\n      and\n      swap1\n      dup4\n      iszero\n      iszero\n      mul\n      or\n      swap1\n      sstore\n      pop\n      swap1\n      pop\n      pop\n        /* \"gavi.sol\":790:800  candidates */\n      0x01\n        /* \"gavi.sol\":790:808  candidates[_index] */\n      0x00\n        /* \"gavi.sol\":801:807  _index */\n      dup3\n        /* \"gavi.sol\":790:808  candidates[_index] */\n      dup2\n      mstore\n      0x20\n      add\n      swap1\n      dup2\n      mstore\n      0x20\n      add\n      0x00\n      keccak256\n        /* \"gavi.sol\":790:818  candidates[_index].votecount */\n      0x02\n      add\n      0x00\n        /* \"gavi.sol\":790:821  candidates[_index].votecount ++ */\n      dup2\n      sload\n      dup1\n      swap3\n      swap2\n      swap1\n      tag_64\n      swap1\n      tag_65\n      jump\t// in\n    tag_64:\n      swap2\n      swap1\n      pop\n      sstore\n      pop\n        /* \"gavi.sol\":590:829  function vote(string memory _name, uint _index) public {... */\n      pop\n      pop\n      jump\t// out\n        /* \"gavi.sol\":835:1135  function getwinner() public view onlyOwner returns(uint){... */\n    tag_34:\n        /* \"gavi.sol\":886:890  uint */\n      0x00\n        /* \"@openzeppelin/contracts/access/Ownable.sol\":1094:1107  _checkOwner() */\n      tag_67\n        /* \"@openzeppelin/contracts/access/Ownable.sol\":1094:1105  _checkOwner */\n      tag_48\n        /* \"@openzeppelin/contracts/access/Ownable.sol\":1094:1107  _checkOwner() */\n      jump\t// in\n    tag_67:\n        /* \"gavi.sol\":901:907  uint x */\n      0x00\n        /* \"gavi.sol\":910:920  candidates */\n      0x01\n        /* \"gavi.sol\":910:923  candidates[1] */\n      0x00\n        /* \"gavi.sol\":921:922  1 */\n      0x01\n        /* \"gavi.sol\":910:923  candidates[1] */\n      dup2\n      mstore\n      0x20\n      add\n      swap1\n      dup2\n      mstore\n      0x20\n      add\n      0x00\n      keccak256\n        /* \"gavi.sol\":910:933  candidates[1].votecount */\n      0x02\n      add\n      sload\n        /* \"gavi.sol\":901:933  uint x = candidates[1].votecount */\n      swap1\n      pop\n        /* \"gavi.sol\":943:949  uint y */\n      0x00\n        /* \"gavi.sol\":952:962  candidates */\n      0x01\n        /* \"gavi.sol\":952:965  candidates[2] */\n      0x00\n        /* \"gavi.sol\":963:964  2 */\n      0x02\n        /* \"gavi.sol\":952:965  candidates[2] */\n      dup2\n      mstore\n      0x20\n      add\n      swap1\n      dup2\n      mstore\n      0x20\n      add\n      0x00\n      keccak256\n        /* \"gavi.sol\":952:975  candidates[2].votecount */\n      0x02\n      add\n      sload\n        /* \"gavi.sol\":943:975  uint y = candidates[2].votecount */\n      swap1\n      pop\n        /* \"gavi.sol\":992:993  y */\n      dup1\n        /* \"gavi.sol\":988:989  x */\n      dup3\n        /* \"gavi.sol\":988:993  x > y */\n      gt\n        /* \"gavi.sol\":985:1111  if(x > y){... */\n      iszero\n      tag_69\n      jumpi\n        /* \"gavi.sol\":1015:1025  candidates */\n      0x01\n        /* \"gavi.sol\":1015:1028  candidates[1] */\n      0x00\n        /* \"gavi.sol\":1026:1027  1 */\n      0x01\n        /* \"gavi.sol\":1015:1028  candidates[1] */\n      dup2\n      mstore\n      0x20\n      add\n      swap1\n      dup2\n      mstore\n      0x20\n      add\n      0x00\n      keccak256\n        /* \"gavi.sol\":1015:1034  candidates[1].index */\n      0x01\n      add\n      sload\n        /* \"gavi.sol\":1008:1035  return(candidates[1].index) */\n      swap3\n      pop\n      pop\n      pop\n      jump(tag_68)\n        /* \"gavi.sol\":985:1111  if(x > y){... */\n    tag_69:\n        /* \"gavi.sol\":1057:1058  x */\n      dup2\n        /* \"gavi.sol\":1055:1056  y */\n      dup2\n        /* \"gavi.sol\":1055:1058  y>x */\n      gt\n        /* \"gavi.sol\":1052:1111  if(y>x){... */\n      iszero\n      tag_71\n      jumpi\n        /* \"gavi.sol\":1080:1090  candidates */\n      0x01\n        /* \"gavi.sol\":1080:1093  candidates[2] */\n      0x00\n        /* \"gavi.sol\":1091:1092  2 */\n      0x02\n        /* \"gavi.sol\":1080:1093  candidates[2] */\n      dup2\n      mstore\n      0x20\n      add\n      swap1\n      dup2\n      mstore\n      0x20\n      add\n      0x00\n      keccak256\n        /* \"gavi.sol\":1080:1099  candidates[2].index */\n      0x01\n      add\n      sload\n        /* \"gavi.sol\":1073:1100  return(candidates[2].index) */\n      swap3\n      pop\n      pop\n      pop\n      jump(tag_68)\n        /* \"gavi.sol\":1052:1111  if(y>x){... */\n    tag_71:\n        /* \"gavi.sol\":1127:1128  0 */\n      0x00\n        /* \"gavi.sol\":1120:1128  return 0 */\n      swap3\n      pop\n      pop\n      pop\n        /* \"@openzeppelin/contracts/access/Ownable.sol\":1117:1118  _ */\n    tag_68:\n        /* \"gavi.sol\":835:1135  function getwinner() public view onlyOwner returns(uint){... */\n      swap1\n      jump\t// out\n        /* \"@openzeppelin/contracts/access/Ownable.sol\":2081:2279  function transferOwnership(address newOwner) public virtual onlyOwner {... */\n    tag_39:\n        /* \"@openzeppelin/contracts/access/Ownable.sol\":1094:1107  _checkOwner() */\n      tag_73\n        /* \"@openzeppelin/contracts/access/Ownable.sol\":1094:1105  _checkOwner */\n      tag_48\n        /* \"@openzeppelin/contracts/access/Ownable.sol\":1094:1107  _checkOwner() */\n      jump\t// in\n    tag_73:\n        /* \"@openzeppelin/contracts/access/Ownable.sol\":2189:2190  0 */\n      0x00\n        /* \"@openzeppelin/contracts/access/Ownable.sol\":2169:2191  newOwner != address(0) */\n      0xffffffffffffffffffffffffffffffffffffffff\n      and\n        /* \"@openzeppelin/contracts/access/Ownable.sol\":2169:2177  newOwner */\n      dup2\n        /* \"@openzeppelin/contracts/access/Ownable.sol\":2169:2191  newOwner != address(0) */\n      0xffffffffffffffffffffffffffffffffffffffff\n      and\n      sub\n        /* \"@openzeppelin/contracts/access/Ownable.sol\":2161:2234  require(newOwner != address(0), \"Ownable: new owner is the zero address\") */\n      tag_75\n      jumpi\n      mload(0x40)\n      0x08c379a000000000000000000000000000000000000000000000000000000000\n      dup2\n      mstore\n      0x04\n      add\n      tag_76\n      swap1\n      tag_77\n      jump\t// in\n    tag_76:\n      mload(0x40)\n      dup1\n      swap2\n      sub\n      swap1\n      revert\n    tag_75:\n        /* \"@openzeppelin/contracts/access/Ownable.sol\":2244:2272  _transferOwnership(newOwner) */\n      tag_78\n        /* \"@openzeppelin/contracts/access/Ownable.sol\":2263:2271  newOwner */\n      dup2\n        /* \"@openzeppelin/contracts/access/Ownable.sol\":2244:2262  _transferOwnership */\n      tag_51\n        /* \"@openzeppelin/contracts/access/Ownable.sol\":2244:2272  _transferOwnership(newOwner) */\n      jump\t// in\n    tag_78:\n        /* \"@openzeppelin/contracts/access/Ownable.sol\":2081:2279  function transferOwnership(address newOwner) public virtual onlyOwner {... */\n      pop\n      jump\t// out\n        /* \"@openzeppelin/contracts/access/Ownable.sol\":1359:1489  function _checkOwner() internal view virtual {... */\n    tag_48:\n        /* \"@openzeppelin/contracts/access/Ownable.sol\":1433:1445  _msgSender() */\n      tag_80\n        /* \"@openzeppelin/contracts/access/Ownable.sol\":1433:1443  _msgSender */\n      tag_81\n        /* \"@openzeppelin/contracts/access/Ownable.sol\":1433:1445  _msgSender() */\n      jump\t// in\n    tag_80:\n        /* \"@openzeppelin/contracts/access/Ownable.sol\":1422:1445  owner() == _msgSender() */\n      0xffffffffffffffffffffffffffffffffffffffff\n      and\n        /* \"@openzeppelin/contracts/access/Ownable.sol\":1422:1429  owner() */\n      tag_82\n        /* \"@openzeppelin/contracts/access/Ownable.sol\":1422:1427  owner */\n      tag_20\n        /* \"@openzeppelin/contracts/access/Ownable.sol\":1422:1429  owner() */\n      jump\t// in\n    tag_82:\n        /* \"@openzeppelin/contracts/access/Ownable.sol\":1422:1445  owner() == _msgSender() */\n      0xffffffffffffffffffffffffffffffffffffffff\n      and\n      eq\n        /* \"@openzeppelin/contracts/access/Ownable.sol\":1414:1482  require(owner() == _msgSender(), \"Ownable: caller is not the owner\") */\n      tag_83\n      jumpi\n      mload(0x40)\n      0x08c379a000000000000000000000000000000000000000000000000000000000\n      dup2\n      mstore\n      0x04\n      add\n      tag_84\n      swap1\n      tag_85\n      jump\t// in\n    tag_84:\n      mload(0x40)\n      dup1\n      swap2\n      sub\n      swap1\n      revert\n    tag_83:\n        /* \"@openzeppelin/contracts/access/Ownable.sol\":1359:1489  function _checkOwner() internal view virtual {... */\n      jump\t// out\n        /* \"@openzeppelin/contracts/access/Ownable.sol\":2433:2620  function _transferOwnership(address newOwner) internal virtual {... */\n    tag_51:\n        /* \"@openzeppelin/contracts/access/Ownable.sol\":2506:2522  address oldOwner */\n      0x00\n        /* \"@openzeppelin/contracts/access/Ownable.sol\":2525:2531  _owner */\n      dup1\n      0x00\n      swap1\n      sload\n      swap1\n      0x0100\n      exp\n      swap1\n      div\n      0xffffffffffffffffffffffffffffffffffffffff\n      and\n        /* \"@openzeppelin/contracts/access/Ownable.sol\":2506:2531  address oldOwner = _owner */\n      swap1\n      pop\n        /* \"@openzeppelin/contracts/access/Ownable.sol\":2550:2558  newOwner */\n      dup2\n        /* \"@openzeppelin/contracts/access/Ownable.sol\":2541:2547  _owner */\n      0x00\n      dup1\n        /* \"@openzeppelin/contracts/access/Ownable.sol\":2541:2558  _owner = newOwner */\n      0x0100\n      exp\n      dup2\n      sload\n      dup2\n      0xffffffffffffffffffffffffffffffffffffffff\n      mul\n      not\n      and\n      swap1\n      dup4\n      0xffffffffffffffffffffffffffffffffffffffff\n      and\n      mul\n      or\n      swap1\n      sstore\n      pop\n        /* \"@openzeppelin/contracts/access/Ownable.sol\":2604:2612  newOwner */\n      dup2\n        /* \"@openzeppelin/contracts/access/Ownable.sol\":2573:2613  OwnershipTransferred(oldOwner, newOwner) */\n      0xffffffffffffffffffffffffffffffffffffffff\n      and\n        /* \"@openzeppelin/contracts/access/Ownable.sol\":2594:2602  oldOwner */\n      dup2\n        /* \"@openzeppelin/contracts/access/Ownable.sol\":2573:2613  OwnershipTransferred(oldOwner, newOwner) */\n      0xffffffffffffffffffffffffffffffffffffffff\n      and\n      0x8be0079c531659141344cd1fd0a4f28419497f9722a3daafe3b4186f6b6457e0\n      mload(0x40)\n      mload(0x40)\n      dup1\n      swap2\n      sub\n      swap1\n      log3\n        /* \"@openzeppelin/contracts/access/Ownable.sol\":2496:2620  {... */\n      pop\n        /* \"@openzeppelin/contracts/access/Ownable.sol\":2433:2620  function _transferOwnership(address newOwner) internal virtual {... */\n      pop\n      jump\t// out\n        /* \"@openzeppelin/contracts/utils/Context.sol\":640:736  function _msgSender() internal view virtual returns (address) {... */\n    tag_81:\n        /* \"@openzeppelin/contracts/utils/Context.sol\":693:700  address */\n      0x00\n        /* \"@openzeppelin/contracts/utils/Context.sol\":719:729  msg.sender */\n      caller\n        /* \"@openzeppelin/contracts/utils/Context.sol\":712:729  return msg.sender */\n      swap1\n      pop\n        /* \"@openzeppelin/contracts/utils/Context.sol\":640:736  function _msgSender() internal view virtual returns (address) {... */\n      swap1\n      jump\t// out\n        /* \"#utility.yul\":7:82   */\n    tag_88:\n        /* \"#utility.yul\":40:46   */\n      0x00\n        /* \"#utility.yul\":73:75   */\n      0x40\n        /* \"#utility.yul\":67:76   */\n      mload\n        /* \"#utility.yul\":57:76   */\n      swap1\n      pop\n        /* \"#utility.yul\":7:82   */\n      swap1\n      jump\t// out\n        /* \"#utility.yul\":88:205   */\n    tag_89:\n        /* \"#utility.yul\":197:198   */\n      0x00\n        /* \"#utility.yul\":194:195   */\n      dup1\n        /* \"#utility.yul\":187:199   */\n      revert\n        /* \"#utility.yul\":211:328   */\n    tag_90:\n        /* \"#utility.yul\":320:321   */\n      0x00\n        /* \"#utility.yul\":317:318   */\n      dup1\n        /* \"#utility.yul\":310:322   */\n      revert\n        /* \"#utility.yul\":334:411   */\n    tag_91:\n        /* \"#utility.yul\":371:378   */\n      0x00\n        /* \"#utility.yul\":400:405   */\n      dup2\n        /* \"#utility.yul\":389:405   */\n      swap1\n      pop\n        /* \"#utility.yul\":334:411   */\n      swap2\n      swap1\n      pop\n      jump\t// out\n        /* \"#utility.yul\":417:539   */\n    tag_92:\n        /* \"#utility.yul\":490:514   */\n      tag_145\n        /* \"#utility.yul\":508:513   */\n      dup2\n        /* \"#utility.yul\":490:514   */\n      tag_91\n      jump\t// in\n    tag_145:\n        /* \"#utility.yul\":483:488   */\n      dup2\n        /* \"#utility.yul\":480:515   */\n      eq\n        /* \"#utility.yul\":470:533   */\n      tag_146\n      jumpi\n        /* \"#utility.yul\":529:530   */\n      0x00\n        /* \"#utility.yul\":526:527   */\n      dup1\n        /* \"#utility.yul\":519:531   */\n      revert\n        /* \"#utility.yul\":470:533   */\n    tag_146:\n        /* \"#utility.yul\":417:539   */\n      pop\n      jump\t// out\n        /* \"#utility.yul\":545:684   */\n    tag_93:\n        /* \"#utility.yul\":591:596   */\n      0x00\n        /* \"#utility.yul\":629:635   */\n      dup2\n        /* \"#utility.yul\":616:636   */\n      calldataload\n        /* \"#utility.yul\":607:636   */\n      swap1\n      pop\n        /* \"#utility.yul\":645:678   */\n      tag_148\n        /* \"#utility.yul\":672:677   */\n      dup2\n        /* \"#utility.yul\":645:678   */\n      tag_92\n      jump\t// in\n    tag_148:\n        /* \"#utility.yul\":545:684   */\n      swap3\n      swap2\n      pop\n      pop\n      jump\t// out\n        /* \"#utility.yul\":690:1019   */\n    tag_13:\n        /* \"#utility.yul\":749:755   */\n      0x00\n        /* \"#utility.yul\":798:800   */\n      0x20\n        /* \"#utility.yul\":786:795   */\n      dup3\n        /* \"#utility.yul\":777:784   */\n      dup5\n        /* \"#utility.yul\":773:796   */\n      sub\n        /* \"#utility.yul\":769:801   */\n      slt\n        /* \"#utility.yul\":766:885   */\n      iszero\n      tag_150\n      jumpi\n        /* \"#utility.yul\":804:883   */\n      tag_151\n      tag_89\n      jump\t// in\n    tag_151:\n        /* \"#utility.yul\":766:885   */\n    tag_150:\n        /* \"#utility.yul\":924:925   */\n      0x00\n        /* \"#utility.yul\":949:1002   */\n      tag_152\n        /* \"#utility.yul\":994:1001   */\n      dup5\n        /* \"#utility.yul\":985:991   */\n      dup3\n        /* \"#utility.yul\":974:983   */\n      dup6\n        /* \"#utility.yul\":970:992   */\n      add\n        /* \"#utility.yul\":949:1002   */\n      tag_93\n      jump\t// in\n    tag_152:\n        /* \"#utility.yul\":939:1002   */\n      swap2\n      pop\n        /* \"#utility.yul\":895:1012   */\n      pop\n        /* \"#utility.yul\":690:1019   */\n      swap3\n      swap2\n      pop\n      pop\n      jump\t// out\n        /* \"#utility.yul\":1025:1124   */\n    tag_94:\n        /* \"#utility.yul\":1077:1083   */\n      0x00\n        /* \"#utility.yul\":1111:1116   */\n      dup2\n        /* \"#utility.yul\":1105:1117   */\n      mload\n        /* \"#utility.yul\":1095:1117   */\n      swap1\n      pop\n        /* \"#utility.yul\":1025:1124   */\n      swap2\n      swap1\n      pop\n      jump\t// out\n        /* \"#utility.yul\":1130:1299   */\n    tag_95:\n        /* \"#utility.yul\":1214:1225   */\n      0x00\n        /* \"#utility.yul\":1248:1254   */\n      dup3\n        /* \"#utility.yul\":1243:1246   */\n      dup3\n        /* \"#utility.yul\":1236:1255   */\n      mstore\n        /* \"#utility.yul\":1288:1292   */\n      0x20\n        /* \"#utility.yul\":1283:1286   */\n      dup3\n        /* \"#utility.yul\":1279:1293   */\n      add\n        /* \"#utility.yul\":1264:1293   */\n      swap1\n      pop\n        /* \"#utility.yul\":1130:1299   */\n      swap3\n      swap2\n      pop\n      pop\n      jump\t// out\n        /* \"#utility.yul\":1305:1551   */\n    tag_96:\n        /* \"#utility.yul\":1386:1387   */\n      0x00\n        /* \"#utility.yul\":1396:1509   */\n    tag_156:\n        /* \"#utility.yul\":1410:1416   */\n      dup4\n        /* \"#utility.yul\":1407:1408   */\n      dup2\n        /* \"#utility.yul\":1404:1417   */\n      lt\n        /* \"#utility.yul\":1396:1509   */\n      iszero\n      tag_158\n      jumpi\n        /* \"#utility.yul\":1495:1496   */\n      dup1\n        /* \"#utility.yul\":1490:1493   */\n      dup3\n        /* \"#utility.yul\":1486:1497   */\n      add\n        /* \"#utility.yul\":1480:1498   */\n      mload\n        /* \"#utility.yul\":1476:1477   */\n      dup2\n        /* \"#utility.yul\":1471:1474   */\n      dup5\n        /* \"#utility.yul\":1467:1478   */\n      add\n        /* \"#utility.yul\":1460:1499   */\n      mstore\n        /* \"#utility.yul\":1432:1434   */\n      0x20\n        /* \"#utility.yul\":1429:1430   */\n      dup2\n        /* \"#utility.yul\":1425:1435   */\n      add\n        /* \"#utility.yul\":1420:1435   */\n      swap1\n      pop\n        /* \"#utility.yul\":1396:1509   */\n      jump(tag_156)\n    tag_158:\n        /* \"#utility.yul\":1543:1544   */\n      0x00\n        /* \"#utility.yul\":1534:1540   */\n      dup5\n        /* \"#utility.yul\":1529:1532   */\n      dup5\n        /* \"#utility.yul\":1525:1541   */\n      add\n        /* \"#utility.yul\":1518:1545   */\n      mstore\n        /* \"#utility.yul\":1367:1551   */\n      pop\n        /* \"#utility.yul\":1305:1551   */\n      pop\n      pop\n      pop\n      jump\t// out\n        /* \"#utility.yul\":1557:1659   */\n    tag_97:\n        /* \"#utility.yul\":1598:1604   */\n      0x00\n        /* \"#utility.yul\":1649:1651   */\n      0x1f\n        /* \"#utility.yul\":1645:1652   */\n      not\n        /* \"#utility.yul\":1640:1642   */\n      0x1f\n        /* \"#utility.yul\":1633:1638   */\n      dup4\n        /* \"#utility.yul\":1629:1643   */\n      add\n        /* \"#utility.yul\":1625:1653   */\n      and\n        /* \"#utility.yul\":1615:1653   */\n      swap1\n      pop\n        /* \"#utility.yul\":1557:1659   */\n      swap2\n      swap1\n      pop\n      jump\t// out\n        /* \"#utility.yul\":1665:2042   */\n    tag_98:\n        /* \"#utility.yul\":1753:1756   */\n      0x00\n        /* \"#utility.yul\":1781:1820   */\n      tag_161\n        /* \"#utility.yul\":1814:1819   */\n      dup3\n        /* \"#utility.yul\":1781:1820   */\n      tag_94\n      jump\t// in\n    tag_161:\n        /* \"#utility.yul\":1836:1907   */\n      tag_162\n        /* \"#utility.yul\":1900:1906   */\n      dup2\n        /* \"#utility.yul\":1895:1898   */\n      dup6\n        /* \"#utility.yul\":1836:1907   */\n      tag_95\n      jump\t// in\n    tag_162:\n        /* \"#utility.yul\":1829:1907   */\n      swap4\n      pop\n        /* \"#utility.yul\":1916:1981   */\n      tag_163\n        /* \"#utility.yul\":1974:1980   */\n      dup2\n        /* \"#utility.yul\":1969:1972   */\n      dup6\n        /* \"#utility.yul\":1962:1966   */\n      0x20\n        /* \"#utility.yul\":1955:1960   */\n      dup7\n        /* \"#utility.yul\":1951:1967   */\n      add\n        /* \"#utility.yul\":1916:1981   */\n      tag_96\n      jump\t// in\n    tag_163:\n        /* \"#utility.yul\":2006:2035   */\n      tag_164\n        /* \"#utility.yul\":2028:2034   */\n      dup2\n        /* \"#utility.yul\":2006:2035   */\n      tag_97\n      jump\t// in\n    tag_164:\n        /* \"#utility.yul\":2001:2004   */\n      dup5\n        /* \"#utility.yul\":1997:2036   */\n      add\n        /* \"#utility.yul\":1990:2036   */\n      swap2\n      pop\n        /* \"#utility.yul\":1757:2042   */\n      pop\n        /* \"#utility.yul\":1665:2042   */\n      swap3\n      swap2\n      pop\n      pop\n      jump\t// out\n        /* \"#utility.yul\":2048:2166   */\n    tag_99:\n        /* \"#utility.yul\":2135:2159   */\n      tag_166\n        /* \"#utility.yul\":2153:2158   */\n      dup2\n        /* \"#utility.yul\":2135:2159   */\n      tag_91\n      jump\t// in\n    tag_166:\n        /* \"#utility.yul\":2130:2133   */\n      dup3\n        /* \"#utility.yul\":2123:2160   */\n      mstore\n        /* \"#utility.yul\":2048:2166   */\n      pop\n      pop\n      jump\t// out\n        /* \"#utility.yul\":2172:2705   */\n    tag_16:\n        /* \"#utility.yul\":2341:2345   */\n      0x00\n        /* \"#utility.yul\":2379:2381   */\n      0x60\n        /* \"#utility.yul\":2368:2377   */\n      dup3\n        /* \"#utility.yul\":2364:2382   */\n      add\n        /* \"#utility.yul\":2356:2382   */\n      swap1\n      pop\n        /* \"#utility.yul\":2428:2437   */\n      dup2\n        /* \"#utility.yul\":2422:2426   */\n      dup2\n        /* \"#utility.yul\":2418:2438   */\n      sub\n        /* \"#utility.yul\":2414:2415   */\n      0x00\n        /* \"#utility.yul\":2403:2412   */\n      dup4\n        /* \"#utility.yul\":2399:2416   */\n      add\n        /* \"#utility.yul\":2392:2439   */\n      mstore\n        /* \"#utility.yul\":2456:2534   */\n      tag_168\n        /* \"#utility.yul\":2529:2533   */\n      dup2\n        /* \"#utility.yul\":2520:2526   */\n      dup7\n        /* \"#utility.yul\":2456:2534   */\n      tag_98\n      jump\t// in\n    tag_168:\n        /* \"#utility.yul\":2448:2534   */\n      swap1\n      pop\n        /* \"#utility.yul\":2544:2616   */\n      tag_169\n        /* \"#utility.yul\":2612:2614   */\n      0x20\n        /* \"#utility.yul\":2601:2610   */\n      dup4\n        /* \"#utility.yul\":2597:2615   */\n      add\n        /* \"#utility.yul\":2588:2594   */\n      dup6\n        /* \"#utility.yul\":2544:2616   */\n      tag_99\n      jump\t// in\n    tag_169:\n        /* \"#utility.yul\":2626:2698   */\n      tag_170\n        /* \"#utility.yul\":2694:2696   */\n      0x40\n        /* \"#utility.yul\":2683:2692   */\n      dup4\n        /* \"#utility.yul\":2679:2697   */\n      add\n        /* \"#utility.yul\":2670:2676   */\n      dup5\n        /* \"#utility.yul\":2626:2698   */\n      tag_99\n      jump\t// in\n    tag_170:\n        /* \"#utility.yul\":2172:2705   */\n      swap5\n      swap4\n      pop\n      pop\n      pop\n      pop\n      jump\t// out\n        /* \"#utility.yul\":2711:2837   */\n    tag_100:\n        /* \"#utility.yul\":2748:2755   */\n      0x00\n        /* \"#utility.yul\":2788:2830   */\n      0xffffffffffffffffffffffffffffffffffffffff\n        /* \"#utility.yul\":2781:2786   */\n      dup3\n        /* \"#utility.yul\":2777:2831   */\n      and\n        /* \"#utility.yul\":2766:2831   */\n      swap1\n      pop\n        /* \"#utility.yul\":2711:2837   */\n      swap2\n      swap1\n      pop\n      jump\t// out\n        /* \"#utility.yul\":2843:2939   */\n    tag_101:\n        /* \"#utility.yul\":2880:2887   */\n      0x00\n        /* \"#utility.yul\":2909:2933   */\n      tag_173\n        /* \"#utility.yul\":2927:2932   */\n      dup3\n        /* \"#utility.yul\":2909:2933   */\n      tag_100\n      jump\t// in\n    tag_173:\n        /* \"#utility.yul\":2898:2933   */\n      swap1\n      pop\n        /* \"#utility.yul\":2843:2939   */\n      swap2\n      swap1\n      pop\n      jump\t// out\n        /* \"#utility.yul\":2945:3063   */\n    tag_102:\n        /* \"#utility.yul\":3032:3056   */\n      tag_175\n        /* \"#utility.yul\":3050:3055   */\n      dup2\n        /* \"#utility.yul\":3032:3056   */\n      tag_101\n      jump\t// in\n    tag_175:\n        /* \"#utility.yul\":3027:3030   */\n      dup3\n        /* \"#utility.yul\":3020:3057   */\n      mstore\n        /* \"#utility.yul\":2945:3063   */\n      pop\n      pop\n      jump\t// out\n        /* \"#utility.yul\":3069:3291   */\n    tag_22:\n        /* \"#utility.yul\":3162:3166   */\n      0x00\n        /* \"#utility.yul\":3200:3202   */\n      0x20\n        /* \"#utility.yul\":3189:3198   */\n      dup3\n        /* \"#utility.yul\":3185:3203   */\n      add\n        /* \"#utility.yul\":3177:3203   */\n      swap1\n      pop\n        /* \"#utility.yul\":3213:3284   */\n      tag_177\n        /* \"#utility.yul\":3281:3282   */\n      0x00\n        /* \"#utility.yul\":3270:3279   */\n      dup4\n        /* \"#utility.yul\":3266:3283   */\n      add\n        /* \"#utility.yul\":3257:3263   */\n      dup5\n        /* \"#utility.yul\":3213:3284   */\n      tag_102\n      jump\t// in\n    tag_177:\n        /* \"#utility.yul\":3069:3291   */\n      swap3\n      swap2\n      pop\n      pop\n      jump\t// out\n        /* \"#utility.yul\":3297:3419   */\n    tag_103:\n        /* \"#utility.yul\":3370:3394   */\n      tag_179\n        /* \"#utility.yul\":3388:3393   */\n      dup2\n        /* \"#utility.yul\":3370:3394   */\n      tag_101\n      jump\t// in\n    tag_179:\n        /* \"#utility.yul\":3363:3368   */\n      dup2\n        /* \"#utility.yul\":3360:3395   */\n      eq\n        /* \"#utility.yul\":3350:3413   */\n      tag_180\n      jumpi\n        /* \"#utility.yul\":3409:3410   */\n      0x00\n        /* \"#utility.yul\":3406:3407   */\n      dup1\n        /* \"#utility.yul\":3399:3411   */\n      revert\n        /* \"#utility.yul\":3350:3413   */\n    tag_180:\n        /* \"#utility.yul\":3297:3419   */\n      pop\n      jump\t// out\n        /* \"#utility.yul\":3425:3564   */\n    tag_104:\n        /* \"#utility.yul\":3471:3476   */\n      0x00\n        /* \"#utility.yul\":3509:3515   */\n      dup2\n        /* \"#utility.yul\":3496:3516   */\n      calldataload\n        /* \"#utility.yul\":3487:3516   */\n      swap1\n      pop\n        /* \"#utility.yul\":3525:3558   */\n      tag_182\n        /* \"#utility.yul\":3552:3557   */\n      dup2\n        /* \"#utility.yul\":3525:3558   */\n      tag_103\n      jump\t// in\n    tag_182:\n        /* \"#utility.yul\":3425:3564   */\n      swap3\n      swap2\n      pop\n      pop\n      jump\t// out\n        /* \"#utility.yul\":3570:3899   */\n    tag_25:\n        /* \"#utility.yul\":3629:3635   */\n      0x00\n        /* \"#utility.yul\":3678:3680   */\n      0x20\n        /* \"#utility.yul\":3666:3675   */\n      dup3\n        /* \"#utility.yul\":3657:3664   */\n      dup5\n        /* \"#utility.yul\":3653:3676   */\n      sub\n        /* \"#utility.yul\":3649:3681   */\n      slt\n        /* \"#utility.yul\":3646:3765   */\n      iszero\n      tag_184\n      jumpi\n        /* \"#utility.yul\":3684:3763   */\n      tag_185\n      tag_89\n      jump\t// in\n    tag_185:\n        /* \"#utility.yul\":3646:3765   */\n    tag_184:\n        /* \"#utility.yul\":3804:3805   */\n      0x00\n        /* \"#utility.yul\":3829:3882   */\n      tag_186\n        /* \"#utility.yul\":3874:3881   */\n      dup5\n        /* \"#utility.yul\":3865:3871   */\n      dup3\n        /* \"#utility.yul\":3854:3863   */\n      dup6\n        /* \"#utility.yul\":3850:3872   */\n      add\n        /* \"#utility.yul\":3829:3882   */\n      tag_104\n      jump\t// in\n    tag_186:\n        /* \"#utility.yul\":3819:3882   */\n      swap2\n      pop\n        /* \"#utility.yul\":3775:3892   */\n      pop\n        /* \"#utility.yul\":3570:3899   */\n      swap3\n      swap2\n      pop\n      pop\n      jump\t// out\n        /* \"#utility.yul\":3905:3995   */\n    tag_105:\n        /* \"#utility.yul\":3939:3946   */\n      0x00\n        /* \"#utility.yul\":3982:3987   */\n      dup2\n        /* \"#utility.yul\":3975:3988   */\n      iszero\n        /* \"#utility.yul\":3968:3989   */\n      iszero\n        /* \"#utility.yul\":3957:3989   */\n      swap1\n      pop\n        /* \"#utility.yul\":3905:3995   */\n      swap2\n      swap1\n      pop\n      jump\t// out\n        /* \"#utility.yul\":4001:4110   */\n    tag_106:\n        /* \"#utility.yul\":4082:4103   */\n      tag_189\n        /* \"#utility.yul\":4097:4102   */\n      dup2\n        /* \"#utility.yul\":4082:4103   */\n      tag_105\n      jump\t// in\n    tag_189:\n        /* \"#utility.yul\":4077:4080   */\n      dup3\n        /* \"#utility.yul\":4070:4104   */\n      mstore\n        /* \"#utility.yul\":4001:4110   */\n      pop\n      pop\n      jump\t// out\n        /* \"#utility.yul\":4116:4637   */\n    tag_28:\n        /* \"#utility.yul\":4279:4283   */\n      0x00\n        /* \"#utility.yul\":4317:4319   */\n      0x60\n        /* \"#utility.yul\":4306:4315   */\n      dup3\n        /* \"#utility.yul\":4302:4320   */\n      add\n        /* \"#utility.yul\":4294:4320   */\n      swap1\n      pop\n        /* \"#utility.yul\":4366:4375   */\n      dup2\n        /* \"#utility.yul\":4360:4364   */\n      dup2\n        /* \"#utility.yul\":4356:4376   */\n      sub\n        /* \"#utility.yul\":4352:4353   */\n      0x00\n        /* \"#utility.yul\":4341:4350   */\n      dup4\n        /* \"#utility.yul\":4337:4354   */\n      add\n        /* \"#utility.yul\":4330:4377   */\n      mstore\n        /* \"#utility.yul\":4394:4472   */\n      tag_191\n        /* \"#utility.yul\":4467:4471   */\n      dup2\n        /* \"#utility.yul\":4458:4464   */\n      dup7\n        /* \"#utility.yul\":4394:4472   */\n      tag_98\n      jump\t// in\n    tag_191:\n        /* \"#utility.yul\":4386:4472   */\n      swap1\n      pop\n        /* \"#utility.yul\":4482:4554   */\n      tag_192\n        /* \"#utility.yul\":4550:4552   */\n      0x20\n        /* \"#utility.yul\":4539:4548   */\n      dup4\n        /* \"#utility.yul\":4535:4553   */\n      add\n        /* \"#utility.yul\":4526:4532   */\n      dup6\n        /* \"#utility.yul\":4482:4554   */\n      tag_99\n      jump\t// in\n    tag_192:\n        /* \"#utility.yul\":4564:4630   */\n      tag_193\n        /* \"#utility.yul\":4626:4628   */\n      0x40\n        /* \"#utility.yul\":4615:4624   */\n      dup4\n        /* \"#utility.yul\":4611:4629   */\n      add\n        /* \"#utility.yul\":4602:4608   */\n      dup5\n        /* \"#utility.yul\":4564:4630   */\n      tag_106\n      jump\t// in\n    tag_193:\n        /* \"#utility.yul\":4116:4637   */\n      swap5\n      swap4\n      pop\n      pop\n      pop\n      pop\n      jump\t// out\n        /* \"#utility.yul\":4643:4760   */\n    tag_107:\n        /* \"#utility.yul\":4752:4753   */\n      0x00\n        /* \"#utility.yul\":4749:4750   */\n      dup1\n        /* \"#utility.yul\":4742:4754   */\n      revert\n        /* \"#utility.yul\":4766:4883   */\n    tag_108:\n        /* \"#utility.yul\":4875:4876   */\n      0x00\n        /* \"#utility.yul\":4872:4873   */\n      dup1\n        /* \"#utility.yul\":4865:4877   */\n      revert\n        /* \"#utility.yul\":4889:5069   */\n    tag_109:\n        /* \"#utility.yul\":4937:5014   */\n      0x4e487b7100000000000000000000000000000000000000000000000000000000\n        /* \"#utility.yul\":4934:4935   */\n      0x00\n        /* \"#utility.yul\":4927:5015   */\n      mstore\n        /* \"#utility.yul\":5034:5038   */\n      0x41\n        /* \"#utility.yul\":5031:5032   */\n      0x04\n        /* \"#utility.yul\":5024:5039   */\n      mstore\n        /* \"#utility.yul\":5058:5062   */\n      0x24\n        /* \"#utility.yul\":5055:5056   */\n      0x00\n        /* \"#utility.yul\":5048:5063   */\n      revert\n        /* \"#utility.yul\":5075:5356   */\n    tag_110:\n        /* \"#utility.yul\":5158:5185   */\n      tag_198\n        /* \"#utility.yul\":5180:5184   */\n      dup3\n        /* \"#utility.yul\":5158:5185   */\n      tag_97\n      jump\t// in\n    tag_198:\n        /* \"#utility.yul\":5150:5156   */\n      dup2\n        /* \"#utility.yul\":5146:5186   */\n      add\n        /* \"#utility.yul\":5288:5294   */\n      dup2\n        /* \"#utility.yul\":5276:5286   */\n      dup2\n        /* \"#utility.yul\":5273:5295   */\n      lt\n        /* \"#utility.yul\":5252:5270   */\n      0xffffffffffffffff\n        /* \"#utility.yul\":5240:5250   */\n      dup3\n        /* \"#utility.yul\":5237:5271   */\n      gt\n        /* \"#utility.yul\":5234:5296   */\n      or\n        /* \"#utility.yul\":5231:5319   */\n      iszero\n      tag_199\n      jumpi\n        /* \"#utility.yul\":5299:5317   */\n      tag_200\n      tag_109\n      jump\t// in\n    tag_200:\n        /* \"#utility.yul\":5231:5319   */\n    tag_199:\n        /* \"#utility.yul\":5339:5349   */\n      dup1\n        /* \"#utility.yul\":5335:5337   */\n      0x40\n        /* \"#utility.yul\":5328:5350   */\n      mstore\n        /* \"#utility.yul\":5118:5356   */\n      pop\n        /* \"#utility.yul\":5075:5356   */\n      pop\n      pop\n      jump\t// out\n        /* \"#utility.yul\":5362:5491   */\n    tag_111:\n        /* \"#utility.yul\":5396:5402   */\n      0x00\n        /* \"#utility.yul\":5423:5443   */\n      tag_202\n      tag_88\n      jump\t// in\n    tag_202:\n        /* \"#utility.yul\":5413:5443   */\n      swap1\n      pop\n        /* \"#utility.yul\":5452:5485   */\n      tag_203\n        /* \"#utility.yul\":5480:5484   */\n      dup3\n        /* \"#utility.yul\":5472:5478   */\n      dup3\n        /* \"#utility.yul\":5452:5485   */\n      tag_110\n      jump\t// in\n    tag_203:\n        /* \"#utility.yul\":5362:5491   */\n      swap2\n      swap1\n      pop\n      jump\t// out\n        /* \"#utility.yul\":5497:5805   */\n    tag_112:\n        /* \"#utility.yul\":5559:5563   */\n      0x00\n        /* \"#utility.yul\":5649:5667   */\n      0xffffffffffffffff\n        /* \"#utility.yul\":5641:5647   */\n      dup3\n        /* \"#utility.yul\":5638:5668   */\n      gt\n        /* \"#utility.yul\":5635:5691   */\n      iszero\n      tag_205\n      jumpi\n        /* \"#utility.yul\":5671:5689   */\n      tag_206\n      tag_109\n      jump\t// in\n    tag_206:\n        /* \"#utility.yul\":5635:5691   */\n    tag_205:\n        /* \"#utility.yul\":5709:5738   */\n      tag_207\n        /* \"#utility.yul\":5731:5737   */\n      dup3\n        /* \"#utility.yul\":5709:5738   */\n      tag_97\n      jump\t// in\n    tag_207:\n        /* \"#utility.yul\":5701:5738   */\n      swap1\n      pop\n        /* \"#utility.yul\":5793:5797   */\n      0x20\n        /* \"#utility.yul\":5787:5791   */\n      dup2\n        /* \"#utility.yul\":5783:5798   */\n      add\n        /* \"#utility.yul\":5775:5798   */\n      swap1\n      pop\n        /* \"#utility.yul\":5497:5805   */\n      swap2\n      swap1\n      pop\n      jump\t// out\n        /* \"#utility.yul\":5811:5957   */\n    tag_113:\n        /* \"#utility.yul\":5908:5914   */\n      dup3\n        /* \"#utility.yul\":5903:5906   */\n      dup2\n        /* \"#utility.yul\":5898:5901   */\n      dup4\n        /* \"#utility.yul\":5885:5915   */\n      calldatacopy\n        /* \"#utility.yul\":5949:5950   */\n      0x00\n        /* \"#utility.yul\":5940:5946   */\n      dup4\n        /* \"#utility.yul\":5935:5938   */\n      dup4\n        /* \"#utility.yul\":5931:5947   */\n      add\n        /* \"#utility.yul\":5924:5951   */\n      mstore\n        /* \"#utility.yul\":5811:5957   */\n      pop\n      pop\n      pop\n      jump\t// out\n        /* \"#utility.yul\":5963:6388   */\n    tag_114:\n        /* \"#utility.yul\":6041:6046   */\n      0x00\n        /* \"#utility.yul\":6066:6132   */\n      tag_210\n        /* \"#utility.yul\":6082:6131   */\n      tag_211\n        /* \"#utility.yul\":6124:6130   */\n      dup5\n        /* \"#utility.yul\":6082:6131   */\n      tag_112\n      jump\t// in\n    tag_211:\n        /* \"#utility.yul\":6066:6132   */\n      tag_111\n      jump\t// in\n    tag_210:\n        /* \"#utility.yul\":6057:6132   */\n      swap1\n      pop\n        /* \"#utility.yul\":6155:6161   */\n      dup3\n        /* \"#utility.yul\":6148:6153   */\n      dup2\n        /* \"#utility.yul\":6141:6162   */\n      mstore\n        /* \"#utility.yul\":6193:6197   */\n      0x20\n        /* \"#utility.yul\":6186:6191   */\n      dup2\n        /* \"#utility.yul\":6182:6198   */\n      add\n        /* \"#utility.yul\":6231:6234   */\n      dup5\n        /* \"#utility.yul\":6222:6228   */\n      dup5\n        /* \"#utility.yul\":6217:6220   */\n      dup5\n        /* \"#utility.yul\":6213:6229   */\n      add\n        /* \"#utility.yul\":6210:6235   */\n      gt\n        /* \"#utility.yul\":6207:6319   */\n      iszero\n      tag_212\n      jumpi\n        /* \"#utility.yul\":6238:6317   */\n      tag_213\n      tag_108\n      jump\t// in\n    tag_213:\n        /* \"#utility.yul\":6207:6319   */\n    tag_212:\n        /* \"#utility.yul\":6328:6382   */\n      tag_214\n        /* \"#utility.yul\":6375:6381   */\n      dup5\n        /* \"#utility.yul\":6370:6373   */\n      dup3\n        /* \"#utility.yul\":6365:6368   */\n      dup6\n        /* \"#utility.yul\":6328:6382   */\n      tag_113\n      jump\t// in\n    tag_214:\n        /* \"#utility.yul\":6047:6388   */\n      pop\n        /* \"#utility.yul\":5963:6388   */\n      swap4\n      swap3\n      pop\n      pop\n      pop\n      jump\t// out\n        /* \"#utility.yul\":6408:6748   */\n    tag_115:\n        /* \"#utility.yul\":6464:6469   */\n      0x00\n        /* \"#utility.yul\":6513:6516   */\n      dup3\n        /* \"#utility.yul\":6506:6510   */\n      0x1f\n        /* \"#utility.yul\":6498:6504   */\n      dup4\n        /* \"#utility.yul\":6494:6511   */\n      add\n        /* \"#utility.yul\":6490:6517   */\n      slt\n        /* \"#utility.yul\":6480:6602   */\n      tag_216\n      jumpi\n        /* \"#utility.yul\":6521:6600   */\n      tag_217\n      tag_107\n      jump\t// in\n    tag_217:\n        /* \"#utility.yul\":6480:6602   */\n    tag_216:\n        /* \"#utility.yul\":6638:6644   */\n      dup2\n        /* \"#utility.yul\":6625:6645   */\n      calldataload\n        /* \"#utility.yul\":6663:6742   */\n      tag_218\n        /* \"#utility.yul\":6738:6741   */\n      dup5\n        /* \"#utility.yul\":6730:6736   */\n      dup3\n        /* \"#utility.yul\":6723:6727   */\n      0x20\n        /* \"#utility.yul\":6715:6721   */\n      dup7\n        /* \"#utility.yul\":6711:6728   */\n      add\n        /* \"#utility.yul\":6663:6742   */\n      tag_114\n      jump\t// in\n    tag_218:\n        /* \"#utility.yul\":6654:6742   */\n      swap2\n      pop\n        /* \"#utility.yul\":6470:6748   */\n      pop\n        /* \"#utility.yul\":6408:6748   */\n      swap3\n      swap2\n      pop\n      pop\n      jump\t// out\n        /* \"#utility.yul\":6754:7408   */\n    tag_31:\n        /* \"#utility.yul\":6832:6838   */\n      0x00\n        /* \"#utility.yul\":6840:6846   */\n      dup1\n        /* \"#utility.yul\":6889:6891   */\n      0x40\n        /* \"#utility.yul\":6877:6886   */\n      dup4\n        /* \"#utility.yul\":6868:6875   */\n      dup6\n        /* \"#utility.yul\":6864:6887   */\n      sub\n        /* \"#utility.yul\":6860:6892   */\n      slt\n        /* \"#utility.yul\":6857:6976   */\n      iszero\n      tag_220\n      jumpi\n        /* \"#utility.yul\":6895:6974   */\n      tag_221\n      tag_89\n      jump\t// in\n    tag_221:\n        /* \"#utility.yul\":6857:6976   */\n    tag_220:\n        /* \"#utility.yul\":7043:7044   */\n      0x00\n        /* \"#utility.yul\":7032:7041   */\n      dup4\n        /* \"#utility.yul\":7028:7045   */\n      add\n        /* \"#utility.yul\":7015:7046   */\n      calldataload\n        /* \"#utility.yul\":7073:7091   */\n      0xffffffffffffffff\n        /* \"#utility.yul\":7065:7071   */\n      dup2\n        /* \"#utility.yul\":7062:7092   */\n      gt\n        /* \"#utility.yul\":7059:7176   */\n      iszero\n      tag_222\n      jumpi\n        /* \"#utility.yul\":7095:7174   */\n      tag_223\n      tag_90\n      jump\t// in\n    tag_223:\n        /* \"#utility.yul\":7059:7176   */\n    tag_222:\n        /* \"#utility.yul\":7200:7263   */\n      tag_224\n        /* \"#utility.yul\":7255:7262   */\n      dup6\n        /* \"#utility.yul\":7246:7252   */\n      dup3\n        /* \"#utility.yul\":7235:7244   */\n      dup7\n        /* \"#utility.yul\":7231:7253   */\n      add\n        /* \"#utility.yul\":7200:7263   */\n      tag_115\n      jump\t// in\n    tag_224:\n        /* \"#utility.yul\":7190:7263   */\n      swap3\n      pop\n        /* \"#utility.yul\":6986:7273   */\n      pop\n        /* \"#utility.yul\":7312:7314   */\n      0x20\n        /* \"#utility.yul\":7338:7391   */\n      tag_225\n        /* \"#utility.yul\":7383:7390   */\n      dup6\n        /* \"#utility.yul\":7374:7380   */\n      dup3\n        /* \"#utility.yul\":7363:7372   */\n      dup7\n        /* \"#utility.yul\":7359:7381   */\n      add\n        /* \"#utility.yul\":7338:7391   */\n      tag_93\n      jump\t// in\n    tag_225:\n        /* \"#utility.yul\":7328:7391   */\n      swap2\n      pop\n        /* \"#utility.yul\":7283:7401   */\n      pop\n        /* \"#utility.yul\":6754:7408   */\n      swap3\n      pop\n      swap3\n      swap1\n      pop\n      jump\t// out\n        /* \"#utility.yul\":7414:7636   */\n    tag_36:\n        /* \"#utility.yul\":7507:7511   */\n      0x00\n        /* \"#utility.yul\":7545:7547   */\n      0x20\n        /* \"#utility.yul\":7534:7543   */\n      dup3\n        /* \"#utility.yul\":7530:7548   */\n      add\n        /* \"#utility.yul\":7522:7548   */\n      swap1\n      pop\n        /* \"#utility.yul\":7558:7629   */\n      tag_227\n        /* \"#utility.yul\":7626:7627   */\n      0x00\n        /* \"#utility.yul\":7615:7624   */\n      dup4\n        /* \"#utility.yul\":7611:7628   */\n      add\n        /* \"#utility.yul\":7602:7608   */\n      dup5\n        /* \"#utility.yul\":7558:7629   */\n      tag_99\n      jump\t// in\n    tag_227:\n        /* \"#utility.yul\":7414:7636   */\n      swap3\n      swap2\n      pop\n      pop\n      jump\t// out\n        /* \"#utility.yul\":7642:7822   */\n    tag_116:\n        /* \"#utility.yul\":7690:7767   */\n      0x4e487b7100000000000000000000000000000000000000000000000000000000\n        /* \"#utility.yul\":7687:7688   */\n      0x00\n        /* \"#utility.yul\":7680:7768   */\n      mstore\n        /* \"#utility.yul\":7787:7791   */\n      0x22\n        /* \"#utility.yul\":7784:7785   */\n      0x04\n        /* \"#utility.yul\":7777:7792   */\n      mstore\n        /* \"#utility.yul\":7811:7815   */\n      0x24\n        /* \"#utility.yul\":7808:7809   */\n      0x00\n        /* \"#utility.yul\":7801:7816   */\n      revert\n        /* \"#utility.yul\":7828:8148   */\n    tag_41:\n        /* \"#utility.yul\":7872:7878   */\n      0x00\n        /* \"#utility.yul\":7909:7910   */\n      0x02\n        /* \"#utility.yul\":7903:7907   */\n      dup3\n        /* \"#utility.yul\":7899:7911   */\n      div\n        /* \"#utility.yul\":7889:7911   */\n      swap1\n      pop\n        /* \"#utility.yul\":7956:7957   */\n      0x01\n        /* \"#utility.yul\":7950:7954   */\n      dup3\n        /* \"#utility.yul\":7946:7958   */\n      and\n        /* \"#utility.yul\":7977:7995   */\n      dup1\n        /* \"#utility.yul\":7967:8048   */\n      tag_230\n      jumpi\n        /* \"#utility.yul\":8033:8037   */\n      0x7f\n        /* \"#utility.yul\":8025:8031   */\n      dup3\n        /* \"#utility.yul\":8021:8038   */\n      and\n        /* \"#utility.yul\":8011:8038   */\n      swap2\n      pop\n        /* \"#utility.yul\":7967:8048   */\n    tag_230:\n        /* \"#utility.yul\":8095:8097   */\n      0x20\n        /* \"#utility.yul\":8087:8093   */\n      dup3\n        /* \"#utility.yul\":8084:8098   */\n      lt\n        /* \"#utility.yul\":8064:8082   */\n      dup2\n        /* \"#utility.yul\":8061:8099   */\n      sub\n        /* \"#utility.yul\":8058:8142   */\n      tag_231\n      jumpi\n        /* \"#utility.yul\":8114:8132   */\n      tag_232\n      tag_116\n      jump\t// in\n    tag_232:\n        /* \"#utility.yul\":8058:8142   */\n    tag_231:\n        /* \"#utility.yul\":7879:8148   */\n      pop\n        /* \"#utility.yul\":7828:8148   */\n      swap2\n      swap1\n      pop\n      jump\t// out\n        /* \"#utility.yul\":8154:8326   */\n    tag_117:\n        /* \"#utility.yul\":8294:8318   */\n      0x796f75206861766520616c726561647920766f74656400000000000000000000\n        /* \"#utility.yul\":8290:8291   */\n      0x00\n        /* \"#utility.yul\":8282:8288   */\n      dup3\n        /* \"#utility.yul\":8278:8292   */\n      add\n        /* \"#utility.yul\":8271:8319   */\n      mstore\n        /* \"#utility.yul\":8154:8326   */\n      pop\n      jump\t// out\n        /* \"#utility.yul\":8332:8698   */\n    tag_118:\n        /* \"#utility.yul\":8474:8477   */\n      0x00\n        /* \"#utility.yul\":8495:8562   */\n      tag_235\n        /* \"#utility.yul\":8559:8561   */\n      0x16\n        /* \"#utility.yul\":8554:8557   */\n      dup4\n        /* \"#utility.yul\":8495:8562   */\n      tag_95\n      jump\t// in\n    tag_235:\n        /* \"#utility.yul\":8488:8562   */\n      swap2\n      pop\n        /* \"#utility.yul\":8571:8664   */\n      tag_236\n        /* \"#utility.yul\":8660:8663   */\n      dup3\n        /* \"#utility.yul\":8571:8664   */\n      tag_117\n      jump\t// in\n    tag_236:\n        /* \"#utility.yul\":8689:8691   */\n      0x20\n        /* \"#utility.yul\":8684:8687   */\n      dup3\n        /* \"#utility.yul\":8680:8692   */\n      add\n        /* \"#utility.yul\":8673:8692   */\n      swap1\n      pop\n        /* \"#utility.yul\":8332:8698   */\n      swap2\n      swap1\n      pop\n      jump\t// out\n        /* \"#utility.yul\":8704:9123   */\n    tag_61:\n        /* \"#utility.yul\":8870:8874   */\n      0x00\n        /* \"#utility.yul\":8908:8910   */\n      0x20\n        /* \"#utility.yul\":8897:8906   */\n      dup3\n        /* \"#utility.yul\":8893:8911   */\n      add\n        /* \"#utility.yul\":8885:8911   */\n      swap1\n      pop\n        /* \"#utility.yul\":8957:8966   */\n      dup2\n        /* \"#utility.yul\":8951:8955   */\n      dup2\n        /* \"#utility.yul\":8947:8967   */\n      sub\n        /* \"#utility.yul\":8943:8944   */\n      0x00\n        /* \"#utility.yul\":8932:8941   */\n      dup4\n        /* \"#utility.yul\":8928:8945   */\n      add\n        /* \"#utility.yul\":8921:8968   */\n      mstore\n        /* \"#utility.yul\":8985:9116   */\n      tag_238\n        /* \"#utility.yul\":9111:9115   */\n      dup2\n        /* \"#utility.yul\":8985:9116   */\n      tag_118\n      jump\t// in\n    tag_238:\n        /* \"#utility.yul\":8977:9116   */\n      swap1\n      pop\n        /* \"#utility.yul\":8704:9123   */\n      swap2\n      swap1\n      pop\n      jump\t// out\n        /* \"#utility.yul\":9129:9270   */\n    tag_119:\n        /* \"#utility.yul\":9178:9182   */\n      0x00\n        /* \"#utility.yul\":9201:9204   */\n      dup2\n        /* \"#utility.yul\":9193:9204   */\n      swap1\n      pop\n        /* \"#utility.yul\":9224:9227   */\n      dup2\n        /* \"#utility.yul\":9221:9222   */\n      0x00\n        /* \"#utility.yul\":9214:9228   */\n      mstore\n        /* \"#utility.yul\":9258:9262   */\n      0x20\n        /* \"#utility.yul\":9255:9256   */\n      0x00\n        /* \"#utility.yul\":9245:9263   */\n      keccak256\n        /* \"#utility.yul\":9237:9263   */\n      swap1\n      pop\n        /* \"#utility.yul\":9129:9270   */\n      swap2\n      swap1\n      pop\n      jump\t// out\n        /* \"#utility.yul\":9276:9369   */\n    tag_120:\n        /* \"#utility.yul\":9313:9319   */\n      0x00\n        /* \"#utility.yul\":9360:9362   */\n      0x20\n        /* \"#utility.yul\":9355:9357   */\n      0x1f\n        /* \"#utility.yul\":9348:9353   */\n      dup4\n        /* \"#utility.yul\":9344:9358   */\n      add\n        /* \"#utility.yul\":9340:9363   */\n      div\n        /* \"#utility.yul\":9330:9363   */\n      swap1\n      pop\n        /* \"#utility.yul\":9276:9369   */\n      swap2\n      swap1\n      pop\n      jump\t// out\n        /* \"#utility.yul\":9375:9482   */\n    tag_121:\n        /* \"#utility.yul\":9419:9427   */\n      0x00\n        /* \"#utility.yul\":9469:9474   */\n      dup3\n        /* \"#utility.yul\":9463:9467   */\n      dup3\n        /* \"#utility.yul\":9459:9475   */\n      shl\n        /* \"#utility.yul\":9438:9475   */\n      swap1\n      pop\n        /* \"#utility.yul\":9375:9482   */\n      swap3\n      swap2\n      pop\n      pop\n      jump\t// out\n        /* \"#utility.yul\":9488:9881   */\n    tag_122:\n        /* \"#utility.yul\":9557:9563   */\n      0x00\n        /* \"#utility.yul\":9607:9608   */\n      0x08\n        /* \"#utility.yul\":9595:9605   */\n      dup4\n        /* \"#utility.yul\":9591:9609   */\n      mul\n        /* \"#utility.yul\":9630:9727   */\n      tag_243\n        /* \"#utility.yul\":9660:9726   */\n      0xffffffffffffffffffffffffffffffffffffffffffffffffffffffffffffffff\n        /* \"#utility.yul\":9649:9658   */\n      dup3\n        /* \"#utility.yul\":9630:9727   */\n      tag_121\n      jump\t// in\n    tag_243:\n        /* \"#utility.yul\":9748:9787   */\n      tag_244\n        /* \"#utility.yul\":9778:9786   */\n      dup7\n        /* \"#utility.yul\":9767:9776   */\n      dup4\n        /* \"#utility.yul\":9748:9787   */\n      tag_121\n      jump\t// in\n    tag_244:\n        /* \"#utility.yul\":9736:9787   */\n      swap6\n      pop\n        /* \"#utility.yul\":9820:9824   */\n      dup1\n        /* \"#utility.yul\":9816:9825   */\n      not\n        /* \"#utility.yul\":9809:9814   */\n      dup5\n        /* \"#utility.yul\":9805:9826   */\n      and\n        /* \"#utility.yul\":9796:9826   */\n      swap4\n      pop\n        /* \"#utility.yul\":9869:9873   */\n      dup1\n        /* \"#utility.yul\":9859:9867   */\n      dup7\n        /* \"#utility.yul\":9855:9874   */\n      and\n        /* \"#utility.yul\":9848:9853   */\n      dup5\n        /* \"#utility.yul\":9845:9875   */\n      or\n        /* \"#utility.yul\":9835:9875   */\n      swap3\n      pop\n        /* \"#utility.yul\":9564:9881   */\n      pop\n      pop\n        /* \"#utility.yul\":9488:9881   */\n      swap4\n      swap3\n      pop\n      pop\n      pop\n      jump\t// out\n        /* \"#utility.yul\":9887:9947   */\n    tag_123:\n        /* \"#utility.yul\":9915:9918   */\n      0x00\n        /* \"#utility.yul\":9936:9941   */\n      dup2\n        /* \"#utility.yul\":9929:9941   */\n      swap1\n      pop\n        /* \"#utility.yul\":9887:9947   */\n      swap2\n      swap1\n      pop\n      jump\t// out\n        /* \"#utility.yul\":9953:10095   */\n    tag_124:\n        /* \"#utility.yul\":10003:10012   */\n      0x00\n        /* \"#utility.yul\":10036:10089   */\n      tag_247\n        /* \"#utility.yul\":10054:10088   */\n      tag_248\n        /* \"#utility.yul\":10063:10087   */\n      tag_249\n        /* \"#utility.yul\":10081:10086   */\n      dup5\n        /* \"#utility.yul\":10063:10087   */\n      tag_91\n      jump\t// in\n    tag_249:\n        /* \"#utility.yul\":10054:10088   */\n      tag_123\n      jump\t// in\n    tag_248:\n        /* \"#utility.yul\":10036:10089   */\n      tag_91\n      jump\t// in\n    tag_247:\n        /* \"#utility.yul\":10023:10089   */\n      swap1\n      pop\n        /* \"#utility.yul\":9953:10095   */\n      swap2\n      swap1\n      pop\n      jump\t// out\n        /* \"#utility.yul\":10101:10176   */\n    tag_125:\n        /* \"#utility.yul\":10144:10147   */\n      0x00\n        /* \"#utility.yul\":10165:10170   */\n      dup2\n        /* \"#utility.yul\":10158:10170   */\n      swap1\n      pop\n        /* \"#utility.yul\":10101:10176   */\n      swap2\n      swap1\n      pop\n      jump\t// out\n        /* \"#utility.yul\":10182:10451   */\n    tag_126:\n        /* \"#utility.yul\":10292:10331   */\n      tag_252\n        /* \"#utility.yul\":10323:10330   */\n      dup4\n        /* \"#utility.yul\":10292:10331   */\n      tag_124\n      jump\t// in\n    tag_252:\n        /* \"#utility.yul\":10353:10444   */\n      tag_253\n        /* \"#utility.yul\":10402:10443   */\n      tag_254\n        /* \"#utility.yul\":10426:10442   */\n      dup3\n        /* \"#utility.yul\":10402:10443   */\n      tag_125\n      jump\t// in\n    tag_254:\n        /* \"#utility.yul\":10394:10400   */\n      dup5\n        /* \"#utility.yul\":10387:10391   */\n      dup5\n        /* \"#utility.yul\":10381:10392   */\n      sload\n        /* \"#utility.yul\":10353:10444   */\n      tag_122\n      jump\t// in\n    tag_253:\n        /* \"#utility.yul\":10347:10351   */\n      dup3\n        /* \"#utility.yul\":10340:10445   */\n      sstore\n        /* \"#utility.yul\":10258:10451   */\n      pop\n        /* \"#utility.yul\":10182:10451   */\n      pop\n      pop\n      pop\n      jump\t// out\n        /* \"#utility.yul\":10457:10530   */\n    tag_127:\n        /* \"#utility.yul\":10502:10505   */\n      0x00\n        /* \"#utility.yul\":10457:10530   */\n      swap1\n      jump\t// out\n        /* \"#utility.yul\":10536:10725   */\n    tag_128:\n        /* \"#utility.yul\":10613:10645   */\n      tag_257\n      tag_127\n      jump\t// in\n    tag_257:\n        /* \"#utility.yul\":10654:10719   */\n      tag_258\n        /* \"#utility.yul\":10712:10718   */\n      dup2\n        /* \"#utility.yul\":10704:10710   */\n      dup5\n        /* \"#utility.yul\":10698:10702   */\n      dup5\n        /* \"#utility.yul\":10654:10719   */\n      tag_126\n      jump\t// in\n    tag_258:\n        /* \"#utility.yul\":10589:10725   */\n      pop\n        /* \"#utility.yul\":10536:10725   */\n      pop\n      pop\n      jump\t// out\n        /* \"#utility.yul\":10731:10917   */\n    tag_129:\n        /* \"#utility.yul\":10791:10911   */\n    tag_260:\n        /* \"#utility.yul\":10808:10811   */\n      dup2\n        /* \"#utility.yul\":10801:10806   */\n      dup2\n        /* \"#utility.yul\":10798:10812   */\n      lt\n        /* \"#utility.yul\":10791:10911   */\n      iszero\n      tag_262\n      jumpi\n        /* \"#utility.yul\":10862:10901   */\n      tag_263\n        /* \"#utility.yul\":10899:10900   */\n      0x00\n        /* \"#utility.yul\":10892:10897   */\n      dup3\n        /* \"#utility.yul\":10862:10901   */\n      tag_128\n      jump\t// in\n    tag_263:\n        /* \"#utility.yul\":10835:10836   */\n      0x01\n        /* \"#utility.yul\":10828:10833   */\n      dup2\n        /* \"#utility.yul\":10824:10837   */\n      add\n        /* \"#utility.yul\":10815:10837   */\n      swap1\n      pop\n        /* \"#utility.yul\":10791:10911   */\n      jump(tag_260)\n    tag_262:\n        /* \"#utility.yul\":10731:10917   */\n      pop\n      pop\n      jump\t// out\n        /* \"#utility.yul\":10923:11466   */\n    tag_130:\n        /* \"#utility.yul\":11024:11026   */\n      0x1f\n        /* \"#utility.yul\":11019:11022   */\n      dup3\n        /* \"#utility.yul\":11016:11027   */\n      gt\n        /* \"#utility.yul\":11013:11459   */\n      iszero\n      tag_265\n      jumpi\n        /* \"#utility.yul\":11058:11096   */\n      tag_266\n        /* \"#utility.yul\":11090:11095   */\n      dup2\n        /* \"#utility.yul\":11058:11096   */\n      tag_119\n      jump\t// in\n    tag_266:\n        /* \"#utility.yul\":11142:11171   */\n      tag_267\n        /* \"#utility.yul\":11160:11170   */\n      dup5\n        /* \"#utility.yul\":11142:11171   */\n      tag_120\n      jump\t// in\n    tag_267:\n        /* \"#utility.yul\":11132:11140   */\n      dup2\n        /* \"#utility.yul\":11128:11172   */\n      add\n        /* \"#utility.yul\":11325:11327   */\n      0x20\n        /* \"#utility.yul\":11313:11323   */\n      dup6\n        /* \"#utility.yul\":11310:11328   */\n      lt\n        /* \"#utility.yul\":11307:11356   */\n      iszero\n      tag_268\n      jumpi\n        /* \"#utility.yul\":11346:11354   */\n      dup2\n        /* \"#utility.yul\":11331:11354   */\n      swap1\n      pop\n        /* \"#utility.yul\":11307:11356   */\n    tag_268:\n        /* \"#utility.yul\":11369:11449   */\n      tag_269\n        /* \"#utility.yul\":11425:11447   */\n      tag_270\n        /* \"#utility.yul\":11443:11446   */\n      dup6\n        /* \"#utility.yul\":11425:11447   */\n      tag_120\n      jump\t// in\n    tag_270:\n        /* \"#utility.yul\":11415:11423   */\n      dup4\n        /* \"#utility.yul\":11411:11448   */\n      add\n        /* \"#utility.yul\":11398:11409   */\n      dup3\n        /* \"#utility.yul\":11369:11449   */\n      tag_129\n      jump\t// in\n    tag_269:\n        /* \"#utility.yul\":11028:11459   */\n      pop\n      pop\n        /* \"#utility.yul\":11013:11459   */\n    tag_265:\n        /* \"#utility.yul\":10923:11466   */\n      pop\n      pop\n      pop\n      jump\t// out\n        /* \"#utility.yul\":11472:11589   */\n    tag_131:\n        /* \"#utility.yul\":11526:11534   */\n      0x00\n        /* \"#utility.yul\":11576:11581   */\n      dup3\n        /* \"#utility.yul\":11570:11574   */\n      dup3\n        /* \"#utility.yul\":11566:11582   */\n      shr\n        /* \"#utility.yul\":11545:11582   */\n      swap1\n      pop\n        /* \"#utility.yul\":11472:11589   */\n      swap3\n      swap2\n      pop\n      pop\n      jump\t// out\n        /* \"#utility.yul\":11595:11764   */\n    tag_132:\n        /* \"#utility.yul\":11639:11645   */\n      0x00\n        /* \"#utility.yul\":11672:11723   */\n      tag_273\n        /* \"#utility.yul\":11720:11721   */\n      0x00\n        /* \"#utility.yul\":11716:11722   */\n      not\n        /* \"#utility.yul\":11708:11713   */\n      dup5\n        /* \"#utility.yul\":11705:11706   */\n      0x08\n        /* \"#utility.yul\":11701:11714   */\n      mul\n        /* \"#utility.yul\":11672:11723   */\n      tag_131\n      jump\t// in\n    tag_273:\n        /* \"#utility.yul\":11668:11724   */\n      not\n        /* \"#utility.yul\":11753:11757   */\n      dup1\n        /* \"#utility.yul\":11747:11751   */\n      dup4\n        /* \"#utility.yul\":11743:11758   */\n      and\n        /* \"#utility.yul\":11733:11758   */\n      swap2\n      pop\n        /* \"#utility.yul\":11646:11764   */\n      pop\n        /* \"#utility.yul\":11595:11764   */\n      swap3\n      swap2\n      pop\n      pop\n      jump\t// out\n        /* \"#utility.yul\":11769:12064   */\n    tag_133:\n        /* \"#utility.yul\":11845:11849   */\n      0x00\n        /* \"#utility.yul\":11991:12020   */\n      tag_275\n        /* \"#utility.yul\":12016:12019   */\n      dup4\n        /* \"#utility.yul\":12010:12014   */\n      dup4\n        /* \"#utility.yul\":11991:12020   */\n      tag_132\n      jump\t// in\n    tag_275:\n        /* \"#utility.yul\":11983:12020   */\n      swap2\n      pop\n        /* \"#utility.yul\":12053:12056   */\n      dup3\n        /* \"#utility.yul\":12050:12051   */\n      0x02\n        /* \"#utility.yul\":12046:12057   */\n      mul\n        /* \"#utility.yul\":12040:12044   */\n      dup3\n        /* \"#utility.yul\":12037:12058   */\n      or\n        /* \"#utility.yul\":12029:12058   */\n      swap1\n      pop\n        /* \"#utility.yul\":11769:12064   */\n      swap3\n      swap2\n      pop\n      pop\n      jump\t// out\n        /* \"#utility.yul\":12069:13464   */\n    tag_63:\n        /* \"#utility.yul\":12186:12223   */\n      tag_277\n        /* \"#utility.yul\":12219:12222   */\n      dup3\n        /* \"#utility.yul\":12186:12223   */\n      tag_94\n      jump\t// in\n    tag_277:\n        /* \"#utility.yul\":12288:12306   */\n      0xffffffffffffffff\n        /* \"#utility.yul\":12280:12286   */\n      dup2\n        /* \"#utility.yul\":12277:12307   */\n      gt\n        /* \"#utility.yul\":12274:12330   */\n      iszero\n      tag_278\n      jumpi\n        /* \"#utility.yul\":12310:12328   */\n      tag_279\n      tag_109\n      jump\t// in\n    tag_279:\n        /* \"#utility.yul\":12274:12330   */\n    tag_278:\n        /* \"#utility.yul\":12354:12392   */\n      tag_280\n        /* \"#utility.yul\":12386:12390   */\n      dup3\n        /* \"#utility.yul\":12380:12391   */\n      sload\n        /* \"#utility.yul\":12354:12392   */\n      tag_41\n      jump\t// in\n    tag_280:\n        /* \"#utility.yul\":12439:12506   */\n      tag_281\n        /* \"#utility.yul\":12499:12505   */\n      dup3\n        /* \"#utility.yul\":12491:12497   */\n      dup3\n        /* \"#utility.yul\":12485:12489   */\n      dup6\n        /* \"#utility.yul\":12439:12506   */\n      tag_130\n      jump\t// in\n    tag_281:\n        /* \"#utility.yul\":12533:12534   */\n      0x00\n        /* \"#utility.yul\":12557:12561   */\n      0x20\n        /* \"#utility.yul\":12544:12561   */\n      swap1\n      pop\n        /* \"#utility.yul\":12589:12591   */\n      0x1f\n        /* \"#utility.yul\":12581:12587   */\n      dup4\n        /* \"#utility.yul\":12578:12592   */\n      gt\n        /* \"#utility.yul\":12606:12607   */\n      0x01\n        /* \"#utility.yul\":12601:13219   */\n      dup2\n      eq\n      tag_283\n      jumpi\n        /* \"#utility.yul\":13263:13264   */\n      0x00\n        /* \"#utility.yul\":13280:13286   */\n      dup5\n        /* \"#utility.yul\":13277:13354   */\n      iszero\n      tag_284\n      jumpi\n        /* \"#utility.yul\":13329:13338   */\n      dup3\n        /* \"#utility.yul\":13324:13327   */\n      dup8\n        /* \"#utility.yul\":13320:13339   */\n      add\n        /* \"#utility.yul\":13314:13340   */\n      mload\n        /* \"#utility.yul\":13305:13340   */\n      swap1\n      pop\n        /* \"#utility.yul\":13277:13354   */\n    tag_284:\n        /* \"#utility.yul\":13380:13447   */\n      tag_285\n        /* \"#utility.yul\":13440:13446   */\n      dup6\n        /* \"#utility.yul\":13433:13438   */\n      dup3\n        /* \"#utility.yul\":13380:13447   */\n      tag_133\n      jump\t// in\n    tag_285:\n        /* \"#utility.yul\":13374:13378   */\n      dup7\n        /* \"#utility.yul\":13367:13448   */\n      sstore\n        /* \"#utility.yul\":13236:13458   */\n      pop\n        /* \"#utility.yul\":12571:13458   */\n      jump(tag_282)\n        /* \"#utility.yul\":12601:13219   */\n    tag_283:\n        /* \"#utility.yul\":12653:12657   */\n      0x1f\n        /* \"#utility.yul\":12649:12658   */\n      not\n        /* \"#utility.yul\":12641:12647   */\n      dup5\n        /* \"#utility.yul\":12637:12659   */\n      and\n        /* \"#utility.yul\":12687:12724   */\n      tag_286\n        /* \"#utility.yul\":12719:12723   */\n      dup7\n        /* \"#utility.yul\":12687:12724   */\n      tag_119\n      jump\t// in\n    tag_286:\n        /* \"#utility.yul\":12746:12747   */\n      0x00\n        /* \"#utility.yul\":12760:12968   */\n    tag_287:\n        /* \"#utility.yul\":12774:12781   */\n      dup3\n        /* \"#utility.yul\":12771:12772   */\n      dup2\n        /* \"#utility.yul\":12768:12782   */\n      lt\n        /* \"#utility.yul\":12760:12968   */\n      iszero\n      tag_289\n      jumpi\n        /* \"#utility.yul\":12853:12862   */\n      dup5\n        /* \"#utility.yul\":12848:12851   */\n      dup10\n        /* \"#utility.yul\":12844:12863   */\n      add\n        /* \"#utility.yul\":12838:12864   */\n      mload\n        /* \"#utility.yul\":12830:12836   */\n      dup3\n        /* \"#utility.yul\":12823:12865   */\n      sstore\n        /* \"#utility.yul\":12904:12905   */\n      0x01\n        /* \"#utility.yul\":12896:12902   */\n      dup3\n        /* \"#utility.yul\":12892:12906   */\n      add\n        /* \"#utility.yul\":12882:12906   */\n      swap2\n      pop\n        /* \"#utility.yul\":12951:12953   */\n      0x20\n        /* \"#utility.yul\":12940:12949   */\n      dup6\n        /* \"#utility.yul\":12936:12954   */\n      add\n        /* \"#utility.yul\":12923:12954   */\n      swap5\n      pop\n        /* \"#utility.yul\":12797:12801   */\n      0x20\n        /* \"#utility.yul\":12794:12795   */\n      dup2\n        /* \"#utility.yul\":12790:12802   */\n      add\n        /* \"#utility.yul\":12785:12802   */\n      swap1\n      pop\n        /* \"#utility.yul\":12760:12968   */\n      jump(tag_287)\n    tag_289:\n        /* \"#utility.yul\":12996:13002   */\n      dup7\n        /* \"#utility.yul\":12987:12994   */\n      dup4\n        /* \"#utility.yul\":12984:13003   */\n      lt\n        /* \"#utility.yul\":12981:13160   */\n      iszero\n      tag_290\n      jumpi\n        /* \"#utility.yul\":13054:13063   */\n      dup5\n        /* \"#utility.yul\":13049:13052   */\n      dup10\n        /* \"#utility.yul\":13045:13064   */\n      add\n        /* \"#utility.yul\":13039:13065   */\n      mload\n        /* \"#utility.yul\":13097:13145   */\n      tag_291\n        /* \"#utility.yul\":13139:13143   */\n      0x1f\n        /* \"#utility.yul\":13131:13137   */\n      dup10\n        /* \"#utility.yul\":13127:13144   */\n      and\n        /* \"#utility.yul\":13116:13125   */\n      dup3\n        /* \"#utility.yul\":13097:13145   */\n      tag_132\n      jump\t// in\n    tag_291:\n        /* \"#utility.yul\":13089:13095   */\n      dup4\n        /* \"#utility.yul\":13082:13146   */\n      sstore\n        /* \"#utility.yul\":13004:13160   */\n      pop\n        /* \"#utility.yul\":12981:13160   */\n    tag_290:\n        /* \"#utility.yul\":13206:13207   */\n      0x01\n        /* \"#utility.yul\":13202:13203   */\n      0x02\n        /* \"#utility.yul\":13194:13200   */\n      dup9\n        /* \"#utility.yul\":13190:13204   */\n      mul\n        /* \"#utility.yul\":13186:13208   */\n      add\n        /* \"#utility.yul\":13180:13184   */\n      dup9\n        /* \"#utility.yul\":13173:13209   */\n      sstore\n        /* \"#utility.yul\":12608:13219   */\n      pop\n      pop\n      pop\n        /* \"#utility.yul\":12571:13458   */\n    tag_282:\n      pop\n        /* \"#utility.yul\":12161:13464   */\n      pop\n      pop\n      pop\n        /* \"#utility.yul\":12069:13464   */\n      pop\n      pop\n      jump\t// out\n        /* \"#utility.yul\":13470:13650   */\n    tag_134:\n        /* \"#utility.yul\":13518:13595   */\n      0x4e487b7100000000000000000000000000000000000000000000000000000000\n        /* \"#utility.yul\":13515:13516   */\n      0x00\n        /* \"#utility.yul\":13508:13596   */\n      mstore\n        /* \"#utility.yul\":13615:13619   */\n      0x11\n        /* \"#utility.yul\":13612:13613   */\n      0x04\n        /* \"#utility.yul\":13605:13620   */\n      mstore\n        /* \"#utility.yul\":13639:13643   */\n      0x24\n        /* \"#utility.yul\":13636:13637   */\n      0x00\n        /* \"#utility.yul\":13629:13644   */\n      revert\n        /* \"#utility.yul\":13656:13889   */\n    tag_65:\n        /* \"#utility.yul\":13695:13698   */\n      0x00\n        /* \"#utility.yul\":13718:13742   */\n      tag_294\n        /* \"#utility.yul\":13736:13741   */\n      dup3\n        /* \"#utility.yul\":13718:13742   */\n      tag_91\n      jump\t// in\n    tag_294:\n        /* \"#utility.yul\":13709:13742   */\n      swap2\n      pop\n        /* \"#utility.yul\":13764:13830   */\n      0xffffffffffffffffffffffffffffffffffffffffffffffffffffffffffffffff\n        /* \"#utility.yul\":13757:13762   */\n      dup3\n        /* \"#utility.yul\":13754:13831   */\n      sub\n        /* \"#utility.yul\":13751:13854   */\n      tag_295\n      jumpi\n        /* \"#utility.yul\":13834:13852   */\n      tag_296\n      tag_134\n      jump\t// in\n    tag_296:\n        /* \"#utility.yul\":13751:13854   */\n    tag_295:\n        /* \"#utility.yul\":13881:13882   */\n      0x01\n        /* \"#utility.yul\":13874:13879   */\n      dup3\n        /* \"#utility.yul\":13870:13883   */\n      add\n        /* \"#utility.yul\":13863:13883   */\n      swap1\n      pop\n        /* \"#utility.yul\":13656:13889   */\n      swap2\n      swap1\n      pop\n      jump\t// out\n        /* \"#utility.yul\":13895:14120   */\n    tag_135:\n        /* \"#utility.yul\":14035:14069   */\n      0x4f776e61626c653a206e6577206f776e657220697320746865207a65726f2061\n        /* \"#utility.yul\":14031:14032   */\n      0x00\n        /* \"#utility.yul\":14023:14029   */\n      dup3\n        /* \"#utility.yul\":14019:14033   */\n      add\n        /* \"#utility.yul\":14012:14070   */\n      mstore\n        /* \"#utility.yul\":14104:14112   */\n      0x6464726573730000000000000000000000000000000000000000000000000000\n        /* \"#utility.yul\":14099:14101   */\n      0x20\n        /* \"#utility.yul\":14091:14097   */\n      dup3\n        /* \"#utility.yul\":14087:14102   */\n      add\n        /* \"#utility.yul\":14080:14113   */\n      mstore\n        /* \"#utility.yul\":13895:14120   */\n      pop\n      jump\t// out\n        /* \"#utility.yul\":14126:14492   */\n    tag_136:\n        /* \"#utility.yul\":14268:14271   */\n      0x00\n        /* \"#utility.yul\":14289:14356   */\n      tag_299\n        /* \"#utility.yul\":14353:14355   */\n      0x26\n        /* \"#utility.yul\":14348:14351   */\n      dup4\n        /* \"#utility.yul\":14289:14356   */\n      tag_95\n      jump\t// in\n    tag_299:\n        /* \"#utility.yul\":14282:14356   */\n      swap2\n      pop\n        /* \"#utility.yul\":14365:14458   */\n      tag_300\n        /* \"#utility.yul\":14454:14457   */\n      dup3\n        /* \"#utility.yul\":14365:14458   */\n      tag_135\n      jump\t// in\n    tag_300:\n        /* \"#utility.yul\":14483:14485   */\n      0x40\n        /* \"#utility.yul\":14478:14481   */\n      dup3\n        /* \"#utility.yul\":14474:14486   */\n      add\n        /* \"#utility.yul\":14467:14486   */\n      swap1\n      pop\n        /* \"#utility.yul\":14126:14492   */\n      swap2\n      swap1\n      pop\n      jump\t// out\n        /* \"#utility.yul\":14498:14917   */\n    tag_77:\n        /* \"#utility.yul\":14664:14668   */\n      0x00\n        /* \"#utility.yul\":14702:14704   */\n      0x20\n        /* \"#utility.yul\":14691:14700   */\n      dup3\n        /* \"#utility.yul\":14687:14705   */\n      add\n        /* \"#utility.yul\":14679:14705   */\n      swap1\n      pop\n        /* \"#utility.yul\":14751:14760   */\n      dup2\n        /* \"#utility.yul\":14745:14749   */\n      dup2\n        /* \"#utility.yul\":14741:14761   */\n      sub\n        /* \"#utility.yul\":14737:14738   */\n      0x00\n        /* \"#utility.yul\":14726:14735   */\n      dup4\n        /* \"#utility.yul\":14722:14739   */\n      add\n        /* \"#utility.yul\":14715:14762   */\n      mstore\n        /* \"#utility.yul\":14779:14910   */\n      tag_302\n        /* \"#utility.yul\":14905:14909   */\n      dup2\n        /* \"#utility.yul\":14779:14910   */\n      tag_136\n      jump\t// in\n    tag_302:\n        /* \"#utility.yul\":14771:14910   */\n      swap1\n      pop\n        /* \"#utility.yul\":14498:14917   */\n      swap2\n      swap1\n      pop\n      jump\t// out\n        /* \"#utility.yul\":14923:15105   */\n    tag_137:\n        /* \"#utility.yul\":15063:15097   */\n      0x4f776e61626c653a2063616c6c6572206973206e6f7420746865206f776e6572\n        /* \"#utility.yul\":15059:15060   */\n      0x00\n        /* \"#utility.yul\":15051:15057   */\n      dup3\n        /* \"#utility.yul\":15047:15061   */\n      add\n        /* \"#utility.yul\":15040:15098   */\n      mstore\n        /* \"#utility.yul\":14923:15105   */\n      pop\n      jump\t// out\n        /* \"#utility.yul\":15111:15477   */\n    tag_138:\n        /* \"#utility.yul\":15253:15256   */\n      0x00\n        /* \"#utility.yul\":15274:15341   */\n      tag_305\n        /* \"#utility.yul\":15338:15340   */\n      0x20\n        /* \"#utility.yul\":15333:15336   */\n      dup4\n        /* \"#utility.yul\":15274:15341   */\n      tag_95\n      jump\t// in\n    tag_305:\n        /* \"#utility.yul\":15267:15341   */\n      swap2\n      pop\n        /* \"#utility.yul\":15350:15443   */\n      tag_306\n        /* \"#utility.yul\":15439:15442   */\n      dup3\n        /* \"#utility.yul\":15350:15443   */\n      tag_137\n      jump\t// in\n    tag_306:\n        /* \"#utility.yul\":15468:15470   */\n      0x20\n        /* \"#utility.yul\":15463:15466   */\n      dup3\n        /* \"#utility.yul\":15459:15471   */\n      add\n        /* \"#utility.yul\":15452:15471   */\n      swap1\n      pop\n        /* \"#utility.yul\":15111:15477   */\n      swap2\n      swap1\n      pop\n      jump\t// out\n        /* \"#utility.yul\":15483:15902   */\n    tag_85:\n        /* \"#utility.yul\":15649:15653   */\n      0x00\n        /* \"#utility.yul\":15687:15689   */\n      0x20\n        /* \"#utility.yul\":15676:15685   */\n      dup3\n        /* \"#utility.yul\":15672:15690   */\n      add\n        /* \"#utility.yul\":15664:15690   */\n      swap1\n      pop\n        /* \"#utility.yul\":15736:15745   */\n      dup2\n        /* \"#utility.yul\":15730:15734   */\n      dup2\n        /* \"#utility.yul\":15726:15746   */\n      sub\n        /* \"#utility.yul\":15722:15723   */\n      0x00\n        /* \"#utility.yul\":15711:15720   */\n      dup4\n        /* \"#utility.yul\":15707:15724   */\n      add\n        /* \"#utility.yul\":15700:15747   */\n      mstore\n        /* \"#utility.yul\":15764:15895   */\n      tag_308\n        /* \"#utility.yul\":15890:15894   */\n      dup2\n        /* \"#utility.yul\":15764:15895   */\n      tag_138\n      jump\t// in\n    tag_308:\n        /* \"#utility.yul\":15756:15895   */\n      swap1\n      pop\n        /* \"#utility.yul\":15483:15902   */\n      swap2\n      swap1\n      pop\n      jump\t// out\n\n    auxdata: 0xa2646970667358221220b971d687cdc169246064e6433bdaa392cceb2245aab522fe9c9892eff968a14864736f6c63430008110033\n}\n",
				"bytecode": {
					"linkReferences": {},
					"object": "60806040523480156200001157600080fd5b5062000032620000266200016260201b60201c565b6200016a60201b60201c565b60405180606001604052806040518060400160405280600581526020017f526168756c000000000000000000000000000000000000000000000000000000815250815260200160018152602001600081525060016000600181526020019081526020016000206000820151816000019081620000af9190620004a8565b50602082015181600101556040820151816002015590505060405180606001604052806040518060400160405280600581526020017f5072697961000000000000000000000000000000000000000000000000000000815250815260200160028152602001600081525060016000600281526020019081526020016000206000820151816000019081620001449190620004a8565b5060208201518160010155604082015181600201559050506200058f565b600033905090565b60008060009054906101000a900473ffffffffffffffffffffffffffffffffffffffff169050816000806101000a81548173ffffffffffffffffffffffffffffffffffffffff021916908373ffffffffffffffffffffffffffffffffffffffff1602179055508173ffffffffffffffffffffffffffffffffffffffff168173ffffffffffffffffffffffffffffffffffffffff167f8be0079c531659141344cd1fd0a4f28419497f9722a3daafe3b4186f6b6457e060405160405180910390a35050565b600081519050919050565b7f4e487b7100000000000000000000000000000000000000000000000000000000600052604160045260246000fd5b7f4e487b7100000000000000000000000000000000000000000000000000000000600052602260045260246000fd5b60006002820490506001821680620002b057607f821691505b602082108103620002c657620002c562000268565b5b50919050565b60008190508160005260206000209050919050565b60006020601f8301049050919050565b600082821b905092915050565b600060088302620003307fffffffffffffffffffffffffffffffffffffffffffffffffffffffffffffffff82620002f1565b6200033c8683620002f1565b95508019841693508086168417925050509392505050565b6000819050919050565b6000819050919050565b600062000389620003836200037d8462000354565b6200035e565b62000354565b9050919050565b6000819050919050565b620003a58362000368565b620003bd620003b48262000390565b848454620002fe565b825550505050565b600090565b620003d4620003c5565b620003e18184846200039a565b505050565b5b818110156200040957620003fd600082620003ca565b600181019050620003e7565b5050565b601f82111562000458576200042281620002cc565b6200042d84620002e1565b810160208510156200043d578190505b620004556200044c85620002e1565b830182620003e6565b50505b505050565b600082821c905092915050565b60006200047d600019846008026200045d565b1980831691505092915050565b60006200049883836200046a565b9150826002028217905092915050565b620004b3826200022e565b67ffffffffffffffff811115620004cf57620004ce62000239565b5b620004db825462000297565b620004e88282856200040d565b600060209050601f8311600181146200052057600084156200050b578287015190505b6200051785826200048a565b86555062000587565b601f1984166200053086620002cc565b60005b828110156200055a5784890151825560018201915060208501945060208101905062000533565b868310156200057a578489015162000576601f8916826200046a565b8355505b6001600288020188555050505b505050505050565b610fe6806200059f6000396000f3fe608060405234801561001057600080fd5b506004361061007d5760003560e01c8063a3ec138d1161005b578063a3ec138d146100dc578063a63858031461010e578063e7bb7cbe1461012a578063f2fde38b146101485761007d565b80633477ee2e14610082578063715018a6146100b45780638da5cb5b146100be575b600080fd5b61009c6004803603810190610097919061072d565b610164565b6040516100ab939291906107f9565b60405180910390f35b6100bc610216565b005b6100c661022a565b6040516100d39190610878565b60405180910390f35b6100f660048036038101906100f191906108bf565b610253565b60405161010593929190610907565b60405180910390f35b61012860048036038101906101239190610a7a565b610312565b005b610132610478565b60405161013f9190610ad6565b60405180910390f35b610162600480360381019061015d91906108bf565b610516565b005b600160205280600052604060002060009150905080600001805461018790610b20565b80601f01602080910402602001604051908101604052809291908181526020018280546101b390610b20565b80156102005780601f106101d557610100808354040283529160200191610200565b820191906000526020600020905b8154815290600101906020018083116101e357829003601f168201915b5050505050908060010154908060020154905083565b61021e610599565b6102286000610617565b565b60008060009054906101000a900473ffffffffffffffffffffffffffffffffffffffff16905090565b600260205280600052604060002060009150905080600001805461027690610b20565b80601f01602080910402602001604051908101604052809291908181526020018280546102a290610b20565b80156102ef5780601f106102c4576101008083540402835291602001916102ef565b820191906000526020600020905b8154815290600101906020018083116102d257829003601f168201915b5050505050908060010154908060020160009054906101000a900460ff16905083565b60001515600260003373ffffffffffffffffffffffffffffffffffffffff1673ffffffffffffffffffffffffffffffffffffffff16815260200190815260200160002060020160009054906101000a900460ff161515146103a8576040517f08c379a000000000000000000000000000000000000000000000000000000000815260040161039f90610b9d565b60405180910390fd5b604051806060016040528083815260200182815260200160011515815250600260003373ffffffffffffffffffffffffffffffffffffffff1673ffffffffffffffffffffffffffffffffffffffff168152602001908152602001600020600082015181600001908161041a9190610d69565b506020820151816001015560408201518160020160006101000a81548160ff02191690831515021790555090505060016000828152602001908152602001600020600201600081548092919061046f90610e6a565b91905055505050565b6000610482610599565b6000600160006001815260200190815260200160002060020154905060006001600060028152602001908152602001600020600201549050808211156104e35760016000600181526020019081526020016000206001015492505050610513565b8181111561050c5760016000600281526020019081526020016000206001015492505050610513565b6000925050505b90565b61051e610599565b600073ffffffffffffffffffffffffffffffffffffffff168173ffffffffffffffffffffffffffffffffffffffff160361058d576040517f08c379a000000000000000000000000000000000000000000000000000000000815260040161058490610f24565b60405180910390fd5b61059681610617565b50565b6105a16106db565b73ffffffffffffffffffffffffffffffffffffffff166105bf61022a565b73ffffffffffffffffffffffffffffffffffffffff1614610615576040517f08c379a000000000000000000000000000000000000000000000000000000000815260040161060c90610f90565b60405180910390fd5b565b60008060009054906101000a900473ffffffffffffffffffffffffffffffffffffffff169050816000806101000a81548173ffffffffffffffffffffffffffffffffffffffff021916908373ffffffffffffffffffffffffffffffffffffffff1602179055508173ffffffffffffffffffffffffffffffffffffffff168173ffffffffffffffffffffffffffffffffffffffff167f8be0079c531659141344cd1fd0a4f28419497f9722a3daafe3b4186f6b6457e060405160405180910390a35050565b600033905090565b6000604051905090565b600080fd5b600080fd5b6000819050919050565b61070a816106f7565b811461071557600080fd5b50565b60008135905061072781610701565b92915050565b600060208284031215610743576107426106ed565b5b600061075184828501610718565b91505092915050565b600081519050919050565b600082825260208201905092915050565b60005b83811015610794578082015181840152602081019050610779565b60008484015250505050565b6000601f19601f8301169050919050565b60006107bc8261075a565b6107c68185610765565b93506107d6818560208601610776565b6107df816107a0565b840191505092915050565b6107f3816106f7565b82525050565b6000606082019050818103600083015261081381866107b1565b905061082260208301856107ea565b61082f60408301846107ea565b949350505050565b600073ffffffffffffffffffffffffffffffffffffffff82169050919050565b600061086282610837565b9050919050565b61087281610857565b82525050565b600060208201905061088d6000830184610869565b92915050565b61089c81610857565b81146108a757600080fd5b50565b6000813590506108b981610893565b92915050565b6000602082840312156108d5576108d46106ed565b5b60006108e3848285016108aa565b91505092915050565b60008115159050919050565b610901816108ec565b82525050565b6000606082019050818103600083015261092181866107b1565b905061093060208301856107ea565b61093d60408301846108f8565b949350505050565b600080fd5b600080fd5b7f4e487b7100000000000000000000000000000000000000000000000000000000600052604160045260246000fd5b610987826107a0565b810181811067ffffffffffffffff821117156109a6576109a561094f565b5b80604052505050565b60006109b96106e3565b90506109c5828261097e565b919050565b600067ffffffffffffffff8211156109e5576109e461094f565b5b6109ee826107a0565b9050602081019050919050565b82818337600083830152505050565b6000610a1d610a18846109ca565b6109af565b905082815260208101848484011115610a3957610a3861094a565b5b610a448482856109fb565b509392505050565b600082601f830112610a6157610a60610945565b5b8135610a71848260208601610a0a565b91505092915050565b60008060408385031215610a9157610a906106ed565b5b600083013567ffffffffffffffff811115610aaf57610aae6106f2565b5b610abb85828601610a4c565b9250506020610acc85828601610718565b9150509250929050565b6000602082019050610aeb60008301846107ea565b92915050565b7f4e487b7100000000000000000000000000000000000000000000000000000000600052602260045260246000fd5b60006002820490506001821680610b3857607f821691505b602082108103610b4b57610b4a610af1565b5b50919050565b7f796f75206861766520616c726561647920766f74656400000000000000000000600082015250565b6000610b87601683610765565b9150610b9282610b51565b602082019050919050565b60006020820190508181036000830152610bb681610b7a565b9050919050565b60008190508160005260206000209050919050565b60006020601f8301049050919050565b600082821b905092915050565b600060088302610c1f7fffffffffffffffffffffffffffffffffffffffffffffffffffffffffffffffff82610be2565b610c298683610be2565b95508019841693508086168417925050509392505050565b6000819050919050565b6000610c66610c61610c5c846106f7565b610c41565b6106f7565b9050919050565b6000819050919050565b610c8083610c4b565b610c94610c8c82610c6d565b848454610bef565b825550505050565b600090565b610ca9610c9c565b610cb4818484610c77565b505050565b5b81811015610cd857610ccd600082610ca1565b600181019050610cba565b5050565b601f821115610d1d57610cee81610bbd565b610cf784610bd2565b81016020851015610d06578190505b610d1a610d1285610bd2565b830182610cb9565b50505b505050565b600082821c905092915050565b6000610d4060001984600802610d22565b1980831691505092915050565b6000610d598383610d2f565b9150826002028217905092915050565b610d728261075a565b67ffffffffffffffff811115610d8b57610d8a61094f565b5b610d958254610b20565b610da0828285610cdc565b600060209050601f831160018114610dd35760008415610dc1578287015190505b610dcb8582610d4d565b865550610e33565b601f198416610de186610bbd565b60005b82811015610e0957848901518255600182019150602085019450602081019050610de4565b86831015610e265784890151610e22601f891682610d2f565b8355505b6001600288020188555050505b505050505050565b7f4e487b7100000000000000000000000000000000000000000000000000000000600052601160045260246000fd5b6000610e75826106f7565b91507fffffffffffffffffffffffffffffffffffffffffffffffffffffffffffffffff8203610ea757610ea6610e3b565b5b600182019050919050565b7f4f776e61626c653a206e6577206f776e657220697320746865207a65726f206160008201527f6464726573730000000000000000000000000000000000000000000000000000602082015250565b6000610f0e602683610765565b9150610f1982610eb2565b604082019050919050565b60006020820190508181036000830152610f3d81610f01565b9050919050565b7f4f776e61626c653a2063616c6c6572206973206e6f7420746865206f776e6572600082015250565b6000610f7a602083610765565b9150610f8582610f44565b602082019050919050565b60006020820190508181036000830152610fa981610f6d565b905091905056fea2646970667358221220b971d687cdc169246064e6433bdaa392cceb2245aab522fe9c9892eff968a14864736f6c63430008110033",
					"opcodes": "PUSH1 0x80 PUSH1 0x40 MSTORE CALLVALUE DUP1 ISZERO PUSH3 0x11 JUMPI PUSH1 0x0 DUP1 REVERT JUMPDEST POP PUSH3 0x32 PUSH3 0x26 PUSH3 0x162 PUSH1 0x20 SHL PUSH1 0x20 SHR JUMP JUMPDEST PUSH3 0x16A PUSH1 0x20 SHL PUSH1 0x20 SHR JUMP JUMPDEST PUSH1 0x40 MLOAD DUP1 PUSH1 0x60 ADD PUSH1 0x40 MSTORE DUP1 PUSH1 0x40 MLOAD DUP1 PUSH1 0x40 ADD PUSH1 0x40 MSTORE DUP1 PUSH1 0x5 DUP2 MSTORE PUSH1 0x20 ADD PUSH32 0x526168756C000000000000000000000000000000000000000000000000000000 DUP2 MSTORE POP DUP2 MSTORE PUSH1 0x20 ADD PUSH1 0x1 DUP2 MSTORE PUSH1 0x20 ADD PUSH1 0x0 DUP2 MSTORE POP PUSH1 0x1 PUSH1 0x0 PUSH1 0x1 DUP2 MSTORE PUSH1 0x20 ADD SWAP1 DUP2 MSTORE PUSH1 0x20 ADD PUSH1 0x0 KECCAK256 PUSH1 0x0 DUP3 ADD MLOAD DUP2 PUSH1 0x0 ADD SWAP1 DUP2 PUSH3 0xAF SWAP2 SWAP1 PUSH3 0x4A8 JUMP JUMPDEST POP PUSH1 0x20 DUP3 ADD MLOAD DUP2 PUSH1 0x1 ADD SSTORE PUSH1 0x40 DUP3 ADD MLOAD DUP2 PUSH1 0x2 ADD SSTORE SWAP1 POP POP PUSH1 0x40 MLOAD DUP1 PUSH1 0x60 ADD PUSH1 0x40 MSTORE DUP1 PUSH1 0x40 MLOAD DUP1 PUSH1 0x40 ADD PUSH1 0x40 MSTORE DUP1 PUSH1 0x5 DUP2 MSTORE PUSH1 0x20 ADD PUSH32 0x5072697961000000000000000000000000000000000000000000000000000000 DUP2 MSTORE POP DUP2 MSTORE PUSH1 0x20 ADD PUSH1 0x2 DUP2 MSTORE PUSH1 0x20 ADD PUSH1 0x0 DUP2 MSTORE POP PUSH1 0x1 PUSH1 0x0 PUSH1 0x2 DUP2 MSTORE PUSH1 0x20 ADD SWAP1 DUP2 MSTORE PUSH1 0x20 ADD PUSH1 0x0 KECCAK256 PUSH1 0x0 DUP3 ADD MLOAD DUP2 PUSH1 0x0 ADD SWAP1 DUP2 PUSH3 0x144 SWAP2 SWAP1 PUSH3 0x4A8 JUMP JUMPDEST POP PUSH1 0x20 DUP3 ADD MLOAD DUP2 PUSH1 0x1 ADD SSTORE PUSH1 0x40 DUP3 ADD MLOAD DUP2 PUSH1 0x2 ADD SSTORE SWAP1 POP POP PUSH3 0x58F JUMP JUMPDEST PUSH1 0x0 CALLER SWAP1 POP SWAP1 JUMP JUMPDEST PUSH1 0x0 DUP1 PUSH1 0x0 SWAP1 SLOAD SWAP1 PUSH2 0x100 EXP SWAP1 DIV PUSH20 0xFFFFFFFFFFFFFFFFFFFFFFFFFFFFFFFFFFFFFFFF AND SWAP1 POP DUP2 PUSH1 0x0 DUP1 PUSH2 0x100 EXP DUP2 SLOAD DUP2 PUSH20 0xFFFFFFFFFFFFFFFFFFFFFFFFFFFFFFFFFFFFFFFF MUL NOT AND SWAP1 DUP4 PUSH20 0xFFFFFFFFFFFFFFFFFFFFFFFFFFFFFFFFFFFFFFFF AND MUL OR SWAP1 SSTORE POP DUP2 PUSH20 0xFFFFFFFFFFFFFFFFFFFFFFFFFFFFFFFFFFFFFFFF AND DUP2 PUSH20 0xFFFFFFFFFFFFFFFFFFFFFFFFFFFFFFFFFFFFFFFF AND PUSH32 0x8BE0079C531659141344CD1FD0A4F28419497F9722A3DAAFE3B4186F6B6457E0 PUSH1 0x40 MLOAD PUSH1 0x40 MLOAD DUP1 SWAP2 SUB SWAP1 LOG3 POP POP JUMP JUMPDEST PUSH1 0x0 DUP2 MLOAD SWAP1 POP SWAP2 SWAP1 POP JUMP JUMPDEST PUSH32 0x4E487B7100000000000000000000000000000000000000000000000000000000 PUSH1 0x0 MSTORE PUSH1 0x41 PUSH1 0x4 MSTORE PUSH1 0x24 PUSH1 0x0 REVERT JUMPDEST PUSH32 0x4E487B7100000000000000000000000000000000000000000000000000000000 PUSH1 0x0 MSTORE PUSH1 0x22 PUSH1 0x4 MSTORE PUSH1 0x24 PUSH1 0x0 REVERT JUMPDEST PUSH1 0x0 PUSH1 0x2 DUP3 DIV SWAP1 POP PUSH1 0x1 DUP3 AND DUP1 PUSH3 0x2B0 JUMPI PUSH1 0x7F DUP3 AND SWAP2 POP JUMPDEST PUSH1 0x20 DUP3 LT DUP2 SUB PUSH3 0x2C6 JUMPI PUSH3 0x2C5 PUSH3 0x268 JUMP JUMPDEST JUMPDEST POP SWAP2 SWAP1 POP JUMP JUMPDEST PUSH1 0x0 DUP2 SWAP1 POP DUP2 PUSH1 0x0 MSTORE PUSH1 0x20 PUSH1 0x0 KECCAK256 SWAP1 POP SWAP2 SWAP1 POP JUMP JUMPDEST PUSH1 0x0 PUSH1 0x20 PUSH1 0x1F DUP4 ADD DIV SWAP1 POP SWAP2 SWAP1 POP JUMP JUMPDEST PUSH1 0x0 DUP3 DUP3 SHL SWAP1 POP SWAP3 SWAP2 POP POP JUMP JUMPDEST PUSH1 0x0 PUSH1 0x8 DUP4 MUL PUSH3 0x330 PUSH32 0xFFFFFFFFFFFFFFFFFFFFFFFFFFFFFFFFFFFFFFFFFFFFFFFFFFFFFFFFFFFFFFFF DUP3 PUSH3 0x2F1 JUMP JUMPDEST PUSH3 0x33C DUP7 DUP4 PUSH3 0x2F1 JUMP JUMPDEST SWAP6 POP DUP1 NOT DUP5 AND SWAP4 POP DUP1 DUP7 AND DUP5 OR SWAP3 POP POP POP SWAP4 SWAP3 POP POP POP JUMP JUMPDEST PUSH1 0x0 DUP2 SWAP1 POP SWAP2 SWAP1 POP JUMP JUMPDEST PUSH1 0x0 DUP2 SWAP1 POP SWAP2 SWAP1 POP JUMP JUMPDEST PUSH1 0x0 PUSH3 0x389 PUSH3 0x383 PUSH3 0x37D DUP5 PUSH3 0x354 JUMP JUMPDEST PUSH3 0x35E JUMP JUMPDEST PUSH3 0x354 JUMP JUMPDEST SWAP1 POP SWAP2 SWAP1 POP JUMP JUMPDEST PUSH1 0x0 DUP2 SWAP1 POP SWAP2 SWAP1 POP JUMP JUMPDEST PUSH3 0x3A5 DUP4 PUSH3 0x368 JUMP JUMPDEST PUSH3 0x3BD PUSH3 0x3B4 DUP3 PUSH3 0x390 JUMP JUMPDEST DUP5 DUP5 SLOAD PUSH3 0x2FE JUMP JUMPDEST DUP3 SSTORE POP POP POP POP JUMP JUMPDEST PUSH1 0x0 SWAP1 JUMP JUMPDEST PUSH3 0x3D4 PUSH3 0x3C5 JUMP JUMPDEST PUSH3 0x3E1 DUP2 DUP5 DUP5 PUSH3 0x39A JUMP JUMPDEST POP POP POP JUMP JUMPDEST JUMPDEST DUP2 DUP2 LT ISZERO PUSH3 0x409 JUMPI PUSH3 0x3FD PUSH1 0x0 DUP3 PUSH3 0x3CA JUMP JUMPDEST PUSH1 0x1 DUP2 ADD SWAP1 POP PUSH3 0x3E7 JUMP JUMPDEST POP POP JUMP JUMPDEST PUSH1 0x1F DUP3 GT ISZERO PUSH3 0x458 JUMPI PUSH3 0x422 DUP2 PUSH3 0x2CC JUMP JUMPDEST PUSH3 0x42D DUP5 PUSH3 0x2E1 JUMP JUMPDEST DUP2 ADD PUSH1 0x20 DUP6 LT ISZERO PUSH3 0x43D JUMPI DUP2 SWAP1 POP JUMPDEST PUSH3 0x455 PUSH3 0x44C DUP6 PUSH3 0x2E1 JUMP JUMPDEST DUP4 ADD DUP3 PUSH3 0x3E6 JUMP JUMPDEST POP POP JUMPDEST POP POP POP JUMP JUMPDEST PUSH1 0x0 DUP3 DUP3 SHR SWAP1 POP SWAP3 SWAP2 POP POP JUMP JUMPDEST PUSH1 0x0 PUSH3 0x47D PUSH1 0x0 NOT DUP5 PUSH1 0x8 MUL PUSH3 0x45D JUMP JUMPDEST NOT DUP1 DUP4 AND SWAP2 POP POP SWAP3 SWAP2 POP POP JUMP JUMPDEST PUSH1 0x0 PUSH3 0x498 DUP4 DUP4 PUSH3 0x46A JUMP JUMPDEST SWAP2 POP DUP3 PUSH1 0x2 MUL DUP3 OR SWAP1 POP SWAP3 SWAP2 POP POP JUMP JUMPDEST PUSH3 0x4B3 DUP3 PUSH3 0x22E JUMP JUMPDEST PUSH8 0xFFFFFFFFFFFFFFFF DUP2 GT ISZERO PUSH3 0x4CF JUMPI PUSH3 0x4CE PUSH3 0x239 JUMP JUMPDEST JUMPDEST PUSH3 0x4DB DUP3 SLOAD PUSH3 0x297 JUMP JUMPDEST PUSH3 0x4E8 DUP3 DUP3 DUP6 PUSH3 0x40D JUMP JUMPDEST PUSH1 0x0 PUSH1 0x20 SWAP1 POP PUSH1 0x1F DUP4 GT PUSH1 0x1 DUP2 EQ PUSH3 0x520 JUMPI PUSH1 0x0 DUP5 ISZERO PUSH3 0x50B JUMPI DUP3 DUP8 ADD MLOAD SWAP1 POP JUMPDEST PUSH3 0x517 DUP6 DUP3 PUSH3 0x48A JUMP JUMPDEST DUP7 SSTORE POP PUSH3 0x587 JUMP JUMPDEST PUSH1 0x1F NOT DUP5 AND PUSH3 0x530 DUP7 PUSH3 0x2CC JUMP JUMPDEST PUSH1 0x0 JUMPDEST DUP3 DUP2 LT ISZERO PUSH3 0x55A JUMPI DUP5 DUP10 ADD MLOAD DUP3 SSTORE PUSH1 0x1 DUP3 ADD SWAP2 POP PUSH1 0x20 DUP6 ADD SWAP5 POP PUSH1 0x20 DUP2 ADD SWAP1 POP PUSH3 0x533 JUMP JUMPDEST DUP7 DUP4 LT ISZERO PUSH3 0x57A JUMPI DUP5 DUP10 ADD MLOAD PUSH3 0x576 PUSH1 0x1F DUP10 AND DUP3 PUSH3 0x46A JUMP JUMPDEST DUP4 SSTORE POP JUMPDEST PUSH1 0x1 PUSH1 0x2 DUP9 MUL ADD DUP9 SSTORE POP POP POP JUMPDEST POP POP POP POP POP POP JUMP JUMPDEST PUSH2 0xFE6 DUP1 PUSH3 0x59F PUSH1 0x0 CODECOPY PUSH1 0x0 RETURN INVALID PUSH1 0x80 PUSH1 0x40 MSTORE CALLVALUE DUP1 ISZERO PUSH2 0x10 JUMPI PUSH1 0x0 DUP1 REVERT JUMPDEST POP PUSH1 0x4 CALLDATASIZE LT PUSH2 0x7D JUMPI PUSH1 0x0 CALLDATALOAD PUSH1 0xE0 SHR DUP1 PUSH4 0xA3EC138D GT PUSH2 0x5B JUMPI DUP1 PUSH4 0xA3EC138D EQ PUSH2 0xDC JUMPI DUP1 PUSH4 0xA6385803 EQ PUSH2 0x10E JUMPI DUP1 PUSH4 0xE7BB7CBE EQ PUSH2 0x12A JUMPI DUP1 PUSH4 0xF2FDE38B EQ PUSH2 0x148 JUMPI PUSH2 0x7D JUMP JUMPDEST DUP1 PUSH4 0x3477EE2E EQ PUSH2 0x82 JUMPI DUP1 PUSH4 0x715018A6 EQ PUSH2 0xB4 JUMPI DUP1 PUSH4 0x8DA5CB5B EQ PUSH2 0xBE JUMPI JUMPDEST PUSH1 0x0 DUP1 REVERT JUMPDEST PUSH2 0x9C PUSH1 0x4 DUP1 CALLDATASIZE SUB DUP2 ADD SWAP1 PUSH2 0x97 SWAP2 SWAP1 PUSH2 0x72D JUMP JUMPDEST PUSH2 0x164 JUMP JUMPDEST PUSH1 0x40 MLOAD PUSH2 0xAB SWAP4 SWAP3 SWAP2 SWAP1 PUSH2 0x7F9 JUMP JUMPDEST PUSH1 0x40 MLOAD DUP1 SWAP2 SUB SWAP1 RETURN JUMPDEST PUSH2 0xBC PUSH2 0x216 JUMP JUMPDEST STOP JUMPDEST PUSH2 0xC6 PUSH2 0x22A JUMP JUMPDEST PUSH1 0x40 MLOAD PUSH2 0xD3 SWAP2 SWAP1 PUSH2 0x878 JUMP JUMPDEST PUSH1 0x40 MLOAD DUP1 SWAP2 SUB SWAP1 RETURN JUMPDEST PUSH2 0xF6 PUSH1 0x4 DUP1 CALLDATASIZE SUB DUP2 ADD SWAP1 PUSH2 0xF1 SWAP2 SWAP1 PUSH2 0x8BF JUMP JUMPDEST PUSH2 0x253 JUMP JUMPDEST PUSH1 0x40 MLOAD PUSH2 0x105 SWAP4 SWAP3 SWAP2 SWAP1 PUSH2 0x907 JUMP JUMPDEST PUSH1 0x40 MLOAD DUP1 SWAP2 SUB SWAP1 RETURN JUMPDEST PUSH2 0x128 PUSH1 0x4 DUP1 CALLDATASIZE SUB DUP2 ADD SWAP1 PUSH2 0x123 SWAP2 SWAP1 PUSH2 0xA7A JUMP JUMPDEST PUSH2 0x312 JUMP JUMPDEST STOP JUMPDEST PUSH2 0x132 PUSH2 0x478 JUMP JUMPDEST PUSH1 0x40 MLOAD PUSH2 0x13F SWAP2 SWAP1 PUSH2 0xAD6 JUMP JUMPDEST PUSH1 0x40 MLOAD DUP1 SWAP2 SUB SWAP1 RETURN JUMPDEST PUSH2 0x162 PUSH1 0x4 DUP1 CALLDATASIZE SUB DUP2 ADD SWAP1 PUSH2 0x15D SWAP2 SWAP1 PUSH2 0x8BF JUMP JUMPDEST PUSH2 0x516 JUMP JUMPDEST STOP JUMPDEST PUSH1 0x1 PUSH1 0x20 MSTORE DUP1 PUSH1 0x0 MSTORE PUSH1 0x40 PUSH1 0x0 KECCAK256 PUSH1 0x0 SWAP2 POP SWAP1 POP DUP1 PUSH1 0x0 ADD DUP1 SLOAD PUSH2 0x187 SWAP1 PUSH2 0xB20 JUMP JUMPDEST DUP1 PUSH1 0x1F ADD PUSH1 0x20 DUP1 SWAP2 DIV MUL PUSH1 0x20 ADD PUSH1 0x40 MLOAD SWAP1 DUP2 ADD PUSH1 0x40 MSTORE DUP1 SWAP3 SWAP2 SWAP1 DUP2 DUP2 MSTORE PUSH1 0x20 ADD DUP3 DUP1 SLOAD PUSH2 0x1B3 SWAP1 PUSH2 0xB20 JUMP JUMPDEST DUP1 ISZERO PUSH2 0x200 JUMPI DUP1 PUSH1 0x1F LT PUSH2 0x1D5 JUMPI PUSH2 0x100 DUP1 DUP4 SLOAD DIV MUL DUP4 MSTORE SWAP2 PUSH1 0x20 ADD SWAP2 PUSH2 0x200 JUMP JUMPDEST DUP3 ADD SWAP2 SWAP1 PUSH1 0x0 MSTORE PUSH1 0x20 PUSH1 0x0 KECCAK256 SWAP1 JUMPDEST DUP2 SLOAD DUP2 MSTORE SWAP1 PUSH1 0x1 ADD SWAP1 PUSH1 0x20 ADD DUP1 DUP4 GT PUSH2 0x1E3 JUMPI DUP3 SWAP1 SUB PUSH1 0x1F AND DUP3 ADD SWAP2 JUMPDEST POP POP POP POP POP SWAP1 DUP1 PUSH1 0x1 ADD SLOAD SWAP1 DUP1 PUSH1 0x2 ADD SLOAD SWAP1 POP DUP4 JUMP JUMPDEST PUSH2 0x21E PUSH2 0x599 JUMP JUMPDEST PUSH2 0x228 PUSH1 0x0 PUSH2 0x617 JUMP JUMPDEST JUMP JUMPDEST PUSH1 0x0 DUP1 PUSH1 0x0 SWAP1 SLOAD SWAP1 PUSH2 0x100 EXP SWAP1 DIV PUSH20 0xFFFFFFFFFFFFFFFFFFFFFFFFFFFFFFFFFFFFFFFF AND SWAP1 POP SWAP1 JUMP JUMPDEST PUSH1 0x2 PUSH1 0x20 MSTORE DUP1 PUSH1 0x0 MSTORE PUSH1 0x40 PUSH1 0x0 KECCAK256 PUSH1 0x0 SWAP2 POP SWAP1 POP DUP1 PUSH1 0x0 ADD DUP1 SLOAD PUSH2 0x276 SWAP1 PUSH2 0xB20 JUMP JUMPDEST DUP1 PUSH1 0x1F ADD PUSH1 0x20 DUP1 SWAP2 DIV MUL PUSH1 0x20 ADD PUSH1 0x40 MLOAD SWAP1 DUP2 ADD PUSH1 0x40 MSTORE DUP1 SWAP3 SWAP2 SWAP1 DUP2 DUP2 MSTORE PUSH1 0x20 ADD DUP3 DUP1 SLOAD PUSH2 0x2A2 SWAP1 PUSH2 0xB20 JUMP JUMPDEST DUP1 ISZERO PUSH2 0x2EF JUMPI DUP1 PUSH1 0x1F LT PUSH2 0x2C4 JUMPI PUSH2 0x100 DUP1 DUP4 SLOAD DIV MUL DUP4 MSTORE SWAP2 PUSH1 0x20 ADD SWAP2 PUSH2 0x2EF JUMP JUMPDEST DUP3 ADD SWAP2 SWAP1 PUSH1 0x0 MSTORE PUSH1 0x20 PUSH1 0x0 KECCAK256 SWAP1 JUMPDEST DUP2 SLOAD DUP2 MSTORE SWAP1 PUSH1 0x1 ADD SWAP1 PUSH1 0x20 ADD DUP1 DUP4 GT PUSH2 0x2D2 JUMPI DUP3 SWAP1 SUB PUSH1 0x1F AND DUP3 ADD SWAP2 JUMPDEST POP POP POP POP POP SWAP1 DUP1 PUSH1 0x1 ADD SLOAD SWAP1 DUP1 PUSH1 0x2 ADD PUSH1 0x0 SWAP1 SLOAD SWAP1 PUSH2 0x100 EXP SWAP1 DIV PUSH1 0xFF AND SWAP1 POP DUP4 JUMP JUMPDEST PUSH1 0x0 ISZERO ISZERO PUSH1 0x2 PUSH1 0x0 CALLER PUSH20 0xFFFFFFFFFFFFFFFFFFFFFFFFFFFFFFFFFFFFFFFF AND PUSH20 0xFFFFFFFFFFFFFFFFFFFFFFFFFFFFFFFFFFFFFFFF AND DUP2 MSTORE PUSH1 0x20 ADD SWAP1 DUP2 MSTORE PUSH1 0x20 ADD PUSH1 0x0 KECCAK256 PUSH1 0x2 ADD PUSH1 0x0 SWAP1 SLOAD SWAP1 PUSH2 0x100 EXP SWAP1 DIV PUSH1 0xFF AND ISZERO ISZERO EQ PUSH2 0x3A8 JUMPI PUSH1 0x40 MLOAD PUSH32 0x8C379A000000000000000000000000000000000000000000000000000000000 DUP2 MSTORE PUSH1 0x4 ADD PUSH2 0x39F SWAP1 PUSH2 0xB9D JUMP JUMPDEST PUSH1 0x40 MLOAD DUP1 SWAP2 SUB SWAP1 REVERT JUMPDEST PUSH1 0x40 MLOAD DUP1 PUSH1 0x60 ADD PUSH1 0x40 MSTORE DUP1 DUP4 DUP2 MSTORE PUSH1 0x20 ADD DUP3 DUP2 MSTORE PUSH1 0x20 ADD PUSH1 0x1 ISZERO ISZERO DUP2 MSTORE POP PUSH1 0x2 PUSH1 0x0 CALLER PUSH20 0xFFFFFFFFFFFFFFFFFFFFFFFFFFFFFFFFFFFFFFFF AND PUSH20 0xFFFFFFFFFFFFFFFFFFFFFFFFFFFFFFFFFFFFFFFF AND DUP2 MSTORE PUSH1 0x20 ADD SWAP1 DUP2 MSTORE PUSH1 0x20 ADD PUSH1 0x0 KECCAK256 PUSH1 0x0 DUP3 ADD MLOAD DUP2 PUSH1 0x0 ADD SWAP1 DUP2 PUSH2 0x41A SWAP2 SWAP1 PUSH2 0xD69 JUMP JUMPDEST POP PUSH1 0x20 DUP3 ADD MLOAD DUP2 PUSH1 0x1 ADD SSTORE PUSH1 0x40 DUP3 ADD MLOAD DUP2 PUSH1 0x2 ADD PUSH1 0x0 PUSH2 0x100 EXP DUP2 SLOAD DUP2 PUSH1 0xFF MUL NOT AND SWAP1 DUP4 ISZERO ISZERO MUL OR SWAP1 SSTORE POP SWAP1 POP POP PUSH1 0x1 PUSH1 0x0 DUP3 DUP2 MSTORE PUSH1 0x20 ADD SWAP1 DUP2 MSTORE PUSH1 0x20 ADD PUSH1 0x0 KECCAK256 PUSH1 0x2 ADD PUSH1 0x0 DUP2 SLOAD DUP1 SWAP3 SWAP2 SWAP1 PUSH2 0x46F SWAP1 PUSH2 0xE6A JUMP JUMPDEST SWAP2 SWAP1 POP SSTORE POP POP POP JUMP JUMPDEST PUSH1 0x0 PUSH2 0x482 PUSH2 0x599 JUMP JUMPDEST PUSH1 0x0 PUSH1 0x1 PUSH1 0x0 PUSH1 0x1 DUP2 MSTORE PUSH1 0x20 ADD SWAP1 DUP2 MSTORE PUSH1 0x20 ADD PUSH1 0x0 KECCAK256 PUSH1 0x2 ADD SLOAD SWAP1 POP PUSH1 0x0 PUSH1 0x1 PUSH1 0x0 PUSH1 0x2 DUP2 MSTORE PUSH1 0x20 ADD SWAP1 DUP2 MSTORE PUSH1 0x20 ADD PUSH1 0x0 KECCAK256 PUSH1 0x2 ADD SLOAD SWAP1 POP DUP1 DUP3 GT ISZERO PUSH2 0x4E3 JUMPI PUSH1 0x1 PUSH1 0x0 PUSH1 0x1 DUP2 MSTORE PUSH1 0x20 ADD SWAP1 DUP2 MSTORE PUSH1 0x20 ADD PUSH1 0x0 KECCAK256 PUSH1 0x1 ADD SLOAD SWAP3 POP POP POP PUSH2 0x513 JUMP JUMPDEST DUP2 DUP2 GT ISZERO PUSH2 0x50C JUMPI PUSH1 0x1 PUSH1 0x0 PUSH1 0x2 DUP2 MSTORE PUSH1 0x20 ADD SWAP1 DUP2 MSTORE PUSH1 0x20 ADD PUSH1 0x0 KECCAK256 PUSH1 0x1 ADD SLOAD SWAP3 POP POP POP PUSH2 0x513 JUMP JUMPDEST PUSH1 0x0 SWAP3 POP POP POP JUMPDEST SWAP1 JUMP JUMPDEST PUSH2 0x51E PUSH2 0x599 JUMP JUMPDEST PUSH1 0x0 PUSH20 0xFFFFFFFFFFFFFFFFFFFFFFFFFFFFFFFFFFFFFFFF AND DUP2 PUSH20 0xFFFFFFFFFFFFFFFFFFFFFFFFFFFFFFFFFFFFFFFF AND SUB PUSH2 0x58D JUMPI PUSH1 0x40 MLOAD PUSH32 0x8C379A000000000000000000000000000000000000000000000000000000000 DUP2 MSTORE PUSH1 0x4 ADD PUSH2 0x584 SWAP1 PUSH2 0xF24 JUMP JUMPDEST PUSH1 0x40 MLOAD DUP1 SWAP2 SUB SWAP1 REVERT JUMPDEST PUSH2 0x596 DUP2 PUSH2 0x617 JUMP JUMPDEST POP JUMP JUMPDEST PUSH2 0x5A1 PUSH2 0x6DB JUMP JUMPDEST PUSH20 0xFFFFFFFFFFFFFFFFFFFFFFFFFFFFFFFFFFFFFFFF AND PUSH2 0x5BF PUSH2 0x22A JUMP JUMPDEST PUSH20 0xFFFFFFFFFFFFFFFFFFFFFFFFFFFFFFFFFFFFFFFF AND EQ PUSH2 0x615 JUMPI PUSH1 0x40 MLOAD PUSH32 0x8C379A000000000000000000000000000000000000000000000000000000000 DUP2 MSTORE PUSH1 0x4 ADD PUSH2 0x60C SWAP1 PUSH2 0xF90 JUMP JUMPDEST PUSH1 0x40 MLOAD DUP1 SWAP2 SUB SWAP1 REVERT JUMPDEST JUMP JUMPDEST PUSH1 0x0 DUP1 PUSH1 0x0 SWAP1 SLOAD SWAP1 PUSH2 0x100 EXP SWAP1 DIV PUSH20 0xFFFFFFFFFFFFFFFFFFFFFFFFFFFFFFFFFFFFFFFF AND SWAP1 POP DUP2 PUSH1 0x0 DUP1 PUSH2 0x100 EXP DUP2 SLOAD DUP2 PUSH20 0xFFFFFFFFFFFFFFFFFFFFFFFFFFFFFFFFFFFFFFFF MUL NOT AND SWAP1 DUP4 PUSH20 0xFFFFFFFFFFFFFFFFFFFFFFFFFFFFFFFFFFFFFFFF AND MUL OR SWAP1 SSTORE POP DUP2 PUSH20 0xFFFFFFFFFFFFFFFFFFFFFFFFFFFFFFFFFFFFFFFF AND DUP2 PUSH20 0xFFFFFFFFFFFFFFFFFFFFFFFFFFFFFFFFFFFFFFFF AND PUSH32 0x8BE0079C531659141344CD1FD0A4F28419497F9722A3DAAFE3B4186F6B6457E0 PUSH1 0x40 MLOAD PUSH1 0x40 MLOAD DUP1 SWAP2 SUB SWAP1 LOG3 POP POP JUMP JUMPDEST PUSH1 0x0 CALLER SWAP1 POP SWAP1 JUMP JUMPDEST PUSH1 0x0 PUSH1 0x40 MLOAD SWAP1 POP SWAP1 JUMP JUMPDEST PUSH1 0x0 DUP1 REVERT JUMPDEST PUSH1 0x0 DUP1 REVERT JUMPDEST PUSH1 0x0 DUP2 SWAP1 POP SWAP2 SWAP1 POP JUMP JUMPDEST PUSH2 0x70A DUP2 PUSH2 0x6F7 JUMP JUMPDEST DUP2 EQ PUSH2 0x715 JUMPI PUSH1 0x0 DUP1 REVERT JUMPDEST POP JUMP JUMPDEST PUSH1 0x0 DUP2 CALLDATALOAD SWAP1 POP PUSH2 0x727 DUP2 PUSH2 0x701 JUMP JUMPDEST SWAP3 SWAP2 POP POP JUMP JUMPDEST PUSH1 0x0 PUSH1 0x20 DUP3 DUP5 SUB SLT ISZERO PUSH2 0x743 JUMPI PUSH2 0x742 PUSH2 0x6ED JUMP JUMPDEST JUMPDEST PUSH1 0x0 PUSH2 0x751 DUP5 DUP3 DUP6 ADD PUSH2 0x718 JUMP JUMPDEST SWAP2 POP POP SWAP3 SWAP2 POP POP JUMP JUMPDEST PUSH1 0x0 DUP2 MLOAD SWAP1 POP SWAP2 SWAP1 POP JUMP JUMPDEST PUSH1 0x0 DUP3 DUP3 MSTORE PUSH1 0x20 DUP3 ADD SWAP1 POP SWAP3 SWAP2 POP POP JUMP JUMPDEST PUSH1 0x0 JUMPDEST DUP4 DUP2 LT ISZERO PUSH2 0x794 JUMPI DUP1 DUP3 ADD MLOAD DUP2 DUP5 ADD MSTORE PUSH1 0x20 DUP2 ADD SWAP1 POP PUSH2 0x779 JUMP JUMPDEST PUSH1 0x0 DUP5 DUP5 ADD MSTORE POP POP POP POP JUMP JUMPDEST PUSH1 0x0 PUSH1 0x1F NOT PUSH1 0x1F DUP4 ADD AND SWAP1 POP SWAP2 SWAP1 POP JUMP JUMPDEST PUSH1 0x0 PUSH2 0x7BC DUP3 PUSH2 0x75A JUMP JUMPDEST PUSH2 0x7C6 DUP2 DUP6 PUSH2 0x765 JUMP JUMPDEST SWAP4 POP PUSH2 0x7D6 DUP2 DUP6 PUSH1 0x20 DUP7 ADD PUSH2 0x776 JUMP JUMPDEST PUSH2 0x7DF DUP2 PUSH2 0x7A0 JUMP JUMPDEST DUP5 ADD SWAP2 POP POP SWAP3 SWAP2 POP POP JUMP JUMPDEST PUSH2 0x7F3 DUP2 PUSH2 0x6F7 JUMP JUMPDEST DUP3 MSTORE POP POP JUMP JUMPDEST PUSH1 0x0 PUSH1 0x60 DUP3 ADD SWAP1 POP DUP2 DUP2 SUB PUSH1 0x0 DUP4 ADD MSTORE PUSH2 0x813 DUP2 DUP7 PUSH2 0x7B1 JUMP JUMPDEST SWAP1 POP PUSH2 0x822 PUSH1 0x20 DUP4 ADD DUP6 PUSH2 0x7EA JUMP JUMPDEST PUSH2 0x82F PUSH1 0x40 DUP4 ADD DUP5 PUSH2 0x7EA JUMP JUMPDEST SWAP5 SWAP4 POP POP POP POP JUMP JUMPDEST PUSH1 0x0 PUSH20 0xFFFFFFFFFFFFFFFFFFFFFFFFFFFFFFFFFFFFFFFF DUP3 AND SWAP1 POP SWAP2 SWAP1 POP JUMP JUMPDEST PUSH1 0x0 PUSH2 0x862 DUP3 PUSH2 0x837 JUMP JUMPDEST SWAP1 POP SWAP2 SWAP1 POP JUMP JUMPDEST PUSH2 0x872 DUP2 PUSH2 0x857 JUMP JUMPDEST DUP3 MSTORE POP POP JUMP JUMPDEST PUSH1 0x0 PUSH1 0x20 DUP3 ADD SWAP1 POP PUSH2 0x88D PUSH1 0x0 DUP4 ADD DUP5 PUSH2 0x869 JUMP JUMPDEST SWAP3 SWAP2 POP POP JUMP JUMPDEST PUSH2 0x89C DUP2 PUSH2 0x857 JUMP JUMPDEST DUP2 EQ PUSH2 0x8A7 JUMPI PUSH1 0x0 DUP1 REVERT JUMPDEST POP JUMP JUMPDEST PUSH1 0x0 DUP2 CALLDATALOAD SWAP1 POP PUSH2 0x8B9 DUP2 PUSH2 0x893 JUMP JUMPDEST SWAP3 SWAP2 POP POP JUMP JUMPDEST PUSH1 0x0 PUSH1 0x20 DUP3 DUP5 SUB SLT ISZERO PUSH2 0x8D5 JUMPI PUSH2 0x8D4 PUSH2 0x6ED JUMP JUMPDEST JUMPDEST PUSH1 0x0 PUSH2 0x8E3 DUP5 DUP3 DUP6 ADD PUSH2 0x8AA JUMP JUMPDEST SWAP2 POP POP SWAP3 SWAP2 POP POP JUMP JUMPDEST PUSH1 0x0 DUP2 ISZERO ISZERO SWAP1 POP SWAP2 SWAP1 POP JUMP JUMPDEST PUSH2 0x901 DUP2 PUSH2 0x8EC JUMP JUMPDEST DUP3 MSTORE POP POP JUMP JUMPDEST PUSH1 0x0 PUSH1 0x60 DUP3 ADD SWAP1 POP DUP2 DUP2 SUB PUSH1 0x0 DUP4 ADD MSTORE PUSH2 0x921 DUP2 DUP7 PUSH2 0x7B1 JUMP JUMPDEST SWAP1 POP PUSH2 0x930 PUSH1 0x20 DUP4 ADD DUP6 PUSH2 0x7EA JUMP JUMPDEST PUSH2 0x93D PUSH1 0x40 DUP4 ADD DUP5 PUSH2 0x8F8 JUMP JUMPDEST SWAP5 SWAP4 POP POP POP POP JUMP JUMPDEST PUSH1 0x0 DUP1 REVERT JUMPDEST PUSH1 0x0 DUP1 REVERT JUMPDEST PUSH32 0x4E487B7100000000000000000000000000000000000000000000000000000000 PUSH1 0x0 MSTORE PUSH1 0x41 PUSH1 0x4 MSTORE PUSH1 0x24 PUSH1 0x0 REVERT JUMPDEST PUSH2 0x987 DUP3 PUSH2 0x7A0 JUMP JUMPDEST DUP2 ADD DUP2 DUP2 LT PUSH8 0xFFFFFFFFFFFFFFFF DUP3 GT OR ISZERO PUSH2 0x9A6 JUMPI PUSH2 0x9A5 PUSH2 0x94F JUMP JUMPDEST JUMPDEST DUP1 PUSH1 0x40 MSTORE POP POP POP JUMP JUMPDEST PUSH1 0x0 PUSH2 0x9B9 PUSH2 0x6E3 JUMP JUMPDEST SWAP1 POP PUSH2 0x9C5 DUP3 DUP3 PUSH2 0x97E JUMP JUMPDEST SWAP2 SWAP1 POP JUMP JUMPDEST PUSH1 0x0 PUSH8 0xFFFFFFFFFFFFFFFF DUP3 GT ISZERO PUSH2 0x9E5 JUMPI PUSH2 0x9E4 PUSH2 0x94F JUMP JUMPDEST JUMPDEST PUSH2 0x9EE DUP3 PUSH2 0x7A0 JUMP JUMPDEST SWAP1 POP PUSH1 0x20 DUP2 ADD SWAP1 POP SWAP2 SWAP1 POP JUMP JUMPDEST DUP3 DUP2 DUP4 CALLDATACOPY PUSH1 0x0 DUP4 DUP4 ADD MSTORE POP POP POP JUMP JUMPDEST PUSH1 0x0 PUSH2 0xA1D PUSH2 0xA18 DUP5 PUSH2 0x9CA JUMP JUMPDEST PUSH2 0x9AF JUMP JUMPDEST SWAP1 POP DUP3 DUP2 MSTORE PUSH1 0x20 DUP2 ADD DUP5 DUP5 DUP5 ADD GT ISZERO PUSH2 0xA39 JUMPI PUSH2 0xA38 PUSH2 0x94A JUMP JUMPDEST JUMPDEST PUSH2 0xA44 DUP5 DUP3 DUP6 PUSH2 0x9FB JUMP JUMPDEST POP SWAP4 SWAP3 POP POP POP JUMP JUMPDEST PUSH1 0x0 DUP3 PUSH1 0x1F DUP4 ADD SLT PUSH2 0xA61 JUMPI PUSH2 0xA60 PUSH2 0x945 JUMP JUMPDEST JUMPDEST DUP2 CALLDATALOAD PUSH2 0xA71 DUP5 DUP3 PUSH1 0x20 DUP7 ADD PUSH2 0xA0A JUMP JUMPDEST SWAP2 POP POP SWAP3 SWAP2 POP POP JUMP JUMPDEST PUSH1 0x0 DUP1 PUSH1 0x40 DUP4 DUP6 SUB SLT ISZERO PUSH2 0xA91 JUMPI PUSH2 0xA90 PUSH2 0x6ED JUMP JUMPDEST JUMPDEST PUSH1 0x0 DUP4 ADD CALLDATALOAD PUSH8 0xFFFFFFFFFFFFFFFF DUP2 GT ISZERO PUSH2 0xAAF JUMPI PUSH2 0xAAE PUSH2 0x6F2 JUMP JUMPDEST JUMPDEST PUSH2 0xABB DUP6 DUP3 DUP7 ADD PUSH2 0xA4C JUMP JUMPDEST SWAP3 POP POP PUSH1 0x20 PUSH2 0xACC DUP6 DUP3 DUP7 ADD PUSH2 0x718 JUMP JUMPDEST SWAP2 POP POP SWAP3 POP SWAP3 SWAP1 POP JUMP JUMPDEST PUSH1 0x0 PUSH1 0x20 DUP3 ADD SWAP1 POP PUSH2 0xAEB PUSH1 0x0 DUP4 ADD DUP5 PUSH2 0x7EA JUMP JUMPDEST SWAP3 SWAP2 POP POP JUMP JUMPDEST PUSH32 0x4E487B7100000000000000000000000000000000000000000000000000000000 PUSH1 0x0 MSTORE PUSH1 0x22 PUSH1 0x4 MSTORE PUSH1 0x24 PUSH1 0x0 REVERT JUMPDEST PUSH1 0x0 PUSH1 0x2 DUP3 DIV SWAP1 POP PUSH1 0x1 DUP3 AND DUP1 PUSH2 0xB38 JUMPI PUSH1 0x7F DUP3 AND SWAP2 POP JUMPDEST PUSH1 0x20 DUP3 LT DUP2 SUB PUSH2 0xB4B JUMPI PUSH2 0xB4A PUSH2 0xAF1 JUMP JUMPDEST JUMPDEST POP SWAP2 SWAP1 POP JUMP JUMPDEST PUSH32 0x796F75206861766520616C726561647920766F74656400000000000000000000 PUSH1 0x0 DUP3 ADD MSTORE POP JUMP JUMPDEST PUSH1 0x0 PUSH2 0xB87 PUSH1 0x16 DUP4 PUSH2 0x765 JUMP JUMPDEST SWAP2 POP PUSH2 0xB92 DUP3 PUSH2 0xB51 JUMP JUMPDEST PUSH1 0x20 DUP3 ADD SWAP1 POP SWAP2 SWAP1 POP JUMP JUMPDEST PUSH1 0x0 PUSH1 0x20 DUP3 ADD SWAP1 POP DUP2 DUP2 SUB PUSH1 0x0 DUP4 ADD MSTORE PUSH2 0xBB6 DUP2 PUSH2 0xB7A JUMP JUMPDEST SWAP1 POP SWAP2 SWAP1 POP JUMP JUMPDEST PUSH1 0x0 DUP2 SWAP1 POP DUP2 PUSH1 0x0 MSTORE PUSH1 0x20 PUSH1 0x0 KECCAK256 SWAP1 POP SWAP2 SWAP1 POP JUMP JUMPDEST PUSH1 0x0 PUSH1 0x20 PUSH1 0x1F DUP4 ADD DIV SWAP1 POP SWAP2 SWAP1 POP JUMP JUMPDEST PUSH1 0x0 DUP3 DUP3 SHL SWAP1 POP SWAP3 SWAP2 POP POP JUMP JUMPDEST PUSH1 0x0 PUSH1 0x8 DUP4 MUL PUSH2 0xC1F PUSH32 0xFFFFFFFFFFFFFFFFFFFFFFFFFFFFFFFFFFFFFFFFFFFFFFFFFFFFFFFFFFFFFFFF DUP3 PUSH2 0xBE2 JUMP JUMPDEST PUSH2 0xC29 DUP7 DUP4 PUSH2 0xBE2 JUMP JUMPDEST SWAP6 POP DUP1 NOT DUP5 AND SWAP4 POP DUP1 DUP7 AND DUP5 OR SWAP3 POP POP POP SWAP4 SWAP3 POP POP POP JUMP JUMPDEST PUSH1 0x0 DUP2 SWAP1 POP SWAP2 SWAP1 POP JUMP JUMPDEST PUSH1 0x0 PUSH2 0xC66 PUSH2 0xC61 PUSH2 0xC5C DUP5 PUSH2 0x6F7 JUMP JUMPDEST PUSH2 0xC41 JUMP JUMPDEST PUSH2 0x6F7 JUMP JUMPDEST SWAP1 POP SWAP2 SWAP1 POP JUMP JUMPDEST PUSH1 0x0 DUP2 SWAP1 POP SWAP2 SWAP1 POP JUMP JUMPDEST PUSH2 0xC80 DUP4 PUSH2 0xC4B JUMP JUMPDEST PUSH2 0xC94 PUSH2 0xC8C DUP3 PUSH2 0xC6D JUMP JUMPDEST DUP5 DUP5 SLOAD PUSH2 0xBEF JUMP JUMPDEST DUP3 SSTORE POP POP POP POP JUMP JUMPDEST PUSH1 0x0 SWAP1 JUMP JUMPDEST PUSH2 0xCA9 PUSH2 0xC9C JUMP JUMPDEST PUSH2 0xCB4 DUP2 DUP5 DUP5 PUSH2 0xC77 JUMP JUMPDEST POP POP POP JUMP JUMPDEST JUMPDEST DUP2 DUP2 LT ISZERO PUSH2 0xCD8 JUMPI PUSH2 0xCCD PUSH1 0x0 DUP3 PUSH2 0xCA1 JUMP JUMPDEST PUSH1 0x1 DUP2 ADD SWAP1 POP PUSH2 0xCBA JUMP JUMPDEST POP POP JUMP JUMPDEST PUSH1 0x1F DUP3 GT ISZERO PUSH2 0xD1D JUMPI PUSH2 0xCEE DUP2 PUSH2 0xBBD JUMP JUMPDEST PUSH2 0xCF7 DUP5 PUSH2 0xBD2 JUMP JUMPDEST DUP2 ADD PUSH1 0x20 DUP6 LT ISZERO PUSH2 0xD06 JUMPI DUP2 SWAP1 POP JUMPDEST PUSH2 0xD1A PUSH2 0xD12 DUP6 PUSH2 0xBD2 JUMP JUMPDEST DUP4 ADD DUP3 PUSH2 0xCB9 JUMP JUMPDEST POP POP JUMPDEST POP POP POP JUMP JUMPDEST PUSH1 0x0 DUP3 DUP3 SHR SWAP1 POP SWAP3 SWAP2 POP POP JUMP JUMPDEST PUSH1 0x0 PUSH2 0xD40 PUSH1 0x0 NOT DUP5 PUSH1 0x8 MUL PUSH2 0xD22 JUMP JUMPDEST NOT DUP1 DUP4 AND SWAP2 POP POP SWAP3 SWAP2 POP POP JUMP JUMPDEST PUSH1 0x0 PUSH2 0xD59 DUP4 DUP4 PUSH2 0xD2F JUMP JUMPDEST SWAP2 POP DUP3 PUSH1 0x2 MUL DUP3 OR SWAP1 POP SWAP3 SWAP2 POP POP JUMP JUMPDEST PUSH2 0xD72 DUP3 PUSH2 0x75A JUMP JUMPDEST PUSH8 0xFFFFFFFFFFFFFFFF DUP2 GT ISZERO PUSH2 0xD8B JUMPI PUSH2 0xD8A PUSH2 0x94F JUMP JUMPDEST JUMPDEST PUSH2 0xD95 DUP3 SLOAD PUSH2 0xB20 JUMP JUMPDEST PUSH2 0xDA0 DUP3 DUP3 DUP6 PUSH2 0xCDC JUMP JUMPDEST PUSH1 0x0 PUSH1 0x20 SWAP1 POP PUSH1 0x1F DUP4 GT PUSH1 0x1 DUP2 EQ PUSH2 0xDD3 JUMPI PUSH1 0x0 DUP5 ISZERO PUSH2 0xDC1 JUMPI DUP3 DUP8 ADD MLOAD SWAP1 POP JUMPDEST PUSH2 0xDCB DUP6 DUP3 PUSH2 0xD4D JUMP JUMPDEST DUP7 SSTORE POP PUSH2 0xE33 JUMP JUMPDEST PUSH1 0x1F NOT DUP5 AND PUSH2 0xDE1 DUP7 PUSH2 0xBBD JUMP JUMPDEST PUSH1 0x0 JUMPDEST DUP3 DUP2 LT ISZERO PUSH2 0xE09 JUMPI DUP5 DUP10 ADD MLOAD DUP3 SSTORE PUSH1 0x1 DUP3 ADD SWAP2 POP PUSH1 0x20 DUP6 ADD SWAP5 POP PUSH1 0x20 DUP2 ADD SWAP1 POP PUSH2 0xDE4 JUMP JUMPDEST DUP7 DUP4 LT ISZERO PUSH2 0xE26 JUMPI DUP5 DUP10 ADD MLOAD PUSH2 0xE22 PUSH1 0x1F DUP10 AND DUP3 PUSH2 0xD2F JUMP JUMPDEST DUP4 SSTORE POP JUMPDEST PUSH1 0x1 PUSH1 0x2 DUP9 MUL ADD DUP9 SSTORE POP POP POP JUMPDEST POP POP POP POP POP POP JUMP JUMPDEST PUSH32 0x4E487B7100000000000000000000000000000000000000000000000000000000 PUSH1 0x0 MSTORE PUSH1 0x11 PUSH1 0x4 MSTORE PUSH1 0x24 PUSH1 0x0 REVERT JUMPDEST PUSH1 0x0 PUSH2 0xE75 DUP3 PUSH2 0x6F7 JUMP JUMPDEST SWAP2 POP PUSH32 0xFFFFFFFFFFFFFFFFFFFFFFFFFFFFFFFFFFFFFFFFFFFFFFFFFFFFFFFFFFFFFFFF DUP3 SUB PUSH2 0xEA7 JUMPI PUSH2 0xEA6 PUSH2 0xE3B JUMP JUMPDEST JUMPDEST PUSH1 0x1 DUP3 ADD SWAP1 POP SWAP2 SWAP1 POP JUMP JUMPDEST PUSH32 0x4F776E61626C653A206E6577206F776E657220697320746865207A65726F2061 PUSH1 0x0 DUP3 ADD MSTORE PUSH32 0x6464726573730000000000000000000000000000000000000000000000000000 PUSH1 0x20 DUP3 ADD MSTORE POP JUMP JUMPDEST PUSH1 0x0 PUSH2 0xF0E PUSH1 0x26 DUP4 PUSH2 0x765 JUMP JUMPDEST SWAP2 POP PUSH2 0xF19 DUP3 PUSH2 0xEB2 JUMP JUMPDEST PUSH1 0x40 DUP3 ADD SWAP1 POP SWAP2 SWAP1 POP JUMP JUMPDEST PUSH1 0x0 PUSH1 0x20 DUP3 ADD SWAP1 POP DUP2 DUP2 SUB PUSH1 0x0 DUP4 ADD MSTORE PUSH2 0xF3D DUP2 PUSH2 0xF01 JUMP JUMPDEST SWAP1 POP SWAP2 SWAP1 POP JUMP JUMPDEST PUSH32 0x4F776E61626C653A2063616C6C6572206973206E6F7420746865206F776E6572 PUSH1 0x0 DUP3 ADD MSTORE POP JUMP JUMPDEST PUSH1 0x0 PUSH2 0xF7A PUSH1 0x20 DUP4 PUSH2 0x765 JUMP JUMPDEST SWAP2 POP PUSH2 0xF85 DUP3 PUSH2 0xF44 JUMP JUMPDEST PUSH1 0x20 DUP3 ADD SWAP1 POP SWAP2 SWAP1 POP JUMP JUMPDEST PUSH1 0x0 PUSH1 0x20 DUP3 ADD SWAP1 POP DUP2 DUP2 SUB PUSH1 0x0 DUP4 ADD MSTORE PUSH2 0xFA9 DUP2 PUSH2 0xF6D JUMP JUMPDEST SWAP1 POP SWAP2 SWAP1 POP JUMP INVALID LOG2 PUSH5 0x6970667358 0x22 SLT KECCAK256 0xB9 PUSH18 0xD687CDC169246064E6433BDAA392CCEB2245 0xAA 0xB5 0x22 INVALID SWAP13 SWAP9 SWAP3 0xEF 0xF9 PUSH9 0xA14864736F6C634300 ADDMOD GT STOP CALLER "
				},
				"gasEstimates": {
					"creation": {
						"codeDepositCost": "814000",
						"executionCost": "infinite",
						"totalCost": "infinite"
					},
					"external": {
						"candidates(uint256)": "infinite",
						"getwinner()": "9286",
						"owner()": "2567",
						"renounceOwnership()": "30421",
						"transferOwnership(address)": "30810",
						"vote(string,uint256)": "infinite",
						"voters(address)": "infinite"
					}
				},
				"methodIdentifiers": {
					"candidates(uint256)": "3477ee2e",
					"getwinner()": "e7bb7cbe",
					"owner()": "8da5cb5b",
					"renounceOwnership()": "715018a6",
					"transferOwnership(address)": "f2fde38b",
					"vote(string,uint256)": "a6385803",
					"voters(address)": "a3ec138d"
				}
			},
			"storageLayout": {
				"storage": [
					{
						"astId": 7,
						"contract": "gavi.sol:Election",
						"label": "_owner",
						"offset": 0,
						"slot": "0",
						"type": "t_address"
					},
					{
						"astId": 158,
						"contract": "gavi.sol:Election",
						"label": "candidates",
						"offset": 0,
						"slot": "1",
						"type": "t_mapping(t_uint256,t_struct(candidate)146_storage)"
					},
					{
						"astId": 163,
						"contract": "gavi.sol:Election",
						"label": "voters",
						"offset": 0,
						"slot": "2",
						"type": "t_mapping(t_address,t_struct(voter)153_storage)"
					}
				],
				"types": {
					"t_address": {
						"encoding": "inplace",
						"label": "address",
						"numberOfBytes": "20"
					},
					"t_bool": {
						"encoding": "inplace",
						"label": "bool",
						"numberOfBytes": "1"
					},
					"t_mapping(t_address,t_struct(voter)153_storage)": {
						"encoding": "mapping",
						"key": "t_address",
						"label": "mapping(address => struct Election.voter)",
						"numberOfBytes": "32",
						"value": "t_struct(voter)153_storage"
					},
					"t_mapping(t_uint256,t_struct(candidate)146_storage)": {
						"encoding": "mapping",
						"key": "t_uint256",
						"label": "mapping(uint256 => struct Election.candidate)",
						"numberOfBytes": "32",
						"value": "t_struct(candidate)146_storage"
					},
					"t_string_storage": {
						"encoding": "bytes",
						"label": "string",
						"numberOfBytes": "32"
					},
					"t_struct(candidate)146_storage": {
						"encoding": "inplace",
						"label": "struct Election.candidate",
						"members": [
							{
								"astId": 141,
								"contract": "gavi.sol:Election",
								"label": "name",
								"offset": 0,
								"slot": "0",
								"type": "t_string_storage"
							},
							{
								"astId": 143,
								"contract": "gavi.sol:Election",
								"label": "index",
								"offset": 0,
								"slot": "1",
								"type": "t_uint256"
							},
							{
								"astId": 145,
								"contract": "gavi.sol:Election",
								"label": "votecount",
								"offset": 0,
								"slot": "2",
								"type": "t_uint256"
							}
						],
						"numberOfBytes": "96"
					},
					"t_struct(voter)153_storage": {
						"encoding": "inplace",
						"label": "struct Election.voter",
						"members": [
							{
								"astId": 148,
								"contract": "gavi.sol:Election",
								"label": "name",
								"offset": 0,
								"slot": "0",
								"type": "t_string_storage"
							},
							{
								"astId": 150,
								"contract": "gavi.sol:Election",
								"label": "index",
								"offset": 0,
								"slot": "1",
								"type": "t_uint256"
							},
							{
								"astId": 152,
								"contract": "gavi.sol:Election",
								"label": "voted",
								"offset": 0,
								"slot": "2",
								"type": "t_bool"
							}
						],
						"numberOfBytes": "96"
					},
					"t_uint256": {
						"encoding": "inplace",
						"label": "uint256",
						"numberOfBytes": "32"
					}
				}
			},
			"userdoc": {
				"kind": "user",
				"methods": {},
				"version": 1
			}
		}
	}
}