{
	"pedri/library.sol": {
		"Election": {
			"abi": [
				{
					"inputs": [],
					"stateMutability": "nonpayable",
					"type": "constructor"
				},
				{
					"anonymous": false,
					"inputs": [
						{
							"indexed": true,
							"internalType": "address",
							"name": "previousOwner",
							"type": "address"
						},
						{
							"indexed": true,
							"internalType": "address",
							"name": "newOwner",
							"type": "address"
						}
					],
					"name": "OwnershipTransferred",
					"type": "event"
				},
				{
					"inputs": [
						{
							"internalType": "uint256",
							"name": "",
							"type": "uint256"
						}
					],
					"name": "candidates",
					"outputs": [
						{
							"internalType": "string",
							"name": "name",
							"type": "string"
						},
						{
							"internalType": "uint256",
							"name": "index",
							"type": "uint256"
						},
						{
							"internalType": "uint256",
							"name": "votecount",
							"type": "uint256"
						}
					],
					"stateMutability": "view",
					"type": "function"
				},
				{
					"inputs": [],
					"name": "getwinner",
					"outputs": [
						{
							"internalType": "uint256",
							"name": "",
							"type": "uint256"
						}
					],
					"stateMutability": "view",
					"type": "function"
				},
				{
					"inputs": [],
					"name": "owner",
					"outputs": [
						{
							"internalType": "address",
							"name": "",
							"type": "address"
						}
					],
					"stateMutability": "view",
					"type": "function"
				},
				{
					"inputs": [],
					"name": "renounceOwnership",
					"outputs": [],
					"stateMutability": "nonpayable",
					"type": "function"
				},
				{
					"inputs": [
						{
							"internalType": "address",
							"name": "newOwner",
							"type": "address"
						}
					],
					"name": "transferOwnership",
					"outputs": [],
					"stateMutability": "nonpayable",
					"type": "function"
				},
				{
					"inputs": [
						{
							"internalType": "string",
							"name": "_name",
							"type": "string"
						},
						{
							"internalType": "uint256",
							"name": "_index",
							"type": "uint256"
						}
					],
					"name": "vote",
					"outputs": [],
					"stateMutability": "nonpayable",
					"type": "function"
				},
				{
					"inputs": [
						{
							"internalType": "address",
							"name": "",
							"type": "address"
						}
					],
					"name": "voters",
					"outputs": [
						{
							"internalType": "string",
							"name": "name",
							"type": "string"
						},
						{
							"internalType": "uint256",
							"name": "index",
							"type": "uint256"
						},
						{
							"internalType": "bool",
							"name": "voted",
							"type": "bool"
						}
					],
					"stateMutability": "view",
					"type": "function"
				}
			],
			"devdoc": {
				"kind": "dev",
				"methods": {
					"owner()": {
						"details": "Returns the address of the current owner."
					},
					"renounceOwnership()": {
						"details": "Leaves the contract without owner. It will not be possible to call `onlyOwner` functions anymore. Can only be called by the current owner. NOTE: Renouncing ownership will leave the contract without an owner, thereby removing any functionality that is only available to the owner."
					},
					"transferOwnership(address)": {
						"details": "Transfers ownership of the contract to a new account (`newOwner`). Can only be called by the current owner."
					}
				},
				"version": 1
			},
			"evm": {
				"assembly": "    /* \"pedri/library.sol\":123:1118  contract Election is Ownable{... */\n  mstore(0x40, 0x80)\n    /* \"pedri/library.sol\":440:561  constructor() {... */\n  callvalue\n  dup1\n  iszero\n  tag_1\n  jumpi\n  0x00\n  dup1\n  revert\ntag_1:\n  pop\n    /* \"@openzeppelin/contracts/access/Ownable.sol\":936:968  _transferOwnership(_msgSender()) */\n  tag_5\n    /* \"@openzeppelin/contracts/access/Ownable.sol\":955:967  _msgSender() */\n  tag_6\n    /* \"@openzeppelin/contracts/access/Ownable.sol\":955:965  _msgSender */\n  shl(0x20, tag_7)\n    /* \"@openzeppelin/contracts/access/Ownable.sol\":955:967  _msgSender() */\n  0x20\n  shr\n  jump\t// in\ntag_6:\n    /* \"@openzeppelin/contracts/access/Ownable.sol\":936:954  _transferOwnership */\n  shl(0x20, tag_8)\n    /* \"@openzeppelin/contracts/access/Ownable.sol\":936:968  _transferOwnership(_msgSender()) */\n  0x20\n  shr\n  jump\t// in\ntag_5:\n    /* \"pedri/library.sol\":480:504  candidate('Rahul', 1, 0) */\n  mload(0x40)\n  dup1\n  0x60\n  add\n  0x40\n  mstore\n  dup1\n  mload(0x40)\n  dup1\n  0x40\n  add\n  0x40\n  mstore\n  dup1\n  0x05\n  dup2\n  mstore\n  0x20\n  add\n  0x526168756c000000000000000000000000000000000000000000000000000000\n  dup2\n  mstore\n  pop\n  dup2\n  mstore\n  0x20\n  add\n    /* \"pedri/library.sol\":499:500  1 */\n  0x01\n    /* \"pedri/library.sol\":480:504  candidate('Rahul', 1, 0) */\n  dup2\n  mstore\n  0x20\n  add\n    /* \"pedri/library.sol\":502:503  0 */\n  0x00\n    /* \"pedri/library.sol\":480:504  candidate('Rahul', 1, 0) */\n  dup2\n  mstore\n  pop\n    /* \"pedri/library.sol\":464:474  candidates */\n  0x01\n    /* \"pedri/library.sol\":464:477  candidates[1] */\n  0x00\n    /* \"pedri/library.sol\":475:476  1 */\n  0x01\n    /* \"pedri/library.sol\":464:477  candidates[1] */\n  dup2\n  mstore\n  0x20\n  add\n  swap1\n  dup2\n  mstore\n  0x20\n  add\n  0x00\n  keccak256\n    /* \"pedri/library.sol\":464:504  candidates[1] = candidate('Rahul', 1, 0) */\n  0x00\n  dup3\n  add\n  mload\n  dup2\n  0x00\n  add\n  swap1\n  dup1\n  mload\n  swap1\n  0x20\n  add\n  swap1\n  tag_10\n  swap3\n  swap2\n  swap1\n  tag_11\n  jump\t// in\ntag_10:\n  pop\n  0x20\n  dup3\n  add\n  mload\n  dup2\n  0x01\n  add\n  sstore\n  0x40\n  dup3\n  add\n  mload\n  dup2\n  0x02\n  add\n  sstore\n  swap1\n  pop\n  pop\n    /* \"pedri/library.sol\":530:554  candidate('Priya', 2, 0) */\n  mload(0x40)\n  dup1\n  0x60\n  add\n  0x40\n  mstore\n  dup1\n  mload(0x40)\n  dup1\n  0x40\n  add\n  0x40\n  mstore\n  dup1\n  0x05\n  dup2\n  mstore\n  0x20\n  add\n  0x5072697961000000000000000000000000000000000000000000000000000000\n  dup2\n  mstore\n  pop\n  dup2\n  mstore\n  0x20\n  add\n    /* \"pedri/library.sol\":549:550  2 */\n  0x02\n    /* \"pedri/library.sol\":530:554  candidate('Priya', 2, 0) */\n  dup2\n  mstore\n  0x20\n  add\n    /* \"pedri/library.sol\":552:553  0 */\n  0x00\n    /* \"pedri/library.sol\":530:554  candidate('Priya', 2, 0) */\n  dup2\n  mstore\n  pop\n    /* \"pedri/library.sol\":514:524  candidates */\n  0x01\n    /* \"pedri/library.sol\":514:527  candidates[2] */\n  0x00\n    /* \"pedri/library.sol\":525:526  2 */\n  0x02\n    /* \"pedri/library.sol\":514:527  candidates[2] */\n  dup2\n  mstore\n  0x20\n  add\n  swap1\n  dup2\n  mstore\n  0x20\n  add\n  0x00\n  keccak256\n    /* \"pedri/library.sol\":514:554  candidates[2] = candidate('Priya', 2, 0) */\n  0x00\n  dup3\n  add\n  mload\n  dup2\n  0x00\n  add\n  swap1\n  dup1\n  mload\n  swap1\n  0x20\n  add\n  swap1\n  tag_12\n  swap3\n  swap2\n  swap1\n  tag_11\n  jump\t// in\ntag_12:\n  pop\n  0x20\n  dup3\n  add\n  mload\n  dup2\n  0x01\n  add\n  sstore\n  0x40\n  dup3\n  add\n  mload\n  dup2\n  0x02\n  add\n  sstore\n  swap1\n  pop\n  pop\n    /* \"pedri/library.sol\":123:1118  contract Election is Ownable{... */\n  jump(tag_13)\n    /* \"@openzeppelin/contracts/utils/Context.sol\":640:736  function _msgSender() internal view virtual returns (address) {... */\ntag_7:\n    /* \"@openzeppelin/contracts/utils/Context.sol\":693:700  address */\n  0x00\n    /* \"@openzeppelin/contracts/utils/Context.sol\":719:729  msg.sender */\n  caller\n    /* \"@openzeppelin/contracts/utils/Context.sol\":712:729  return msg.sender */\n  swap1\n  pop\n    /* \"@openzeppelin/contracts/utils/Context.sol\":640:736  function _msgSender() internal view virtual returns (address) {... */\n  swap1\n  jump\t// out\n    /* \"@openzeppelin/contracts/access/Ownable.sol\":2433:2620  function _transferOwnership(address newOwner) internal virtual {... */\ntag_8:\n    /* \"@openzeppelin/contracts/access/Ownable.sol\":2506:2522  address oldOwner */\n  0x00\n    /* \"@openzeppelin/contracts/access/Ownable.sol\":2525:2531  _owner */\n  dup1\n  0x00\n  swap1\n  sload\n  swap1\n  0x0100\n  exp\n  swap1\n  div\n  0xffffffffffffffffffffffffffffffffffffffff\n  and\n    /* \"@openzeppelin/contracts/access/Ownable.sol\":2506:2531  address oldOwner = _owner */\n  swap1\n  pop\n    /* \"@openzeppelin/contracts/access/Ownable.sol\":2550:2558  newOwner */\n  dup2\n    /* \"@openzeppelin/contracts/access/Ownable.sol\":2541:2547  _owner */\n  0x00\n  dup1\n    /* \"@openzeppelin/contracts/access/Ownable.sol\":2541:2558  _owner = newOwner */\n  0x0100\n  exp\n  dup2\n  sload\n  dup2\n  0xffffffffffffffffffffffffffffffffffffffff\n  mul\n  not\n  and\n  swap1\n  dup4\n  0xffffffffffffffffffffffffffffffffffffffff\n  and\n  mul\n  or\n  swap1\n  sstore\n  pop\n    /* \"@openzeppelin/contracts/access/Ownable.sol\":2604:2612  newOwner */\n  dup2\n    /* \"@openzeppelin/contracts/access/Ownable.sol\":2573:2613  OwnershipTransferred(oldOwner, newOwner) */\n  0xffffffffffffffffffffffffffffffffffffffff\n  and\n    /* \"@openzeppelin/contracts/access/Ownable.sol\":2594:2602  oldOwner */\n  dup2\n    /* \"@openzeppelin/contracts/access/Ownable.sol\":2573:2613  OwnershipTransferred(oldOwner, newOwner) */\n  0xffffffffffffffffffffffffffffffffffffffff\n  and\n  0x8be0079c531659141344cd1fd0a4f28419497f9722a3daafe3b4186f6b6457e0\n  mload(0x40)\n  mload(0x40)\n  dup1\n  swap2\n  sub\n  swap1\n  log3\n    /* \"@openzeppelin/contracts/access/Ownable.sol\":2496:2620  {... */\n  pop\n    /* \"@openzeppelin/contracts/access/Ownable.sol\":2433:2620  function _transferOwnership(address newOwner) internal virtual {... */\n  pop\n  jump\t// out\n    /* \"pedri/library.sol\":123:1118  contract Election is Ownable{... */\ntag_11:\n  dup3\n  dup1\n  sload\n  tag_16\n  swap1\n  tag_17\n  jump\t// in\ntag_16:\n  swap1\n  0x00\n  mstore\n  keccak256(0x00, 0x20)\n  swap1\n  0x1f\n  add\n  0x20\n  swap1\n  div\n  dup2\n  add\n  swap3\n  dup3\n  tag_19\n  jumpi\n  0x00\n  dup6\n  sstore\n  jump(tag_18)\ntag_19:\n  dup3\n  0x1f\n  lt\n  tag_20\n  jumpi\n  dup1\n  mload\n  not(0xff)\n  and\n  dup4\n  dup1\n  add\n  or\n  dup6\n  sstore\n  jump(tag_18)\ntag_20:\n  dup3\n  dup1\n  add\n  0x01\n  add\n  dup6\n  sstore\n  dup3\n  iszero\n  tag_18\n  jumpi\n  swap2\n  dup3\n  add\ntag_21:\n  dup3\n  dup2\n  gt\n  iszero\n  tag_22\n  jumpi\n  dup3\n  mload\n  dup3\n  sstore\n  swap2\n  0x20\n  add\n  swap2\n  swap1\n  0x01\n  add\n  swap1\n  jump(tag_21)\ntag_22:\ntag_18:\n  pop\n  swap1\n  pop\n  tag_23\n  swap2\n  swap1\n  tag_24\n  jump\t// in\ntag_23:\n  pop\n  swap1\n  jump\t// out\ntag_24:\ntag_25:\n  dup1\n  dup3\n  gt\n  iszero\n  tag_26\n  jumpi\n  0x00\n  dup2\n  0x00\n  swap1\n  sstore\n  pop\n  0x01\n  add\n  jump(tag_25)\ntag_26:\n  pop\n  swap1\n  jump\t// out\n    /* \"#utility.yul\":7:187   */\ntag_27:\n    /* \"#utility.yul\":55:132   */\n  0x4e487b7100000000000000000000000000000000000000000000000000000000\n    /* \"#utility.yul\":52:53   */\n  0x00\n    /* \"#utility.yul\":45:133   */\n  mstore\n    /* \"#utility.yul\":152:156   */\n  0x22\n    /* \"#utility.yul\":149:150   */\n  0x04\n    /* \"#utility.yul\":142:157   */\n  mstore\n    /* \"#utility.yul\":176:180   */\n  0x24\n    /* \"#utility.yul\":173:174   */\n  0x00\n    /* \"#utility.yul\":166:181   */\n  revert\n    /* \"#utility.yul\":193:513   */\ntag_17:\n    /* \"#utility.yul\":237:243   */\n  0x00\n    /* \"#utility.yul\":274:275   */\n  0x02\n    /* \"#utility.yul\":268:272   */\n  dup3\n    /* \"#utility.yul\":264:276   */\n  div\n    /* \"#utility.yul\":254:276   */\n  swap1\n  pop\n    /* \"#utility.yul\":321:322   */\n  0x01\n    /* \"#utility.yul\":315:319   */\n  dup3\n    /* \"#utility.yul\":311:323   */\n  and\n    /* \"#utility.yul\":342:360   */\n  dup1\n    /* \"#utility.yul\":332:413   */\n  tag_31\n  jumpi\n    /* \"#utility.yul\":398:402   */\n  0x7f\n    /* \"#utility.yul\":390:396   */\n  dup3\n    /* \"#utility.yul\":386:403   */\n  and\n    /* \"#utility.yul\":376:403   */\n  swap2\n  pop\n    /* \"#utility.yul\":332:413   */\ntag_31:\n    /* \"#utility.yul\":460:462   */\n  0x20\n    /* \"#utility.yul\":452:458   */\n  dup3\n    /* \"#utility.yul\":449:463   */\n  lt\n    /* \"#utility.yul\":429:447   */\n  dup2\n    /* \"#utility.yul\":426:464   */\n  eq\n    /* \"#utility.yul\":423:507   */\n  iszero\n  tag_32\n  jumpi\n    /* \"#utility.yul\":479:497   */\n  tag_33\n  tag_27\n  jump\t// in\ntag_33:\n    /* \"#utility.yul\":423:507   */\ntag_32:\n    /* \"#utility.yul\":244:513   */\n  pop\n    /* \"#utility.yul\":193:513   */\n  swap2\n  swap1\n  pop\n  jump\t// out\n    /* \"pedri/library.sol\":123:1118  contract Election is Ownable{... */\ntag_13:\n  dataSize(sub_0)\n  dup1\n  dataOffset(sub_0)\n  0x00\n  codecopy\n  0x00\n  return\nstop\n\nsub_0: assembly {\n        /* \"pedri/library.sol\":123:1118  contract Election is Ownable{... */\n      mstore(0x40, 0x80)\n      callvalue\n      dup1\n      iszero\n      tag_1\n      jumpi\n      0x00\n      dup1\n      revert\n    tag_1:\n      pop\n      jumpi(tag_2, lt(calldatasize, 0x04))\n      shr(0xe0, calldataload(0x00))\n      dup1\n      0xa3ec138d\n      gt\n      tag_10\n      jumpi\n      dup1\n      0xa3ec138d\n      eq\n      tag_6\n      jumpi\n      dup1\n      0xa6385803\n      eq\n      tag_7\n      jumpi\n      dup1\n      0xe7bb7cbe\n      eq\n      tag_8\n      jumpi\n      dup1\n      0xf2fde38b\n      eq\n      tag_9\n      jumpi\n      jump(tag_2)\n    tag_10:\n      dup1\n      0x3477ee2e\n      eq\n      tag_3\n      jumpi\n      dup1\n      0x715018a6\n      eq\n      tag_4\n      jumpi\n      dup1\n      0x8da5cb5b\n      eq\n      tag_5\n      jumpi\n    tag_2:\n      0x00\n      dup1\n      revert\n        /* \"pedri/library.sol\":340:384  mapping(uint => candidate) public candidates */\n    tag_3:\n      tag_11\n      0x04\n      dup1\n      calldatasize\n      sub\n      dup2\n      add\n      swap1\n      tag_12\n      swap2\n      swap1\n      tag_13\n      jump\t// in\n    tag_12:\n      tag_14\n      jump\t// in\n    tag_11:\n      mload(0x40)\n      tag_15\n      swap4\n      swap3\n      swap2\n      swap1\n      tag_16\n      jump\t// in\n    tag_15:\n      mload(0x40)\n      dup1\n      swap2\n      sub\n      swap1\n      return\n        /* \"@openzeppelin/contracts/access/Ownable.sol\":1831:1932  function renounceOwnership() public virtual onlyOwner {... */\n    tag_4:\n      tag_17\n      tag_18\n      jump\t// in\n    tag_17:\n      stop\n        /* \"@openzeppelin/contracts/access/Ownable.sol\":1201:1286  function owner() public view virtual returns (address) {... */\n    tag_5:\n      tag_19\n      tag_20\n      jump\t// in\n    tag_19:\n      mload(0x40)\n      tag_21\n      swap2\n      swap1\n      tag_22\n      jump\t// in\n    tag_21:\n      mload(0x40)\n      dup1\n      swap2\n      sub\n      swap1\n      return\n        /* \"pedri/library.sol\":390:429  mapping(address => voter) public voters */\n    tag_6:\n      tag_23\n      0x04\n      dup1\n      calldatasize\n      sub\n      dup2\n      add\n      swap1\n      tag_24\n      swap2\n      swap1\n      tag_25\n      jump\t// in\n    tag_24:\n      tag_26\n      jump\t// in\n    tag_23:\n      mload(0x40)\n      tag_27\n      swap4\n      swap3\n      swap2\n      swap1\n      tag_28\n      jump\t// in\n    tag_27:\n      mload(0x40)\n      dup1\n      swap2\n      sub\n      swap1\n      return\n        /* \"pedri/library.sol\":571:810  function vote(string memory _name, uint _index) public {... */\n    tag_7:\n      tag_29\n      0x04\n      dup1\n      calldatasize\n      sub\n      dup2\n      add\n      swap1\n      tag_30\n      swap2\n      swap1\n      tag_31\n      jump\t// in\n    tag_30:\n      tag_32\n      jump\t// in\n    tag_29:\n      stop\n        /* \"pedri/library.sol\":816:1116  function getwinner() public view onlyOwner returns(uint){... */\n    tag_8:\n      tag_33\n      tag_34\n      jump\t// in\n    tag_33:\n      mload(0x40)\n      tag_35\n      swap2\n      swap1\n      tag_36\n      jump\t// in\n    tag_35:\n      mload(0x40)\n      dup1\n      swap2\n      sub\n      swap1\n      return\n        /* \"@openzeppelin/contracts/access/Ownable.sol\":2081:2279  function transferOwnership(address newOwner) public virtual onlyOwner {... */\n    tag_9:\n      tag_37\n      0x04\n      dup1\n      calldatasize\n      sub\n      dup2\n      add\n      swap1\n      tag_38\n      swap2\n      swap1\n      tag_25\n      jump\t// in\n    tag_38:\n      tag_39\n      jump\t// in\n    tag_37:\n      stop\n        /* \"pedri/library.sol\":340:384  mapping(uint => candidate) public candidates */\n    tag_14:\n      mstore(0x20, 0x01)\n      dup1\n      0x00\n      mstore\n      keccak256(0x00, 0x40)\n      0x00\n      swap2\n      pop\n      swap1\n      pop\n      dup1\n      0x00\n      add\n      dup1\n      sload\n      tag_40\n      swap1\n      tag_41\n      jump\t// in\n    tag_40:\n      dup1\n      0x1f\n      add\n      0x20\n      dup1\n      swap2\n      div\n      mul\n      0x20\n      add\n      mload(0x40)\n      swap1\n      dup2\n      add\n      0x40\n      mstore\n      dup1\n      swap3\n      swap2\n      swap1\n      dup2\n      dup2\n      mstore\n      0x20\n      add\n      dup3\n      dup1\n      sload\n      tag_42\n      swap1\n      tag_41\n      jump\t// in\n    tag_42:\n      dup1\n      iszero\n      tag_43\n      jumpi\n      dup1\n      0x1f\n      lt\n      tag_44\n      jumpi\n      0x0100\n      dup1\n      dup4\n      sload\n      div\n      mul\n      dup4\n      mstore\n      swap2\n      0x20\n      add\n      swap2\n      jump(tag_43)\n    tag_44:\n      dup3\n      add\n      swap2\n      swap1\n      0x00\n      mstore\n      keccak256(0x00, 0x20)\n      swap1\n    tag_45:\n      dup2\n      sload\n      dup2\n      mstore\n      swap1\n      0x01\n      add\n      swap1\n      0x20\n      add\n      dup1\n      dup4\n      gt\n      tag_45\n      jumpi\n      dup3\n      swap1\n      sub\n      0x1f\n      and\n      dup3\n      add\n      swap2\n    tag_43:\n      pop\n      pop\n      pop\n      pop\n      pop\n      swap1\n      dup1\n      0x01\n      add\n      sload\n      swap1\n      dup1\n      0x02\n      add\n      sload\n      swap1\n      pop\n      dup4\n      jump\t// out\n        /* \"@openzeppelin/contracts/access/Ownable.sol\":1831:1932  function renounceOwnership() public virtual onlyOwner {... */\n    tag_18:\n        /* \"@openzeppelin/contracts/access/Ownable.sol\":1094:1107  _checkOwner() */\n      tag_47\n        /* \"@openzeppelin/contracts/access/Ownable.sol\":1094:1105  _checkOwner */\n      tag_48\n        /* \"@openzeppelin/contracts/access/Ownable.sol\":1094:1107  _checkOwner() */\n      jump\t// in\n    tag_47:\n        /* \"@openzeppelin/contracts/access/Ownable.sol\":1895:1925  _transferOwnership(address(0)) */\n      tag_50\n        /* \"@openzeppelin/contracts/access/Ownable.sol\":1922:1923  0 */\n      0x00\n        /* \"@openzeppelin/contracts/access/Ownable.sol\":1895:1913  _transferOwnership */\n      tag_51\n        /* \"@openzeppelin/contracts/access/Ownable.sol\":1895:1925  _transferOwnership(address(0)) */\n      jump\t// in\n    tag_50:\n        /* \"@openzeppelin/contracts/access/Ownable.sol\":1831:1932  function renounceOwnership() public virtual onlyOwner {... */\n      jump\t// out\n        /* \"@openzeppelin/contracts/access/Ownable.sol\":1201:1286  function owner() public view virtual returns (address) {... */\n    tag_20:\n        /* \"@openzeppelin/contracts/access/Ownable.sol\":1247:1254  address */\n      0x00\n        /* \"@openzeppelin/contracts/access/Ownable.sol\":1273:1279  _owner */\n      dup1\n      0x00\n      swap1\n      sload\n      swap1\n      0x0100\n      exp\n      swap1\n      div\n      0xffffffffffffffffffffffffffffffffffffffff\n      and\n        /* \"@openzeppelin/contracts/access/Ownable.sol\":1266:1279  return _owner */\n      swap1\n      pop\n        /* \"@openzeppelin/contracts/access/Ownable.sol\":1201:1286  function owner() public view virtual returns (address) {... */\n      swap1\n      jump\t// out\n        /* \"pedri/library.sol\":390:429  mapping(address => voter) public voters */\n    tag_26:\n      mstore(0x20, 0x02)\n      dup1\n      0x00\n      mstore\n      keccak256(0x00, 0x40)\n      0x00\n      swap2\n      pop\n      swap1\n      pop\n      dup1\n      0x00\n      add\n      dup1\n      sload\n      tag_53\n      swap1\n      tag_41\n      jump\t// in\n    tag_53:\n      dup1\n      0x1f\n      add\n      0x20\n      dup1\n      swap2\n      div\n      mul\n      0x20\n      add\n      mload(0x40)\n      swap1\n      dup2\n      add\n      0x40\n      mstore\n      dup1\n      swap3\n      swap2\n      swap1\n      dup2\n      dup2\n      mstore\n      0x20\n      add\n      dup3\n      dup1\n      sload\n      tag_54\n      swap1\n      tag_41\n      jump\t// in\n    tag_54:\n      dup1\n      iszero\n      tag_55\n      jumpi\n      dup1\n      0x1f\n      lt\n      tag_56\n      jumpi\n      0x0100\n      dup1\n      dup4\n      sload\n      div\n      mul\n      dup4\n      mstore\n      swap2\n      0x20\n      add\n      swap2\n      jump(tag_55)\n    tag_56:\n      dup3\n      add\n      swap2\n      swap1\n      0x00\n      mstore\n      keccak256(0x00, 0x20)\n      swap1\n    tag_57:\n      dup2\n      sload\n      dup2\n      mstore\n      swap1\n      0x01\n      add\n      swap1\n      0x20\n      add\n      dup1\n      dup4\n      gt\n      tag_57\n      jumpi\n      dup3\n      swap1\n      sub\n      0x1f\n      and\n      dup3\n      add\n      swap2\n    tag_55:\n      pop\n      pop\n      pop\n      pop\n      pop\n      swap1\n      dup1\n      0x01\n      add\n      sload\n      swap1\n      dup1\n      0x02\n      add\n      0x00\n      swap1\n      sload\n      swap1\n      0x0100\n      exp\n      swap1\n      div\n      0xff\n      and\n      swap1\n      pop\n      dup4\n      jump\t// out\n        /* \"pedri/library.sol\":571:810  function vote(string memory _name, uint _index) public {... */\n    tag_32:\n        /* \"pedri/library.sol\":672:677  false */\n      0x00\n        /* \"pedri/library.sol\":644:677  voters[msg.sender].voted == false */\n      iszero\n      iszero\n        /* \"pedri/library.sol\":644:650  voters */\n      0x02\n        /* \"pedri/library.sol\":644:662  voters[msg.sender] */\n      0x00\n        /* \"pedri/library.sol\":651:661  msg.sender */\n      caller\n        /* \"pedri/library.sol\":644:662  voters[msg.sender] */\n      0xffffffffffffffffffffffffffffffffffffffff\n      and\n      0xffffffffffffffffffffffffffffffffffffffff\n      and\n      dup2\n      mstore\n      0x20\n      add\n      swap1\n      dup2\n      mstore\n      0x20\n      add\n      0x00\n      keccak256\n        /* \"pedri/library.sol\":644:668  voters[msg.sender].voted */\n      0x02\n      add\n      0x00\n      swap1\n      sload\n      swap1\n      0x0100\n      exp\n      swap1\n      div\n      0xff\n      and\n        /* \"pedri/library.sol\":644:677  voters[msg.sender].voted == false */\n      iszero\n      iszero\n      eq\n        /* \"pedri/library.sol\":636:704  require(voters[msg.sender].voted == false, 'you have already voted') */\n      tag_59\n      jumpi\n      mload(0x40)\n      0x08c379a000000000000000000000000000000000000000000000000000000000\n      dup2\n      mstore\n      0x04\n      add\n      tag_60\n      swap1\n      tag_61\n      jump\t// in\n    tag_60:\n      mload(0x40)\n      dup1\n      swap2\n      sub\n      swap1\n      revert\n    tag_59:\n        /* \"pedri/library.sol\":735:761  voter(_name, _index, true) */\n      mload(0x40)\n      dup1\n      0x60\n      add\n      0x40\n      mstore\n      dup1\n        /* \"pedri/library.sol\":741:746  _name */\n      dup4\n        /* \"pedri/library.sol\":735:761  voter(_name, _index, true) */\n      dup2\n      mstore\n      0x20\n      add\n        /* \"pedri/library.sol\":748:754  _index */\n      dup3\n        /* \"pedri/library.sol\":735:761  voter(_name, _index, true) */\n      dup2\n      mstore\n      0x20\n      add\n        /* \"pedri/library.sol\":756:760  true */\n      0x01\n        /* \"pedri/library.sol\":735:761  voter(_name, _index, true) */\n      iszero\n      iszero\n      dup2\n      mstore\n      pop\n        /* \"pedri/library.sol\":714:720  voters */\n      0x02\n        /* \"pedri/library.sol\":714:732  voters[msg.sender] */\n      0x00\n        /* \"pedri/library.sol\":721:731  msg.sender */\n      caller\n        /* \"pedri/library.sol\":714:732  voters[msg.sender] */\n      0xffffffffffffffffffffffffffffffffffffffff\n      and\n      0xffffffffffffffffffffffffffffffffffffffff\n      and\n      dup2\n      mstore\n      0x20\n      add\n      swap1\n      dup2\n      mstore\n      0x20\n      add\n      0x00\n      keccak256\n        /* \"pedri/library.sol\":714:761  voters[msg.sender] = voter(_name, _index, true) */\n      0x00\n      dup3\n      add\n      mload\n      dup2\n      0x00\n      add\n      swap1\n      dup1\n      mload\n      swap1\n      0x20\n      add\n      swap1\n      tag_62\n      swap3\n      swap2\n      swap1\n      tag_63\n      jump\t// in\n    tag_62:\n      pop\n      0x20\n      dup3\n      add\n      mload\n      dup2\n      0x01\n      add\n      sstore\n      0x40\n      dup3\n      add\n      mload\n      dup2\n      0x02\n      add\n      exp(0x0100, 0x00)\n      dup2\n      sload\n      dup2\n      0xff\n      mul\n      not\n      and\n      swap1\n      dup4\n      iszero\n      iszero\n      mul\n      or\n      swap1\n      sstore\n      pop\n      swap1\n      pop\n      pop\n        /* \"pedri/library.sol\":771:781  candidates */\n      0x01\n        /* \"pedri/library.sol\":771:789  candidates[_index] */\n      0x00\n        /* \"pedri/library.sol\":782:788  _index */\n      dup3\n        /* \"pedri/library.sol\":771:789  candidates[_index] */\n      dup2\n      mstore\n      0x20\n      add\n      swap1\n      dup2\n      mstore\n      0x20\n      add\n      0x00\n      keccak256\n        /* \"pedri/library.sol\":771:799  candidates[_index].votecount */\n      0x02\n      add\n      0x00\n        /* \"pedri/library.sol\":771:802  candidates[_index].votecount ++ */\n      dup2\n      sload\n      dup1\n      swap3\n      swap2\n      swap1\n      tag_64\n      swap1\n      tag_65\n      jump\t// in\n    tag_64:\n      swap2\n      swap1\n      pop\n      sstore\n      pop\n        /* \"pedri/library.sol\":571:810  function vote(string memory _name, uint _index) public {... */\n      pop\n      pop\n      jump\t// out\n        /* \"pedri/library.sol\":816:1116  function getwinner() public view onlyOwner returns(uint){... */\n    tag_34:\n        /* \"pedri/library.sol\":867:871  uint */\n      0x00\n        /* \"@openzeppelin/contracts/access/Ownable.sol\":1094:1107  _checkOwner() */\n      tag_67\n        /* \"@openzeppelin/contracts/access/Ownable.sol\":1094:1105  _checkOwner */\n      tag_48\n        /* \"@openzeppelin/contracts/access/Ownable.sol\":1094:1107  _checkOwner() */\n      jump\t// in\n    tag_67:\n        /* \"pedri/library.sol\":882:888  uint x */\n      0x00\n        /* \"pedri/library.sol\":891:901  candidates */\n      0x01\n        /* \"pedri/library.sol\":891:904  candidates[1] */\n      0x00\n        /* \"pedri/library.sol\":902:903  1 */\n      0x01\n        /* \"pedri/library.sol\":891:904  candidates[1] */\n      dup2\n      mstore\n      0x20\n      add\n      swap1\n      dup2\n      mstore\n      0x20\n      add\n      0x00\n      keccak256\n        /* \"pedri/library.sol\":891:914  candidates[1].votecount */\n      0x02\n      add\n      sload\n        /* \"pedri/library.sol\":882:914  uint x = candidates[1].votecount */\n      swap1\n      pop\n        /* \"pedri/library.sol\":924:930  uint y */\n      0x00\n        /* \"pedri/library.sol\":933:943  candidates */\n      0x01\n        /* \"pedri/library.sol\":933:946  candidates[2] */\n      0x00\n        /* \"pedri/library.sol\":944:945  2 */\n      0x02\n        /* \"pedri/library.sol\":933:946  candidates[2] */\n      dup2\n      mstore\n      0x20\n      add\n      swap1\n      dup2\n      mstore\n      0x20\n      add\n      0x00\n      keccak256\n        /* \"pedri/library.sol\":933:956  candidates[2].votecount */\n      0x02\n      add\n      sload\n        /* \"pedri/library.sol\":924:956  uint y = candidates[2].votecount */\n      swap1\n      pop\n        /* \"pedri/library.sol\":973:974  y */\n      dup1\n        /* \"pedri/library.sol\":969:970  x */\n      dup3\n        /* \"pedri/library.sol\":969:974  x > y */\n      gt\n        /* \"pedri/library.sol\":966:1092  if(x > y){... */\n      iszero\n      tag_69\n      jumpi\n        /* \"pedri/library.sol\":996:1006  candidates */\n      0x01\n        /* \"pedri/library.sol\":996:1009  candidates[1] */\n      0x00\n        /* \"pedri/library.sol\":1007:1008  1 */\n      0x01\n        /* \"pedri/library.sol\":996:1009  candidates[1] */\n      dup2\n      mstore\n      0x20\n      add\n      swap1\n      dup2\n      mstore\n      0x20\n      add\n      0x00\n      keccak256\n        /* \"pedri/library.sol\":996:1015  candidates[1].index */\n      0x01\n      add\n      sload\n        /* \"pedri/library.sol\":989:1016  return(candidates[1].index) */\n      swap3\n      pop\n      pop\n      pop\n      jump(tag_68)\n        /* \"pedri/library.sol\":966:1092  if(x > y){... */\n    tag_69:\n        /* \"pedri/library.sol\":1038:1039  x */\n      dup2\n        /* \"pedri/library.sol\":1036:1037  y */\n      dup2\n        /* \"pedri/library.sol\":1036:1039  y>x */\n      gt\n        /* \"pedri/library.sol\":1033:1092  if(y>x){... */\n      iszero\n      tag_71\n      jumpi\n        /* \"pedri/library.sol\":1061:1071  candidates */\n      0x01\n        /* \"pedri/library.sol\":1061:1074  candidates[2] */\n      0x00\n        /* \"pedri/library.sol\":1072:1073  2 */\n      0x02\n        /* \"pedri/library.sol\":1061:1074  candidates[2] */\n      dup2\n      mstore\n      0x20\n      add\n      swap1\n      dup2\n      mstore\n      0x20\n      add\n      0x00\n      keccak256\n        /* \"pedri/library.sol\":1061:1080  candidates[2].index */\n      0x01\n      add\n      sload\n        /* \"pedri/library.sol\":1054:1081  return(candidates[2].index) */\n      swap3\n      pop\n      pop\n      pop\n      jump(tag_68)\n        /* \"pedri/library.sol\":1033:1092  if(y>x){... */\n    tag_71:\n        /* \"pedri/library.sol\":1108:1109  0 */\n      0x00\n        /* \"pedri/library.sol\":1101:1109  return 0 */\n      swap3\n      pop\n      pop\n      pop\n        /* \"@openzeppelin/contracts/access/Ownable.sol\":1117:1118  _ */\n    tag_68:\n        /* \"pedri/library.sol\":816:1116  function getwinner() public view onlyOwner returns(uint){... */\n      swap1\n      jump\t// out\n        /* \"@openzeppelin/contracts/access/Ownable.sol\":2081:2279  function transferOwnership(address newOwner) public virtual onlyOwner {... */\n    tag_39:\n        /* \"@openzeppelin/contracts/access/Ownable.sol\":1094:1107  _checkOwner() */\n      tag_73\n        /* \"@openzeppelin/contracts/access/Ownable.sol\":1094:1105  _checkOwner */\n      tag_48\n        /* \"@openzeppelin/contracts/access/Ownable.sol\":1094:1107  _checkOwner() */\n      jump\t// in\n    tag_73:\n        /* \"@openzeppelin/contracts/access/Ownable.sol\":2189:2190  0 */\n      0x00\n        /* \"@openzeppelin/contracts/access/Ownable.sol\":2169:2191  newOwner != address(0) */\n      0xffffffffffffffffffffffffffffffffffffffff\n      and\n        /* \"@openzeppelin/contracts/access/Ownable.sol\":2169:2177  newOwner */\n      dup2\n        /* \"@openzeppelin/contracts/access/Ownable.sol\":2169:2191  newOwner != address(0) */\n      0xffffffffffffffffffffffffffffffffffffffff\n      and\n      eq\n      iszero\n        /* \"@openzeppelin/contracts/access/Ownable.sol\":2161:2234  require(newOwner != address(0), \"Ownable: new owner is the zero address\") */\n      tag_75\n      jumpi\n      mload(0x40)\n      0x08c379a000000000000000000000000000000000000000000000000000000000\n      dup2\n      mstore\n      0x04\n      add\n      tag_76\n      swap1\n      tag_77\n      jump\t// in\n    tag_76:\n      mload(0x40)\n      dup1\n      swap2\n      sub\n      swap1\n      revert\n    tag_75:\n        /* \"@openzeppelin/contracts/access/Ownable.sol\":2244:2272  _transferOwnership(newOwner) */\n      tag_78\n        /* \"@openzeppelin/contracts/access/Ownable.sol\":2263:2271  newOwner */\n      dup2\n        /* \"@openzeppelin/contracts/access/Ownable.sol\":2244:2262  _transferOwnership */\n      tag_51\n        /* \"@openzeppelin/contracts/access/Ownable.sol\":2244:2272  _transferOwnership(newOwner) */\n      jump\t// in\n    tag_78:\n        /* \"@openzeppelin/contracts/access/Ownable.sol\":2081:2279  function transferOwnership(address newOwner) public virtual onlyOwner {... */\n      pop\n      jump\t// out\n        /* \"@openzeppelin/contracts/access/Ownable.sol\":1359:1489  function _checkOwner() internal view virtual {... */\n    tag_48:\n        /* \"@openzeppelin/contracts/access/Ownable.sol\":1433:1445  _msgSender() */\n      tag_80\n        /* \"@openzeppelin/contracts/access/Ownable.sol\":1433:1443  _msgSender */\n      tag_81\n        /* \"@openzeppelin/contracts/access/Ownable.sol\":1433:1445  _msgSender() */\n      jump\t// in\n    tag_80:\n        /* \"@openzeppelin/contracts/access/Ownable.sol\":1422:1445  owner() == _msgSender() */\n      0xffffffffffffffffffffffffffffffffffffffff\n      and\n        /* \"@openzeppelin/contracts/access/Ownable.sol\":1422:1429  owner() */\n      tag_82\n        /* \"@openzeppelin/contracts/access/Ownable.sol\":1422:1427  owner */\n      tag_20\n        /* \"@openzeppelin/contracts/access/Ownable.sol\":1422:1429  owner() */\n      jump\t// in\n    tag_82:\n        /* \"@openzeppelin/contracts/access/Ownable.sol\":1422:1445  owner() == _msgSender() */\n      0xffffffffffffffffffffffffffffffffffffffff\n      and\n      eq\n        /* \"@openzeppelin/contracts/access/Ownable.sol\":1414:1482  require(owner() == _msgSender(), \"Ownable: caller is not the owner\") */\n      tag_83\n      jumpi\n      mload(0x40)\n      0x08c379a000000000000000000000000000000000000000000000000000000000\n      dup2\n      mstore\n      0x04\n      add\n      tag_84\n      swap1\n      tag_85\n      jump\t// in\n    tag_84:\n      mload(0x40)\n      dup1\n      swap2\n      sub\n      swap1\n      revert\n    tag_83:\n        /* \"@openzeppelin/contracts/access/Ownable.sol\":1359:1489  function _checkOwner() internal view virtual {... */\n      jump\t// out\n        /* \"@openzeppelin/contracts/access/Ownable.sol\":2433:2620  function _transferOwnership(address newOwner) internal virtual {... */\n    tag_51:\n        /* \"@openzeppelin/contracts/access/Ownable.sol\":2506:2522  address oldOwner */\n      0x00\n        /* \"@openzeppelin/contracts/access/Ownable.sol\":2525:2531  _owner */\n      dup1\n      0x00\n      swap1\n      sload\n      swap1\n      0x0100\n      exp\n      swap1\n      div\n      0xffffffffffffffffffffffffffffffffffffffff\n      and\n        /* \"@openzeppelin/contracts/access/Ownable.sol\":2506:2531  address oldOwner = _owner */\n      swap1\n      pop\n        /* \"@openzeppelin/contracts/access/Ownable.sol\":2550:2558  newOwner */\n      dup2\n        /* \"@openzeppelin/contracts/access/Ownable.sol\":2541:2547  _owner */\n      0x00\n      dup1\n        /* \"@openzeppelin/contracts/access/Ownable.sol\":2541:2558  _owner = newOwner */\n      0x0100\n      exp\n      dup2\n      sload\n      dup2\n      0xffffffffffffffffffffffffffffffffffffffff\n      mul\n      not\n      and\n      swap1\n      dup4\n      0xffffffffffffffffffffffffffffffffffffffff\n      and\n      mul\n      or\n      swap1\n      sstore\n      pop\n        /* \"@openzeppelin/contracts/access/Ownable.sol\":2604:2612  newOwner */\n      dup2\n        /* \"@openzeppelin/contracts/access/Ownable.sol\":2573:2613  OwnershipTransferred(oldOwner, newOwner) */\n      0xffffffffffffffffffffffffffffffffffffffff\n      and\n        /* \"@openzeppelin/contracts/access/Ownable.sol\":2594:2602  oldOwner */\n      dup2\n        /* \"@openzeppelin/contracts/access/Ownable.sol\":2573:2613  OwnershipTransferred(oldOwner, newOwner) */\n      0xffffffffffffffffffffffffffffffffffffffff\n      and\n      0x8be0079c531659141344cd1fd0a4f28419497f9722a3daafe3b4186f6b6457e0\n      mload(0x40)\n      mload(0x40)\n      dup1\n      swap2\n      sub\n      swap1\n      log3\n        /* \"@openzeppelin/contracts/access/Ownable.sol\":2496:2620  {... */\n      pop\n        /* \"@openzeppelin/contracts/access/Ownable.sol\":2433:2620  function _transferOwnership(address newOwner) internal virtual {... */\n      pop\n      jump\t// out\n        /* \"@openzeppelin/contracts/utils/Context.sol\":640:736  function _msgSender() internal view virtual returns (address) {... */\n    tag_81:\n        /* \"@openzeppelin/contracts/utils/Context.sol\":693:700  address */\n      0x00\n        /* \"@openzeppelin/contracts/utils/Context.sol\":719:729  msg.sender */\n      caller\n        /* \"@openzeppelin/contracts/utils/Context.sol\":712:729  return msg.sender */\n      swap1\n      pop\n        /* \"@openzeppelin/contracts/utils/Context.sol\":640:736  function _msgSender() internal view virtual returns (address) {... */\n      swap1\n      jump\t// out\n    tag_63:\n      dup3\n      dup1\n      sload\n      tag_88\n      swap1\n      tag_41\n      jump\t// in\n    tag_88:\n      swap1\n      0x00\n      mstore\n      keccak256(0x00, 0x20)\n      swap1\n      0x1f\n      add\n      0x20\n      swap1\n      div\n      dup2\n      add\n      swap3\n      dup3\n      tag_90\n      jumpi\n      0x00\n      dup6\n      sstore\n      jump(tag_89)\n    tag_90:\n      dup3\n      0x1f\n      lt\n      tag_91\n      jumpi\n      dup1\n      mload\n      not(0xff)\n      and\n      dup4\n      dup1\n      add\n      or\n      dup6\n      sstore\n      jump(tag_89)\n    tag_91:\n      dup3\n      dup1\n      add\n      0x01\n      add\n      dup6\n      sstore\n      dup3\n      iszero\n      tag_89\n      jumpi\n      swap2\n      dup3\n      add\n    tag_92:\n      dup3\n      dup2\n      gt\n      iszero\n      tag_93\n      jumpi\n      dup3\n      mload\n      dup3\n      sstore\n      swap2\n      0x20\n      add\n      swap2\n      swap1\n      0x01\n      add\n      swap1\n      jump(tag_92)\n    tag_93:\n    tag_89:\n      pop\n      swap1\n      pop\n      tag_94\n      swap2\n      swap1\n      tag_95\n      jump\t// in\n    tag_94:\n      pop\n      swap1\n      jump\t// out\n    tag_95:\n    tag_96:\n      dup1\n      dup3\n      gt\n      iszero\n      tag_97\n      jumpi\n      0x00\n      dup2\n      0x00\n      swap1\n      sstore\n      pop\n      0x01\n      add\n      jump(tag_96)\n    tag_97:\n      pop\n      swap1\n      jump\t// out\n        /* \"#utility.yul\":7:82   */\n    tag_98:\n        /* \"#utility.yul\":40:46   */\n      0x00\n        /* \"#utility.yul\":73:75   */\n      0x40\n        /* \"#utility.yul\":67:76   */\n      mload\n        /* \"#utility.yul\":57:76   */\n      swap1\n      pop\n        /* \"#utility.yul\":7:82   */\n      swap1\n      jump\t// out\n        /* \"#utility.yul\":88:205   */\n    tag_99:\n        /* \"#utility.yul\":197:198   */\n      0x00\n        /* \"#utility.yul\":194:195   */\n      dup1\n        /* \"#utility.yul\":187:199   */\n      revert\n        /* \"#utility.yul\":211:328   */\n    tag_100:\n        /* \"#utility.yul\":320:321   */\n      0x00\n        /* \"#utility.yul\":317:318   */\n      dup1\n        /* \"#utility.yul\":310:322   */\n      revert\n        /* \"#utility.yul\":334:411   */\n    tag_101:\n        /* \"#utility.yul\":371:378   */\n      0x00\n        /* \"#utility.yul\":400:405   */\n      dup2\n        /* \"#utility.yul\":389:405   */\n      swap1\n      pop\n        /* \"#utility.yul\":334:411   */\n      swap2\n      swap1\n      pop\n      jump\t// out\n        /* \"#utility.yul\":417:539   */\n    tag_102:\n        /* \"#utility.yul\":490:514   */\n      tag_140\n        /* \"#utility.yul\":508:513   */\n      dup2\n        /* \"#utility.yul\":490:514   */\n      tag_101\n      jump\t// in\n    tag_140:\n        /* \"#utility.yul\":483:488   */\n      dup2\n        /* \"#utility.yul\":480:515   */\n      eq\n        /* \"#utility.yul\":470:533   */\n      tag_141\n      jumpi\n        /* \"#utility.yul\":529:530   */\n      0x00\n        /* \"#utility.yul\":526:527   */\n      dup1\n        /* \"#utility.yul\":519:531   */\n      revert\n        /* \"#utility.yul\":470:533   */\n    tag_141:\n        /* \"#utility.yul\":417:539   */\n      pop\n      jump\t// out\n        /* \"#utility.yul\":545:684   */\n    tag_103:\n        /* \"#utility.yul\":591:596   */\n      0x00\n        /* \"#utility.yul\":629:635   */\n      dup2\n        /* \"#utility.yul\":616:636   */\n      calldataload\n        /* \"#utility.yul\":607:636   */\n      swap1\n      pop\n        /* \"#utility.yul\":645:678   */\n      tag_143\n        /* \"#utility.yul\":672:677   */\n      dup2\n        /* \"#utility.yul\":645:678   */\n      tag_102\n      jump\t// in\n    tag_143:\n        /* \"#utility.yul\":545:684   */\n      swap3\n      swap2\n      pop\n      pop\n      jump\t// out\n        /* \"#utility.yul\":690:1019   */\n    tag_13:\n        /* \"#utility.yul\":749:755   */\n      0x00\n        /* \"#utility.yul\":798:800   */\n      0x20\n        /* \"#utility.yul\":786:795   */\n      dup3\n        /* \"#utility.yul\":777:784   */\n      dup5\n        /* \"#utility.yul\":773:796   */\n      sub\n        /* \"#utility.yul\":769:801   */\n      slt\n        /* \"#utility.yul\":766:885   */\n      iszero\n      tag_145\n      jumpi\n        /* \"#utility.yul\":804:883   */\n      tag_146\n      tag_99\n      jump\t// in\n    tag_146:\n        /* \"#utility.yul\":766:885   */\n    tag_145:\n        /* \"#utility.yul\":924:925   */\n      0x00\n        /* \"#utility.yul\":949:1002   */\n      tag_147\n        /* \"#utility.yul\":994:1001   */\n      dup5\n        /* \"#utility.yul\":985:991   */\n      dup3\n        /* \"#utility.yul\":974:983   */\n      dup6\n        /* \"#utility.yul\":970:992   */\n      add\n        /* \"#utility.yul\":949:1002   */\n      tag_103\n      jump\t// in\n    tag_147:\n        /* \"#utility.yul\":939:1002   */\n      swap2\n      pop\n        /* \"#utility.yul\":895:1012   */\n      pop\n        /* \"#utility.yul\":690:1019   */\n      swap3\n      swap2\n      pop\n      pop\n      jump\t// out\n        /* \"#utility.yul\":1025:1124   */\n    tag_104:\n        /* \"#utility.yul\":1077:1083   */\n      0x00\n        /* \"#utility.yul\":1111:1116   */\n      dup2\n        /* \"#utility.yul\":1105:1117   */\n      mload\n        /* \"#utility.yul\":1095:1117   */\n      swap1\n      pop\n        /* \"#utility.yul\":1025:1124   */\n      swap2\n      swap1\n      pop\n      jump\t// out\n        /* \"#utility.yul\":1130:1299   */\n    tag_105:\n        /* \"#utility.yul\":1214:1225   */\n      0x00\n        /* \"#utility.yul\":1248:1254   */\n      dup3\n        /* \"#utility.yul\":1243:1246   */\n      dup3\n        /* \"#utility.yul\":1236:1255   */\n      mstore\n        /* \"#utility.yul\":1288:1292   */\n      0x20\n        /* \"#utility.yul\":1283:1286   */\n      dup3\n        /* \"#utility.yul\":1279:1293   */\n      add\n        /* \"#utility.yul\":1264:1293   */\n      swap1\n      pop\n        /* \"#utility.yul\":1130:1299   */\n      swap3\n      swap2\n      pop\n      pop\n      jump\t// out\n        /* \"#utility.yul\":1305:1612   */\n    tag_106:\n        /* \"#utility.yul\":1373:1374   */\n      0x00\n        /* \"#utility.yul\":1383:1496   */\n    tag_151:\n        /* \"#utility.yul\":1397:1403   */\n      dup4\n        /* \"#utility.yul\":1394:1395   */\n      dup2\n        /* \"#utility.yul\":1391:1404   */\n      lt\n        /* \"#utility.yul\":1383:1496   */\n      iszero\n      tag_153\n      jumpi\n        /* \"#utility.yul\":1482:1483   */\n      dup1\n        /* \"#utility.yul\":1477:1480   */\n      dup3\n        /* \"#utility.yul\":1473:1484   */\n      add\n        /* \"#utility.yul\":1467:1485   */\n      mload\n        /* \"#utility.yul\":1463:1464   */\n      dup2\n        /* \"#utility.yul\":1458:1461   */\n      dup5\n        /* \"#utility.yul\":1454:1465   */\n      add\n        /* \"#utility.yul\":1447:1486   */\n      mstore\n        /* \"#utility.yul\":1419:1421   */\n      0x20\n        /* \"#utility.yul\":1416:1417   */\n      dup2\n        /* \"#utility.yul\":1412:1422   */\n      add\n        /* \"#utility.yul\":1407:1422   */\n      swap1\n      pop\n        /* \"#utility.yul\":1383:1496   */\n      jump(tag_151)\n    tag_153:\n        /* \"#utility.yul\":1514:1520   */\n      dup4\n        /* \"#utility.yul\":1511:1512   */\n      dup2\n        /* \"#utility.yul\":1508:1521   */\n      gt\n        /* \"#utility.yul\":1505:1606   */\n      iszero\n      tag_154\n      jumpi\n        /* \"#utility.yul\":1594:1595   */\n      0x00\n        /* \"#utility.yul\":1585:1591   */\n      dup5\n        /* \"#utility.yul\":1580:1583   */\n      dup5\n        /* \"#utility.yul\":1576:1592   */\n      add\n        /* \"#utility.yul\":1569:1596   */\n      mstore\n        /* \"#utility.yul\":1505:1606   */\n    tag_154:\n        /* \"#utility.yul\":1354:1612   */\n      pop\n        /* \"#utility.yul\":1305:1612   */\n      pop\n      pop\n      pop\n      jump\t// out\n        /* \"#utility.yul\":1618:1720   */\n    tag_107:\n        /* \"#utility.yul\":1659:1665   */\n      0x00\n        /* \"#utility.yul\":1710:1712   */\n      0x1f\n        /* \"#utility.yul\":1706:1713   */\n      not\n        /* \"#utility.yul\":1701:1703   */\n      0x1f\n        /* \"#utility.yul\":1694:1699   */\n      dup4\n        /* \"#utility.yul\":1690:1704   */\n      add\n        /* \"#utility.yul\":1686:1714   */\n      and\n        /* \"#utility.yul\":1676:1714   */\n      swap1\n      pop\n        /* \"#utility.yul\":1618:1720   */\n      swap2\n      swap1\n      pop\n      jump\t// out\n        /* \"#utility.yul\":1726:2090   */\n    tag_108:\n        /* \"#utility.yul\":1814:1817   */\n      0x00\n        /* \"#utility.yul\":1842:1881   */\n      tag_157\n        /* \"#utility.yul\":1875:1880   */\n      dup3\n        /* \"#utility.yul\":1842:1881   */\n      tag_104\n      jump\t// in\n    tag_157:\n        /* \"#utility.yul\":1897:1968   */\n      tag_158\n        /* \"#utility.yul\":1961:1967   */\n      dup2\n        /* \"#utility.yul\":1956:1959   */\n      dup6\n        /* \"#utility.yul\":1897:1968   */\n      tag_105\n      jump\t// in\n    tag_158:\n        /* \"#utility.yul\":1890:1968   */\n      swap4\n      pop\n        /* \"#utility.yul\":1977:2029   */\n      tag_159\n        /* \"#utility.yul\":2022:2028   */\n      dup2\n        /* \"#utility.yul\":2017:2020   */\n      dup6\n        /* \"#utility.yul\":2010:2014   */\n      0x20\n        /* \"#utility.yul\":2003:2008   */\n      dup7\n        /* \"#utility.yul\":1999:2015   */\n      add\n        /* \"#utility.yul\":1977:2029   */\n      tag_106\n      jump\t// in\n    tag_159:\n        /* \"#utility.yul\":2054:2083   */\n      tag_160\n        /* \"#utility.yul\":2076:2082   */\n      dup2\n        /* \"#utility.yul\":2054:2083   */\n      tag_107\n      jump\t// in\n    tag_160:\n        /* \"#utility.yul\":2049:2052   */\n      dup5\n        /* \"#utility.yul\":2045:2084   */\n      add\n        /* \"#utility.yul\":2038:2084   */\n      swap2\n      pop\n        /* \"#utility.yul\":1818:2090   */\n      pop\n        /* \"#utility.yul\":1726:2090   */\n      swap3\n      swap2\n      pop\n      pop\n      jump\t// out\n        /* \"#utility.yul\":2096:2214   */\n    tag_109:\n        /* \"#utility.yul\":2183:2207   */\n      tag_162\n        /* \"#utility.yul\":2201:2206   */\n      dup2\n        /* \"#utility.yul\":2183:2207   */\n      tag_101\n      jump\t// in\n    tag_162:\n        /* \"#utility.yul\":2178:2181   */\n      dup3\n        /* \"#utility.yul\":2171:2208   */\n      mstore\n        /* \"#utility.yul\":2096:2214   */\n      pop\n      pop\n      jump\t// out\n        /* \"#utility.yul\":2220:2753   */\n    tag_16:\n        /* \"#utility.yul\":2389:2393   */\n      0x00\n        /* \"#utility.yul\":2427:2429   */\n      0x60\n        /* \"#utility.yul\":2416:2425   */\n      dup3\n        /* \"#utility.yul\":2412:2430   */\n      add\n        /* \"#utility.yul\":2404:2430   */\n      swap1\n      pop\n        /* \"#utility.yul\":2476:2485   */\n      dup2\n        /* \"#utility.yul\":2470:2474   */\n      dup2\n        /* \"#utility.yul\":2466:2486   */\n      sub\n        /* \"#utility.yul\":2462:2463   */\n      0x00\n        /* \"#utility.yul\":2451:2460   */\n      dup4\n        /* \"#utility.yul\":2447:2464   */\n      add\n        /* \"#utility.yul\":2440:2487   */\n      mstore\n        /* \"#utility.yul\":2504:2582   */\n      tag_164\n        /* \"#utility.yul\":2577:2581   */\n      dup2\n        /* \"#utility.yul\":2568:2574   */\n      dup7\n        /* \"#utility.yul\":2504:2582   */\n      tag_108\n      jump\t// in\n    tag_164:\n        /* \"#utility.yul\":2496:2582   */\n      swap1\n      pop\n        /* \"#utility.yul\":2592:2664   */\n      tag_165\n        /* \"#utility.yul\":2660:2662   */\n      0x20\n        /* \"#utility.yul\":2649:2658   */\n      dup4\n        /* \"#utility.yul\":2645:2663   */\n      add\n        /* \"#utility.yul\":2636:2642   */\n      dup6\n        /* \"#utility.yul\":2592:2664   */\n      tag_109\n      jump\t// in\n    tag_165:\n        /* \"#utility.yul\":2674:2746   */\n      tag_166\n        /* \"#utility.yul\":2742:2744   */\n      0x40\n        /* \"#utility.yul\":2731:2740   */\n      dup4\n        /* \"#utility.yul\":2727:2745   */\n      add\n        /* \"#utility.yul\":2718:2724   */\n      dup5\n        /* \"#utility.yul\":2674:2746   */\n      tag_109\n      jump\t// in\n    tag_166:\n        /* \"#utility.yul\":2220:2753   */\n      swap5\n      swap4\n      pop\n      pop\n      pop\n      pop\n      jump\t// out\n        /* \"#utility.yul\":2759:2885   */\n    tag_110:\n        /* \"#utility.yul\":2796:2803   */\n      0x00\n        /* \"#utility.yul\":2836:2878   */\n      0xffffffffffffffffffffffffffffffffffffffff\n        /* \"#utility.yul\":2829:2834   */\n      dup3\n        /* \"#utility.yul\":2825:2879   */\n      and\n        /* \"#utility.yul\":2814:2879   */\n      swap1\n      pop\n        /* \"#utility.yul\":2759:2885   */\n      swap2\n      swap1\n      pop\n      jump\t// out\n        /* \"#utility.yul\":2891:2987   */\n    tag_111:\n        /* \"#utility.yul\":2928:2935   */\n      0x00\n        /* \"#utility.yul\":2957:2981   */\n      tag_169\n        /* \"#utility.yul\":2975:2980   */\n      dup3\n        /* \"#utility.yul\":2957:2981   */\n      tag_110\n      jump\t// in\n    tag_169:\n        /* \"#utility.yul\":2946:2981   */\n      swap1\n      pop\n        /* \"#utility.yul\":2891:2987   */\n      swap2\n      swap1\n      pop\n      jump\t// out\n        /* \"#utility.yul\":2993:3111   */\n    tag_112:\n        /* \"#utility.yul\":3080:3104   */\n      tag_171\n        /* \"#utility.yul\":3098:3103   */\n      dup2\n        /* \"#utility.yul\":3080:3104   */\n      tag_111\n      jump\t// in\n    tag_171:\n        /* \"#utility.yul\":3075:3078   */\n      dup3\n        /* \"#utility.yul\":3068:3105   */\n      mstore\n        /* \"#utility.yul\":2993:3111   */\n      pop\n      pop\n      jump\t// out\n        /* \"#utility.yul\":3117:3339   */\n    tag_22:\n        /* \"#utility.yul\":3210:3214   */\n      0x00\n        /* \"#utility.yul\":3248:3250   */\n      0x20\n        /* \"#utility.yul\":3237:3246   */\n      dup3\n        /* \"#utility.yul\":3233:3251   */\n      add\n        /* \"#utility.yul\":3225:3251   */\n      swap1\n      pop\n        /* \"#utility.yul\":3261:3332   */\n      tag_173\n        /* \"#utility.yul\":3329:3330   */\n      0x00\n        /* \"#utility.yul\":3318:3327   */\n      dup4\n        /* \"#utility.yul\":3314:3331   */\n      add\n        /* \"#utility.yul\":3305:3311   */\n      dup5\n        /* \"#utility.yul\":3261:3332   */\n      tag_112\n      jump\t// in\n    tag_173:\n        /* \"#utility.yul\":3117:3339   */\n      swap3\n      swap2\n      pop\n      pop\n      jump\t// out\n        /* \"#utility.yul\":3345:3467   */\n    tag_113:\n        /* \"#utility.yul\":3418:3442   */\n      tag_175\n        /* \"#utility.yul\":3436:3441   */\n      dup2\n        /* \"#utility.yul\":3418:3442   */\n      tag_111\n      jump\t// in\n    tag_175:\n        /* \"#utility.yul\":3411:3416   */\n      dup2\n        /* \"#utility.yul\":3408:3443   */\n      eq\n        /* \"#utility.yul\":3398:3461   */\n      tag_176\n      jumpi\n        /* \"#utility.yul\":3457:3458   */\n      0x00\n        /* \"#utility.yul\":3454:3455   */\n      dup1\n        /* \"#utility.yul\":3447:3459   */\n      revert\n        /* \"#utility.yul\":3398:3461   */\n    tag_176:\n        /* \"#utility.yul\":3345:3467   */\n      pop\n      jump\t// out\n        /* \"#utility.yul\":3473:3612   */\n    tag_114:\n        /* \"#utility.yul\":3519:3524   */\n      0x00\n        /* \"#utility.yul\":3557:3563   */\n      dup2\n        /* \"#utility.yul\":3544:3564   */\n      calldataload\n        /* \"#utility.yul\":3535:3564   */\n      swap1\n      pop\n        /* \"#utility.yul\":3573:3606   */\n      tag_178\n        /* \"#utility.yul\":3600:3605   */\n      dup2\n        /* \"#utility.yul\":3573:3606   */\n      tag_113\n      jump\t// in\n    tag_178:\n        /* \"#utility.yul\":3473:3612   */\n      swap3\n      swap2\n      pop\n      pop\n      jump\t// out\n        /* \"#utility.yul\":3618:3947   */\n    tag_25:\n        /* \"#utility.yul\":3677:3683   */\n      0x00\n        /* \"#utility.yul\":3726:3728   */\n      0x20\n        /* \"#utility.yul\":3714:3723   */\n      dup3\n        /* \"#utility.yul\":3705:3712   */\n      dup5\n        /* \"#utility.yul\":3701:3724   */\n      sub\n        /* \"#utility.yul\":3697:3729   */\n      slt\n        /* \"#utility.yul\":3694:3813   */\n      iszero\n      tag_180\n      jumpi\n        /* \"#utility.yul\":3732:3811   */\n      tag_181\n      tag_99\n      jump\t// in\n    tag_181:\n        /* \"#utility.yul\":3694:3813   */\n    tag_180:\n        /* \"#utility.yul\":3852:3853   */\n      0x00\n        /* \"#utility.yul\":3877:3930   */\n      tag_182\n        /* \"#utility.yul\":3922:3929   */\n      dup5\n        /* \"#utility.yul\":3913:3919   */\n      dup3\n        /* \"#utility.yul\":3902:3911   */\n      dup6\n        /* \"#utility.yul\":3898:3920   */\n      add\n        /* \"#utility.yul\":3877:3930   */\n      tag_114\n      jump\t// in\n    tag_182:\n        /* \"#utility.yul\":3867:3930   */\n      swap2\n      pop\n        /* \"#utility.yul\":3823:3940   */\n      pop\n        /* \"#utility.yul\":3618:3947   */\n      swap3\n      swap2\n      pop\n      pop\n      jump\t// out\n        /* \"#utility.yul\":3953:4043   */\n    tag_115:\n        /* \"#utility.yul\":3987:3994   */\n      0x00\n        /* \"#utility.yul\":4030:4035   */\n      dup2\n        /* \"#utility.yul\":4023:4036   */\n      iszero\n        /* \"#utility.yul\":4016:4037   */\n      iszero\n        /* \"#utility.yul\":4005:4037   */\n      swap1\n      pop\n        /* \"#utility.yul\":3953:4043   */\n      swap2\n      swap1\n      pop\n      jump\t// out\n        /* \"#utility.yul\":4049:4158   */\n    tag_116:\n        /* \"#utility.yul\":4130:4151   */\n      tag_185\n        /* \"#utility.yul\":4145:4150   */\n      dup2\n        /* \"#utility.yul\":4130:4151   */\n      tag_115\n      jump\t// in\n    tag_185:\n        /* \"#utility.yul\":4125:4128   */\n      dup3\n        /* \"#utility.yul\":4118:4152   */\n      mstore\n        /* \"#utility.yul\":4049:4158   */\n      pop\n      pop\n      jump\t// out\n        /* \"#utility.yul\":4164:4685   */\n    tag_28:\n        /* \"#utility.yul\":4327:4331   */\n      0x00\n        /* \"#utility.yul\":4365:4367   */\n      0x60\n        /* \"#utility.yul\":4354:4363   */\n      dup3\n        /* \"#utility.yul\":4350:4368   */\n      add\n        /* \"#utility.yul\":4342:4368   */\n      swap1\n      pop\n        /* \"#utility.yul\":4414:4423   */\n      dup2\n        /* \"#utility.yul\":4408:4412   */\n      dup2\n        /* \"#utility.yul\":4404:4424   */\n      sub\n        /* \"#utility.yul\":4400:4401   */\n      0x00\n        /* \"#utility.yul\":4389:4398   */\n      dup4\n        /* \"#utility.yul\":4385:4402   */\n      add\n        /* \"#utility.yul\":4378:4425   */\n      mstore\n        /* \"#utility.yul\":4442:4520   */\n      tag_187\n        /* \"#utility.yul\":4515:4519   */\n      dup2\n        /* \"#utility.yul\":4506:4512   */\n      dup7\n        /* \"#utility.yul\":4442:4520   */\n      tag_108\n      jump\t// in\n    tag_187:\n        /* \"#utility.yul\":4434:4520   */\n      swap1\n      pop\n        /* \"#utility.yul\":4530:4602   */\n      tag_188\n        /* \"#utility.yul\":4598:4600   */\n      0x20\n        /* \"#utility.yul\":4587:4596   */\n      dup4\n        /* \"#utility.yul\":4583:4601   */\n      add\n        /* \"#utility.yul\":4574:4580   */\n      dup6\n        /* \"#utility.yul\":4530:4602   */\n      tag_109\n      jump\t// in\n    tag_188:\n        /* \"#utility.yul\":4612:4678   */\n      tag_189\n        /* \"#utility.yul\":4674:4676   */\n      0x40\n        /* \"#utility.yul\":4663:4672   */\n      dup4\n        /* \"#utility.yul\":4659:4677   */\n      add\n        /* \"#utility.yul\":4650:4656   */\n      dup5\n        /* \"#utility.yul\":4612:4678   */\n      tag_116\n      jump\t// in\n    tag_189:\n        /* \"#utility.yul\":4164:4685   */\n      swap5\n      swap4\n      pop\n      pop\n      pop\n      pop\n      jump\t// out\n        /* \"#utility.yul\":4691:4808   */\n    tag_117:\n        /* \"#utility.yul\":4800:4801   */\n      0x00\n        /* \"#utility.yul\":4797:4798   */\n      dup1\n        /* \"#utility.yul\":4790:4802   */\n      revert\n        /* \"#utility.yul\":4814:4931   */\n    tag_118:\n        /* \"#utility.yul\":4923:4924   */\n      0x00\n        /* \"#utility.yul\":4920:4921   */\n      dup1\n        /* \"#utility.yul\":4913:4925   */\n      revert\n        /* \"#utility.yul\":4937:5117   */\n    tag_119:\n        /* \"#utility.yul\":4985:5062   */\n      0x4e487b7100000000000000000000000000000000000000000000000000000000\n        /* \"#utility.yul\":4982:4983   */\n      0x00\n        /* \"#utility.yul\":4975:5063   */\n      mstore\n        /* \"#utility.yul\":5082:5086   */\n      0x41\n        /* \"#utility.yul\":5079:5080   */\n      0x04\n        /* \"#utility.yul\":5072:5087   */\n      mstore\n        /* \"#utility.yul\":5106:5110   */\n      0x24\n        /* \"#utility.yul\":5103:5104   */\n      0x00\n        /* \"#utility.yul\":5096:5111   */\n      revert\n        /* \"#utility.yul\":5123:5404   */\n    tag_120:\n        /* \"#utility.yul\":5206:5233   */\n      tag_194\n        /* \"#utility.yul\":5228:5232   */\n      dup3\n        /* \"#utility.yul\":5206:5233   */\n      tag_107\n      jump\t// in\n    tag_194:\n        /* \"#utility.yul\":5198:5204   */\n      dup2\n        /* \"#utility.yul\":5194:5234   */\n      add\n        /* \"#utility.yul\":5336:5342   */\n      dup2\n        /* \"#utility.yul\":5324:5334   */\n      dup2\n        /* \"#utility.yul\":5321:5343   */\n      lt\n        /* \"#utility.yul\":5300:5318   */\n      0xffffffffffffffff\n        /* \"#utility.yul\":5288:5298   */\n      dup3\n        /* \"#utility.yul\":5285:5319   */\n      gt\n        /* \"#utility.yul\":5282:5344   */\n      or\n        /* \"#utility.yul\":5279:5367   */\n      iszero\n      tag_195\n      jumpi\n        /* \"#utility.yul\":5347:5365   */\n      tag_196\n      tag_119\n      jump\t// in\n    tag_196:\n        /* \"#utility.yul\":5279:5367   */\n    tag_195:\n        /* \"#utility.yul\":5387:5397   */\n      dup1\n        /* \"#utility.yul\":5383:5385   */\n      0x40\n        /* \"#utility.yul\":5376:5398   */\n      mstore\n        /* \"#utility.yul\":5166:5404   */\n      pop\n        /* \"#utility.yul\":5123:5404   */\n      pop\n      pop\n      jump\t// out\n        /* \"#utility.yul\":5410:5539   */\n    tag_121:\n        /* \"#utility.yul\":5444:5450   */\n      0x00\n        /* \"#utility.yul\":5471:5491   */\n      tag_198\n      tag_98\n      jump\t// in\n    tag_198:\n        /* \"#utility.yul\":5461:5491   */\n      swap1\n      pop\n        /* \"#utility.yul\":5500:5533   */\n      tag_199\n        /* \"#utility.yul\":5528:5532   */\n      dup3\n        /* \"#utility.yul\":5520:5526   */\n      dup3\n        /* \"#utility.yul\":5500:5533   */\n      tag_120\n      jump\t// in\n    tag_199:\n        /* \"#utility.yul\":5410:5539   */\n      swap2\n      swap1\n      pop\n      jump\t// out\n        /* \"#utility.yul\":5545:5853   */\n    tag_122:\n        /* \"#utility.yul\":5607:5611   */\n      0x00\n        /* \"#utility.yul\":5697:5715   */\n      0xffffffffffffffff\n        /* \"#utility.yul\":5689:5695   */\n      dup3\n        /* \"#utility.yul\":5686:5716   */\n      gt\n        /* \"#utility.yul\":5683:5739   */\n      iszero\n      tag_201\n      jumpi\n        /* \"#utility.yul\":5719:5737   */\n      tag_202\n      tag_119\n      jump\t// in\n    tag_202:\n        /* \"#utility.yul\":5683:5739   */\n    tag_201:\n        /* \"#utility.yul\":5757:5786   */\n      tag_203\n        /* \"#utility.yul\":5779:5785   */\n      dup3\n        /* \"#utility.yul\":5757:5786   */\n      tag_107\n      jump\t// in\n    tag_203:\n        /* \"#utility.yul\":5749:5786   */\n      swap1\n      pop\n        /* \"#utility.yul\":5841:5845   */\n      0x20\n        /* \"#utility.yul\":5835:5839   */\n      dup2\n        /* \"#utility.yul\":5831:5846   */\n      add\n        /* \"#utility.yul\":5823:5846   */\n      swap1\n      pop\n        /* \"#utility.yul\":5545:5853   */\n      swap2\n      swap1\n      pop\n      jump\t// out\n        /* \"#utility.yul\":5859:6013   */\n    tag_123:\n        /* \"#utility.yul\":5943:5949   */\n      dup3\n        /* \"#utility.yul\":5938:5941   */\n      dup2\n        /* \"#utility.yul\":5933:5936   */\n      dup4\n        /* \"#utility.yul\":5920:5950   */\n      calldatacopy\n        /* \"#utility.yul\":6005:6006   */\n      0x00\n        /* \"#utility.yul\":5996:6002   */\n      dup4\n        /* \"#utility.yul\":5991:5994   */\n      dup4\n        /* \"#utility.yul\":5987:6003   */\n      add\n        /* \"#utility.yul\":5980:6007   */\n      mstore\n        /* \"#utility.yul\":5859:6013   */\n      pop\n      pop\n      pop\n      jump\t// out\n        /* \"#utility.yul\":6019:6431   */\n    tag_124:\n        /* \"#utility.yul\":6097:6102   */\n      0x00\n        /* \"#utility.yul\":6122:6188   */\n      tag_206\n        /* \"#utility.yul\":6138:6187   */\n      tag_207\n        /* \"#utility.yul\":6180:6186   */\n      dup5\n        /* \"#utility.yul\":6138:6187   */\n      tag_122\n      jump\t// in\n    tag_207:\n        /* \"#utility.yul\":6122:6188   */\n      tag_121\n      jump\t// in\n    tag_206:\n        /* \"#utility.yul\":6113:6188   */\n      swap1\n      pop\n        /* \"#utility.yul\":6211:6217   */\n      dup3\n        /* \"#utility.yul\":6204:6209   */\n      dup2\n        /* \"#utility.yul\":6197:6218   */\n      mstore\n        /* \"#utility.yul\":6249:6253   */\n      0x20\n        /* \"#utility.yul\":6242:6247   */\n      dup2\n        /* \"#utility.yul\":6238:6254   */\n      add\n        /* \"#utility.yul\":6287:6290   */\n      dup5\n        /* \"#utility.yul\":6278:6284   */\n      dup5\n        /* \"#utility.yul\":6273:6276   */\n      dup5\n        /* \"#utility.yul\":6269:6285   */\n      add\n        /* \"#utility.yul\":6266:6291   */\n      gt\n        /* \"#utility.yul\":6263:6375   */\n      iszero\n      tag_208\n      jumpi\n        /* \"#utility.yul\":6294:6373   */\n      tag_209\n      tag_118\n      jump\t// in\n    tag_209:\n        /* \"#utility.yul\":6263:6375   */\n    tag_208:\n        /* \"#utility.yul\":6384:6425   */\n      tag_210\n        /* \"#utility.yul\":6418:6424   */\n      dup5\n        /* \"#utility.yul\":6413:6416   */\n      dup3\n        /* \"#utility.yul\":6408:6411   */\n      dup6\n        /* \"#utility.yul\":6384:6425   */\n      tag_123\n      jump\t// in\n    tag_210:\n        /* \"#utility.yul\":6103:6431   */\n      pop\n        /* \"#utility.yul\":6019:6431   */\n      swap4\n      swap3\n      pop\n      pop\n      pop\n      jump\t// out\n        /* \"#utility.yul\":6451:6791   */\n    tag_125:\n        /* \"#utility.yul\":6507:6512   */\n      0x00\n        /* \"#utility.yul\":6556:6559   */\n      dup3\n        /* \"#utility.yul\":6549:6553   */\n      0x1f\n        /* \"#utility.yul\":6541:6547   */\n      dup4\n        /* \"#utility.yul\":6537:6554   */\n      add\n        /* \"#utility.yul\":6533:6560   */\n      slt\n        /* \"#utility.yul\":6523:6645   */\n      tag_212\n      jumpi\n        /* \"#utility.yul\":6564:6643   */\n      tag_213\n      tag_117\n      jump\t// in\n    tag_213:\n        /* \"#utility.yul\":6523:6645   */\n    tag_212:\n        /* \"#utility.yul\":6681:6687   */\n      dup2\n        /* \"#utility.yul\":6668:6688   */\n      calldataload\n        /* \"#utility.yul\":6706:6785   */\n      tag_214\n        /* \"#utility.yul\":6781:6784   */\n      dup5\n        /* \"#utility.yul\":6773:6779   */\n      dup3\n        /* \"#utility.yul\":6766:6770   */\n      0x20\n        /* \"#utility.yul\":6758:6764   */\n      dup7\n        /* \"#utility.yul\":6754:6771   */\n      add\n        /* \"#utility.yul\":6706:6785   */\n      tag_124\n      jump\t// in\n    tag_214:\n        /* \"#utility.yul\":6697:6785   */\n      swap2\n      pop\n        /* \"#utility.yul\":6513:6791   */\n      pop\n        /* \"#utility.yul\":6451:6791   */\n      swap3\n      swap2\n      pop\n      pop\n      jump\t// out\n        /* \"#utility.yul\":6797:7451   */\n    tag_31:\n        /* \"#utility.yul\":6875:6881   */\n      0x00\n        /* \"#utility.yul\":6883:6889   */\n      dup1\n        /* \"#utility.yul\":6932:6934   */\n      0x40\n        /* \"#utility.yul\":6920:6929   */\n      dup4\n        /* \"#utility.yul\":6911:6918   */\n      dup6\n        /* \"#utility.yul\":6907:6930   */\n      sub\n        /* \"#utility.yul\":6903:6935   */\n      slt\n        /* \"#utility.yul\":6900:7019   */\n      iszero\n      tag_216\n      jumpi\n        /* \"#utility.yul\":6938:7017   */\n      tag_217\n      tag_99\n      jump\t// in\n    tag_217:\n        /* \"#utility.yul\":6900:7019   */\n    tag_216:\n        /* \"#utility.yul\":7086:7087   */\n      0x00\n        /* \"#utility.yul\":7075:7084   */\n      dup4\n        /* \"#utility.yul\":7071:7088   */\n      add\n        /* \"#utility.yul\":7058:7089   */\n      calldataload\n        /* \"#utility.yul\":7116:7134   */\n      0xffffffffffffffff\n        /* \"#utility.yul\":7108:7114   */\n      dup2\n        /* \"#utility.yul\":7105:7135   */\n      gt\n        /* \"#utility.yul\":7102:7219   */\n      iszero\n      tag_218\n      jumpi\n        /* \"#utility.yul\":7138:7217   */\n      tag_219\n      tag_100\n      jump\t// in\n    tag_219:\n        /* \"#utility.yul\":7102:7219   */\n    tag_218:\n        /* \"#utility.yul\":7243:7306   */\n      tag_220\n        /* \"#utility.yul\":7298:7305   */\n      dup6\n        /* \"#utility.yul\":7289:7295   */\n      dup3\n        /* \"#utility.yul\":7278:7287   */\n      dup7\n        /* \"#utility.yul\":7274:7296   */\n      add\n        /* \"#utility.yul\":7243:7306   */\n      tag_125\n      jump\t// in\n    tag_220:\n        /* \"#utility.yul\":7233:7306   */\n      swap3\n      pop\n        /* \"#utility.yul\":7029:7316   */\n      pop\n        /* \"#utility.yul\":7355:7357   */\n      0x20\n        /* \"#utility.yul\":7381:7434   */\n      tag_221\n        /* \"#utility.yul\":7426:7433   */\n      dup6\n        /* \"#utility.yul\":7417:7423   */\n      dup3\n        /* \"#utility.yul\":7406:7415   */\n      dup7\n        /* \"#utility.yul\":7402:7424   */\n      add\n        /* \"#utility.yul\":7381:7434   */\n      tag_103\n      jump\t// in\n    tag_221:\n        /* \"#utility.yul\":7371:7434   */\n      swap2\n      pop\n        /* \"#utility.yul\":7326:7444   */\n      pop\n        /* \"#utility.yul\":6797:7451   */\n      swap3\n      pop\n      swap3\n      swap1\n      pop\n      jump\t// out\n        /* \"#utility.yul\":7457:7679   */\n    tag_36:\n        /* \"#utility.yul\":7550:7554   */\n      0x00\n        /* \"#utility.yul\":7588:7590   */\n      0x20\n        /* \"#utility.yul\":7577:7586   */\n      dup3\n        /* \"#utility.yul\":7573:7591   */\n      add\n        /* \"#utility.yul\":7565:7591   */\n      swap1\n      pop\n        /* \"#utility.yul\":7601:7672   */\n      tag_223\n        /* \"#utility.yul\":7669:7670   */\n      0x00\n        /* \"#utility.yul\":7658:7667   */\n      dup4\n        /* \"#utility.yul\":7654:7671   */\n      add\n        /* \"#utility.yul\":7645:7651   */\n      dup5\n        /* \"#utility.yul\":7601:7672   */\n      tag_109\n      jump\t// in\n    tag_223:\n        /* \"#utility.yul\":7457:7679   */\n      swap3\n      swap2\n      pop\n      pop\n      jump\t// out\n        /* \"#utility.yul\":7685:7865   */\n    tag_126:\n        /* \"#utility.yul\":7733:7810   */\n      0x4e487b7100000000000000000000000000000000000000000000000000000000\n        /* \"#utility.yul\":7730:7731   */\n      0x00\n        /* \"#utility.yul\":7723:7811   */\n      mstore\n        /* \"#utility.yul\":7830:7834   */\n      0x22\n        /* \"#utility.yul\":7827:7828   */\n      0x04\n        /* \"#utility.yul\":7820:7835   */\n      mstore\n        /* \"#utility.yul\":7854:7858   */\n      0x24\n        /* \"#utility.yul\":7851:7852   */\n      0x00\n        /* \"#utility.yul\":7844:7859   */\n      revert\n        /* \"#utility.yul\":7871:8191   */\n    tag_41:\n        /* \"#utility.yul\":7915:7921   */\n      0x00\n        /* \"#utility.yul\":7952:7953   */\n      0x02\n        /* \"#utility.yul\":7946:7950   */\n      dup3\n        /* \"#utility.yul\":7942:7954   */\n      div\n        /* \"#utility.yul\":7932:7954   */\n      swap1\n      pop\n        /* \"#utility.yul\":7999:8000   */\n      0x01\n        /* \"#utility.yul\":7993:7997   */\n      dup3\n        /* \"#utility.yul\":7989:8001   */\n      and\n        /* \"#utility.yul\":8020:8038   */\n      dup1\n        /* \"#utility.yul\":8010:8091   */\n      tag_226\n      jumpi\n        /* \"#utility.yul\":8076:8080   */\n      0x7f\n        /* \"#utility.yul\":8068:8074   */\n      dup3\n        /* \"#utility.yul\":8064:8081   */\n      and\n        /* \"#utility.yul\":8054:8081   */\n      swap2\n      pop\n        /* \"#utility.yul\":8010:8091   */\n    tag_226:\n        /* \"#utility.yul\":8138:8140   */\n      0x20\n        /* \"#utility.yul\":8130:8136   */\n      dup3\n        /* \"#utility.yul\":8127:8141   */\n      lt\n        /* \"#utility.yul\":8107:8125   */\n      dup2\n        /* \"#utility.yul\":8104:8142   */\n      eq\n        /* \"#utility.yul\":8101:8185   */\n      iszero\n      tag_227\n      jumpi\n        /* \"#utility.yul\":8157:8175   */\n      tag_228\n      tag_126\n      jump\t// in\n    tag_228:\n        /* \"#utility.yul\":8101:8185   */\n    tag_227:\n        /* \"#utility.yul\":7922:8191   */\n      pop\n        /* \"#utility.yul\":7871:8191   */\n      swap2\n      swap1\n      pop\n      jump\t// out\n        /* \"#utility.yul\":8197:8369   */\n    tag_127:\n        /* \"#utility.yul\":8337:8361   */\n      0x796f75206861766520616c726561647920766f74656400000000000000000000\n        /* \"#utility.yul\":8333:8334   */\n      0x00\n        /* \"#utility.yul\":8325:8331   */\n      dup3\n        /* \"#utility.yul\":8321:8335   */\n      add\n        /* \"#utility.yul\":8314:8362   */\n      mstore\n        /* \"#utility.yul\":8197:8369   */\n      pop\n      jump\t// out\n        /* \"#utility.yul\":8375:8741   */\n    tag_128:\n        /* \"#utility.yul\":8517:8520   */\n      0x00\n        /* \"#utility.yul\":8538:8605   */\n      tag_231\n        /* \"#utility.yul\":8602:8604   */\n      0x16\n        /* \"#utility.yul\":8597:8600   */\n      dup4\n        /* \"#utility.yul\":8538:8605   */\n      tag_105\n      jump\t// in\n    tag_231:\n        /* \"#utility.yul\":8531:8605   */\n      swap2\n      pop\n        /* \"#utility.yul\":8614:8707   */\n      tag_232\n        /* \"#utility.yul\":8703:8706   */\n      dup3\n        /* \"#utility.yul\":8614:8707   */\n      tag_127\n      jump\t// in\n    tag_232:\n        /* \"#utility.yul\":8732:8734   */\n      0x20\n        /* \"#utility.yul\":8727:8730   */\n      dup3\n        /* \"#utility.yul\":8723:8735   */\n      add\n        /* \"#utility.yul\":8716:8735   */\n      swap1\n      pop\n        /* \"#utility.yul\":8375:8741   */\n      swap2\n      swap1\n      pop\n      jump\t// out\n        /* \"#utility.yul\":8747:9166   */\n    tag_61:\n        /* \"#utility.yul\":8913:8917   */\n      0x00\n        /* \"#utility.yul\":8951:8953   */\n      0x20\n        /* \"#utility.yul\":8940:8949   */\n      dup3\n        /* \"#utility.yul\":8936:8954   */\n      add\n        /* \"#utility.yul\":8928:8954   */\n      swap1\n      pop\n        /* \"#utility.yul\":9000:9009   */\n      dup2\n        /* \"#utility.yul\":8994:8998   */\n      dup2\n        /* \"#utility.yul\":8990:9010   */\n      sub\n        /* \"#utility.yul\":8986:8987   */\n      0x00\n        /* \"#utility.yul\":8975:8984   */\n      dup4\n        /* \"#utility.yul\":8971:8988   */\n      add\n        /* \"#utility.yul\":8964:9011   */\n      mstore\n        /* \"#utility.yul\":9028:9159   */\n      tag_234\n        /* \"#utility.yul\":9154:9158   */\n      dup2\n        /* \"#utility.yul\":9028:9159   */\n      tag_128\n      jump\t// in\n    tag_234:\n        /* \"#utility.yul\":9020:9159   */\n      swap1\n      pop\n        /* \"#utility.yul\":8747:9166   */\n      swap2\n      swap1\n      pop\n      jump\t// out\n        /* \"#utility.yul\":9172:9352   */\n    tag_129:\n        /* \"#utility.yul\":9220:9297   */\n      0x4e487b7100000000000000000000000000000000000000000000000000000000\n        /* \"#utility.yul\":9217:9218   */\n      0x00\n        /* \"#utility.yul\":9210:9298   */\n      mstore\n        /* \"#utility.yul\":9317:9321   */\n      0x11\n        /* \"#utility.yul\":9314:9315   */\n      0x04\n        /* \"#utility.yul\":9307:9322   */\n      mstore\n        /* \"#utility.yul\":9341:9345   */\n      0x24\n        /* \"#utility.yul\":9338:9339   */\n      0x00\n        /* \"#utility.yul\":9331:9346   */\n      revert\n        /* \"#utility.yul\":9358:9591   */\n    tag_65:\n        /* \"#utility.yul\":9397:9400   */\n      0x00\n        /* \"#utility.yul\":9420:9444   */\n      tag_237\n        /* \"#utility.yul\":9438:9443   */\n      dup3\n        /* \"#utility.yul\":9420:9444   */\n      tag_101\n      jump\t// in\n    tag_237:\n        /* \"#utility.yul\":9411:9444   */\n      swap2\n      pop\n        /* \"#utility.yul\":9466:9532   */\n      0xffffffffffffffffffffffffffffffffffffffffffffffffffffffffffffffff\n        /* \"#utility.yul\":9459:9464   */\n      dup3\n        /* \"#utility.yul\":9456:9533   */\n      eq\n        /* \"#utility.yul\":9453:9556   */\n      iszero\n      tag_238\n      jumpi\n        /* \"#utility.yul\":9536:9554   */\n      tag_239\n      tag_129\n      jump\t// in\n    tag_239:\n        /* \"#utility.yul\":9453:9556   */\n    tag_238:\n        /* \"#utility.yul\":9583:9584   */\n      0x01\n        /* \"#utility.yul\":9576:9581   */\n      dup3\n        /* \"#utility.yul\":9572:9585   */\n      add\n        /* \"#utility.yul\":9565:9585   */\n      swap1\n      pop\n        /* \"#utility.yul\":9358:9591   */\n      swap2\n      swap1\n      pop\n      jump\t// out\n        /* \"#utility.yul\":9597:9822   */\n    tag_130:\n        /* \"#utility.yul\":9737:9771   */\n      0x4f776e61626c653a206e6577206f776e657220697320746865207a65726f2061\n        /* \"#utility.yul\":9733:9734   */\n      0x00\n        /* \"#utility.yul\":9725:9731   */\n      dup3\n        /* \"#utility.yul\":9721:9735   */\n      add\n        /* \"#utility.yul\":9714:9772   */\n      mstore\n        /* \"#utility.yul\":9806:9814   */\n      0x6464726573730000000000000000000000000000000000000000000000000000\n        /* \"#utility.yul\":9801:9803   */\n      0x20\n        /* \"#utility.yul\":9793:9799   */\n      dup3\n        /* \"#utility.yul\":9789:9804   */\n      add\n        /* \"#utility.yul\":9782:9815   */\n      mstore\n        /* \"#utility.yul\":9597:9822   */\n      pop\n      jump\t// out\n        /* \"#utility.yul\":9828:10194   */\n    tag_131:\n        /* \"#utility.yul\":9970:9973   */\n      0x00\n        /* \"#utility.yul\":9991:10058   */\n      tag_242\n        /* \"#utility.yul\":10055:10057   */\n      0x26\n        /* \"#utility.yul\":10050:10053   */\n      dup4\n        /* \"#utility.yul\":9991:10058   */\n      tag_105\n      jump\t// in\n    tag_242:\n        /* \"#utility.yul\":9984:10058   */\n      swap2\n      pop\n        /* \"#utility.yul\":10067:10160   */\n      tag_243\n        /* \"#utility.yul\":10156:10159   */\n      dup3\n        /* \"#utility.yul\":10067:10160   */\n      tag_130\n      jump\t// in\n    tag_243:\n        /* \"#utility.yul\":10185:10187   */\n      0x40\n        /* \"#utility.yul\":10180:10183   */\n      dup3\n        /* \"#utility.yul\":10176:10188   */\n      add\n        /* \"#utility.yul\":10169:10188   */\n      swap1\n      pop\n        /* \"#utility.yul\":9828:10194   */\n      swap2\n      swap1\n      pop\n      jump\t// out\n        /* \"#utility.yul\":10200:10619   */\n    tag_77:\n        /* \"#utility.yul\":10366:10370   */\n      0x00\n        /* \"#utility.yul\":10404:10406   */\n      0x20\n        /* \"#utility.yul\":10393:10402   */\n      dup3\n        /* \"#utility.yul\":10389:10407   */\n      add\n        /* \"#utility.yul\":10381:10407   */\n      swap1\n      pop\n        /* \"#utility.yul\":10453:10462   */\n      dup2\n        /* \"#utility.yul\":10447:10451   */\n      dup2\n        /* \"#utility.yul\":10443:10463   */\n      sub\n        /* \"#utility.yul\":10439:10440   */\n      0x00\n        /* \"#utility.yul\":10428:10437   */\n      dup4\n        /* \"#utility.yul\":10424:10441   */\n      add\n        /* \"#utility.yul\":10417:10464   */\n      mstore\n        /* \"#utility.yul\":10481:10612   */\n      tag_245\n        /* \"#utility.yul\":10607:10611   */\n      dup2\n        /* \"#utility.yul\":10481:10612   */\n      tag_131\n      jump\t// in\n    tag_245:\n        /* \"#utility.yul\":10473:10612   */\n      swap1\n      pop\n        /* \"#utility.yul\":10200:10619   */\n      swap2\n      swap1\n      pop\n      jump\t// out\n        /* \"#utility.yul\":10625:10807   */\n    tag_132:\n        /* \"#utility.yul\":10765:10799   */\n      0x4f776e61626c653a2063616c6c6572206973206e6f7420746865206f776e6572\n        /* \"#utility.yul\":10761:10762   */\n      0x00\n        /* \"#utility.yul\":10753:10759   */\n      dup3\n        /* \"#utility.yul\":10749:10763   */\n      add\n        /* \"#utility.yul\":10742:10800   */\n      mstore\n        /* \"#utility.yul\":10625:10807   */\n      pop\n      jump\t// out\n        /* \"#utility.yul\":10813:11179   */\n    tag_133:\n        /* \"#utility.yul\":10955:10958   */\n      0x00\n        /* \"#utility.yul\":10976:11043   */\n      tag_248\n        /* \"#utility.yul\":11040:11042   */\n      0x20\n        /* \"#utility.yul\":11035:11038   */\n      dup4\n        /* \"#utility.yul\":10976:11043   */\n      tag_105\n      jump\t// in\n    tag_248:\n        /* \"#utility.yul\":10969:11043   */\n      swap2\n      pop\n        /* \"#utility.yul\":11052:11145   */\n      tag_249\n        /* \"#utility.yul\":11141:11144   */\n      dup3\n        /* \"#utility.yul\":11052:11145   */\n      tag_132\n      jump\t// in\n    tag_249:\n        /* \"#utility.yul\":11170:11172   */\n      0x20\n        /* \"#utility.yul\":11165:11168   */\n      dup3\n        /* \"#utility.yul\":11161:11173   */\n      add\n        /* \"#utility.yul\":11154:11173   */\n      swap1\n      pop\n        /* \"#utility.yul\":10813:11179   */\n      swap2\n      swap1\n      pop\n      jump\t// out\n        /* \"#utility.yul\":11185:11604   */\n    tag_85:\n        /* \"#utility.yul\":11351:11355   */\n      0x00\n        /* \"#utility.yul\":11389:11391   */\n      0x20\n        /* \"#utility.yul\":11378:11387   */\n      dup3\n        /* \"#utility.yul\":11374:11392   */\n      add\n        /* \"#utility.yul\":11366:11392   */\n      swap1\n      pop\n        /* \"#utility.yul\":11438:11447   */\n      dup2\n        /* \"#utility.yul\":11432:11436   */\n      dup2\n        /* \"#utility.yul\":11428:11448   */\n      sub\n        /* \"#utility.yul\":11424:11425   */\n      0x00\n        /* \"#utility.yul\":11413:11422   */\n      dup4\n        /* \"#utility.yul\":11409:11426   */\n      add\n        /* \"#utility.yul\":11402:11449   */\n      mstore\n        /* \"#utility.yul\":11466:11597   */\n      tag_251\n        /* \"#utility.yul\":11592:11596   */\n      dup2\n        /* \"#utility.yul\":11466:11597   */\n      tag_133\n      jump\t// in\n    tag_251:\n        /* \"#utility.yul\":11458:11597   */\n      swap1\n      pop\n        /* \"#utility.yul\":11185:11604   */\n      swap2\n      swap1\n      pop\n      jump\t// out\n\n    auxdata: 0xa264697066735822122074352af517636c8d9eed6cd69a37ff78163b41537db5bcc61ad645dd0e978ff764736f6c634300080a0033\n}\n",
				"bytecode": {
					"linkReferences": {},
					"object": "60806040523480156200001157600080fd5b5062000032620000266200017060201b60201c565b6200017860201b60201c565b60405180606001604052806040518060400160405280600581526020017f526168756c000000000000000000000000000000000000000000000000000000815250815260200160018152602001600081525060016000600181526020019081526020016000206000820151816000019080519060200190620000b69291906200023c565b50602082015181600101556040820151816002015590505060405180606001604052806040518060400160405280600581526020017f5072697961000000000000000000000000000000000000000000000000000000815250815260200160028152602001600081525060016000600281526020019081526020016000206000820151816000019080519060200190620001529291906200023c565b50602082015181600101556040820151816002015590505062000351565b600033905090565b60008060009054906101000a900473ffffffffffffffffffffffffffffffffffffffff169050816000806101000a81548173ffffffffffffffffffffffffffffffffffffffff021916908373ffffffffffffffffffffffffffffffffffffffff1602179055508173ffffffffffffffffffffffffffffffffffffffff168173ffffffffffffffffffffffffffffffffffffffff167f8be0079c531659141344cd1fd0a4f28419497f9722a3daafe3b4186f6b6457e060405160405180910390a35050565b8280546200024a906200031b565b90600052602060002090601f0160209004810192826200026e5760008555620002ba565b82601f106200028957805160ff1916838001178555620002ba565b82800160010185558215620002ba579182015b82811115620002b95782518255916020019190600101906200029c565b5b509050620002c99190620002cd565b5090565b5b80821115620002e8576000816000905550600101620002ce565b5090565b7f4e487b7100000000000000000000000000000000000000000000000000000000600052602260045260246000fd5b600060028204905060018216806200033457607f821691505b602082108114156200034b576200034a620002ec565b5b50919050565b610e1e80620003616000396000f3fe608060405234801561001057600080fd5b506004361061007d5760003560e01c8063a3ec138d1161005b578063a3ec138d146100dc578063a63858031461010e578063e7bb7cbe1461012a578063f2fde38b146101485761007d565b80633477ee2e14610082578063715018a6146100b45780638da5cb5b146100be575b600080fd5b61009c600480360381019061009791906107d8565b610164565b6040516100ab939291906108ad565b60405180910390f35b6100bc610216565b005b6100c661022a565b6040516100d3919061092c565b60405180910390f35b6100f660048036038101906100f19190610973565b610253565b604051610105939291906109bb565b60405180910390f35b61012860048036038101906101239190610b2e565b610312565b005b61013261047f565b60405161013f9190610b8a565b60405180910390f35b610162600480360381019061015d9190610973565b61051d565b005b600160205280600052604060002060009150905080600001805461018790610bd4565b80601f01602080910402602001604051908101604052809291908181526020018280546101b390610bd4565b80156102005780601f106101d557610100808354040283529160200191610200565b820191906000526020600020905b8154815290600101906020018083116101e357829003601f168201915b5050505050908060010154908060020154905083565b61021e6105a1565b610228600061061f565b565b60008060009054906101000a900473ffffffffffffffffffffffffffffffffffffffff16905090565b600260205280600052604060002060009150905080600001805461027690610bd4565b80601f01602080910402602001604051908101604052809291908181526020018280546102a290610bd4565b80156102ef5780601f106102c4576101008083540402835291602001916102ef565b820191906000526020600020905b8154815290600101906020018083116102d257829003601f168201915b5050505050908060010154908060020160009054906101000a900460ff16905083565b60001515600260003373ffffffffffffffffffffffffffffffffffffffff1673ffffffffffffffffffffffffffffffffffffffff16815260200190815260200160002060020160009054906101000a900460ff161515146103a8576040517f08c379a000000000000000000000000000000000000000000000000000000000815260040161039f90610c52565b60405180910390fd5b604051806060016040528083815260200182815260200160011515815250600260003373ffffffffffffffffffffffffffffffffffffffff1673ffffffffffffffffffffffffffffffffffffffff16815260200190815260200160002060008201518160000190805190602001906104219291906106eb565b506020820151816001015560408201518160020160006101000a81548160ff02191690831515021790555090505060016000828152602001908152602001600020600201600081548092919061047690610ca1565b91905055505050565b60006104896105a1565b6000600160006001815260200190815260200160002060020154905060006001600060028152602001908152602001600020600201549050808211156104ea576001600060018152602001908152602001600020600101549250505061051a565b81811115610513576001600060028152602001908152602001600020600101549250505061051a565b6000925050505b90565b6105256105a1565b600073ffffffffffffffffffffffffffffffffffffffff168173ffffffffffffffffffffffffffffffffffffffff161415610595576040517f08c379a000000000000000000000000000000000000000000000000000000000815260040161058c90610d5c565b60405180910390fd5b61059e8161061f565b50565b6105a96106e3565b73ffffffffffffffffffffffffffffffffffffffff166105c761022a565b73ffffffffffffffffffffffffffffffffffffffff161461061d576040517f08c379a000000000000000000000000000000000000000000000000000000000815260040161061490610dc8565b60405180910390fd5b565b60008060009054906101000a900473ffffffffffffffffffffffffffffffffffffffff169050816000806101000a81548173ffffffffffffffffffffffffffffffffffffffff021916908373ffffffffffffffffffffffffffffffffffffffff1602179055508173ffffffffffffffffffffffffffffffffffffffff168173ffffffffffffffffffffffffffffffffffffffff167f8be0079c531659141344cd1fd0a4f28419497f9722a3daafe3b4186f6b6457e060405160405180910390a35050565b600033905090565b8280546106f790610bd4565b90600052602060002090601f0160209004810192826107195760008555610760565b82601f1061073257805160ff1916838001178555610760565b82800160010185558215610760579182015b8281111561075f578251825591602001919060010190610744565b5b50905061076d9190610771565b5090565b5b8082111561078a576000816000905550600101610772565b5090565b6000604051905090565b600080fd5b600080fd5b6000819050919050565b6107b5816107a2565b81146107c057600080fd5b50565b6000813590506107d2816107ac565b92915050565b6000602082840312156107ee576107ed610798565b5b60006107fc848285016107c3565b91505092915050565b600081519050919050565b600082825260208201905092915050565b60005b8381101561083f578082015181840152602081019050610824565b8381111561084e576000848401525b50505050565b6000601f19601f8301169050919050565b600061087082610805565b61087a8185610810565b935061088a818560208601610821565b61089381610854565b840191505092915050565b6108a7816107a2565b82525050565b600060608201905081810360008301526108c78186610865565b90506108d6602083018561089e565b6108e3604083018461089e565b949350505050565b600073ffffffffffffffffffffffffffffffffffffffff82169050919050565b6000610916826108eb565b9050919050565b6109268161090b565b82525050565b6000602082019050610941600083018461091d565b92915050565b6109508161090b565b811461095b57600080fd5b50565b60008135905061096d81610947565b92915050565b60006020828403121561098957610988610798565b5b60006109978482850161095e565b91505092915050565b60008115159050919050565b6109b5816109a0565b82525050565b600060608201905081810360008301526109d58186610865565b90506109e4602083018561089e565b6109f160408301846109ac565b949350505050565b600080fd5b600080fd5b7f4e487b7100000000000000000000000000000000000000000000000000000000600052604160045260246000fd5b610a3b82610854565b810181811067ffffffffffffffff82111715610a5a57610a59610a03565b5b80604052505050565b6000610a6d61078e565b9050610a798282610a32565b919050565b600067ffffffffffffffff821115610a9957610a98610a03565b5b610aa282610854565b9050602081019050919050565b82818337600083830152505050565b6000610ad1610acc84610a7e565b610a63565b905082815260208101848484011115610aed57610aec6109fe565b5b610af8848285610aaf565b509392505050565b600082601f830112610b1557610b146109f9565b5b8135610b25848260208601610abe565b91505092915050565b60008060408385031215610b4557610b44610798565b5b600083013567ffffffffffffffff811115610b6357610b6261079d565b5b610b6f85828601610b00565b9250506020610b80858286016107c3565b9150509250929050565b6000602082019050610b9f600083018461089e565b92915050565b7f4e487b7100000000000000000000000000000000000000000000000000000000600052602260045260246000fd5b60006002820490506001821680610bec57607f821691505b60208210811415610c0057610bff610ba5565b5b50919050565b7f796f75206861766520616c726561647920766f74656400000000000000000000600082015250565b6000610c3c601683610810565b9150610c4782610c06565b602082019050919050565b60006020820190508181036000830152610c6b81610c2f565b9050919050565b7f4e487b7100000000000000000000000000000000000000000000000000000000600052601160045260246000fd5b6000610cac826107a2565b91507fffffffffffffffffffffffffffffffffffffffffffffffffffffffffffffffff821415610cdf57610cde610c72565b5b600182019050919050565b7f4f776e61626c653a206e6577206f776e657220697320746865207a65726f206160008201527f6464726573730000000000000000000000000000000000000000000000000000602082015250565b6000610d46602683610810565b9150610d5182610cea565b604082019050919050565b60006020820190508181036000830152610d7581610d39565b9050919050565b7f4f776e61626c653a2063616c6c6572206973206e6f7420746865206f776e6572600082015250565b6000610db2602083610810565b9150610dbd82610d7c565b602082019050919050565b60006020820190508181036000830152610de181610da5565b905091905056fea264697066735822122074352af517636c8d9eed6cd69a37ff78163b41537db5bcc61ad645dd0e978ff764736f6c634300080a0033",
					"opcodes": "PUSH1 0x80 PUSH1 0x40 MSTORE CALLVALUE DUP1 ISZERO PUSH3 0x11 JUMPI PUSH1 0x0 DUP1 REVERT JUMPDEST POP PUSH3 0x32 PUSH3 0x26 PUSH3 0x170 PUSH1 0x20 SHL PUSH1 0x20 SHR JUMP JUMPDEST PUSH3 0x178 PUSH1 0x20 SHL PUSH1 0x20 SHR JUMP JUMPDEST PUSH1 0x40 MLOAD DUP1 PUSH1 0x60 ADD PUSH1 0x40 MSTORE DUP1 PUSH1 0x40 MLOAD DUP1 PUSH1 0x40 ADD PUSH1 0x40 MSTORE DUP1 PUSH1 0x5 DUP2 MSTORE PUSH1 0x20 ADD PUSH32 0x526168756C000000000000000000000000000000000000000000000000000000 DUP2 MSTORE POP DUP2 MSTORE PUSH1 0x20 ADD PUSH1 0x1 DUP2 MSTORE PUSH1 0x20 ADD PUSH1 0x0 DUP2 MSTORE POP PUSH1 0x1 PUSH1 0x0 PUSH1 0x1 DUP2 MSTORE PUSH1 0x20 ADD SWAP1 DUP2 MSTORE PUSH1 0x20 ADD PUSH1 0x0 KECCAK256 PUSH1 0x0 DUP3 ADD MLOAD DUP2 PUSH1 0x0 ADD SWAP1 DUP1 MLOAD SWAP1 PUSH1 0x20 ADD SWAP1 PUSH3 0xB6 SWAP3 SWAP2 SWAP1 PUSH3 0x23C JUMP JUMPDEST POP PUSH1 0x20 DUP3 ADD MLOAD DUP2 PUSH1 0x1 ADD SSTORE PUSH1 0x40 DUP3 ADD MLOAD DUP2 PUSH1 0x2 ADD SSTORE SWAP1 POP POP PUSH1 0x40 MLOAD DUP1 PUSH1 0x60 ADD PUSH1 0x40 MSTORE DUP1 PUSH1 0x40 MLOAD DUP1 PUSH1 0x40 ADD PUSH1 0x40 MSTORE DUP1 PUSH1 0x5 DUP2 MSTORE PUSH1 0x20 ADD PUSH32 0x5072697961000000000000000000000000000000000000000000000000000000 DUP2 MSTORE POP DUP2 MSTORE PUSH1 0x20 ADD PUSH1 0x2 DUP2 MSTORE PUSH1 0x20 ADD PUSH1 0x0 DUP2 MSTORE POP PUSH1 0x1 PUSH1 0x0 PUSH1 0x2 DUP2 MSTORE PUSH1 0x20 ADD SWAP1 DUP2 MSTORE PUSH1 0x20 ADD PUSH1 0x0 KECCAK256 PUSH1 0x0 DUP3 ADD MLOAD DUP2 PUSH1 0x0 ADD SWAP1 DUP1 MLOAD SWAP1 PUSH1 0x20 ADD SWAP1 PUSH3 0x152 SWAP3 SWAP2 SWAP1 PUSH3 0x23C JUMP JUMPDEST POP PUSH1 0x20 DUP3 ADD MLOAD DUP2 PUSH1 0x1 ADD SSTORE PUSH1 0x40 DUP3 ADD MLOAD DUP2 PUSH1 0x2 ADD SSTORE SWAP1 POP POP PUSH3 0x351 JUMP JUMPDEST PUSH1 0x0 CALLER SWAP1 POP SWAP1 JUMP JUMPDEST PUSH1 0x0 DUP1 PUSH1 0x0 SWAP1 SLOAD SWAP1 PUSH2 0x100 EXP SWAP1 DIV PUSH20 0xFFFFFFFFFFFFFFFFFFFFFFFFFFFFFFFFFFFFFFFF AND SWAP1 POP DUP2 PUSH1 0x0 DUP1 PUSH2 0x100 EXP DUP2 SLOAD DUP2 PUSH20 0xFFFFFFFFFFFFFFFFFFFFFFFFFFFFFFFFFFFFFFFF MUL NOT AND SWAP1 DUP4 PUSH20 0xFFFFFFFFFFFFFFFFFFFFFFFFFFFFFFFFFFFFFFFF AND MUL OR SWAP1 SSTORE POP DUP2 PUSH20 0xFFFFFFFFFFFFFFFFFFFFFFFFFFFFFFFFFFFFFFFF AND DUP2 PUSH20 0xFFFFFFFFFFFFFFFFFFFFFFFFFFFFFFFFFFFFFFFF AND PUSH32 0x8BE0079C531659141344CD1FD0A4F28419497F9722A3DAAFE3B4186F6B6457E0 PUSH1 0x40 MLOAD PUSH1 0x40 MLOAD DUP1 SWAP2 SUB SWAP1 LOG3 POP POP JUMP JUMPDEST DUP3 DUP1 SLOAD PUSH3 0x24A SWAP1 PUSH3 0x31B JUMP JUMPDEST SWAP1 PUSH1 0x0 MSTORE PUSH1 0x20 PUSH1 0x0 KECCAK256 SWAP1 PUSH1 0x1F ADD PUSH1 0x20 SWAP1 DIV DUP2 ADD SWAP3 DUP3 PUSH3 0x26E JUMPI PUSH1 0x0 DUP6 SSTORE PUSH3 0x2BA JUMP JUMPDEST DUP3 PUSH1 0x1F LT PUSH3 0x289 JUMPI DUP1 MLOAD PUSH1 0xFF NOT AND DUP4 DUP1 ADD OR DUP6 SSTORE PUSH3 0x2BA JUMP JUMPDEST DUP3 DUP1 ADD PUSH1 0x1 ADD DUP6 SSTORE DUP3 ISZERO PUSH3 0x2BA JUMPI SWAP2 DUP3 ADD JUMPDEST DUP3 DUP2 GT ISZERO PUSH3 0x2B9 JUMPI DUP3 MLOAD DUP3 SSTORE SWAP2 PUSH1 0x20 ADD SWAP2 SWAP1 PUSH1 0x1 ADD SWAP1 PUSH3 0x29C JUMP JUMPDEST JUMPDEST POP SWAP1 POP PUSH3 0x2C9 SWAP2 SWAP1 PUSH3 0x2CD JUMP JUMPDEST POP SWAP1 JUMP JUMPDEST JUMPDEST DUP1 DUP3 GT ISZERO PUSH3 0x2E8 JUMPI PUSH1 0x0 DUP2 PUSH1 0x0 SWAP1 SSTORE POP PUSH1 0x1 ADD PUSH3 0x2CE JUMP JUMPDEST POP SWAP1 JUMP JUMPDEST PUSH32 0x4E487B7100000000000000000000000000000000000000000000000000000000 PUSH1 0x0 MSTORE PUSH1 0x22 PUSH1 0x4 MSTORE PUSH1 0x24 PUSH1 0x0 REVERT JUMPDEST PUSH1 0x0 PUSH1 0x2 DUP3 DIV SWAP1 POP PUSH1 0x1 DUP3 AND DUP1 PUSH3 0x334 JUMPI PUSH1 0x7F DUP3 AND SWAP2 POP JUMPDEST PUSH1 0x20 DUP3 LT DUP2 EQ ISZERO PUSH3 0x34B JUMPI PUSH3 0x34A PUSH3 0x2EC JUMP JUMPDEST JUMPDEST POP SWAP2 SWAP1 POP JUMP JUMPDEST PUSH2 0xE1E DUP1 PUSH3 0x361 PUSH1 0x0 CODECOPY PUSH1 0x0 RETURN INVALID PUSH1 0x80 PUSH1 0x40 MSTORE CALLVALUE DUP1 ISZERO PUSH2 0x10 JUMPI PUSH1 0x0 DUP1 REVERT JUMPDEST POP PUSH1 0x4 CALLDATASIZE LT PUSH2 0x7D JUMPI PUSH1 0x0 CALLDATALOAD PUSH1 0xE0 SHR DUP1 PUSH4 0xA3EC138D GT PUSH2 0x5B JUMPI DUP1 PUSH4 0xA3EC138D EQ PUSH2 0xDC JUMPI DUP1 PUSH4 0xA6385803 EQ PUSH2 0x10E JUMPI DUP1 PUSH4 0xE7BB7CBE EQ PUSH2 0x12A JUMPI DUP1 PUSH4 0xF2FDE38B EQ PUSH2 0x148 JUMPI PUSH2 0x7D JUMP JUMPDEST DUP1 PUSH4 0x3477EE2E EQ PUSH2 0x82 JUMPI DUP1 PUSH4 0x715018A6 EQ PUSH2 0xB4 JUMPI DUP1 PUSH4 0x8DA5CB5B EQ PUSH2 0xBE JUMPI JUMPDEST PUSH1 0x0 DUP1 REVERT JUMPDEST PUSH2 0x9C PUSH1 0x4 DUP1 CALLDATASIZE SUB DUP2 ADD SWAP1 PUSH2 0x97 SWAP2 SWAP1 PUSH2 0x7D8 JUMP JUMPDEST PUSH2 0x164 JUMP JUMPDEST PUSH1 0x40 MLOAD PUSH2 0xAB SWAP4 SWAP3 SWAP2 SWAP1 PUSH2 0x8AD JUMP JUMPDEST PUSH1 0x40 MLOAD DUP1 SWAP2 SUB SWAP1 RETURN JUMPDEST PUSH2 0xBC PUSH2 0x216 JUMP JUMPDEST STOP JUMPDEST PUSH2 0xC6 PUSH2 0x22A JUMP JUMPDEST PUSH1 0x40 MLOAD PUSH2 0xD3 SWAP2 SWAP1 PUSH2 0x92C JUMP JUMPDEST PUSH1 0x40 MLOAD DUP1 SWAP2 SUB SWAP1 RETURN JUMPDEST PUSH2 0xF6 PUSH1 0x4 DUP1 CALLDATASIZE SUB DUP2 ADD SWAP1 PUSH2 0xF1 SWAP2 SWAP1 PUSH2 0x973 JUMP JUMPDEST PUSH2 0x253 JUMP JUMPDEST PUSH1 0x40 MLOAD PUSH2 0x105 SWAP4 SWAP3 SWAP2 SWAP1 PUSH2 0x9BB JUMP JUMPDEST PUSH1 0x40 MLOAD DUP1 SWAP2 SUB SWAP1 RETURN JUMPDEST PUSH2 0x128 PUSH1 0x4 DUP1 CALLDATASIZE SUB DUP2 ADD SWAP1 PUSH2 0x123 SWAP2 SWAP1 PUSH2 0xB2E JUMP JUMPDEST PUSH2 0x312 JUMP JUMPDEST STOP JUMPDEST PUSH2 0x132 PUSH2 0x47F JUMP JUMPDEST PUSH1 0x40 MLOAD PUSH2 0x13F SWAP2 SWAP1 PUSH2 0xB8A JUMP JUMPDEST PUSH1 0x40 MLOAD DUP1 SWAP2 SUB SWAP1 RETURN JUMPDEST PUSH2 0x162 PUSH1 0x4 DUP1 CALLDATASIZE SUB DUP2 ADD SWAP1 PUSH2 0x15D SWAP2 SWAP1 PUSH2 0x973 JUMP JUMPDEST PUSH2 0x51D JUMP JUMPDEST STOP JUMPDEST PUSH1 0x1 PUSH1 0x20 MSTORE DUP1 PUSH1 0x0 MSTORE PUSH1 0x40 PUSH1 0x0 KECCAK256 PUSH1 0x0 SWAP2 POP SWAP1 POP DUP1 PUSH1 0x0 ADD DUP1 SLOAD PUSH2 0x187 SWAP1 PUSH2 0xBD4 JUMP JUMPDEST DUP1 PUSH1 0x1F ADD PUSH1 0x20 DUP1 SWAP2 DIV MUL PUSH1 0x20 ADD PUSH1 0x40 MLOAD SWAP1 DUP2 ADD PUSH1 0x40 MSTORE DUP1 SWAP3 SWAP2 SWAP1 DUP2 DUP2 MSTORE PUSH1 0x20 ADD DUP3 DUP1 SLOAD PUSH2 0x1B3 SWAP1 PUSH2 0xBD4 JUMP JUMPDEST DUP1 ISZERO PUSH2 0x200 JUMPI DUP1 PUSH1 0x1F LT PUSH2 0x1D5 JUMPI PUSH2 0x100 DUP1 DUP4 SLOAD DIV MUL DUP4 MSTORE SWAP2 PUSH1 0x20 ADD SWAP2 PUSH2 0x200 JUMP JUMPDEST DUP3 ADD SWAP2 SWAP1 PUSH1 0x0 MSTORE PUSH1 0x20 PUSH1 0x0 KECCAK256 SWAP1 JUMPDEST DUP2 SLOAD DUP2 MSTORE SWAP1 PUSH1 0x1 ADD SWAP1 PUSH1 0x20 ADD DUP1 DUP4 GT PUSH2 0x1E3 JUMPI DUP3 SWAP1 SUB PUSH1 0x1F AND DUP3 ADD SWAP2 JUMPDEST POP POP POP POP POP SWAP1 DUP1 PUSH1 0x1 ADD SLOAD SWAP1 DUP1 PUSH1 0x2 ADD SLOAD SWAP1 POP DUP4 JUMP JUMPDEST PUSH2 0x21E PUSH2 0x5A1 JUMP JUMPDEST PUSH2 0x228 PUSH1 0x0 PUSH2 0x61F JUMP JUMPDEST JUMP JUMPDEST PUSH1 0x0 DUP1 PUSH1 0x0 SWAP1 SLOAD SWAP1 PUSH2 0x100 EXP SWAP1 DIV PUSH20 0xFFFFFFFFFFFFFFFFFFFFFFFFFFFFFFFFFFFFFFFF AND SWAP1 POP SWAP1 JUMP JUMPDEST PUSH1 0x2 PUSH1 0x20 MSTORE DUP1 PUSH1 0x0 MSTORE PUSH1 0x40 PUSH1 0x0 KECCAK256 PUSH1 0x0 SWAP2 POP SWAP1 POP DUP1 PUSH1 0x0 ADD DUP1 SLOAD PUSH2 0x276 SWAP1 PUSH2 0xBD4 JUMP JUMPDEST DUP1 PUSH1 0x1F ADD PUSH1 0x20 DUP1 SWAP2 DIV MUL PUSH1 0x20 ADD PUSH1 0x40 MLOAD SWAP1 DUP2 ADD PUSH1 0x40 MSTORE DUP1 SWAP3 SWAP2 SWAP1 DUP2 DUP2 MSTORE PUSH1 0x20 ADD DUP3 DUP1 SLOAD PUSH2 0x2A2 SWAP1 PUSH2 0xBD4 JUMP JUMPDEST DUP1 ISZERO PUSH2 0x2EF JUMPI DUP1 PUSH1 0x1F LT PUSH2 0x2C4 JUMPI PUSH2 0x100 DUP1 DUP4 SLOAD DIV MUL DUP4 MSTORE SWAP2 PUSH1 0x20 ADD SWAP2 PUSH2 0x2EF JUMP JUMPDEST DUP3 ADD SWAP2 SWAP1 PUSH1 0x0 MSTORE PUSH1 0x20 PUSH1 0x0 KECCAK256 SWAP1 JUMPDEST DUP2 SLOAD DUP2 MSTORE SWAP1 PUSH1 0x1 ADD SWAP1 PUSH1 0x20 ADD DUP1 DUP4 GT PUSH2 0x2D2 JUMPI DUP3 SWAP1 SUB PUSH1 0x1F AND DUP3 ADD SWAP2 JUMPDEST POP POP POP POP POP SWAP1 DUP1 PUSH1 0x1 ADD SLOAD SWAP1 DUP1 PUSH1 0x2 ADD PUSH1 0x0 SWAP1 SLOAD SWAP1 PUSH2 0x100 EXP SWAP1 DIV PUSH1 0xFF AND SWAP1 POP DUP4 JUMP JUMPDEST PUSH1 0x0 ISZERO ISZERO PUSH1 0x2 PUSH1 0x0 CALLER PUSH20 0xFFFFFFFFFFFFFFFFFFFFFFFFFFFFFFFFFFFFFFFF AND PUSH20 0xFFFFFFFFFFFFFFFFFFFFFFFFFFFFFFFFFFFFFFFF AND DUP2 MSTORE PUSH1 0x20 ADD SWAP1 DUP2 MSTORE PUSH1 0x20 ADD PUSH1 0x0 KECCAK256 PUSH1 0x2 ADD PUSH1 0x0 SWAP1 SLOAD SWAP1 PUSH2 0x100 EXP SWAP1 DIV PUSH1 0xFF AND ISZERO ISZERO EQ PUSH2 0x3A8 JUMPI PUSH1 0x40 MLOAD PUSH32 0x8C379A000000000000000000000000000000000000000000000000000000000 DUP2 MSTORE PUSH1 0x4 ADD PUSH2 0x39F SWAP1 PUSH2 0xC52 JUMP JUMPDEST PUSH1 0x40 MLOAD DUP1 SWAP2 SUB SWAP1 REVERT JUMPDEST PUSH1 0x40 MLOAD DUP1 PUSH1 0x60 ADD PUSH1 0x40 MSTORE DUP1 DUP4 DUP2 MSTORE PUSH1 0x20 ADD DUP3 DUP2 MSTORE PUSH1 0x20 ADD PUSH1 0x1 ISZERO ISZERO DUP2 MSTORE POP PUSH1 0x2 PUSH1 0x0 CALLER PUSH20 0xFFFFFFFFFFFFFFFFFFFFFFFFFFFFFFFFFFFFFFFF AND PUSH20 0xFFFFFFFFFFFFFFFFFFFFFFFFFFFFFFFFFFFFFFFF AND DUP2 MSTORE PUSH1 0x20 ADD SWAP1 DUP2 MSTORE PUSH1 0x20 ADD PUSH1 0x0 KECCAK256 PUSH1 0x0 DUP3 ADD MLOAD DUP2 PUSH1 0x0 ADD SWAP1 DUP1 MLOAD SWAP1 PUSH1 0x20 ADD SWAP1 PUSH2 0x421 SWAP3 SWAP2 SWAP1 PUSH2 0x6EB JUMP JUMPDEST POP PUSH1 0x20 DUP3 ADD MLOAD DUP2 PUSH1 0x1 ADD SSTORE PUSH1 0x40 DUP3 ADD MLOAD DUP2 PUSH1 0x2 ADD PUSH1 0x0 PUSH2 0x100 EXP DUP2 SLOAD DUP2 PUSH1 0xFF MUL NOT AND SWAP1 DUP4 ISZERO ISZERO MUL OR SWAP1 SSTORE POP SWAP1 POP POP PUSH1 0x1 PUSH1 0x0 DUP3 DUP2 MSTORE PUSH1 0x20 ADD SWAP1 DUP2 MSTORE PUSH1 0x20 ADD PUSH1 0x0 KECCAK256 PUSH1 0x2 ADD PUSH1 0x0 DUP2 SLOAD DUP1 SWAP3 SWAP2 SWAP1 PUSH2 0x476 SWAP1 PUSH2 0xCA1 JUMP JUMPDEST SWAP2 SWAP1 POP SSTORE POP POP POP JUMP JUMPDEST PUSH1 0x0 PUSH2 0x489 PUSH2 0x5A1 JUMP JUMPDEST PUSH1 0x0 PUSH1 0x1 PUSH1 0x0 PUSH1 0x1 DUP2 MSTORE PUSH1 0x20 ADD SWAP1 DUP2 MSTORE PUSH1 0x20 ADD PUSH1 0x0 KECCAK256 PUSH1 0x2 ADD SLOAD SWAP1 POP PUSH1 0x0 PUSH1 0x1 PUSH1 0x0 PUSH1 0x2 DUP2 MSTORE PUSH1 0x20 ADD SWAP1 DUP2 MSTORE PUSH1 0x20 ADD PUSH1 0x0 KECCAK256 PUSH1 0x2 ADD SLOAD SWAP1 POP DUP1 DUP3 GT ISZERO PUSH2 0x4EA JUMPI PUSH1 0x1 PUSH1 0x0 PUSH1 0x1 DUP2 MSTORE PUSH1 0x20 ADD SWAP1 DUP2 MSTORE PUSH1 0x20 ADD PUSH1 0x0 KECCAK256 PUSH1 0x1 ADD SLOAD SWAP3 POP POP POP PUSH2 0x51A JUMP JUMPDEST DUP2 DUP2 GT ISZERO PUSH2 0x513 JUMPI PUSH1 0x1 PUSH1 0x0 PUSH1 0x2 DUP2 MSTORE PUSH1 0x20 ADD SWAP1 DUP2 MSTORE PUSH1 0x20 ADD PUSH1 0x0 KECCAK256 PUSH1 0x1 ADD SLOAD SWAP3 POP POP POP PUSH2 0x51A JUMP JUMPDEST PUSH1 0x0 SWAP3 POP POP POP JUMPDEST SWAP1 JUMP JUMPDEST PUSH2 0x525 PUSH2 0x5A1 JUMP JUMPDEST PUSH1 0x0 PUSH20 0xFFFFFFFFFFFFFFFFFFFFFFFFFFFFFFFFFFFFFFFF AND DUP2 PUSH20 0xFFFFFFFFFFFFFFFFFFFFFFFFFFFFFFFFFFFFFFFF AND EQ ISZERO PUSH2 0x595 JUMPI PUSH1 0x40 MLOAD PUSH32 0x8C379A000000000000000000000000000000000000000000000000000000000 DUP2 MSTORE PUSH1 0x4 ADD PUSH2 0x58C SWAP1 PUSH2 0xD5C JUMP JUMPDEST PUSH1 0x40 MLOAD DUP1 SWAP2 SUB SWAP1 REVERT JUMPDEST PUSH2 0x59E DUP2 PUSH2 0x61F JUMP JUMPDEST POP JUMP JUMPDEST PUSH2 0x5A9 PUSH2 0x6E3 JUMP JUMPDEST PUSH20 0xFFFFFFFFFFFFFFFFFFFFFFFFFFFFFFFFFFFFFFFF AND PUSH2 0x5C7 PUSH2 0x22A JUMP JUMPDEST PUSH20 0xFFFFFFFFFFFFFFFFFFFFFFFFFFFFFFFFFFFFFFFF AND EQ PUSH2 0x61D JUMPI PUSH1 0x40 MLOAD PUSH32 0x8C379A000000000000000000000000000000000000000000000000000000000 DUP2 MSTORE PUSH1 0x4 ADD PUSH2 0x614 SWAP1 PUSH2 0xDC8 JUMP JUMPDEST PUSH1 0x40 MLOAD DUP1 SWAP2 SUB SWAP1 REVERT JUMPDEST JUMP JUMPDEST PUSH1 0x0 DUP1 PUSH1 0x0 SWAP1 SLOAD SWAP1 PUSH2 0x100 EXP SWAP1 DIV PUSH20 0xFFFFFFFFFFFFFFFFFFFFFFFFFFFFFFFFFFFFFFFF AND SWAP1 POP DUP2 PUSH1 0x0 DUP1 PUSH2 0x100 EXP DUP2 SLOAD DUP2 PUSH20 0xFFFFFFFFFFFFFFFFFFFFFFFFFFFFFFFFFFFFFFFF MUL NOT AND SWAP1 DUP4 PUSH20 0xFFFFFFFFFFFFFFFFFFFFFFFFFFFFFFFFFFFFFFFF AND MUL OR SWAP1 SSTORE POP DUP2 PUSH20 0xFFFFFFFFFFFFFFFFFFFFFFFFFFFFFFFFFFFFFFFF AND DUP2 PUSH20 0xFFFFFFFFFFFFFFFFFFFFFFFFFFFFFFFFFFFFFFFF AND PUSH32 0x8BE0079C531659141344CD1FD0A4F28419497F9722A3DAAFE3B4186F6B6457E0 PUSH1 0x40 MLOAD PUSH1 0x40 MLOAD DUP1 SWAP2 SUB SWAP1 LOG3 POP POP JUMP JUMPDEST PUSH1 0x0 CALLER SWAP1 POP SWAP1 JUMP JUMPDEST DUP3 DUP1 SLOAD PUSH2 0x6F7 SWAP1 PUSH2 0xBD4 JUMP JUMPDEST SWAP1 PUSH1 0x0 MSTORE PUSH1 0x20 PUSH1 0x0 KECCAK256 SWAP1 PUSH1 0x1F ADD PUSH1 0x20 SWAP1 DIV DUP2 ADD SWAP3 DUP3 PUSH2 0x719 JUMPI PUSH1 0x0 DUP6 SSTORE PUSH2 0x760 JUMP JUMPDEST DUP3 PUSH1 0x1F LT PUSH2 0x732 JUMPI DUP1 MLOAD PUSH1 0xFF NOT AND DUP4 DUP1 ADD OR DUP6 SSTORE PUSH2 0x760 JUMP JUMPDEST DUP3 DUP1 ADD PUSH1 0x1 ADD DUP6 SSTORE DUP3 ISZERO PUSH2 0x760 JUMPI SWAP2 DUP3 ADD JUMPDEST DUP3 DUP2 GT ISZERO PUSH2 0x75F JUMPI DUP3 MLOAD DUP3 SSTORE SWAP2 PUSH1 0x20 ADD SWAP2 SWAP1 PUSH1 0x1 ADD SWAP1 PUSH2 0x744 JUMP JUMPDEST JUMPDEST POP SWAP1 POP PUSH2 0x76D SWAP2 SWAP1 PUSH2 0x771 JUMP JUMPDEST POP SWAP1 JUMP JUMPDEST JUMPDEST DUP1 DUP3 GT ISZERO PUSH2 0x78A JUMPI PUSH1 0x0 DUP2 PUSH1 0x0 SWAP1 SSTORE POP PUSH1 0x1 ADD PUSH2 0x772 JUMP JUMPDEST POP SWAP1 JUMP JUMPDEST PUSH1 0x0 PUSH1 0x40 MLOAD SWAP1 POP SWAP1 JUMP JUMPDEST PUSH1 0x0 DUP1 REVERT JUMPDEST PUSH1 0x0 DUP1 REVERT JUMPDEST PUSH1 0x0 DUP2 SWAP1 POP SWAP2 SWAP1 POP JUMP JUMPDEST PUSH2 0x7B5 DUP2 PUSH2 0x7A2 JUMP JUMPDEST DUP2 EQ PUSH2 0x7C0 JUMPI PUSH1 0x0 DUP1 REVERT JUMPDEST POP JUMP JUMPDEST PUSH1 0x0 DUP2 CALLDATALOAD SWAP1 POP PUSH2 0x7D2 DUP2 PUSH2 0x7AC JUMP JUMPDEST SWAP3 SWAP2 POP POP JUMP JUMPDEST PUSH1 0x0 PUSH1 0x20 DUP3 DUP5 SUB SLT ISZERO PUSH2 0x7EE JUMPI PUSH2 0x7ED PUSH2 0x798 JUMP JUMPDEST JUMPDEST PUSH1 0x0 PUSH2 0x7FC DUP5 DUP3 DUP6 ADD PUSH2 0x7C3 JUMP JUMPDEST SWAP2 POP POP SWAP3 SWAP2 POP POP JUMP JUMPDEST PUSH1 0x0 DUP2 MLOAD SWAP1 POP SWAP2 SWAP1 POP JUMP JUMPDEST PUSH1 0x0 DUP3 DUP3 MSTORE PUSH1 0x20 DUP3 ADD SWAP1 POP SWAP3 SWAP2 POP POP JUMP JUMPDEST PUSH1 0x0 JUMPDEST DUP4 DUP2 LT ISZERO PUSH2 0x83F JUMPI DUP1 DUP3 ADD MLOAD DUP2 DUP5 ADD MSTORE PUSH1 0x20 DUP2 ADD SWAP1 POP PUSH2 0x824 JUMP JUMPDEST DUP4 DUP2 GT ISZERO PUSH2 0x84E JUMPI PUSH1 0x0 DUP5 DUP5 ADD MSTORE JUMPDEST POP POP POP POP JUMP JUMPDEST PUSH1 0x0 PUSH1 0x1F NOT PUSH1 0x1F DUP4 ADD AND SWAP1 POP SWAP2 SWAP1 POP JUMP JUMPDEST PUSH1 0x0 PUSH2 0x870 DUP3 PUSH2 0x805 JUMP JUMPDEST PUSH2 0x87A DUP2 DUP6 PUSH2 0x810 JUMP JUMPDEST SWAP4 POP PUSH2 0x88A DUP2 DUP6 PUSH1 0x20 DUP7 ADD PUSH2 0x821 JUMP JUMPDEST PUSH2 0x893 DUP2 PUSH2 0x854 JUMP JUMPDEST DUP5 ADD SWAP2 POP POP SWAP3 SWAP2 POP POP JUMP JUMPDEST PUSH2 0x8A7 DUP2 PUSH2 0x7A2 JUMP JUMPDEST DUP3 MSTORE POP POP JUMP JUMPDEST PUSH1 0x0 PUSH1 0x60 DUP3 ADD SWAP1 POP DUP2 DUP2 SUB PUSH1 0x0 DUP4 ADD MSTORE PUSH2 0x8C7 DUP2 DUP7 PUSH2 0x865 JUMP JUMPDEST SWAP1 POP PUSH2 0x8D6 PUSH1 0x20 DUP4 ADD DUP6 PUSH2 0x89E JUMP JUMPDEST PUSH2 0x8E3 PUSH1 0x40 DUP4 ADD DUP5 PUSH2 0x89E JUMP JUMPDEST SWAP5 SWAP4 POP POP POP POP JUMP JUMPDEST PUSH1 0x0 PUSH20 0xFFFFFFFFFFFFFFFFFFFFFFFFFFFFFFFFFFFFFFFF DUP3 AND SWAP1 POP SWAP2 SWAP1 POP JUMP JUMPDEST PUSH1 0x0 PUSH2 0x916 DUP3 PUSH2 0x8EB JUMP JUMPDEST SWAP1 POP SWAP2 SWAP1 POP JUMP JUMPDEST PUSH2 0x926 DUP2 PUSH2 0x90B JUMP JUMPDEST DUP3 MSTORE POP POP JUMP JUMPDEST PUSH1 0x0 PUSH1 0x20 DUP3 ADD SWAP1 POP PUSH2 0x941 PUSH1 0x0 DUP4 ADD DUP5 PUSH2 0x91D JUMP JUMPDEST SWAP3 SWAP2 POP POP JUMP JUMPDEST PUSH2 0x950 DUP2 PUSH2 0x90B JUMP JUMPDEST DUP2 EQ PUSH2 0x95B JUMPI PUSH1 0x0 DUP1 REVERT JUMPDEST POP JUMP JUMPDEST PUSH1 0x0 DUP2 CALLDATALOAD SWAP1 POP PUSH2 0x96D DUP2 PUSH2 0x947 JUMP JUMPDEST SWAP3 SWAP2 POP POP JUMP JUMPDEST PUSH1 0x0 PUSH1 0x20 DUP3 DUP5 SUB SLT ISZERO PUSH2 0x989 JUMPI PUSH2 0x988 PUSH2 0x798 JUMP JUMPDEST JUMPDEST PUSH1 0x0 PUSH2 0x997 DUP5 DUP3 DUP6 ADD PUSH2 0x95E JUMP JUMPDEST SWAP2 POP POP SWAP3 SWAP2 POP POP JUMP JUMPDEST PUSH1 0x0 DUP2 ISZERO ISZERO SWAP1 POP SWAP2 SWAP1 POP JUMP JUMPDEST PUSH2 0x9B5 DUP2 PUSH2 0x9A0 JUMP JUMPDEST DUP3 MSTORE POP POP JUMP JUMPDEST PUSH1 0x0 PUSH1 0x60 DUP3 ADD SWAP1 POP DUP2 DUP2 SUB PUSH1 0x0 DUP4 ADD MSTORE PUSH2 0x9D5 DUP2 DUP7 PUSH2 0x865 JUMP JUMPDEST SWAP1 POP PUSH2 0x9E4 PUSH1 0x20 DUP4 ADD DUP6 PUSH2 0x89E JUMP JUMPDEST PUSH2 0x9F1 PUSH1 0x40 DUP4 ADD DUP5 PUSH2 0x9AC JUMP JUMPDEST SWAP5 SWAP4 POP POP POP POP JUMP JUMPDEST PUSH1 0x0 DUP1 REVERT JUMPDEST PUSH1 0x0 DUP1 REVERT JUMPDEST PUSH32 0x4E487B7100000000000000000000000000000000000000000000000000000000 PUSH1 0x0 MSTORE PUSH1 0x41 PUSH1 0x4 MSTORE PUSH1 0x24 PUSH1 0x0 REVERT JUMPDEST PUSH2 0xA3B DUP3 PUSH2 0x854 JUMP JUMPDEST DUP2 ADD DUP2 DUP2 LT PUSH8 0xFFFFFFFFFFFFFFFF DUP3 GT OR ISZERO PUSH2 0xA5A JUMPI PUSH2 0xA59 PUSH2 0xA03 JUMP JUMPDEST JUMPDEST DUP1 PUSH1 0x40 MSTORE POP POP POP JUMP JUMPDEST PUSH1 0x0 PUSH2 0xA6D PUSH2 0x78E JUMP JUMPDEST SWAP1 POP PUSH2 0xA79 DUP3 DUP3 PUSH2 0xA32 JUMP JUMPDEST SWAP2 SWAP1 POP JUMP JUMPDEST PUSH1 0x0 PUSH8 0xFFFFFFFFFFFFFFFF DUP3 GT ISZERO PUSH2 0xA99 JUMPI PUSH2 0xA98 PUSH2 0xA03 JUMP JUMPDEST JUMPDEST PUSH2 0xAA2 DUP3 PUSH2 0x854 JUMP JUMPDEST SWAP1 POP PUSH1 0x20 DUP2 ADD SWAP1 POP SWAP2 SWAP1 POP JUMP JUMPDEST DUP3 DUP2 DUP4 CALLDATACOPY PUSH1 0x0 DUP4 DUP4 ADD MSTORE POP POP POP JUMP JUMPDEST PUSH1 0x0 PUSH2 0xAD1 PUSH2 0xACC DUP5 PUSH2 0xA7E JUMP JUMPDEST PUSH2 0xA63 JUMP JUMPDEST SWAP1 POP DUP3 DUP2 MSTORE PUSH1 0x20 DUP2 ADD DUP5 DUP5 DUP5 ADD GT ISZERO PUSH2 0xAED JUMPI PUSH2 0xAEC PUSH2 0x9FE JUMP JUMPDEST JUMPDEST PUSH2 0xAF8 DUP5 DUP3 DUP6 PUSH2 0xAAF JUMP JUMPDEST POP SWAP4 SWAP3 POP POP POP JUMP JUMPDEST PUSH1 0x0 DUP3 PUSH1 0x1F DUP4 ADD SLT PUSH2 0xB15 JUMPI PUSH2 0xB14 PUSH2 0x9F9 JUMP JUMPDEST JUMPDEST DUP2 CALLDATALOAD PUSH2 0xB25 DUP5 DUP3 PUSH1 0x20 DUP7 ADD PUSH2 0xABE JUMP JUMPDEST SWAP2 POP POP SWAP3 SWAP2 POP POP JUMP JUMPDEST PUSH1 0x0 DUP1 PUSH1 0x40 DUP4 DUP6 SUB SLT ISZERO PUSH2 0xB45 JUMPI PUSH2 0xB44 PUSH2 0x798 JUMP JUMPDEST JUMPDEST PUSH1 0x0 DUP4 ADD CALLDATALOAD PUSH8 0xFFFFFFFFFFFFFFFF DUP2 GT ISZERO PUSH2 0xB63 JUMPI PUSH2 0xB62 PUSH2 0x79D JUMP JUMPDEST JUMPDEST PUSH2 0xB6F DUP6 DUP3 DUP7 ADD PUSH2 0xB00 JUMP JUMPDEST SWAP3 POP POP PUSH1 0x20 PUSH2 0xB80 DUP6 DUP3 DUP7 ADD PUSH2 0x7C3 JUMP JUMPDEST SWAP2 POP POP SWAP3 POP SWAP3 SWAP1 POP JUMP JUMPDEST PUSH1 0x0 PUSH1 0x20 DUP3 ADD SWAP1 POP PUSH2 0xB9F PUSH1 0x0 DUP4 ADD DUP5 PUSH2 0x89E JUMP JUMPDEST SWAP3 SWAP2 POP POP JUMP JUMPDEST PUSH32 0x4E487B7100000000000000000000000000000000000000000000000000000000 PUSH1 0x0 MSTORE PUSH1 0x22 PUSH1 0x4 MSTORE PUSH1 0x24 PUSH1 0x0 REVERT JUMPDEST PUSH1 0x0 PUSH1 0x2 DUP3 DIV SWAP1 POP PUSH1 0x1 DUP3 AND DUP1 PUSH2 0xBEC JUMPI PUSH1 0x7F DUP3 AND SWAP2 POP JUMPDEST PUSH1 0x20 DUP3 LT DUP2 EQ ISZERO PUSH2 0xC00 JUMPI PUSH2 0xBFF PUSH2 0xBA5 JUMP JUMPDEST JUMPDEST POP SWAP2 SWAP1 POP JUMP JUMPDEST PUSH32 0x796F75206861766520616C726561647920766F74656400000000000000000000 PUSH1 0x0 DUP3 ADD MSTORE POP JUMP JUMPDEST PUSH1 0x0 PUSH2 0xC3C PUSH1 0x16 DUP4 PUSH2 0x810 JUMP JUMPDEST SWAP2 POP PUSH2 0xC47 DUP3 PUSH2 0xC06 JUMP JUMPDEST PUSH1 0x20 DUP3 ADD SWAP1 POP SWAP2 SWAP1 POP JUMP JUMPDEST PUSH1 0x0 PUSH1 0x20 DUP3 ADD SWAP1 POP DUP2 DUP2 SUB PUSH1 0x0 DUP4 ADD MSTORE PUSH2 0xC6B DUP2 PUSH2 0xC2F JUMP JUMPDEST SWAP1 POP SWAP2 SWAP1 POP JUMP JUMPDEST PUSH32 0x4E487B7100000000000000000000000000000000000000000000000000000000 PUSH1 0x0 MSTORE PUSH1 0x11 PUSH1 0x4 MSTORE PUSH1 0x24 PUSH1 0x0 REVERT JUMPDEST PUSH1 0x0 PUSH2 0xCAC DUP3 PUSH2 0x7A2 JUMP JUMPDEST SWAP2 POP PUSH32 0xFFFFFFFFFFFFFFFFFFFFFFFFFFFFFFFFFFFFFFFFFFFFFFFFFFFFFFFFFFFFFFFF DUP3 EQ ISZERO PUSH2 0xCDF JUMPI PUSH2 0xCDE PUSH2 0xC72 JUMP JUMPDEST JUMPDEST PUSH1 0x1 DUP3 ADD SWAP1 POP SWAP2 SWAP1 POP JUMP JUMPDEST PUSH32 0x4F776E61626C653A206E6577206F776E657220697320746865207A65726F2061 PUSH1 0x0 DUP3 ADD MSTORE PUSH32 0x6464726573730000000000000000000000000000000000000000000000000000 PUSH1 0x20 DUP3 ADD MSTORE POP JUMP JUMPDEST PUSH1 0x0 PUSH2 0xD46 PUSH1 0x26 DUP4 PUSH2 0x810 JUMP JUMPDEST SWAP2 POP PUSH2 0xD51 DUP3 PUSH2 0xCEA JUMP JUMPDEST PUSH1 0x40 DUP3 ADD SWAP1 POP SWAP2 SWAP1 POP JUMP JUMPDEST PUSH1 0x0 PUSH1 0x20 DUP3 ADD SWAP1 POP DUP2 DUP2 SUB PUSH1 0x0 DUP4 ADD MSTORE PUSH2 0xD75 DUP2 PUSH2 0xD39 JUMP JUMPDEST SWAP1 POP SWAP2 SWAP1 POP JUMP JUMPDEST PUSH32 0x4F776E61626C653A2063616C6C6572206973206E6F7420746865206F776E6572 PUSH1 0x0 DUP3 ADD MSTORE POP JUMP JUMPDEST PUSH1 0x0 PUSH2 0xDB2 PUSH1 0x20 DUP4 PUSH2 0x810 JUMP JUMPDEST SWAP2 POP PUSH2 0xDBD DUP3 PUSH2 0xD7C JUMP JUMPDEST PUSH1 0x20 DUP3 ADD SWAP1 POP SWAP2 SWAP1 POP JUMP JUMPDEST PUSH1 0x0 PUSH1 0x20 DUP3 ADD SWAP1 POP DUP2 DUP2 SUB PUSH1 0x0 DUP4 ADD MSTORE PUSH2 0xDE1 DUP2 PUSH2 0xDA5 JUMP JUMPDEST SWAP1 POP SWAP2 SWAP1 POP JUMP INVALID LOG2 PUSH5 0x6970667358 0x22 SLT KECCAK256 PUSH21 0x352AF517636C8D9EED6CD69A37FF78163B41537DB5 0xBC 0xC6 BYTE 0xD6 GASLIMIT 0xDD 0xE SWAP8 DUP16 0xF7 PUSH5 0x736F6C6343 STOP ADDMOD EXP STOP CALLER "
				},
				"gasEstimates": {
					"creation": {
						"codeDepositCost": "722800",
						"executionCost": "infinite",
						"totalCost": "infinite"
					},
					"external": {
						"candidates(uint256)": "infinite",
						"getwinner()": "9286",
						"owner()": "2567",
						"renounceOwnership()": "30421",
						"transferOwnership(address)": "30813",
						"vote(string,uint256)": "infinite",
						"voters(address)": "infinite"
					}
				},
				"methodIdentifiers": {
					"candidates(uint256)": "3477ee2e",
					"getwinner()": "e7bb7cbe",
					"owner()": "8da5cb5b",
					"renounceOwnership()": "715018a6",
					"transferOwnership(address)": "f2fde38b",
					"vote(string,uint256)": "a6385803",
					"voters(address)": "a3ec138d"
				}
			},
			"storageLayout": {
				"storage": [
					{
						"astId": 7,
						"contract": "pedri/library.sol:Election",
						"label": "_owner",
						"offset": 0,
						"slot": "0",
						"type": "t_address"
					},
					{
						"astId": 158,
						"contract": "pedri/library.sol:Election",
						"label": "candidates",
						"offset": 0,
						"slot": "1",
						"type": "t_mapping(t_uint256,t_struct(candidate)146_storage)"
					},
					{
						"astId": 163,
						"contract": "pedri/library.sol:Election",
						"label": "voters",
						"offset": 0,
						"slot": "2",
						"type": "t_mapping(t_address,t_struct(voter)153_storage)"
					}
				],
				"types": {
					"t_address": {
						"encoding": "inplace",
						"label": "address",
						"numberOfBytes": "20"
					},
					"t_bool": {
						"encoding": "inplace",
						"label": "bool",
						"numberOfBytes": "1"
					},
					"t_mapping(t_address,t_struct(voter)153_storage)": {
						"encoding": "mapping",
						"key": "t_address",
						"label": "mapping(address => struct Election.voter)",
						"numberOfBytes": "32",
						"value": "t_struct(voter)153_storage"
					},
					"t_mapping(t_uint256,t_struct(candidate)146_storage)": {
						"encoding": "mapping",
						"key": "t_uint256",
						"label": "mapping(uint256 => struct Election.candidate)",
						"numberOfBytes": "32",
						"value": "t_struct(candidate)146_storage"
					},
					"t_string_storage": {
						"encoding": "bytes",
						"label": "string",
						"numberOfBytes": "32"
					},
					"t_struct(candidate)146_storage": {
						"encoding": "inplace",
						"label": "struct Election.candidate",
						"members": [
							{
								"astId": 141,
								"contract": "pedri/library.sol:Election",
								"label": "name",
								"offset": 0,
								"slot": "0",
								"type": "t_string_storage"
							},
							{
								"astId": 143,
								"contract": "pedri/library.sol:Election",
								"label": "index",
								"offset": 0,
								"slot": "1",
								"type": "t_uint256"
							},
							{
								"astId": 145,
								"contract": "pedri/library.sol:Election",
								"label": "votecount",
								"offset": 0,
								"slot": "2",
								"type": "t_uint256"
							}
						],
						"numberOfBytes": "96"
					},
					"t_struct(voter)153_storage": {
						"encoding": "inplace",
						"label": "struct Election.voter",
						"members": [
							{
								"astId": 148,
								"contract": "pedri/library.sol:Election",
								"label": "name",
								"offset": 0,
								"slot": "0",
								"type": "t_string_storage"
							},
							{
								"astId": 150,
								"contract": "pedri/library.sol:Election",
								"label": "index",
								"offset": 0,
								"slot": "1",
								"type": "t_uint256"
							},
							{
								"astId": 152,
								"contract": "pedri/library.sol:Election",
								"label": "voted",
								"offset": 0,
								"slot": "2",
								"type": "t_bool"
							}
						],
						"numberOfBytes": "96"
					},
					"t_uint256": {
						"encoding": "inplace",
						"label": "uint256",
						"numberOfBytes": "32"
					}
				}
			},
			"userdoc": {
				"kind": "user",
				"methods": {},
				"version": 1
			}
		}
	}
}