{
	"pedri/function.sol": {
		"Sample": {
			"abi": [
				{
					"inputs": [],
					"name": "check_internal",
					"outputs": [
						{
							"internalType": "uint256",
							"name": "",
							"type": "uint256"
						}
					],
					"stateMutability": "pure",
					"type": "function"
				},
				{
					"inputs": [],
					"name": "check_private",
					"outputs": [
						{
							"internalType": "uint256",
							"name": "",
							"type": "uint256"
						}
					],
					"stateMutability": "pure",
					"type": "function"
				},
				{
					"inputs": [],
					"name": "external_func",
					"outputs": [
						{
							"internalType": "uint256",
							"name": "",
							"type": "uint256"
						}
					],
					"stateMutability": "pure",
					"type": "function"
				},
				{
					"inputs": [],
					"name": "public_func",
					"outputs": [
						{
							"internalType": "uint256",
							"name": "",
							"type": "uint256"
						}
					],
					"stateMutability": "pure",
					"type": "function"
				}
			],
			"devdoc": {
				"kind": "dev",
				"methods": {},
				"version": 1
			},
			"evm": {
				"assembly": "    /* \"pedri/function.sol\":82:769  contract Sample  {... */\n  mstore(0x40, 0x80)\n  callvalue\n  dup1\n  iszero\n  tag_1\n  jumpi\n  0x00\n  dup1\n  revert\ntag_1:\n  pop\n  dataSize(sub_0)\n  dup1\n  dataOffset(sub_0)\n  0x00\n  codecopy\n  0x00\n  return\nstop\n\nsub_0: assembly {\n        /* \"pedri/function.sol\":82:769  contract Sample  {... */\n      mstore(0x40, 0x80)\n      callvalue\n      dup1\n      iszero\n      tag_1\n      jumpi\n      0x00\n      dup1\n      revert\n    tag_1:\n      pop\n      jumpi(tag_2, lt(calldatasize, 0x04))\n      shr(0xe0, calldataload(0x00))\n      dup1\n      0x2a9e9ea8\n      eq\n      tag_3\n      jumpi\n      dup1\n      0x52793882\n      eq\n      tag_4\n      jumpi\n      dup1\n      0xa40d75b3\n      eq\n      tag_5\n      jumpi\n      dup1\n      0xc60807f2\n      eq\n      tag_6\n      jumpi\n    tag_2:\n      0x00\n      dup1\n      revert\n        /* \"pedri/function.sol\":109:194  function public_func() public pure returns(uint){... */\n    tag_3:\n      tag_7\n      tag_8\n      jump\t// in\n    tag_7:\n      mload(0x40)\n      tag_9\n      swap2\n      swap1\n      tag_10\n      jump\t// in\n    tag_9:\n      mload(0x40)\n      dup1\n      swap2\n      sub\n      swap1\n      return\n        /* \"pedri/function.sol\":495:613  function check_private() public pure returns(uint){... */\n    tag_4:\n      tag_11\n      tag_12\n      jump\t// in\n    tag_11:\n      mload(0x40)\n      tag_13\n      swap2\n      swap1\n      tag_10\n      jump\t// in\n    tag_13:\n      mload(0x40)\n      dup1\n      swap2\n      sub\n      swap1\n      return\n        /* \"pedri/function.sol\":397:486  function external_func() external pure returns(uint){... */\n    tag_5:\n      tag_14\n      tag_15\n      jump\t// in\n    tag_14:\n      mload(0x40)\n      tag_16\n      swap2\n      swap1\n      tag_10\n      jump\t// in\n    tag_16:\n      mload(0x40)\n      dup1\n      swap2\n      sub\n      swap1\n      return\n        /* \"pedri/function.sol\":623:750  function check_internal() public pure returns(uint){... */\n    tag_6:\n      tag_17\n      tag_18\n      jump\t// in\n    tag_17:\n      mload(0x40)\n      tag_19\n      swap2\n      swap1\n      tag_10\n      jump\t// in\n    tag_19:\n      mload(0x40)\n      dup1\n      swap2\n      sub\n      swap1\n      return\n        /* \"pedri/function.sol\":109:194  function public_func() public pure returns(uint){... */\n    tag_8:\n        /* \"pedri/function.sol\":152:156  uint */\n      0x00\n        /* \"pedri/function.sol\":182:183  1 */\n      0x01\n        /* \"pedri/function.sol\":175:183  return 1 */\n      swap1\n      pop\n        /* \"pedri/function.sol\":109:194  function public_func() public pure returns(uint){... */\n      swap1\n      jump\t// out\n        /* \"pedri/function.sol\":495:613  function check_private() public pure returns(uint){... */\n    tag_12:\n        /* \"pedri/function.sol\":540:544  uint */\n      0x00\n        /* \"pedri/function.sol\":559:565  uint x */\n      dup1\n        /* \"pedri/function.sol\":566:580  private_func() */\n      tag_22\n        /* \"pedri/function.sol\":566:578  private_func */\n      tag_23\n        /* \"pedri/function.sol\":566:580  private_func() */\n      jump\t// in\n    tag_22:\n        /* \"pedri/function.sol\":559:580  uint x=private_func() */\n      swap1\n      pop\n        /* \"pedri/function.sol\":601:602  x */\n      dup1\n        /* \"pedri/function.sol\":594:602  return x */\n      swap2\n      pop\n      pop\n        /* \"pedri/function.sol\":495:613  function check_private() public pure returns(uint){... */\n      swap1\n      jump\t// out\n        /* \"pedri/function.sol\":397:486  function external_func() external pure returns(uint){... */\n    tag_15:\n        /* \"pedri/function.sol\":444:448  uint */\n      0x00\n        /* \"pedri/function.sol\":474:475  4 */\n      0x04\n        /* \"pedri/function.sol\":467:475  return 4 */\n      swap1\n      pop\n        /* \"pedri/function.sol\":397:486  function external_func() external pure returns(uint){... */\n      swap1\n      jump\t// out\n        /* \"pedri/function.sol\":623:750  function check_internal() public pure returns(uint){... */\n    tag_18:\n        /* \"pedri/function.sol\":669:673  uint */\n      0x00\n        /* \"pedri/function.sol\":689:695  uint x */\n      dup1\n        /* \"pedri/function.sol\":696:711  internal_func() */\n      tag_26\n        /* \"pedri/function.sol\":696:709  internal_func */\n      tag_27\n        /* \"pedri/function.sol\":696:711  internal_func() */\n      jump\t// in\n    tag_26:\n        /* \"pedri/function.sol\":689:711  uint x=internal_func() */\n      swap1\n      pop\n        /* \"pedri/function.sol\":733:734  x */\n      dup1\n        /* \"pedri/function.sol\":726:734  return x */\n      swap2\n      pop\n      pop\n        /* \"pedri/function.sol\":623:750  function check_internal() public pure returns(uint){... */\n      swap1\n      jump\t// out\n        /* \"pedri/function.sol\":203:290  function private_func() private pure returns(uint){... */\n    tag_23:\n        /* \"pedri/function.sol\":248:252  uint */\n      0x00\n        /* \"pedri/function.sol\":278:279  2 */\n      0x02\n        /* \"pedri/function.sol\":271:279  return 2 */\n      swap1\n      pop\n        /* \"pedri/function.sol\":203:290  function private_func() private pure returns(uint){... */\n      swap1\n      jump\t// out\n        /* \"pedri/function.sol\":299:388  function internal_func() internal pure returns(uint){... */\n    tag_27:\n        /* \"pedri/function.sol\":346:350  uint */\n      0x00\n        /* \"pedri/function.sol\":376:377  3 */\n      0x03\n        /* \"pedri/function.sol\":369:377  return 3 */\n      swap1\n      pop\n        /* \"pedri/function.sol\":299:388  function internal_func() internal pure returns(uint){... */\n      swap1\n      jump\t// out\n        /* \"#utility.yul\":7:84   */\n    tag_30:\n        /* \"#utility.yul\":44:51   */\n      0x00\n        /* \"#utility.yul\":73:78   */\n      dup2\n        /* \"#utility.yul\":62:78   */\n      swap1\n      pop\n        /* \"#utility.yul\":7:84   */\n      swap2\n      swap1\n      pop\n      jump\t// out\n        /* \"#utility.yul\":90:208   */\n    tag_31:\n        /* \"#utility.yul\":177:201   */\n      tag_35\n        /* \"#utility.yul\":195:200   */\n      dup2\n        /* \"#utility.yul\":177:201   */\n      tag_30\n      jump\t// in\n    tag_35:\n        /* \"#utility.yul\":172:175   */\n      dup3\n        /* \"#utility.yul\":165:202   */\n      mstore\n        /* \"#utility.yul\":90:208   */\n      pop\n      pop\n      jump\t// out\n        /* \"#utility.yul\":214:436   */\n    tag_10:\n        /* \"#utility.yul\":307:311   */\n      0x00\n        /* \"#utility.yul\":345:347   */\n      0x20\n        /* \"#utility.yul\":334:343   */\n      dup3\n        /* \"#utility.yul\":330:348   */\n      add\n        /* \"#utility.yul\":322:348   */\n      swap1\n      pop\n        /* \"#utility.yul\":358:429   */\n      tag_37\n        /* \"#utility.yul\":426:427   */\n      0x00\n        /* \"#utility.yul\":415:424   */\n      dup4\n        /* \"#utility.yul\":411:428   */\n      add\n        /* \"#utility.yul\":402:408   */\n      dup5\n        /* \"#utility.yul\":358:429   */\n      tag_31\n      jump\t// in\n    tag_37:\n        /* \"#utility.yul\":214:436   */\n      swap3\n      swap2\n      pop\n      pop\n      jump\t// out\n\n    auxdata: 0xa2646970667358221220514958cd3cb68e6d7e173435058a7698e839994ae2135e82434ba85d294b3c5264736f6c63430008110033\n}\n",
				"bytecode": {
					"linkReferences": {},
					"object": "608060405234801561001057600080fd5b5061017f806100206000396000f3fe608060405234801561001057600080fd5b506004361061004c5760003560e01c80632a9e9ea814610051578063527938821461006f578063a40d75b31461008d578063c60807f2146100ab575b600080fd5b6100596100c9565b604051610066919061012e565b60405180910390f35b6100776100d2565b604051610084919061012e565b60405180910390f35b6100956100e6565b6040516100a2919061012e565b60405180910390f35b6100b36100ef565b6040516100c0919061012e565b60405180910390f35b60006001905090565b6000806100dd610103565b90508091505090565b60006004905090565b6000806100fa61010c565b90508091505090565b60006002905090565b60006003905090565b6000819050919050565b61012881610115565b82525050565b6000602082019050610143600083018461011f565b9291505056fea2646970667358221220514958cd3cb68e6d7e173435058a7698e839994ae2135e82434ba85d294b3c5264736f6c63430008110033",
					"opcodes": "PUSH1 0x80 PUSH1 0x40 MSTORE CALLVALUE DUP1 ISZERO PUSH2 0x10 JUMPI PUSH1 0x0 DUP1 REVERT JUMPDEST POP PUSH2 0x17F DUP1 PUSH2 0x20 PUSH1 0x0 CODECOPY PUSH1 0x0 RETURN INVALID PUSH1 0x80 PUSH1 0x40 MSTORE CALLVALUE DUP1 ISZERO PUSH2 0x10 JUMPI PUSH1 0x0 DUP1 REVERT JUMPDEST POP PUSH1 0x4 CALLDATASIZE LT PUSH2 0x4C JUMPI PUSH1 0x0 CALLDATALOAD PUSH1 0xE0 SHR DUP1 PUSH4 0x2A9E9EA8 EQ PUSH2 0x51 JUMPI DUP1 PUSH4 0x52793882 EQ PUSH2 0x6F JUMPI DUP1 PUSH4 0xA40D75B3 EQ PUSH2 0x8D JUMPI DUP1 PUSH4 0xC60807F2 EQ PUSH2 0xAB JUMPI JUMPDEST PUSH1 0x0 DUP1 REVERT JUMPDEST PUSH2 0x59 PUSH2 0xC9 JUMP JUMPDEST PUSH1 0x40 MLOAD PUSH2 0x66 SWAP2 SWAP1 PUSH2 0x12E JUMP JUMPDEST PUSH1 0x40 MLOAD DUP1 SWAP2 SUB SWAP1 RETURN JUMPDEST PUSH2 0x77 PUSH2 0xD2 JUMP JUMPDEST PUSH1 0x40 MLOAD PUSH2 0x84 SWAP2 SWAP1 PUSH2 0x12E JUMP JUMPDEST PUSH1 0x40 MLOAD DUP1 SWAP2 SUB SWAP1 RETURN JUMPDEST PUSH2 0x95 PUSH2 0xE6 JUMP JUMPDEST PUSH1 0x40 MLOAD PUSH2 0xA2 SWAP2 SWAP1 PUSH2 0x12E JUMP JUMPDEST PUSH1 0x40 MLOAD DUP1 SWAP2 SUB SWAP1 RETURN JUMPDEST PUSH2 0xB3 PUSH2 0xEF JUMP JUMPDEST PUSH1 0x40 MLOAD PUSH2 0xC0 SWAP2 SWAP1 PUSH2 0x12E JUMP JUMPDEST PUSH1 0x40 MLOAD DUP1 SWAP2 SUB SWAP1 RETURN JUMPDEST PUSH1 0x0 PUSH1 0x1 SWAP1 POP SWAP1 JUMP JUMPDEST PUSH1 0x0 DUP1 PUSH2 0xDD PUSH2 0x103 JUMP JUMPDEST SWAP1 POP DUP1 SWAP2 POP POP SWAP1 JUMP JUMPDEST PUSH1 0x0 PUSH1 0x4 SWAP1 POP SWAP1 JUMP JUMPDEST PUSH1 0x0 DUP1 PUSH2 0xFA PUSH2 0x10C JUMP JUMPDEST SWAP1 POP DUP1 SWAP2 POP POP SWAP1 JUMP JUMPDEST PUSH1 0x0 PUSH1 0x2 SWAP1 POP SWAP1 JUMP JUMPDEST PUSH1 0x0 PUSH1 0x3 SWAP1 POP SWAP1 JUMP JUMPDEST PUSH1 0x0 DUP2 SWAP1 POP SWAP2 SWAP1 POP JUMP JUMPDEST PUSH2 0x128 DUP2 PUSH2 0x115 JUMP JUMPDEST DUP3 MSTORE POP POP JUMP JUMPDEST PUSH1 0x0 PUSH1 0x20 DUP3 ADD SWAP1 POP PUSH2 0x143 PUSH1 0x0 DUP4 ADD DUP5 PUSH2 0x11F JUMP JUMPDEST SWAP3 SWAP2 POP POP JUMP INVALID LOG2 PUSH5 0x6970667358 0x22 SLT KECCAK256 MLOAD 0x49 PC 0xCD EXTCODECOPY 0xB6 DUP15 PUSH14 0x7E173435058A7698E839994AE213 0x5E DUP3 NUMBER 0x4B 0xA8 0x5D 0x29 0x4B EXTCODECOPY MSTORE PUSH5 0x736F6C6343 STOP ADDMOD GT STOP CALLER "
				},
				"gasEstimates": {
					"creation": {
						"codeDepositCost": "76600",
						"executionCost": "123",
						"totalCost": "76723"
					},
					"external": {
						"check_internal()": "429",
						"check_private()": "385",
						"external_func()": "359",
						"public_func()": "315"
					},
					"internal": {
						"internal_func()": "23",
						"private_func()": "23"
					}
				},
				"methodIdentifiers": {
					"check_internal()": "c60807f2",
					"check_private()": "52793882",
					"external_func()": "a40d75b3",
					"public_func()": "2a9e9ea8"
				}
			},
			"storageLayout": {
				"storage": [],
				"types": null
			},
			"userdoc": {
				"kind": "user",
				"methods": {},
				"version": 1
			}
		}
	}
}