{
	"pedri/mapping.sol": {
		"user": {
			"abi": [
				{
					"inputs": [],
					"name": "some",
					"outputs": [],
					"stateMutability": "nonpayable",
					"type": "function"
				},
				{
					"inputs": [
						{
							"internalType": "uint256",
							"name": "",
							"type": "uint256"
						}
					],
					"name": "student_info",
					"outputs": [
						{
							"internalType": "uint256",
							"name": "age",
							"type": "uint256"
						},
						{
							"internalType": "string",
							"name": "name",
							"type": "string"
						}
					],
					"stateMutability": "view",
					"type": "function"
				}
			],
			"devdoc": {
				"kind": "dev",
				"methods": {},
				"version": 1
			},
			"evm": {
				"assembly": "    /* \"pedri/mapping.sol\":73:491  contract user... */\n  mstore(0x40, 0x80)\n  callvalue\n  dup1\n  iszero\n  tag_1\n  jumpi\n  0x00\n  dup1\n  revert\ntag_1:\n  pop\n  dataSize(sub_0)\n  dup1\n  dataOffset(sub_0)\n  0x00\n  codecopy\n  0x00\n  return\nstop\n\nsub_0: assembly {\n        /* \"pedri/mapping.sol\":73:491  contract user... */\n      mstore(0x40, 0x80)\n      callvalue\n      dup1\n      iszero\n      tag_1\n      jumpi\n      0x00\n      dup1\n      revert\n    tag_1:\n      pop\n      jumpi(tag_2, lt(calldatasize, 0x04))\n      shr(0xe0, calldataload(0x00))\n      dup1\n      0x17af41bf\n      eq\n      tag_3\n      jumpi\n      dup1\n      0xc03ee3d3\n      eq\n      tag_4\n      jumpi\n    tag_2:\n      0x00\n      dup1\n      revert\n        /* \"pedri/mapping.sol\":158:200  mapping(uint=>Student) public student_info */\n    tag_3:\n      tag_5\n      0x04\n      dup1\n      calldatasize\n      sub\n      dup2\n      add\n      swap1\n      tag_6\n      swap2\n      swap1\n      tag_7\n      jump\t// in\n    tag_6:\n      tag_8\n      jump\t// in\n    tag_5:\n      mload(0x40)\n      tag_9\n      swap3\n      swap2\n      swap1\n      tag_10\n      jump\t// in\n    tag_9:\n      mload(0x40)\n      dup1\n      swap2\n      sub\n      swap1\n      return\n        /* \"pedri/mapping.sol\":367:489  function some() public{... */\n    tag_4:\n      tag_11\n      tag_12\n      jump\t// in\n    tag_11:\n      stop\n        /* \"pedri/mapping.sol\":158:200  mapping(uint=>Student) public student_info */\n    tag_8:\n      mstore(0x20, 0x00)\n      dup1\n      0x00\n      mstore\n      keccak256(0x00, 0x40)\n      0x00\n      swap2\n      pop\n      swap1\n      pop\n      dup1\n      0x00\n      add\n      sload\n      swap1\n      dup1\n      0x01\n      add\n      dup1\n      sload\n      tag_13\n      swap1\n      tag_14\n      jump\t// in\n    tag_13:\n      dup1\n      0x1f\n      add\n      0x20\n      dup1\n      swap2\n      div\n      mul\n      0x20\n      add\n      mload(0x40)\n      swap1\n      dup2\n      add\n      0x40\n      mstore\n      dup1\n      swap3\n      swap2\n      swap1\n      dup2\n      dup2\n      mstore\n      0x20\n      add\n      dup3\n      dup1\n      sload\n      tag_15\n      swap1\n      tag_14\n      jump\t// in\n    tag_15:\n      dup1\n      iszero\n      tag_16\n      jumpi\n      dup1\n      0x1f\n      lt\n      tag_17\n      jumpi\n      0x0100\n      dup1\n      dup4\n      sload\n      div\n      mul\n      dup4\n      mstore\n      swap2\n      0x20\n      add\n      swap2\n      jump(tag_16)\n    tag_17:\n      dup3\n      add\n      swap2\n      swap1\n      0x00\n      mstore\n      keccak256(0x00, 0x20)\n      swap1\n    tag_18:\n      dup2\n      sload\n      dup2\n      mstore\n      swap1\n      0x01\n      add\n      swap1\n      0x20\n      add\n      dup1\n      dup4\n      gt\n      tag_18\n      jumpi\n      dup3\n      swap1\n      sub\n      0x1f\n      and\n      dup3\n      add\n      swap2\n    tag_16:\n      pop\n      pop\n      pop\n      pop\n      pop\n      swap1\n      pop\n      dup3\n      jump\t// out\n        /* \"pedri/mapping.sol\":367:489  function some() public{... */\n    tag_12:\n        /* \"pedri/mapping.sol\":413:431  Student(16,\"adam\") */\n      mload(0x40)\n      dup1\n      0x40\n      add\n      0x40\n      mstore\n      dup1\n        /* \"pedri/mapping.sol\":421:423  16 */\n      0x10\n        /* \"pedri/mapping.sol\":413:431  Student(16,\"adam\") */\n      dup2\n      mstore\n      0x20\n      add\n      mload(0x40)\n      dup1\n      0x40\n      add\n      0x40\n      mstore\n      dup1\n      0x04\n      dup2\n      mstore\n      0x20\n      add\n      0x6164616d00000000000000000000000000000000000000000000000000000000\n      dup2\n      mstore\n      pop\n      dup2\n      mstore\n      pop\n        /* \"pedri/mapping.sol\":397:409  student_info */\n      0x00\n        /* \"pedri/mapping.sol\":397:412  student_info[1] */\n      dup1\n        /* \"pedri/mapping.sol\":410:411  1 */\n      0x01\n        /* \"pedri/mapping.sol\":397:412  student_info[1] */\n      dup2\n      mstore\n      0x20\n      add\n      swap1\n      dup2\n      mstore\n      0x20\n      add\n      0x00\n      keccak256\n        /* \"pedri/mapping.sol\":397:431  student_info[1]=Student(16,\"adam\") */\n      0x00\n      dup3\n      add\n      mload\n      dup2\n      0x00\n      add\n      sstore\n      0x20\n      dup3\n      add\n      mload\n      dup2\n      0x01\n      add\n      swap1\n      dup2\n      tag_20\n      swap2\n      swap1\n      tag_21\n      jump\t// in\n    tag_20:\n      pop\n      swap1\n      pop\n      pop\n        /* \"pedri/mapping.sol\":455:473  Student(23,\"alex\") */\n      mload(0x40)\n      dup1\n      0x40\n      add\n      0x40\n      mstore\n      dup1\n        /* \"pedri/mapping.sol\":463:465  23 */\n      0x17\n        /* \"pedri/mapping.sol\":455:473  Student(23,\"alex\") */\n      dup2\n      mstore\n      0x20\n      add\n      mload(0x40)\n      dup1\n      0x40\n      add\n      0x40\n      mstore\n      dup1\n      0x04\n      dup2\n      mstore\n      0x20\n      add\n      0x616c657800000000000000000000000000000000000000000000000000000000\n      dup2\n      mstore\n      pop\n      dup2\n      mstore\n      pop\n        /* \"pedri/mapping.sol\":439:451  student_info */\n      0x00\n        /* \"pedri/mapping.sol\":439:454  student_info[2] */\n      dup1\n        /* \"pedri/mapping.sol\":452:453  2 */\n      0x02\n        /* \"pedri/mapping.sol\":439:454  student_info[2] */\n      dup2\n      mstore\n      0x20\n      add\n      swap1\n      dup2\n      mstore\n      0x20\n      add\n      0x00\n      keccak256\n        /* \"pedri/mapping.sol\":439:473  student_info[2]=Student(23,\"alex\") */\n      0x00\n      dup3\n      add\n      mload\n      dup2\n      0x00\n      add\n      sstore\n      0x20\n      dup3\n      add\n      mload\n      dup2\n      0x01\n      add\n      swap1\n      dup2\n      tag_22\n      swap2\n      swap1\n      tag_21\n      jump\t// in\n    tag_22:\n      pop\n      swap1\n      pop\n      pop\n        /* \"pedri/mapping.sol\":367:489  function some() public{... */\n      jump\t// out\n        /* \"#utility.yul\":88:205   */\n    tag_24:\n        /* \"#utility.yul\":197:198   */\n      0x00\n        /* \"#utility.yul\":194:195   */\n      dup1\n        /* \"#utility.yul\":187:199   */\n      revert\n        /* \"#utility.yul\":334:411   */\n    tag_26:\n        /* \"#utility.yul\":371:378   */\n      0x00\n        /* \"#utility.yul\":400:405   */\n      dup2\n        /* \"#utility.yul\":389:405   */\n      swap1\n      pop\n        /* \"#utility.yul\":334:411   */\n      swap2\n      swap1\n      pop\n      jump\t// out\n        /* \"#utility.yul\":417:539   */\n    tag_27:\n        /* \"#utility.yul\":490:514   */\n      tag_58\n        /* \"#utility.yul\":508:513   */\n      dup2\n        /* \"#utility.yul\":490:514   */\n      tag_26\n      jump\t// in\n    tag_58:\n        /* \"#utility.yul\":483:488   */\n      dup2\n        /* \"#utility.yul\":480:515   */\n      eq\n        /* \"#utility.yul\":470:533   */\n      tag_59\n      jumpi\n        /* \"#utility.yul\":529:530   */\n      0x00\n        /* \"#utility.yul\":526:527   */\n      dup1\n        /* \"#utility.yul\":519:531   */\n      revert\n        /* \"#utility.yul\":470:533   */\n    tag_59:\n        /* \"#utility.yul\":417:539   */\n      pop\n      jump\t// out\n        /* \"#utility.yul\":545:684   */\n    tag_28:\n        /* \"#utility.yul\":591:596   */\n      0x00\n        /* \"#utility.yul\":629:635   */\n      dup2\n        /* \"#utility.yul\":616:636   */\n      calldataload\n        /* \"#utility.yul\":607:636   */\n      swap1\n      pop\n        /* \"#utility.yul\":645:678   */\n      tag_61\n        /* \"#utility.yul\":672:677   */\n      dup2\n        /* \"#utility.yul\":645:678   */\n      tag_27\n      jump\t// in\n    tag_61:\n        /* \"#utility.yul\":545:684   */\n      swap3\n      swap2\n      pop\n      pop\n      jump\t// out\n        /* \"#utility.yul\":690:1019   */\n    tag_7:\n        /* \"#utility.yul\":749:755   */\n      0x00\n        /* \"#utility.yul\":798:800   */\n      0x20\n        /* \"#utility.yul\":786:795   */\n      dup3\n        /* \"#utility.yul\":777:784   */\n      dup5\n        /* \"#utility.yul\":773:796   */\n      sub\n        /* \"#utility.yul\":769:801   */\n      slt\n        /* \"#utility.yul\":766:885   */\n      iszero\n      tag_63\n      jumpi\n        /* \"#utility.yul\":804:883   */\n      tag_64\n      tag_24\n      jump\t// in\n    tag_64:\n        /* \"#utility.yul\":766:885   */\n    tag_63:\n        /* \"#utility.yul\":924:925   */\n      0x00\n        /* \"#utility.yul\":949:1002   */\n      tag_65\n        /* \"#utility.yul\":994:1001   */\n      dup5\n        /* \"#utility.yul\":985:991   */\n      dup3\n        /* \"#utility.yul\":974:983   */\n      dup6\n        /* \"#utility.yul\":970:992   */\n      add\n        /* \"#utility.yul\":949:1002   */\n      tag_28\n      jump\t// in\n    tag_65:\n        /* \"#utility.yul\":939:1002   */\n      swap2\n      pop\n        /* \"#utility.yul\":895:1012   */\n      pop\n        /* \"#utility.yul\":690:1019   */\n      swap3\n      swap2\n      pop\n      pop\n      jump\t// out\n        /* \"#utility.yul\":1025:1143   */\n    tag_29:\n        /* \"#utility.yul\":1112:1136   */\n      tag_67\n        /* \"#utility.yul\":1130:1135   */\n      dup2\n        /* \"#utility.yul\":1112:1136   */\n      tag_26\n      jump\t// in\n    tag_67:\n        /* \"#utility.yul\":1107:1110   */\n      dup3\n        /* \"#utility.yul\":1100:1137   */\n      mstore\n        /* \"#utility.yul\":1025:1143   */\n      pop\n      pop\n      jump\t// out\n        /* \"#utility.yul\":1149:1248   */\n    tag_30:\n        /* \"#utility.yul\":1201:1207   */\n      0x00\n        /* \"#utility.yul\":1235:1240   */\n      dup2\n        /* \"#utility.yul\":1229:1241   */\n      mload\n        /* \"#utility.yul\":1219:1241   */\n      swap1\n      pop\n        /* \"#utility.yul\":1149:1248   */\n      swap2\n      swap1\n      pop\n      jump\t// out\n        /* \"#utility.yul\":1254:1423   */\n    tag_31:\n        /* \"#utility.yul\":1338:1349   */\n      0x00\n        /* \"#utility.yul\":1372:1378   */\n      dup3\n        /* \"#utility.yul\":1367:1370   */\n      dup3\n        /* \"#utility.yul\":1360:1379   */\n      mstore\n        /* \"#utility.yul\":1412:1416   */\n      0x20\n        /* \"#utility.yul\":1407:1410   */\n      dup3\n        /* \"#utility.yul\":1403:1417   */\n      add\n        /* \"#utility.yul\":1388:1417   */\n      swap1\n      pop\n        /* \"#utility.yul\":1254:1423   */\n      swap3\n      swap2\n      pop\n      pop\n      jump\t// out\n        /* \"#utility.yul\":1429:1675   */\n    tag_32:\n        /* \"#utility.yul\":1510:1511   */\n      0x00\n        /* \"#utility.yul\":1520:1633   */\n    tag_71:\n        /* \"#utility.yul\":1534:1540   */\n      dup4\n        /* \"#utility.yul\":1531:1532   */\n      dup2\n        /* \"#utility.yul\":1528:1541   */\n      lt\n        /* \"#utility.yul\":1520:1633   */\n      iszero\n      tag_73\n      jumpi\n        /* \"#utility.yul\":1619:1620   */\n      dup1\n        /* \"#utility.yul\":1614:1617   */\n      dup3\n        /* \"#utility.yul\":1610:1621   */\n      add\n        /* \"#utility.yul\":1604:1622   */\n      mload\n        /* \"#utility.yul\":1600:1601   */\n      dup2\n        /* \"#utility.yul\":1595:1598   */\n      dup5\n        /* \"#utility.yul\":1591:1602   */\n      add\n        /* \"#utility.yul\":1584:1623   */\n      mstore\n        /* \"#utility.yul\":1556:1558   */\n      0x20\n        /* \"#utility.yul\":1553:1554   */\n      dup2\n        /* \"#utility.yul\":1549:1559   */\n      add\n        /* \"#utility.yul\":1544:1559   */\n      swap1\n      pop\n        /* \"#utility.yul\":1520:1633   */\n      jump(tag_71)\n    tag_73:\n        /* \"#utility.yul\":1667:1668   */\n      0x00\n        /* \"#utility.yul\":1658:1664   */\n      dup5\n        /* \"#utility.yul\":1653:1656   */\n      dup5\n        /* \"#utility.yul\":1649:1665   */\n      add\n        /* \"#utility.yul\":1642:1669   */\n      mstore\n        /* \"#utility.yul\":1491:1675   */\n      pop\n        /* \"#utility.yul\":1429:1675   */\n      pop\n      pop\n      pop\n      jump\t// out\n        /* \"#utility.yul\":1681:1783   */\n    tag_33:\n        /* \"#utility.yul\":1722:1728   */\n      0x00\n        /* \"#utility.yul\":1773:1775   */\n      0x1f\n        /* \"#utility.yul\":1769:1776   */\n      not\n        /* \"#utility.yul\":1764:1766   */\n      0x1f\n        /* \"#utility.yul\":1757:1762   */\n      dup4\n        /* \"#utility.yul\":1753:1767   */\n      add\n        /* \"#utility.yul\":1749:1777   */\n      and\n        /* \"#utility.yul\":1739:1777   */\n      swap1\n      pop\n        /* \"#utility.yul\":1681:1783   */\n      swap2\n      swap1\n      pop\n      jump\t// out\n        /* \"#utility.yul\":1789:2166   */\n    tag_34:\n        /* \"#utility.yul\":1877:1880   */\n      0x00\n        /* \"#utility.yul\":1905:1944   */\n      tag_76\n        /* \"#utility.yul\":1938:1943   */\n      dup3\n        /* \"#utility.yul\":1905:1944   */\n      tag_30\n      jump\t// in\n    tag_76:\n        /* \"#utility.yul\":1960:2031   */\n      tag_77\n        /* \"#utility.yul\":2024:2030   */\n      dup2\n        /* \"#utility.yul\":2019:2022   */\n      dup6\n        /* \"#utility.yul\":1960:2031   */\n      tag_31\n      jump\t// in\n    tag_77:\n        /* \"#utility.yul\":1953:2031   */\n      swap4\n      pop\n        /* \"#utility.yul\":2040:2105   */\n      tag_78\n        /* \"#utility.yul\":2098:2104   */\n      dup2\n        /* \"#utility.yul\":2093:2096   */\n      dup6\n        /* \"#utility.yul\":2086:2090   */\n      0x20\n        /* \"#utility.yul\":2079:2084   */\n      dup7\n        /* \"#utility.yul\":2075:2091   */\n      add\n        /* \"#utility.yul\":2040:2105   */\n      tag_32\n      jump\t// in\n    tag_78:\n        /* \"#utility.yul\":2130:2159   */\n      tag_79\n        /* \"#utility.yul\":2152:2158   */\n      dup2\n        /* \"#utility.yul\":2130:2159   */\n      tag_33\n      jump\t// in\n    tag_79:\n        /* \"#utility.yul\":2125:2128   */\n      dup5\n        /* \"#utility.yul\":2121:2160   */\n      add\n        /* \"#utility.yul\":2114:2160   */\n      swap2\n      pop\n        /* \"#utility.yul\":1881:2166   */\n      pop\n        /* \"#utility.yul\":1789:2166   */\n      swap3\n      swap2\n      pop\n      pop\n      jump\t// out\n        /* \"#utility.yul\":2172:2595   */\n    tag_10:\n        /* \"#utility.yul\":2313:2317   */\n      0x00\n        /* \"#utility.yul\":2351:2353   */\n      0x40\n        /* \"#utility.yul\":2340:2349   */\n      dup3\n        /* \"#utility.yul\":2336:2354   */\n      add\n        /* \"#utility.yul\":2328:2354   */\n      swap1\n      pop\n        /* \"#utility.yul\":2364:2435   */\n      tag_81\n        /* \"#utility.yul\":2432:2433   */\n      0x00\n        /* \"#utility.yul\":2421:2430   */\n      dup4\n        /* \"#utility.yul\":2417:2434   */\n      add\n        /* \"#utility.yul\":2408:2414   */\n      dup6\n        /* \"#utility.yul\":2364:2435   */\n      tag_29\n      jump\t// in\n    tag_81:\n        /* \"#utility.yul\":2482:2491   */\n      dup2\n        /* \"#utility.yul\":2476:2480   */\n      dup2\n        /* \"#utility.yul\":2472:2492   */\n      sub\n        /* \"#utility.yul\":2467:2469   */\n      0x20\n        /* \"#utility.yul\":2456:2465   */\n      dup4\n        /* \"#utility.yul\":2452:2470   */\n      add\n        /* \"#utility.yul\":2445:2493   */\n      mstore\n        /* \"#utility.yul\":2510:2588   */\n      tag_82\n        /* \"#utility.yul\":2583:2587   */\n      dup2\n        /* \"#utility.yul\":2574:2580   */\n      dup5\n        /* \"#utility.yul\":2510:2588   */\n      tag_34\n      jump\t// in\n    tag_82:\n        /* \"#utility.yul\":2502:2588   */\n      swap1\n      pop\n        /* \"#utility.yul\":2172:2595   */\n      swap4\n      swap3\n      pop\n      pop\n      pop\n      jump\t// out\n        /* \"#utility.yul\":2601:2781   */\n    tag_35:\n        /* \"#utility.yul\":2649:2726   */\n      0x4e487b7100000000000000000000000000000000000000000000000000000000\n        /* \"#utility.yul\":2646:2647   */\n      0x00\n        /* \"#utility.yul\":2639:2727   */\n      mstore\n        /* \"#utility.yul\":2746:2750   */\n      0x22\n        /* \"#utility.yul\":2743:2744   */\n      0x04\n        /* \"#utility.yul\":2736:2751   */\n      mstore\n        /* \"#utility.yul\":2770:2774   */\n      0x24\n        /* \"#utility.yul\":2767:2768   */\n      0x00\n        /* \"#utility.yul\":2760:2775   */\n      revert\n        /* \"#utility.yul\":2787:3107   */\n    tag_14:\n        /* \"#utility.yul\":2831:2837   */\n      0x00\n        /* \"#utility.yul\":2868:2869   */\n      0x02\n        /* \"#utility.yul\":2862:2866   */\n      dup3\n        /* \"#utility.yul\":2858:2870   */\n      div\n        /* \"#utility.yul\":2848:2870   */\n      swap1\n      pop\n        /* \"#utility.yul\":2915:2916   */\n      0x01\n        /* \"#utility.yul\":2909:2913   */\n      dup3\n        /* \"#utility.yul\":2905:2917   */\n      and\n        /* \"#utility.yul\":2936:2954   */\n      dup1\n        /* \"#utility.yul\":2926:3007   */\n      tag_85\n      jumpi\n        /* \"#utility.yul\":2992:2996   */\n      0x7f\n        /* \"#utility.yul\":2984:2990   */\n      dup3\n        /* \"#utility.yul\":2980:2997   */\n      and\n        /* \"#utility.yul\":2970:2997   */\n      swap2\n      pop\n        /* \"#utility.yul\":2926:3007   */\n    tag_85:\n        /* \"#utility.yul\":3054:3056   */\n      0x20\n        /* \"#utility.yul\":3046:3052   */\n      dup3\n        /* \"#utility.yul\":3043:3057   */\n      lt\n        /* \"#utility.yul\":3023:3041   */\n      dup2\n        /* \"#utility.yul\":3020:3058   */\n      sub\n        /* \"#utility.yul\":3017:3101   */\n      tag_86\n      jumpi\n        /* \"#utility.yul\":3073:3091   */\n      tag_87\n      tag_35\n      jump\t// in\n    tag_87:\n        /* \"#utility.yul\":3017:3101   */\n    tag_86:\n        /* \"#utility.yul\":2838:3107   */\n      pop\n        /* \"#utility.yul\":2787:3107   */\n      swap2\n      swap1\n      pop\n      jump\t// out\n        /* \"#utility.yul\":3113:3293   */\n    tag_36:\n        /* \"#utility.yul\":3161:3238   */\n      0x4e487b7100000000000000000000000000000000000000000000000000000000\n        /* \"#utility.yul\":3158:3159   */\n      0x00\n        /* \"#utility.yul\":3151:3239   */\n      mstore\n        /* \"#utility.yul\":3258:3262   */\n      0x41\n        /* \"#utility.yul\":3255:3256   */\n      0x04\n        /* \"#utility.yul\":3248:3263   */\n      mstore\n        /* \"#utility.yul\":3282:3286   */\n      0x24\n        /* \"#utility.yul\":3279:3280   */\n      0x00\n        /* \"#utility.yul\":3272:3287   */\n      revert\n        /* \"#utility.yul\":3299:3440   */\n    tag_37:\n        /* \"#utility.yul\":3348:3352   */\n      0x00\n        /* \"#utility.yul\":3371:3374   */\n      dup2\n        /* \"#utility.yul\":3363:3374   */\n      swap1\n      pop\n        /* \"#utility.yul\":3394:3397   */\n      dup2\n        /* \"#utility.yul\":3391:3392   */\n      0x00\n        /* \"#utility.yul\":3384:3398   */\n      mstore\n        /* \"#utility.yul\":3428:3432   */\n      0x20\n        /* \"#utility.yul\":3425:3426   */\n      0x00\n        /* \"#utility.yul\":3415:3433   */\n      keccak256\n        /* \"#utility.yul\":3407:3433   */\n      swap1\n      pop\n        /* \"#utility.yul\":3299:3440   */\n      swap2\n      swap1\n      pop\n      jump\t// out\n        /* \"#utility.yul\":3446:3539   */\n    tag_38:\n        /* \"#utility.yul\":3483:3489   */\n      0x00\n        /* \"#utility.yul\":3530:3532   */\n      0x20\n        /* \"#utility.yul\":3525:3527   */\n      0x1f\n        /* \"#utility.yul\":3518:3523   */\n      dup4\n        /* \"#utility.yul\":3514:3528   */\n      add\n        /* \"#utility.yul\":3510:3533   */\n      div\n        /* \"#utility.yul\":3500:3533   */\n      swap1\n      pop\n        /* \"#utility.yul\":3446:3539   */\n      swap2\n      swap1\n      pop\n      jump\t// out\n        /* \"#utility.yul\":3545:3652   */\n    tag_39:\n        /* \"#utility.yul\":3589:3597   */\n      0x00\n        /* \"#utility.yul\":3639:3644   */\n      dup3\n        /* \"#utility.yul\":3633:3637   */\n      dup3\n        /* \"#utility.yul\":3629:3645   */\n      shl\n        /* \"#utility.yul\":3608:3645   */\n      swap1\n      pop\n        /* \"#utility.yul\":3545:3652   */\n      swap3\n      swap2\n      pop\n      pop\n      jump\t// out\n        /* \"#utility.yul\":3658:4051   */\n    tag_40:\n        /* \"#utility.yul\":3727:3733   */\n      0x00\n        /* \"#utility.yul\":3777:3778   */\n      0x08\n        /* \"#utility.yul\":3765:3775   */\n      dup4\n        /* \"#utility.yul\":3761:3779   */\n      mul\n        /* \"#utility.yul\":3800:3897   */\n      tag_93\n        /* \"#utility.yul\":3830:3896   */\n      0xffffffffffffffffffffffffffffffffffffffffffffffffffffffffffffffff\n        /* \"#utility.yul\":3819:3828   */\n      dup3\n        /* \"#utility.yul\":3800:3897   */\n      tag_39\n      jump\t// in\n    tag_93:\n        /* \"#utility.yul\":3918:3957   */\n      tag_94\n        /* \"#utility.yul\":3948:3956   */\n      dup7\n        /* \"#utility.yul\":3937:3946   */\n      dup4\n        /* \"#utility.yul\":3918:3957   */\n      tag_39\n      jump\t// in\n    tag_94:\n        /* \"#utility.yul\":3906:3957   */\n      swap6\n      pop\n        /* \"#utility.yul\":3990:3994   */\n      dup1\n        /* \"#utility.yul\":3986:3995   */\n      not\n        /* \"#utility.yul\":3979:3984   */\n      dup5\n        /* \"#utility.yul\":3975:3996   */\n      and\n        /* \"#utility.yul\":3966:3996   */\n      swap4\n      pop\n        /* \"#utility.yul\":4039:4043   */\n      dup1\n        /* \"#utility.yul\":4029:4037   */\n      dup7\n        /* \"#utility.yul\":4025:4044   */\n      and\n        /* \"#utility.yul\":4018:4023   */\n      dup5\n        /* \"#utility.yul\":4015:4045   */\n      or\n        /* \"#utility.yul\":4005:4045   */\n      swap3\n      pop\n        /* \"#utility.yul\":3734:4051   */\n      pop\n      pop\n        /* \"#utility.yul\":3658:4051   */\n      swap4\n      swap3\n      pop\n      pop\n      pop\n      jump\t// out\n        /* \"#utility.yul\":4057:4117   */\n    tag_41:\n        /* \"#utility.yul\":4085:4088   */\n      0x00\n        /* \"#utility.yul\":4106:4111   */\n      dup2\n        /* \"#utility.yul\":4099:4111   */\n      swap1\n      pop\n        /* \"#utility.yul\":4057:4117   */\n      swap2\n      swap1\n      pop\n      jump\t// out\n        /* \"#utility.yul\":4123:4265   */\n    tag_42:\n        /* \"#utility.yul\":4173:4182   */\n      0x00\n        /* \"#utility.yul\":4206:4259   */\n      tag_97\n        /* \"#utility.yul\":4224:4258   */\n      tag_98\n        /* \"#utility.yul\":4233:4257   */\n      tag_99\n        /* \"#utility.yul\":4251:4256   */\n      dup5\n        /* \"#utility.yul\":4233:4257   */\n      tag_26\n      jump\t// in\n    tag_99:\n        /* \"#utility.yul\":4224:4258   */\n      tag_41\n      jump\t// in\n    tag_98:\n        /* \"#utility.yul\":4206:4259   */\n      tag_26\n      jump\t// in\n    tag_97:\n        /* \"#utility.yul\":4193:4259   */\n      swap1\n      pop\n        /* \"#utility.yul\":4123:4265   */\n      swap2\n      swap1\n      pop\n      jump\t// out\n        /* \"#utility.yul\":4271:4346   */\n    tag_43:\n        /* \"#utility.yul\":4314:4317   */\n      0x00\n        /* \"#utility.yul\":4335:4340   */\n      dup2\n        /* \"#utility.yul\":4328:4340   */\n      swap1\n      pop\n        /* \"#utility.yul\":4271:4346   */\n      swap2\n      swap1\n      pop\n      jump\t// out\n        /* \"#utility.yul\":4352:4621   */\n    tag_44:\n        /* \"#utility.yul\":4462:4501   */\n      tag_102\n        /* \"#utility.yul\":4493:4500   */\n      dup4\n        /* \"#utility.yul\":4462:4501   */\n      tag_42\n      jump\t// in\n    tag_102:\n        /* \"#utility.yul\":4523:4614   */\n      tag_103\n        /* \"#utility.yul\":4572:4613   */\n      tag_104\n        /* \"#utility.yul\":4596:4612   */\n      dup3\n        /* \"#utility.yul\":4572:4613   */\n      tag_43\n      jump\t// in\n    tag_104:\n        /* \"#utility.yul\":4564:4570   */\n      dup5\n        /* \"#utility.yul\":4557:4561   */\n      dup5\n        /* \"#utility.yul\":4551:4562   */\n      sload\n        /* \"#utility.yul\":4523:4614   */\n      tag_40\n      jump\t// in\n    tag_103:\n        /* \"#utility.yul\":4517:4521   */\n      dup3\n        /* \"#utility.yul\":4510:4615   */\n      sstore\n        /* \"#utility.yul\":4428:4621   */\n      pop\n        /* \"#utility.yul\":4352:4621   */\n      pop\n      pop\n      pop\n      jump\t// out\n        /* \"#utility.yul\":4627:4700   */\n    tag_45:\n        /* \"#utility.yul\":4672:4675   */\n      0x00\n        /* \"#utility.yul\":4627:4700   */\n      swap1\n      jump\t// out\n        /* \"#utility.yul\":4706:4895   */\n    tag_46:\n        /* \"#utility.yul\":4783:4815   */\n      tag_107\n      tag_45\n      jump\t// in\n    tag_107:\n        /* \"#utility.yul\":4824:4889   */\n      tag_108\n        /* \"#utility.yul\":4882:4888   */\n      dup2\n        /* \"#utility.yul\":4874:4880   */\n      dup5\n        /* \"#utility.yul\":4868:4872   */\n      dup5\n        /* \"#utility.yul\":4824:4889   */\n      tag_44\n      jump\t// in\n    tag_108:\n        /* \"#utility.yul\":4759:4895   */\n      pop\n        /* \"#utility.yul\":4706:4895   */\n      pop\n      pop\n      jump\t// out\n        /* \"#utility.yul\":4901:5087   */\n    tag_47:\n        /* \"#utility.yul\":4961:5081   */\n    tag_110:\n        /* \"#utility.yul\":4978:4981   */\n      dup2\n        /* \"#utility.yul\":4971:4976   */\n      dup2\n        /* \"#utility.yul\":4968:4982   */\n      lt\n        /* \"#utility.yul\":4961:5081   */\n      iszero\n      tag_112\n      jumpi\n        /* \"#utility.yul\":5032:5071   */\n      tag_113\n        /* \"#utility.yul\":5069:5070   */\n      0x00\n        /* \"#utility.yul\":5062:5067   */\n      dup3\n        /* \"#utility.yul\":5032:5071   */\n      tag_46\n      jump\t// in\n    tag_113:\n        /* \"#utility.yul\":5005:5006   */\n      0x01\n        /* \"#utility.yul\":4998:5003   */\n      dup2\n        /* \"#utility.yul\":4994:5007   */\n      add\n        /* \"#utility.yul\":4985:5007   */\n      swap1\n      pop\n        /* \"#utility.yul\":4961:5081   */\n      jump(tag_110)\n    tag_112:\n        /* \"#utility.yul\":4901:5087   */\n      pop\n      pop\n      jump\t// out\n        /* \"#utility.yul\":5093:5636   */\n    tag_48:\n        /* \"#utility.yul\":5194:5196   */\n      0x1f\n        /* \"#utility.yul\":5189:5192   */\n      dup3\n        /* \"#utility.yul\":5186:5197   */\n      gt\n        /* \"#utility.yul\":5183:5629   */\n      iszero\n      tag_115\n      jumpi\n        /* \"#utility.yul\":5228:5266   */\n      tag_116\n        /* \"#utility.yul\":5260:5265   */\n      dup2\n        /* \"#utility.yul\":5228:5266   */\n      tag_37\n      jump\t// in\n    tag_116:\n        /* \"#utility.yul\":5312:5341   */\n      tag_117\n        /* \"#utility.yul\":5330:5340   */\n      dup5\n        /* \"#utility.yul\":5312:5341   */\n      tag_38\n      jump\t// in\n    tag_117:\n        /* \"#utility.yul\":5302:5310   */\n      dup2\n        /* \"#utility.yul\":5298:5342   */\n      add\n        /* \"#utility.yul\":5495:5497   */\n      0x20\n        /* \"#utility.yul\":5483:5493   */\n      dup6\n        /* \"#utility.yul\":5480:5498   */\n      lt\n        /* \"#utility.yul\":5477:5526   */\n      iszero\n      tag_118\n      jumpi\n        /* \"#utility.yul\":5516:5524   */\n      dup2\n        /* \"#utility.yul\":5501:5524   */\n      swap1\n      pop\n        /* \"#utility.yul\":5477:5526   */\n    tag_118:\n        /* \"#utility.yul\":5539:5619   */\n      tag_119\n        /* \"#utility.yul\":5595:5617   */\n      tag_120\n        /* \"#utility.yul\":5613:5616   */\n      dup6\n        /* \"#utility.yul\":5595:5617   */\n      tag_38\n      jump\t// in\n    tag_120:\n        /* \"#utility.yul\":5585:5593   */\n      dup4\n        /* \"#utility.yul\":5581:5618   */\n      add\n        /* \"#utility.yul\":5568:5579   */\n      dup3\n        /* \"#utility.yul\":5539:5619   */\n      tag_47\n      jump\t// in\n    tag_119:\n        /* \"#utility.yul\":5198:5629   */\n      pop\n      pop\n        /* \"#utility.yul\":5183:5629   */\n    tag_115:\n        /* \"#utility.yul\":5093:5636   */\n      pop\n      pop\n      pop\n      jump\t// out\n        /* \"#utility.yul\":5642:5759   */\n    tag_49:\n        /* \"#utility.yul\":5696:5704   */\n      0x00\n        /* \"#utility.yul\":5746:5751   */\n      dup3\n        /* \"#utility.yul\":5740:5744   */\n      dup3\n        /* \"#utility.yul\":5736:5752   */\n      shr\n        /* \"#utility.yul\":5715:5752   */\n      swap1\n      pop\n        /* \"#utility.yul\":5642:5759   */\n      swap3\n      swap2\n      pop\n      pop\n      jump\t// out\n        /* \"#utility.yul\":5765:5934   */\n    tag_50:\n        /* \"#utility.yul\":5809:5815   */\n      0x00\n        /* \"#utility.yul\":5842:5893   */\n      tag_123\n        /* \"#utility.yul\":5890:5891   */\n      0x00\n        /* \"#utility.yul\":5886:5892   */\n      not\n        /* \"#utility.yul\":5878:5883   */\n      dup5\n        /* \"#utility.yul\":5875:5876   */\n      0x08\n        /* \"#utility.yul\":5871:5884   */\n      mul\n        /* \"#utility.yul\":5842:5893   */\n      tag_49\n      jump\t// in\n    tag_123:\n        /* \"#utility.yul\":5838:5894   */\n      not\n        /* \"#utility.yul\":5923:5927   */\n      dup1\n        /* \"#utility.yul\":5917:5921   */\n      dup4\n        /* \"#utility.yul\":5913:5928   */\n      and\n        /* \"#utility.yul\":5903:5928   */\n      swap2\n      pop\n        /* \"#utility.yul\":5816:5934   */\n      pop\n        /* \"#utility.yul\":5765:5934   */\n      swap3\n      swap2\n      pop\n      pop\n      jump\t// out\n        /* \"#utility.yul\":5939:6234   */\n    tag_51:\n        /* \"#utility.yul\":6015:6019   */\n      0x00\n        /* \"#utility.yul\":6161:6190   */\n      tag_125\n        /* \"#utility.yul\":6186:6189   */\n      dup4\n        /* \"#utility.yul\":6180:6184   */\n      dup4\n        /* \"#utility.yul\":6161:6190   */\n      tag_50\n      jump\t// in\n    tag_125:\n        /* \"#utility.yul\":6153:6190   */\n      swap2\n      pop\n        /* \"#utility.yul\":6223:6226   */\n      dup3\n        /* \"#utility.yul\":6220:6221   */\n      0x02\n        /* \"#utility.yul\":6216:6227   */\n      mul\n        /* \"#utility.yul\":6210:6214   */\n      dup3\n        /* \"#utility.yul\":6207:6228   */\n      or\n        /* \"#utility.yul\":6199:6228   */\n      swap1\n      pop\n        /* \"#utility.yul\":5939:6234   */\n      swap3\n      swap2\n      pop\n      pop\n      jump\t// out\n        /* \"#utility.yul\":6239:7634   */\n    tag_21:\n        /* \"#utility.yul\":6356:6393   */\n      tag_127\n        /* \"#utility.yul\":6389:6392   */\n      dup3\n        /* \"#utility.yul\":6356:6393   */\n      tag_30\n      jump\t// in\n    tag_127:\n        /* \"#utility.yul\":6458:6476   */\n      0xffffffffffffffff\n        /* \"#utility.yul\":6450:6456   */\n      dup2\n        /* \"#utility.yul\":6447:6477   */\n      gt\n        /* \"#utility.yul\":6444:6500   */\n      iszero\n      tag_128\n      jumpi\n        /* \"#utility.yul\":6480:6498   */\n      tag_129\n      tag_36\n      jump\t// in\n    tag_129:\n        /* \"#utility.yul\":6444:6500   */\n    tag_128:\n        /* \"#utility.yul\":6524:6562   */\n      tag_130\n        /* \"#utility.yul\":6556:6560   */\n      dup3\n        /* \"#utility.yul\":6550:6561   */\n      sload\n        /* \"#utility.yul\":6524:6562   */\n      tag_14\n      jump\t// in\n    tag_130:\n        /* \"#utility.yul\":6609:6676   */\n      tag_131\n        /* \"#utility.yul\":6669:6675   */\n      dup3\n        /* \"#utility.yul\":6661:6667   */\n      dup3\n        /* \"#utility.yul\":6655:6659   */\n      dup6\n        /* \"#utility.yul\":6609:6676   */\n      tag_48\n      jump\t// in\n    tag_131:\n        /* \"#utility.yul\":6703:6704   */\n      0x00\n        /* \"#utility.yul\":6727:6731   */\n      0x20\n        /* \"#utility.yul\":6714:6731   */\n      swap1\n      pop\n        /* \"#utility.yul\":6759:6761   */\n      0x1f\n        /* \"#utility.yul\":6751:6757   */\n      dup4\n        /* \"#utility.yul\":6748:6762   */\n      gt\n        /* \"#utility.yul\":6776:6777   */\n      0x01\n        /* \"#utility.yul\":6771:7389   */\n      dup2\n      eq\n      tag_133\n      jumpi\n        /* \"#utility.yul\":7433:7434   */\n      0x00\n        /* \"#utility.yul\":7450:7456   */\n      dup5\n        /* \"#utility.yul\":7447:7524   */\n      iszero\n      tag_134\n      jumpi\n        /* \"#utility.yul\":7499:7508   */\n      dup3\n        /* \"#utility.yul\":7494:7497   */\n      dup8\n        /* \"#utility.yul\":7490:7509   */\n      add\n        /* \"#utility.yul\":7484:7510   */\n      mload\n        /* \"#utility.yul\":7475:7510   */\n      swap1\n      pop\n        /* \"#utility.yul\":7447:7524   */\n    tag_134:\n        /* \"#utility.yul\":7550:7617   */\n      tag_135\n        /* \"#utility.yul\":7610:7616   */\n      dup6\n        /* \"#utility.yul\":7603:7608   */\n      dup3\n        /* \"#utility.yul\":7550:7617   */\n      tag_51\n      jump\t// in\n    tag_135:\n        /* \"#utility.yul\":7544:7548   */\n      dup7\n        /* \"#utility.yul\":7537:7618   */\n      sstore\n        /* \"#utility.yul\":7406:7628   */\n      pop\n        /* \"#utility.yul\":6741:7628   */\n      jump(tag_132)\n        /* \"#utility.yul\":6771:7389   */\n    tag_133:\n        /* \"#utility.yul\":6823:6827   */\n      0x1f\n        /* \"#utility.yul\":6819:6828   */\n      not\n        /* \"#utility.yul\":6811:6817   */\n      dup5\n        /* \"#utility.yul\":6807:6829   */\n      and\n        /* \"#utility.yul\":6857:6894   */\n      tag_136\n        /* \"#utility.yul\":6889:6893   */\n      dup7\n        /* \"#utility.yul\":6857:6894   */\n      tag_37\n      jump\t// in\n    tag_136:\n        /* \"#utility.yul\":6916:6917   */\n      0x00\n        /* \"#utility.yul\":6930:7138   */\n    tag_137:\n        /* \"#utility.yul\":6944:6951   */\n      dup3\n        /* \"#utility.yul\":6941:6942   */\n      dup2\n        /* \"#utility.yul\":6938:6952   */\n      lt\n        /* \"#utility.yul\":6930:7138   */\n      iszero\n      tag_139\n      jumpi\n        /* \"#utility.yul\":7023:7032   */\n      dup5\n        /* \"#utility.yul\":7018:7021   */\n      dup10\n        /* \"#utility.yul\":7014:7033   */\n      add\n        /* \"#utility.yul\":7008:7034   */\n      mload\n        /* \"#utility.yul\":7000:7006   */\n      dup3\n        /* \"#utility.yul\":6993:7035   */\n      sstore\n        /* \"#utility.yul\":7074:7075   */\n      0x01\n        /* \"#utility.yul\":7066:7072   */\n      dup3\n        /* \"#utility.yul\":7062:7076   */\n      add\n        /* \"#utility.yul\":7052:7076   */\n      swap2\n      pop\n        /* \"#utility.yul\":7121:7123   */\n      0x20\n        /* \"#utility.yul\":7110:7119   */\n      dup6\n        /* \"#utility.yul\":7106:7124   */\n      add\n        /* \"#utility.yul\":7093:7124   */\n      swap5\n      pop\n        /* \"#utility.yul\":6967:6971   */\n      0x20\n        /* \"#utility.yul\":6964:6965   */\n      dup2\n        /* \"#utility.yul\":6960:6972   */\n      add\n        /* \"#utility.yul\":6955:6972   */\n      swap1\n      pop\n        /* \"#utility.yul\":6930:7138   */\n      jump(tag_137)\n    tag_139:\n        /* \"#utility.yul\":7166:7172   */\n      dup7\n        /* \"#utility.yul\":7157:7164   */\n      dup4\n        /* \"#utility.yul\":7154:7173   */\n      lt\n        /* \"#utility.yul\":7151:7330   */\n      iszero\n      tag_140\n      jumpi\n        /* \"#utility.yul\":7224:7233   */\n      dup5\n        /* \"#utility.yul\":7219:7222   */\n      dup10\n        /* \"#utility.yul\":7215:7234   */\n      add\n        /* \"#utility.yul\":7209:7235   */\n      mload\n        /* \"#utility.yul\":7267:7315   */\n      tag_141\n        /* \"#utility.yul\":7309:7313   */\n      0x1f\n        /* \"#utility.yul\":7301:7307   */\n      dup10\n        /* \"#utility.yul\":7297:7314   */\n      and\n        /* \"#utility.yul\":7286:7295   */\n      dup3\n        /* \"#utility.yul\":7267:7315   */\n      tag_50\n      jump\t// in\n    tag_141:\n        /* \"#utility.yul\":7259:7265   */\n      dup4\n        /* \"#utility.yul\":7252:7316   */\n      sstore\n        /* \"#utility.yul\":7174:7330   */\n      pop\n        /* \"#utility.yul\":7151:7330   */\n    tag_140:\n        /* \"#utility.yul\":7376:7377   */\n      0x01\n        /* \"#utility.yul\":7372:7373   */\n      0x02\n        /* \"#utility.yul\":7364:7370   */\n      dup9\n        /* \"#utility.yul\":7360:7374   */\n      mul\n        /* \"#utility.yul\":7356:7378   */\n      add\n        /* \"#utility.yul\":7350:7354   */\n      dup9\n        /* \"#utility.yul\":7343:7379   */\n      sstore\n        /* \"#utility.yul\":6778:7389   */\n      pop\n      pop\n      pop\n        /* \"#utility.yul\":6741:7628   */\n    tag_132:\n      pop\n        /* \"#utility.yul\":6331:7634   */\n      pop\n      pop\n      pop\n        /* \"#utility.yul\":6239:7634   */\n      pop\n      pop\n      jump\t// out\n\n    auxdata: 0xa26469706673582212200a58dcfd4861886ceb6e29adadd0f7ca063f4b06a3b496d42ed1b0dec9fc244b64736f6c63430008120033\n}\n",
				"bytecode": {
					"linkReferences": {},
					"object": "608060405234801561001057600080fd5b506106a0806100206000396000f3fe608060405234801561001057600080fd5b50600436106100365760003560e01c806317af41bf1461003b578063c03ee3d31461006c575b600080fd5b61005560048036038101906100509190610261565b610076565b60405161006392919061032d565b60405180910390f35b610074610122565b005b600060205280600052604060002060009150905080600001549080600101805461009f9061038c565b80601f01602080910402602001604051908101604052809291908181526020018280546100cb9061038c565b80156101185780601f106100ed57610100808354040283529160200191610118565b820191906000526020600020905b8154815290600101906020018083116100fb57829003601f168201915b5050505050905082565b6040518060400160405280601081526020016040518060400160405280600481526020017f6164616d000000000000000000000000000000000000000000000000000000008152508152506000806001815260200190815260200160002060008201518160000155602082015181600101908161019f9190610598565b509050506040518060400160405280601781526020016040518060400160405280600481526020017f616c657800000000000000000000000000000000000000000000000000000000815250815250600080600281526020019081526020016000206000820151816000015560208201518160010190816102209190610598565b50905050565b600080fd5b6000819050919050565b61023e8161022b565b811461024957600080fd5b50565b60008135905061025b81610235565b92915050565b60006020828403121561027757610276610226565b5b60006102858482850161024c565b91505092915050565b6102978161022b565b82525050565b600081519050919050565b600082825260208201905092915050565b60005b838110156102d75780820151818401526020810190506102bc565b60008484015250505050565b6000601f19601f8301169050919050565b60006102ff8261029d565b61030981856102a8565b93506103198185602086016102b9565b610322816102e3565b840191505092915050565b6000604082019050610342600083018561028e565b818103602083015261035481846102f4565b90509392505050565b7f4e487b7100000000000000000000000000000000000000000000000000000000600052602260045260246000fd5b600060028204905060018216806103a457607f821691505b6020821081036103b7576103b661035d565b5b50919050565b7f4e487b7100000000000000000000000000000000000000000000000000000000600052604160045260246000fd5b60008190508160005260206000209050919050565b60006020601f8301049050919050565b600082821b905092915050565b60006008830261044e7fffffffffffffffffffffffffffffffffffffffffffffffffffffffffffffffff82610411565b6104588683610411565b95508019841693508086168417925050509392505050565b6000819050919050565b600061049561049061048b8461022b565b610470565b61022b565b9050919050565b6000819050919050565b6104af8361047a565b6104c36104bb8261049c565b84845461041e565b825550505050565b600090565b6104d86104cb565b6104e38184846104a6565b505050565b5b81811015610507576104fc6000826104d0565b6001810190506104e9565b5050565b601f82111561054c5761051d816103ec565b61052684610401565b81016020851015610535578190505b61054961054185610401565b8301826104e8565b50505b505050565b600082821c905092915050565b600061056f60001984600802610551565b1980831691505092915050565b6000610588838361055e565b9150826002028217905092915050565b6105a18261029d565b67ffffffffffffffff8111156105ba576105b96103bd565b5b6105c4825461038c565b6105cf82828561050b565b600060209050601f83116001811461060257600084156105f0578287015190505b6105fa858261057c565b865550610662565b601f198416610610866103ec565b60005b8281101561063857848901518255600182019150602085019450602081019050610613565b868310156106555784890151610651601f89168261055e565b8355505b6001600288020188555050505b50505050505056fea26469706673582212200a58dcfd4861886ceb6e29adadd0f7ca063f4b06a3b496d42ed1b0dec9fc244b64736f6c63430008120033",
					"opcodes": "PUSH1 0x80 PUSH1 0x40 MSTORE CALLVALUE DUP1 ISZERO PUSH2 0x10 JUMPI PUSH1 0x0 DUP1 REVERT JUMPDEST POP PUSH2 0x6A0 DUP1 PUSH2 0x20 PUSH1 0x0 CODECOPY PUSH1 0x0 RETURN INVALID PUSH1 0x80 PUSH1 0x40 MSTORE CALLVALUE DUP1 ISZERO PUSH2 0x10 JUMPI PUSH1 0x0 DUP1 REVERT JUMPDEST POP PUSH1 0x4 CALLDATASIZE LT PUSH2 0x36 JUMPI PUSH1 0x0 CALLDATALOAD PUSH1 0xE0 SHR DUP1 PUSH4 0x17AF41BF EQ PUSH2 0x3B JUMPI DUP1 PUSH4 0xC03EE3D3 EQ PUSH2 0x6C JUMPI JUMPDEST PUSH1 0x0 DUP1 REVERT JUMPDEST PUSH2 0x55 PUSH1 0x4 DUP1 CALLDATASIZE SUB DUP2 ADD SWAP1 PUSH2 0x50 SWAP2 SWAP1 PUSH2 0x261 JUMP JUMPDEST PUSH2 0x76 JUMP JUMPDEST PUSH1 0x40 MLOAD PUSH2 0x63 SWAP3 SWAP2 SWAP1 PUSH2 0x32D JUMP JUMPDEST PUSH1 0x40 MLOAD DUP1 SWAP2 SUB SWAP1 RETURN JUMPDEST PUSH2 0x74 PUSH2 0x122 JUMP JUMPDEST STOP JUMPDEST PUSH1 0x0 PUSH1 0x20 MSTORE DUP1 PUSH1 0x0 MSTORE PUSH1 0x40 PUSH1 0x0 KECCAK256 PUSH1 0x0 SWAP2 POP SWAP1 POP DUP1 PUSH1 0x0 ADD SLOAD SWAP1 DUP1 PUSH1 0x1 ADD DUP1 SLOAD PUSH2 0x9F SWAP1 PUSH2 0x38C JUMP JUMPDEST DUP1 PUSH1 0x1F ADD PUSH1 0x20 DUP1 SWAP2 DIV MUL PUSH1 0x20 ADD PUSH1 0x40 MLOAD SWAP1 DUP2 ADD PUSH1 0x40 MSTORE DUP1 SWAP3 SWAP2 SWAP1 DUP2 DUP2 MSTORE PUSH1 0x20 ADD DUP3 DUP1 SLOAD PUSH2 0xCB SWAP1 PUSH2 0x38C JUMP JUMPDEST DUP1 ISZERO PUSH2 0x118 JUMPI DUP1 PUSH1 0x1F LT PUSH2 0xED JUMPI PUSH2 0x100 DUP1 DUP4 SLOAD DIV MUL DUP4 MSTORE SWAP2 PUSH1 0x20 ADD SWAP2 PUSH2 0x118 JUMP JUMPDEST DUP3 ADD SWAP2 SWAP1 PUSH1 0x0 MSTORE PUSH1 0x20 PUSH1 0x0 KECCAK256 SWAP1 JUMPDEST DUP2 SLOAD DUP2 MSTORE SWAP1 PUSH1 0x1 ADD SWAP1 PUSH1 0x20 ADD DUP1 DUP4 GT PUSH2 0xFB JUMPI DUP3 SWAP1 SUB PUSH1 0x1F AND DUP3 ADD SWAP2 JUMPDEST POP POP POP POP POP SWAP1 POP DUP3 JUMP JUMPDEST PUSH1 0x40 MLOAD DUP1 PUSH1 0x40 ADD PUSH1 0x40 MSTORE DUP1 PUSH1 0x10 DUP2 MSTORE PUSH1 0x20 ADD PUSH1 0x40 MLOAD DUP1 PUSH1 0x40 ADD PUSH1 0x40 MSTORE DUP1 PUSH1 0x4 DUP2 MSTORE PUSH1 0x20 ADD PUSH32 0x6164616D00000000000000000000000000000000000000000000000000000000 DUP2 MSTORE POP DUP2 MSTORE POP PUSH1 0x0 DUP1 PUSH1 0x1 DUP2 MSTORE PUSH1 0x20 ADD SWAP1 DUP2 MSTORE PUSH1 0x20 ADD PUSH1 0x0 KECCAK256 PUSH1 0x0 DUP3 ADD MLOAD DUP2 PUSH1 0x0 ADD SSTORE PUSH1 0x20 DUP3 ADD MLOAD DUP2 PUSH1 0x1 ADD SWAP1 DUP2 PUSH2 0x19F SWAP2 SWAP1 PUSH2 0x598 JUMP JUMPDEST POP SWAP1 POP POP PUSH1 0x40 MLOAD DUP1 PUSH1 0x40 ADD PUSH1 0x40 MSTORE DUP1 PUSH1 0x17 DUP2 MSTORE PUSH1 0x20 ADD PUSH1 0x40 MLOAD DUP1 PUSH1 0x40 ADD PUSH1 0x40 MSTORE DUP1 PUSH1 0x4 DUP2 MSTORE PUSH1 0x20 ADD PUSH32 0x616C657800000000000000000000000000000000000000000000000000000000 DUP2 MSTORE POP DUP2 MSTORE POP PUSH1 0x0 DUP1 PUSH1 0x2 DUP2 MSTORE PUSH1 0x20 ADD SWAP1 DUP2 MSTORE PUSH1 0x20 ADD PUSH1 0x0 KECCAK256 PUSH1 0x0 DUP3 ADD MLOAD DUP2 PUSH1 0x0 ADD SSTORE PUSH1 0x20 DUP3 ADD MLOAD DUP2 PUSH1 0x1 ADD SWAP1 DUP2 PUSH2 0x220 SWAP2 SWAP1 PUSH2 0x598 JUMP JUMPDEST POP SWAP1 POP POP JUMP JUMPDEST PUSH1 0x0 DUP1 REVERT JUMPDEST PUSH1 0x0 DUP2 SWAP1 POP SWAP2 SWAP1 POP JUMP JUMPDEST PUSH2 0x23E DUP2 PUSH2 0x22B JUMP JUMPDEST DUP2 EQ PUSH2 0x249 JUMPI PUSH1 0x0 DUP1 REVERT JUMPDEST POP JUMP JUMPDEST PUSH1 0x0 DUP2 CALLDATALOAD SWAP1 POP PUSH2 0x25B DUP2 PUSH2 0x235 JUMP JUMPDEST SWAP3 SWAP2 POP POP JUMP JUMPDEST PUSH1 0x0 PUSH1 0x20 DUP3 DUP5 SUB SLT ISZERO PUSH2 0x277 JUMPI PUSH2 0x276 PUSH2 0x226 JUMP JUMPDEST JUMPDEST PUSH1 0x0 PUSH2 0x285 DUP5 DUP3 DUP6 ADD PUSH2 0x24C JUMP JUMPDEST SWAP2 POP POP SWAP3 SWAP2 POP POP JUMP JUMPDEST PUSH2 0x297 DUP2 PUSH2 0x22B JUMP JUMPDEST DUP3 MSTORE POP POP JUMP JUMPDEST PUSH1 0x0 DUP2 MLOAD SWAP1 POP SWAP2 SWAP1 POP JUMP JUMPDEST PUSH1 0x0 DUP3 DUP3 MSTORE PUSH1 0x20 DUP3 ADD SWAP1 POP SWAP3 SWAP2 POP POP JUMP JUMPDEST PUSH1 0x0 JUMPDEST DUP4 DUP2 LT ISZERO PUSH2 0x2D7 JUMPI DUP1 DUP3 ADD MLOAD DUP2 DUP5 ADD MSTORE PUSH1 0x20 DUP2 ADD SWAP1 POP PUSH2 0x2BC JUMP JUMPDEST PUSH1 0x0 DUP5 DUP5 ADD MSTORE POP POP POP POP JUMP JUMPDEST PUSH1 0x0 PUSH1 0x1F NOT PUSH1 0x1F DUP4 ADD AND SWAP1 POP SWAP2 SWAP1 POP JUMP JUMPDEST PUSH1 0x0 PUSH2 0x2FF DUP3 PUSH2 0x29D JUMP JUMPDEST PUSH2 0x309 DUP2 DUP6 PUSH2 0x2A8 JUMP JUMPDEST SWAP4 POP PUSH2 0x319 DUP2 DUP6 PUSH1 0x20 DUP7 ADD PUSH2 0x2B9 JUMP JUMPDEST PUSH2 0x322 DUP2 PUSH2 0x2E3 JUMP JUMPDEST DUP5 ADD SWAP2 POP POP SWAP3 SWAP2 POP POP JUMP JUMPDEST PUSH1 0x0 PUSH1 0x40 DUP3 ADD SWAP1 POP PUSH2 0x342 PUSH1 0x0 DUP4 ADD DUP6 PUSH2 0x28E JUMP JUMPDEST DUP2 DUP2 SUB PUSH1 0x20 DUP4 ADD MSTORE PUSH2 0x354 DUP2 DUP5 PUSH2 0x2F4 JUMP JUMPDEST SWAP1 POP SWAP4 SWAP3 POP POP POP JUMP JUMPDEST PUSH32 0x4E487B7100000000000000000000000000000000000000000000000000000000 PUSH1 0x0 MSTORE PUSH1 0x22 PUSH1 0x4 MSTORE PUSH1 0x24 PUSH1 0x0 REVERT JUMPDEST PUSH1 0x0 PUSH1 0x2 DUP3 DIV SWAP1 POP PUSH1 0x1 DUP3 AND DUP1 PUSH2 0x3A4 JUMPI PUSH1 0x7F DUP3 AND SWAP2 POP JUMPDEST PUSH1 0x20 DUP3 LT DUP2 SUB PUSH2 0x3B7 JUMPI PUSH2 0x3B6 PUSH2 0x35D JUMP JUMPDEST JUMPDEST POP SWAP2 SWAP1 POP JUMP JUMPDEST PUSH32 0x4E487B7100000000000000000000000000000000000000000000000000000000 PUSH1 0x0 MSTORE PUSH1 0x41 PUSH1 0x4 MSTORE PUSH1 0x24 PUSH1 0x0 REVERT JUMPDEST PUSH1 0x0 DUP2 SWAP1 POP DUP2 PUSH1 0x0 MSTORE PUSH1 0x20 PUSH1 0x0 KECCAK256 SWAP1 POP SWAP2 SWAP1 POP JUMP JUMPDEST PUSH1 0x0 PUSH1 0x20 PUSH1 0x1F DUP4 ADD DIV SWAP1 POP SWAP2 SWAP1 POP JUMP JUMPDEST PUSH1 0x0 DUP3 DUP3 SHL SWAP1 POP SWAP3 SWAP2 POP POP JUMP JUMPDEST PUSH1 0x0 PUSH1 0x8 DUP4 MUL PUSH2 0x44E PUSH32 0xFFFFFFFFFFFFFFFFFFFFFFFFFFFFFFFFFFFFFFFFFFFFFFFFFFFFFFFFFFFFFFFF DUP3 PUSH2 0x411 JUMP JUMPDEST PUSH2 0x458 DUP7 DUP4 PUSH2 0x411 JUMP JUMPDEST SWAP6 POP DUP1 NOT DUP5 AND SWAP4 POP DUP1 DUP7 AND DUP5 OR SWAP3 POP POP POP SWAP4 SWAP3 POP POP POP JUMP JUMPDEST PUSH1 0x0 DUP2 SWAP1 POP SWAP2 SWAP1 POP JUMP JUMPDEST PUSH1 0x0 PUSH2 0x495 PUSH2 0x490 PUSH2 0x48B DUP5 PUSH2 0x22B JUMP JUMPDEST PUSH2 0x470 JUMP JUMPDEST PUSH2 0x22B JUMP JUMPDEST SWAP1 POP SWAP2 SWAP1 POP JUMP JUMPDEST PUSH1 0x0 DUP2 SWAP1 POP SWAP2 SWAP1 POP JUMP JUMPDEST PUSH2 0x4AF DUP4 PUSH2 0x47A JUMP JUMPDEST PUSH2 0x4C3 PUSH2 0x4BB DUP3 PUSH2 0x49C JUMP JUMPDEST DUP5 DUP5 SLOAD PUSH2 0x41E JUMP JUMPDEST DUP3 SSTORE POP POP POP POP JUMP JUMPDEST PUSH1 0x0 SWAP1 JUMP JUMPDEST PUSH2 0x4D8 PUSH2 0x4CB JUMP JUMPDEST PUSH2 0x4E3 DUP2 DUP5 DUP5 PUSH2 0x4A6 JUMP JUMPDEST POP POP POP JUMP JUMPDEST JUMPDEST DUP2 DUP2 LT ISZERO PUSH2 0x507 JUMPI PUSH2 0x4FC PUSH1 0x0 DUP3 PUSH2 0x4D0 JUMP JUMPDEST PUSH1 0x1 DUP2 ADD SWAP1 POP PUSH2 0x4E9 JUMP JUMPDEST POP POP JUMP JUMPDEST PUSH1 0x1F DUP3 GT ISZERO PUSH2 0x54C JUMPI PUSH2 0x51D DUP2 PUSH2 0x3EC JUMP JUMPDEST PUSH2 0x526 DUP5 PUSH2 0x401 JUMP JUMPDEST DUP2 ADD PUSH1 0x20 DUP6 LT ISZERO PUSH2 0x535 JUMPI DUP2 SWAP1 POP JUMPDEST PUSH2 0x549 PUSH2 0x541 DUP6 PUSH2 0x401 JUMP JUMPDEST DUP4 ADD DUP3 PUSH2 0x4E8 JUMP JUMPDEST POP POP JUMPDEST POP POP POP JUMP JUMPDEST PUSH1 0x0 DUP3 DUP3 SHR SWAP1 POP SWAP3 SWAP2 POP POP JUMP JUMPDEST PUSH1 0x0 PUSH2 0x56F PUSH1 0x0 NOT DUP5 PUSH1 0x8 MUL PUSH2 0x551 JUMP JUMPDEST NOT DUP1 DUP4 AND SWAP2 POP POP SWAP3 SWAP2 POP POP JUMP JUMPDEST PUSH1 0x0 PUSH2 0x588 DUP4 DUP4 PUSH2 0x55E JUMP JUMPDEST SWAP2 POP DUP3 PUSH1 0x2 MUL DUP3 OR SWAP1 POP SWAP3 SWAP2 POP POP JUMP JUMPDEST PUSH2 0x5A1 DUP3 PUSH2 0x29D JUMP JUMPDEST PUSH8 0xFFFFFFFFFFFFFFFF DUP2 GT ISZERO PUSH2 0x5BA JUMPI PUSH2 0x5B9 PUSH2 0x3BD JUMP JUMPDEST JUMPDEST PUSH2 0x5C4 DUP3 SLOAD PUSH2 0x38C JUMP JUMPDEST PUSH2 0x5CF DUP3 DUP3 DUP6 PUSH2 0x50B JUMP JUMPDEST PUSH1 0x0 PUSH1 0x20 SWAP1 POP PUSH1 0x1F DUP4 GT PUSH1 0x1 DUP2 EQ PUSH2 0x602 JUMPI PUSH1 0x0 DUP5 ISZERO PUSH2 0x5F0 JUMPI DUP3 DUP8 ADD MLOAD SWAP1 POP JUMPDEST PUSH2 0x5FA DUP6 DUP3 PUSH2 0x57C JUMP JUMPDEST DUP7 SSTORE POP PUSH2 0x662 JUMP JUMPDEST PUSH1 0x1F NOT DUP5 AND PUSH2 0x610 DUP7 PUSH2 0x3EC JUMP JUMPDEST PUSH1 0x0 JUMPDEST DUP3 DUP2 LT ISZERO PUSH2 0x638 JUMPI DUP5 DUP10 ADD MLOAD DUP3 SSTORE PUSH1 0x1 DUP3 ADD SWAP2 POP PUSH1 0x20 DUP6 ADD SWAP5 POP PUSH1 0x20 DUP2 ADD SWAP1 POP PUSH2 0x613 JUMP JUMPDEST DUP7 DUP4 LT ISZERO PUSH2 0x655 JUMPI DUP5 DUP10 ADD MLOAD PUSH2 0x651 PUSH1 0x1F DUP10 AND DUP3 PUSH2 0x55E JUMP JUMPDEST DUP4 SSTORE POP JUMPDEST PUSH1 0x1 PUSH1 0x2 DUP9 MUL ADD DUP9 SSTORE POP POP POP JUMPDEST POP POP POP POP POP POP JUMP INVALID LOG2 PUSH5 0x6970667358 0x22 SLT KECCAK256 EXP PC 0xDC REVERT BASEFEE PUSH2 0x886C 0xEB PUSH15 0x29ADADD0F7CA063F4B06A3B496D42E 0xD1 0xB0 0xDE 0xC9 0xFC 0x24 0x4B PUSH5 0x736F6C6343 STOP ADDMOD SLT STOP CALLER "
				},
				"gasEstimates": {
					"creation": {
						"codeDepositCost": "339200",
						"executionCost": "374",
						"totalCost": "339574"
					},
					"external": {
						"some()": "infinite",
						"student_info(uint256)": "infinite"
					}
				},
				"methodIdentifiers": {
					"some()": "c03ee3d3",
					"student_info(uint256)": "17af41bf"
				}
			},
			"storageLayout": {
				"storage": [
					{
						"astId": 11,
						"contract": "pedri/mapping.sol:user",
						"label": "student_info",
						"offset": 0,
						"slot": "0",
						"type": "t_mapping(t_uint256,t_struct(Student)6_storage)"
					}
				],
				"types": {
					"t_mapping(t_uint256,t_struct(Student)6_storage)": {
						"encoding": "mapping",
						"key": "t_uint256",
						"label": "mapping(uint256 => struct user.Student)",
						"numberOfBytes": "32",
						"value": "t_struct(Student)6_storage"
					},
					"t_string_storage": {
						"encoding": "bytes",
						"label": "string",
						"numberOfBytes": "32"
					},
					"t_struct(Student)6_storage": {
						"encoding": "inplace",
						"label": "struct user.Student",
						"members": [
							{
								"astId": 3,
								"contract": "pedri/mapping.sol:user",
								"label": "age",
								"offset": 0,
								"slot": "0",
								"type": "t_uint256"
							},
							{
								"astId": 5,
								"contract": "pedri/mapping.sol:user",
								"label": "name",
								"offset": 0,
								"slot": "1",
								"type": "t_string_storage"
							}
						],
						"numberOfBytes": "64"
					},
					"t_uint256": {
						"encoding": "inplace",
						"label": "uint256",
						"numberOfBytes": "32"
					}
				}
			},
			"userdoc": {
				"kind": "user",
				"methods": {},
				"version": 1
			}
		}
	}
}